:100000000C94C1060C94DE060C94DE060C94DE06FD
:100010000C94DE060C94DE060C94DE060C94DE06D0
:100020000C94DE060C94DE060C942E120C947218BE
:100030000C949F290C94DE060C94DE060C94DE06CC
:100040000C94DE060C94DE060C94DE060C94DE06A0
:100050000C94DE060C9407130C94DE060C94DE065A
:100060000C94DE060C94DE060C94DE060C94DE0680
:100070000C94DE060C94DE060C94DE060C94DE0670
:100080000C94DE060C94DE060C94DE060C94DE0660
:100090000C94DE060C94DE060C94DE060C94DE0650
:1000A0000C94DE060C94DE060C94DE060001D5FFEF
:1000B000FFFF000000000001BFFFFFFF0000000085
:1000C000000115FFFFFF0000000005010980A101EC
:1000D000850319012AB700150126B700950175108F
:1000E0008100C0050C0901A101850419012AA002A3
:1000F000150126A002950175108100C005010906B1
:10010000A1018506050719E029E7150025019508D5
:10011000750181020507190029EF1500250195F0E9
:1001200075018102050819012905950575019102DE
:10013000950175039101C00660FF0961A101096283
:10014000150026FF00952075088102096315002619
:10015000FF00952075089102C005010906A101055F
:100160000719E029E7150025019508750181029519
:1001700001750881010507190029FF150026FF00F8
:100180009506750881000508190129059505750171
:100190009102950175039101C000DA0281FFD9F146
:1001A000DB20A4A62EAF00A0C000A1C800AED58061
:1001B000A81FD300408D142000C000B600AC000082
:1001C00000200046554E43004E415600534D424CD0
:1001D000004E4D4252002000475549002000536810
:1001E0006674002000416C740020004374726C003F
:1001F000200020002000FD377A585A000004E6D67F
:10020000B4460200210116000000742FE5A3E003AC
:10021000ED01385D003D8889C65436C3174FE4F8B8
:10022000192F9410BC480EF4786E8BF4474ED22AE6
:100230004D87AF6AE1E5DE9253C3E9A38D9EDE32BE
:100240006CE5E4CFF464C7076B42AA4B08451C4A2F
:10025000910B27BC56D1C9BDC7E25E3E9BAA28E0E0
:10026000848EA8C5A57924708DC7F013B81AD81A42
:100270003A5B353B6BD1D9A5A5B7FD4ED460ABBF7A
:1002800074ED6589B3B41A5AB64BF3AA0C07EADECB
:10029000DF2B8762368A3AECB5AE4D89741E7F96A5
:1002A0008DB5079AC9A7B87AFB0976979EBB28FA3D
:1002B000C034D96D49210F6415F75AF702437CEC1D
:1002C000C50AD20A6C23C1E734644A4456123492F8
:1002D0008C8234C428AE988B5A03CAB1B64E493FBB
:1002E000CF82BE1E247B806667074239317A6C4517
:1002F000F6B3E5EB654E022EB68C2E550095F09EBA
:100300009F9BD099329B212C6BA5C062F4B4A402B0
:1003100058D6952F18025D11B37EAAA8E3F029CF15
:10032000980049EFAB5706E33B5DD68A2813038D4F
:100330001D8328FE685D947D6F99378C31575F551A
:10034000AE882ACA6481F5AB9D705212E800B61DD2
:100350004E2C22C406440001D402EE0700000AF924
:10036000D503B1C467FB020000000004595A000124
:100370000101010101010101020202020202020265
:100380000203030303030303030404040404040437
:1003900005050505050606060606070707070708FB
:1003A000080808090909090A0A0A0B0B0B0C0C0CAE
:1003B0000D0D0D0E0E0E0F0F0F1010111111121248
:1003C00013131414151516161717181819191A1AC5
:1003D0001B1B1C1D1D1E1E1F202021222223242426
:1003E000252626272829292A2B2C2D2D2E2F303162
:1003F0003232333435363738393A3B3C3D3E3F4074
:100400004142434445464748494A4C4D4E4F50515E
:100410005354555658595A5B5D5E5F616264656618
:1004200068696B6C6D6F7072737577787A7B7D7E9F
:100430008082838587888A8C8E8F91939596989AEF
:100440009C9EA0A2A3A5A7A9ABADAFB1B3B5B7BA07
:10045000BCBEC0C2C4C6C9CBCDCFD1D4D6D8DBDDDB
:10046000DFE2E4E7E9EBEEF0F3F5F8FAFDFF140064
:100470001A00080015001700046816640761096275
:100480000A001D001B000600190005002E002D00AB
:1004900029452B432C44340035004C742A4228450E
:1004A0003800370036001000110033780F640E71E9
:1004B0000D720B00130012000C0018001C00140039
:1004C0001A000800150017000400160007000900B4
:1004D0000A001D001B000600190005002E642D6295
:1004E00029612B432C44346801534C742A4228451B
:1004F0003800370036001000110033000F000E00E6
:100500000D000B00130012000C0018001C0000006E
:100510000000000000000000E300E200E000E10055
:1005200000000000000000000000000000000000CB
:100530000000000000004900000000000100000071
:10054000000065004D004A0051044F005200510068
:100550005000520400004B004E000000000031002B
:100560002400250026002700360021002200230059
:100570002F0037001E001F0020003000E000280080
:100580002A000100015300000000000000000000EC
:1005900000000000000000000000E700E200E400AE
:1005A000E500000000000000000000000000310233
:1005B00024022502260227023602210222022302F9
:1005C0002F0237021E021F0220023002E000280024
:1005D00000002A00010000000000000000000000F0
:1005E00000000000000000000000E700E200E4005E
:1005F000E5000000000000000000000000004500D1
:10060000400041004200460044003D003E003F00E3
:10061000480043003A003B003C003900E0004C0039
:100620000100AB00AE00000000000000000001006F
:1006300000000000000000000000E700E200E4000D
:10064000E5000000000000000000000000000100C4
:100650000100BD0327115A11000002000200B90376
:1006600027115A11000003000100BE0327115A117F
:10067000000004000200A30327115A118B09050092
:100680000100BF0327115A11000006000200A50354
:1006900027115A11000007000200BB0327115A114D
:1006A000000008000100C00327115A1100001200C9
:1006B0000200C10327115A11000013000200C303F6
:1006C00027115A11000014000100C50327115A1107
:1006D00000001500000000001109CD19000000AF56
:1006E00000AE09025B00030100A0FA09040000014A
:1006F00003010100092111010001224000070581C9
:10070000030800010904010002030000000921118F
:1007100001000122220007058203200001070503D2
:100720000320000109040200010300000009211157
:10073000010001226D000705840320000112010061
:100740000200000008EDFE41080001010203011C47
:10075000037600690061006C003A006600360034E0
:10076000006300320062003300630000000E03707B
:10077000006900630061003400300000000E037A5D
:10078000007A0065006E0065006700000004030940
:100790000400000000000000000000000000000055
:1007A0000000000000000000000000000000000049
:1007B00000000000007E0F00D4FFFFFFC700000014
:1007C0007800000000000000002A2B280000000034
:1007D00000000000000000000000000029000000F0
:1007E000002C1E3420212224342627252E362D3796
:1007F00038271E1F202122232425263333362E3767
:10080000381F0405060708090A0B0C0D0E0F1011FE
:1008100012131415161718191A1B1C1D2F3130230B
:100820002D350405060708090A0B0C0D0E0F1011D3
:1008300012131415161718191A1B1C1D2F313035D9
:100840004C07087F0807003E5B4F5B3E003E6B4F46
:100850006B3E001C3E7C3E1C00183C7E3C18001C7D
:10086000577D571C001C5E7F5E1C0000183C180062
:1008700000FFE7C3E7FF00001824180000FFE7DBD4
:10088000E7FF0030483A060E002629792926004065
:100890007F05050700407F05253F005A3CE73C5A8D
:1008A000007F3E1C1C0800081C1C3E7F0014227F99
:1008B0002214005F5F005F5F0006097F017F000078
:1008C0006689956A0060606060600094A2FFA294EF
:1008D0000008047E04080010207E20100008082A6A
:1008E0001C0800081C2A0808001E10101010000C1C
:1008F0001E0C1E0C0030383E383000060E3E0E0630
:100900000000000000000000005F00000000070081
:10091000070000147F147F1400242A7F2A1200236A
:10092000130864620036495620500000080703008F
:1009300000001C224100000041221C00002A1C7FF4
:100940001C2A0008083E08080000807030000008DB
:100950000808080800000060600000201008040279
:10096000003E5149453E0000427F40000072494927
:100970004946002141494D33001814127F100027C9
:1009800045454539003C4A49493100412111090793
:1009900000364949493600464949291E00000014DD
:1009A0000000000040340000000008142241001440
:1009B00014141414000041221408000201590906FD
:1009C000003E415D594E007C1211127C007F494966
:1009D0004936003E41414122007F4141413E007F76
:1009E00049494941007F09090901003E41415173CC
:1009F000007F0808087F0000417F4100002040413F
:100A00003F01007F08142241007F40404040007FAA
:100A1000021C027F007F0408107F003E4141413EDE
:100A2000007F09090906003E4151215E007F091936
:100A300029460026494949320003017F0103003F4E
:100A40004040403F001F2040201F003F4038403FB3
:100A50000063140814630003047804030061594917
:100A60004D4300007F414141000204081020000076
:100A70004141417F000402010204004040404040E7
:100A8000000003070800002054547840007F2844E9
:100A9000443800384444442800384444287F00380F
:100AA000545454180000087E09020018A4A49C782D
:100AB000007F080404780000447D4000002040408E
:100AC0003D00007F102844000000417F4000007C72
:100AD00004780478007C08040478003844444438DE
:100AE00000FC182424180018242418FC007C080496
:100AF00004080048545454240004043F4424003C97
:100B00004040207C001C2040201C003C4030403CE9
:100B1000004428102844004C9090907C0044645479
:100B20004C4400000836410000000077000000003F
:100B300041360800000201020402003C2623263C44
:100B400000000000000000404040F0F8F8FF38FFCF
:100B5000F8F83FF8F8FF38FFF8F8F04040400000A0
:100B60000000000080C0C0C0800000C0C080000045
:100B70000080C0C000C0C0000080C0C000000000F5
:100B800000C0C0C0C0C000C0C00000000000000025
:100B90000000000000000000000000000000000055
:100BA0000000000000000000000000000000000045
:100BB0000000000000000000000000000000000035
:100BC000C0F0F8FC3E1E06010000007F4141417F5D
:100BD000007F4141417F000080C0E07E5B4F5BFEB3
:100BE000C00000C000DCD7DEDEDED7DC00C00000C5
:100BF00000000000000000000000000000000000F5
:100C000000000000000000494949FFFFFFFFE0DF4E
:100C1000BFBF00BFBFDFE0FFFFFFFF494949000042
:100C20000000001F3F6060E0BF1F007F7F071E388D
:100C30001E077F7F007F7F0E1F3B7160000000005A
:100C4000007F7F0C0C0C007E7E007F7E0303007F04
:100C50007E03037E7E03037F7E000F3E703C063CD6
:100C6000703E0F00327B49493F7E007F7E030300C8
:100C70001E3F69696F2600000000000000000000B0
:100C8000030F1F3F3C7870600000007F4141417FAF
:100C9000007F4141417F00307B7F783020203078D9
:100CA0007F3B0003000F7F0F0F0F7F0F000300003B
:100CB0000000000000000000000000000000000034
:100CC00000000000000000010101070F0F7F0F7FEF
:100CD0000F0F7E0F0F7F0F7F0F0F07010101000025
:100CE0000000000000000000010100000000000002
:100CF00000000000000000000000000000000000F4
:100D000000000000000000000000000000000000E3
:100D100000000000000000000000000000000000D3
:100D200000000000000000000000000000000000C3
:100D300000000000000000000000000000000000B3
:100D400000000000000000000000000000000000A3
:100D50000000000000000000000000000000000093
:100D60000000000000000000000000000000000083
:100D70000000000000000000000000000000000073
:100D8000000011241FBECFEFDAE0DEBFCDBF11E0BF
:100D9000A0E0B1E0EAEDF9E602C005900D92A638B8
:100DA000B107D9F726E0A6E8B1E001C01D92AD3148
:100DB000B207E1F70E94C6290C94C7340C940000D6
:100DC000E8EDF0E080818E7F80831092E200109247
:100DD000DA001092E100A0EEB0E08C9181608C937B
:100DE00080818F77808319BCA7EDB0E08C918E7FD6
:100DF0008C9380818F7E80831092E10308952091EF
:100E0000E4003091E50095E6A9012091EC00822FE5
:100E1000817020FF06C08091E80080FF06C080E05E
:100E200008952091E80022FD1AC080910F048823C4
:100E300089F0853089F08091EB0085FD0FC020910D
:100E4000E4003091E50042175307F9F29150E1F6C2
:100E500084E0089582E0089583E0089581E0089594
:100E6000EF92FF920F931F93CF937C018B010E940F
:100E7000FF06C82F811117C08091E80085FD0BC0C7
:100E80008091E8008E778093E8000E94FF06882317
:100E900099F3C82F08C0F70181917F018093F10079
:100EA0000150110949F78C2FCF911F910F91FF909D
:100EB000EF900895CF93FC0180910F04843001F5E9
:100EC000C091E900CF702091EC00922F917020FD2D
:100ED00090E8C92B82E08093E9008091E80080FFD0
:100EE0000CC050E040E060E270E0CF010E943007AB
:100EF0008091E8008E778093E800CF70C093E9007E
:100F0000CF9108958091070487FF13C08091E80076
:100F100082FF06C08091E8008B778093E80004C0D0
:100F200080910F048111F2CF089580910F048823DE
:100F3000D9F38091E80080FFF8CF8091E8008E77A8
:100F4000ECCF982F9093E900242F762F50E089174B
:100F500031F07091EC002091ED005091F00021FDF6
:100F600007C09F5F973071F78093E90081E0089593
:100F70003091EB003E7F3093EB003091ED003D7FF0
:100F80003093ED003091EB0031603093EB007093C3
:100F9000EC002093ED005093F0002091EE0027FD2F
:100FA000E0CF80E00895B0E0A0E0E9EDF7E00C9438
:100FB000E733C8EDD0E088818F7E8883E7EDF0E0ED
:100FC00080818160808384E082BF81E08093E1033F
:100FD00088818E7F888302EE10E0F80110821092E3
:100FE000DA0081EEC82ED12CF601108288818F772D
:100FF000888388818068888388818F7D888319BCF5
:1010000010920F041092060410920504109204042A
:1010100090EEE92EF12CF70180818B7F808388810F
:101020008160888342E060E080E00E94A107F601D1
:1010300080818E7F8083F8018081816080838081C0
:1010400088608083F70180818E7F808388818061C2
:101050008883CDB7DEB7E8E00C940334FC018091BF
:101060000D0490910E0486179707A0F06115710585
:1010700029F49091E8009E779093E80090E0611544
:10108000710551F4911108C08091E80082FF34C0CD
:1010900080E00895BC01F2CF80910F048823C1F154
:1010A0008530C1F18091E80083FD30C08091E80077
:1010B00082FDEACF8091E80080FFE1CF8091F300CC
:1010C0002091F200382F6115710519F02830310593
:1010D00058F091E02830310509F090E02091E800C7
:1010E0002E772093E800CBCF81918093F10061505F
:1010F00071092F5F3F4FE7CF80910F04882341F0A4
:10110000853041F08091E80083FFBECF81E00895F3
:1011100082E0089583E00895089508958091E3039F
:10112000089587E797E7909301088093000888E186
:101130009AE00FB6F894A895809360000FBE909344
:101140006000FFCF2FB7F8946091D8037091D90356
:101150008091DA039091DB032FBF0895209116014F
:101160002223C9F02091DC0327FF15C0E62FE69566
:10117000E695E695EE31D8F4E80FF92FF11D67708A
:1011800021E030E001C0220F6A95EAF720958281C4
:10119000282322830895FC01329608962191621338
:1011A00003C0DF0111971C92E817F907B9F70895FA
:1011B0002091D5033091D6032817390771F0909309
:1011C000D6038093D503E091D303F091D4033097F5
:1011D00021F00084F185E02D099508952091D10337
:1011E0003091D2032817390771F09093D20380937E
:1011F000D103E091D303F091D403309721F006801E
:10120000F781E02D09950895E091D303F091D4037F
:10121000309729F00190F081E02D0995089580E044
:101220000895B0E0A0E0E7E1F9E00C94E5338FEF3A
:101230009FEF4430510508F469C04091DC0341FB45
:10124000882780F990E0880F991F42FB002700F95A
:1012500010E0000F111F000F111F802B912B40FB7E
:10126000CC24C0F8D12C8C299D2943FB222720F9BE
:10127000C22FE0E0DE2F53E0CC0FDD1F5A95E1F7DF
:101280008C2B9D2B44FBAA27A0F9B0E0E4E0AA0F29
:10129000BB1FEA95E1F78A2B9B2B45FBEE27E0F974
:1012A000F0E0A5E0EE0FFF1FAA95E1F78E2B9F2B34
:1012B00046FB222720F930E0B6E0220F331FBA9513
:1012C000E1F7822B932B47FB222720F930E036955C
:1012D000322F222737952795822B932B2091DD03E0
:1012E000322F3170F32EE82EF92A26952170B22E76
:1012F000BB0CA82EBF28C501BB0CAA0BBB0BFB0166
:1013000080839183A283B38390E080E0CDB7DEB782
:10131000EAE00C9401348091A3039091A40390938C
:101320001401809313010895E7E9F2E090E080E072
:101330006DE77EE144EA5EE122EF3DE1778366837B
:1013400051874087338722879587848701963E9609
:101350008031910599F7089580917802982F9E7FAA
:1013600039F48091780281708260809378020895C8
:101370008430B8F70895AF92BF92DF92EF92FF9258
:101380000F931F93CF93DF93082F162FE901E42FBC
:10139000F0E0E259FC4F611110C0E4915E2F4E2F36
:1013A0004983E8835A83DF91CF911F910F91FF907A
:1013B000EF90DF90BF90AF900895E62EF12C44910E
:1013C000D42EE42FF0E026E0829FC00111242FEFFD
:1013D00030E0B9010E94C933802F90E0880F991F37
:1013E00055E5569FD001579FB00D11248A1B9B0BCA
:1013F000982F990F890F5901AE18BF08AE9ED001E2
:10140000AF9EB00DBE9EB00D11245B2F189F8001C2
:101410001124012F11275901A01AB10AAE9E800193
:10142000AF9E100DBE9E100D11245901A81AB108CF
:10143000AE9CC001AF9C900DBE9C900D1124892FD5
:101440009927281B390B2E9FC0012F9F900D3E9F7F
:10145000900D1124E92F62307105A1F050F461154F
:10146000710509F49DCF6130710581F0EB2F512F8B
:1014700097CF6430710569F080F06630710509F42A
:101480008FCFF4CFE42F4B2F592F8ACFE42F412F4A
:1014900087CFEB2F542F492F83CF4B2F5D2DE12F7B
:1014A0007FCF80E00895F894E82FE295EF70F0E0A8
:1014B00031A1282F2F7081E090E001C0880F2A957C
:1014C000EAF7982F9095932391A392A1892B82A359
:1014D000789408959091DC0392FF06C0282F28711C
:1014E0002830F9F4877F846093FF06C0282F287185
:1014F0002831F1F4877E84612091DD0320FF06C04E
:10150000382F38713830D9F4877F816021FF06C0C9
:10151000282F28712831D1F4877E816194FD877E40
:101520000895282F24712430F9F68B7F8860DCCF52
:10153000282F2471243101F78B7E8861DDCF382F6D
:101540003171313019F78E7F8860E0CF282F2171FB
:10155000213121F78E7E8861E1CFCF93DF93EC01BB
:1015600082389105B1F108F040C08133910509F44A
:101570009DC048F58932910509F48DC08A9709F418
:101580009CC0C11522E5D20708F0BDC0C11531E5E8
:10159000D30708F025C1C83ED10508F0A3C0C13E5D
:1015A000D10588F5C83AD10508F08EC0C53AD105F5
:1015B00008F0F6C0C130D10531F1209721F1C430D7
:1015C000D10508F545C08533910509F45FC0C99779
:1015D000C1F68091DC03837009F037C18091DD038F
:1015E00083FF11C0C9E2D0E00EC0833E910599F19E
:1015F00070F4803E910501F1823E910511F68091D3
:10160000DC0382FD21C0CE01DF91CF910895863E9B
:10161000910561F1873E910571F1843E910509F0D4
:10162000B0CF8091DD0381FFEECF8091DC03C7EE68
:10163000D0E084FD0DC0E7CF8091DC0380FD33C096
:101640009091DD0390FFDFCFC3EED0E084FFDBCFCE
:10165000D0E0C0E0D8CF8091DC0382FDF3C0909150
:10166000DD0390FDF2C084FFCECFF2CF8091DC038A
:1016700083FDDDCFC8CF8091DC0383FDE9C090916D
:10168000DD0391FFF0CFC4EED0E0BDCF8091DC034D
:1016900085FFB9CFA7CF8091DC0385FDDCC08091A9
:1016A000DD0383FFB0CFC9E3D0E0ADCF8091DC0391
:1016B00086FFA9CFCAE2D0E0A6CF8091DC0386FFE7
:1016C000A2CFC1E3D0E09FCFCF3BD10508F6C85AE7
:1016D000D0E0CC0FDD1FCE5DDE4F0990D881C02D4C
:1016E000D46491CFC11540E5D40708F064C0C1159A
:1016F00080E4D80708F05CC0CE019A9581159F411F
:1017000008F481CFA5CFC11536E5D30718F5C1156B
:1017100045E5D40708F07DC0C11584E5D80708F079
:1017200073C09C2F969596959E0123703327C11503
:10173000D34508F45AC0C1E0D0E002C0CC0FDD1F91
:101740002A95E2F730E2939FC0011124C82BD92BD0
:10175000DA6859CFC1158AE5D80778F4C11529E5AB
:10176000D20708F061C0C11538E5D30708F470CF7F
:10177000DC2FCC27C06FD06A46CFCE0190568115A2
:10178000904208F065CF8D2F8F710E946A0A90E019
:10179000982F882788279F719C012C2BE90142C034
:1017A000C55AD0E0C15EDE4FC881D0E0D0642BCFF7
:1017B000DF70D06A28CF2C2F26952695237080E2E3
:1017C000289F900111248C2F8370C1E0D0E002C0CB
:1017D000CC0FDD1F8A95E2F7C22BD32BDD6813CF28
:1017E000DC2FCC27C16FD06A0ECFC1E0D0E002C0A1
:1017F000CC0FDD1F2A95E2F720E2929FC001112451
:10180000C82BD92BDC68FFCEDC2FCC27C46FD06A65
:10181000FACE8C2F0E946A0AC82FD0E0DC2FCC278A
:10182000CC27DF71D062EFCE8C2F8F700E946A0AB6
:1018300034E0D695C7953A95E1F7CF709C2FEC012F
:10184000D069E1CEC2EED0E0DECEC0EED0E0DBCE9D
:10185000C6EED0E0D8CEC5E3D0E0D5CE8091170259
:10186000882331F01092170210921602109215027E
:1018700008958095909110049823909310040895F2
:1018800080959091CB0398239093CB0308959091EA
:10189000CB03892B8093CB0308951092F40110920F
:1018A000F3011092F20108952091F1019091C0018D
:1018B00056E0291302C080E0089530E0529FF00105
:1018C000539FF00D1124EF53FE4F7181761306C024
:1018D0007081781303C07281741304C02F5F3F4F6F
:1018E0002770E7CF81E00895452B39F0682381E028
:1018F0006F3F09F080E08170089581E0FCCF809116
:10190000F1019091C001981301C008958F5F877015
:10191000FACF292F983078F5853068F590E035E0DA
:10192000239F800D911D1124682F677023E09695E9
:1019300087952A95E1F7FC01EE0FFF1FE80FF91FCD
:10194000E555FE4F50E040E080E0219130E0062E6A
:1019500002C0369527950A94E2F721703327042EAA
:1019600001C0220F0A94EAF7822B4F5F5F4F43308A
:10197000510559F7089580E00895292F983098F57A
:10198000853088F590E035E0239F800D911D11246E
:10199000282F277041E001C0440F2A95EAF723E081
:1019A000969587952A95E1F7FC01EE0FFF1FE80F4A
:1019B000F91FE555FE4F30E020E070E05191DF0166
:1019C0001197CB01022E02C0969587950A94E2F7F3
:1019D000817081958527842385278C932F5F3F4FC6
:1019E0002330310559F7089592959F70963091F004
:1019F00058F4925F9F70923058F4803F19F030F4A1
:101A0000883E30F481E008959A5FF4CF843FD1F3AB
:101A100080E00895883EB0F3813FD1F7F3CF982F4F
:101A200092959F7011F0892F94E0282F2695269586
:101A300011F09E5F822F869509F09F5F892F089590
:101A40009C013A9521153F4150F5FC01EE27F170BC
:101A5000BC0166277270AC01442754709C01222798
:101A6000387094FF0EC080E1EF2B09F480E0672B03
:101A700009F08062452B09F08064232B89F080688F
:101A8000089581E0EF2B09F480E0672B09F0826074
:101A9000452B09F08460232B19F08860089580E0BD
:101AA0000895CF93DF93682F81E06A3019F06D308D
:101AB00031F480E00E94D10DDF91CF9108958091A3
:101AC0001B0690911C0626E0FC01A5E1B6E0019002
:101AD0000D922A95E1F7603E08F458C026E0FC011B
:101AE00011922A95E9F7C0911B06D0911C0646E099
:101AF00050E0BE0185E196E00E944A349E012551E6
:101B00003440892B41F1C90145E0969587954A9566
:101B1000E1F741E050E0BA0102C0660F771F8A95F5
:101B2000E2F7CB016091130470911404862B972B7C
:101B3000B9016B5F7F4FE5E076956795EA95E1F730
:101B400002C0440F551F6A95E2F7842B952B9093A2
:101B50001404809313042A5F3F4F40911204642FB2
:101B600070E0C9010E94C933481B463010F4240FAD
:101B7000311D211572E0370710F030E020E02B5EB8
:101B80003B4F30931C0620931B0696CFF6E06F9FC9
:101B9000B00111246F5B774F46E050E00E94413462
:101BA000A2CFCF93382FE0911B06F0911C06E55190
:101BB000F44020911204622F70E0CF010E94C933DB
:101BC000281B822F332361F066E00E941434C82F53
:101BD000C15010F4CF91089580E20E94510DF8CFCA
:101BE0009F01280F311D2115324018F080E0F0E0F0
:101BF000E0E08E0F9F2F911D8B5E9B4F90931C06F4
:101C000080931B06E7CFCF93DF93EC01FE01849115
:101C1000811106C081E00E94D10DDF91CF9108951E
:101C20000E94510D2196F2CF8093DE037093E00362
:101C30006093DF0380910F048430F9F48093E9000E
:101C40008FEF9091E800815095FD06C095ED9A9533
:101C5000F1F700008111F5CF8091E80085FF0DC0FC
:101C600050E040E063E070E08EED93E00E943007CA
:101C70008091E8008E778093E8000895BC0184E0AD
:101C80000E94140E0895BC0183E00E94140E089572
:101C9000CF93DF93EC01809116018823B1F18091FD
:101CA000DC0387FF32C060E284E08093E9008FEFBD
:101CB0009091E800815095FD06C095ED9A95F1F759
:101CC00000008111F5CF8091E80085FF1BC0809155
:101CD000160170E050E040E0811104C050E040E0A7
:101CE00068E070E0CE010E9430078091E8008E77B6
:101CF0008093E80080E2FE01A4EEB3E001900D9233
:101D00008A95E1F7DF91CF91089568E081E0CDCF2A
:101D1000019708F40895EFE9FFE03197F1F700C06B
:101D20000000F6CFA5E0B0E0E8E9FEE00C94E03377
:101D30008091780280FF89C0809073029090740235
:101D40008114910409F457C080FF55C0D12CC12CD7
:101D500066246394712C53E0552E80917202930196
:101D60000C2C01C0220F0A94EAF7822309F43BC02D
:101D7000F601EE0FFF1FE80DF91DE590F490E11458
:101D8000F104C9F145E050E0B701CE0101960E948F
:101D9000413409810F3F39F18A81800F9927991FBA
:101DA0001816190614F481E090E05C01AA0CBB1C23
:101DB0008A0D9B1D9C012B583D4F5901059D8001AB
:101DC00011240B581D4F0A151B0520F035E0E30EBA
:101DD000F11CD8CF98014D816C818B810E94BB0989
:101DE0000D5F1F4FF0CF5FEFC51AD50A83E0C8160D
:101DF000D10409F0B2CF539A3BB1377F2BB12860A1
:101E00004FB7F89485E792E0FC015191CF0168E06B
:101E10002BB9000000C057FF3BB9550F000000C0B0
:101E200000C000C03BB900C06A9591F7F2E0883766
:101E30009F0751F74FBF8FE594E00197F1F700C07E
:101E400000002596EFE00C94FC331092760210927D
:101E500075021092770270CFA3E0B0E0E2E3FFE0FA
:101E60000C94EA33182F062FF42E8091780280FF0D
:101E70001BC0E82FE695F0E0EB58FE4F9081909361
:101E800070028E7F823051F49E012F5F3F4F812F71
:101E90000E94BB098091780280FD0AC010937902EC
:101EA00000937A02F0927B022396E5E00C940634CC
:101EB0008B8199812A812093760290937502809379
:101EC00077020E94920EEACF8091780280FF0CC0C8
:101ED000817082608093780240917B0260917A02E7
:101EE000809179020E942C0F089521E030E0A90131
:101EF00002C0440F551F8A95E2F7CA012091720271
:101F0000662369F0822B80937202809171028111A5
:101F100005C08091780286950E94640F089580958F
:101F20008223F1CF81FB662760F981E00E94750F63
:101F30000895E8E7F2E080818160808386950E94C1
:101F4000640F0895B0E0A0E0E8EAFFE00C94E73306
:101F50006C017B0164E670E088E70E94E332EC01EB
:101F600097FD12C010E000E0F601E00FF11F849130
:101F700064E670E00E944F33EC01892B29F40F5F77
:101F80001F4F0E151F0581F70E94C533CE01CDB737
:101F9000DEB7E8E00C9403348091810390918203D2
:101FA000911103C091E089270895882369F062E0C8
:101FB00070E080EE96E00E94A20F892B19F08091CC
:101FC000810308951092810380918103EBCFCF9319
:101FD000C0918103809182038823D1F00E94A208DE
:101FE000605A75418F4F9F4F60937D0370937E03BE
:101FF00080937F0390938003C11108C062E070E07A
:102000008EED96E00E94A20F892B29F0C0918103EA
:102010008C2FCF91089581E080938103F7CF0F93A8
:102020001F93CF93DF9303EA13E0C7ECD2E0CE0116
:102030000E947734F80181938F012196CB3EF2E024
:10204000DF07A9F7C8E5D6E0FE01859194910097D6
:1020500011F0FC0109952C96F6E0C83EDF07A1F7C8
:10206000DF91CF911F910F9108950F931F93CF93FD
:10207000DF93883030F5683020F5453010F5C42FF7
:10208000D0E0CC0FDD1F2AE0629FC00DD11D1124CE
:1020900030E5839FC00DD11D1124CE0187960E948B
:1020A0007734082F10E0102F0027CE0188960E9469
:1020B00077349801282BC901DF91CF911F910F919F
:1020C000089590E080E0F8CF462F20917B03309177
:1020D0007C03232B99F4703F39F4603F79F48091AD
:1020E000790390917A030895883040F4783030F481
:1020F000653020F4672F0E943510089590E080E04D
:102100000895CF92DF92FF920F931F93CF93DF93A7
:102110006C010091110480911802082BC7E0D0E0F7
:1021200010E0FC2EC8010C2E02C0959587950A94EC
:10213000E2F780FD0CC02197A0F7F12C8F2DDF91E5
:10214000CF911F910F91FF90DF90CF900895B6012E
:102150008C2F0E9464100E94AD0A019761F3EECFAC
:10216000CF93DF93EC010E948110BE010E946410A6
:102170000E94AD0ADF91CF910895CF93DF93EC01D8
:102180004B815C81698188810E94740C811109C036
:10219000888199810E94B0100E94F40CDF91CF9148
:1021A000089580E0FBCFA5E0B0E0E9EDF0E10C940C
:1021B000EC3349835A8389819A81662399F02223DB
:1021C00089F00E948110182F682F89819A810E94BE
:1021D000BD0C69817A81812F0E9464102596E3E00D
:1021E0000C9408340E94890C182FF3CFFC01262F81
:1021F000408151816281738184810E94D31008954E
:1022000083E290E00E947734813E89F484E290E09A
:102210000E947734883559F485E290E00E94773443
:1022200091E0823A09F090E0892F8170089580E072
:10223000FCCFCF9384E090E00E947734C82F82E2F5
:1022400090E00E947734982F8C2FCF910895DB0176
:10225000FC013296259134914217530758F0FC0146
:10226000349665917491A901CD010E94573490E094
:1022700080E008958FEF9FEF08950F931F93CF9302
:10228000DF9303EA13E0C7ECD2E0CE010E9477347B
:10229000F80161918F01681719F0CE010E948B340B
:1022A0002196CB3EF2E0DF0781F7DF91CF911F91BE
:1022B0000F910895DA019C012E5F3F4FF90145917E
:1022C0005491F90125913491A217B30758F0FC01FC
:1022D0003496859194910E9457340E943D1190E06C
:1022E00080E008958FEF9FEF0895CF93DF93CBE8C1
:1022F000D3E060E0CE010E948B342196C11584E0CA
:10230000D807B9F7DF91CF9108951F93CF93DF934B
:10231000122F8830E0F46830D0F44530C0F4C42F78
:10232000D0E0CC0FDD1F9AE0699FC00DD11D1124B4
:1023300090E5899FC00DD11D1124632FCE01879692
:102340000E948B34612FCE0188960E948B34DF91DE
:10235000CF911F910895CF93C82F6FEF811161EE38
:1023600083E290E00E948B346FEFC11168E584E254
:1023700090E00E948B346FEFC11162EA85E290E039
:102380000E948B34CF910895CF93C92F682F84E09A
:1023900090E00E948B346C2F82E290E00E948B349C
:1023A000CF9108959B01803170F49AE0899FB0012C
:1023B000112465517D4F4AE050E0C9010E94673405
:1023C00090E080E008958FEF9FEF0895AAE0B0E0DD
:1023D000ECEEF1E10C94ED339C0137552F3F3105C4
:1023E00009F068F4BE016F5F7F4F0E94D211892B04
:1023F00031F489859A852A96E2E00C94093480911B
:10240000BB039091BC03F7CFCF92DF92EF92FF9284
:10241000E8E7F2E083E0808311828FEF8283838399
:102420001482C080D180E280F3800E94AC09B701A1
:10243000A60188E090E00E949D34FF90EF90DF902D
:10244000CF90089590E080E00E948534883E9E4FB2
:1024500019F40E940011089580E008951F920F92D0
:102460000FB60F9211242F933F934F935F936F9367
:102470007F938F939F93AF93BF93EF93FF9380913D
:10248000E10082FF09C08091E20082FF05C08091D7
:10249000E1008B7F8093E1008091DA0080FF24C00F
:1024A0008091D80080FF20C08091DA008E7F8093D9
:1024B000DA008091D90080FF9DC080E189BD82E172
:1024C00089BD09B400FEFDCF81E080930F048091A7
:1024D000E103811109C00E94E0060E94D3078091A8
:1024E000E20084608093E2008091E10080FF17C0E9
:1024F0008091E20080FF13C08091E2008E7F809384
:10250000E2008091E20080618093E2008091D80037
:1025100080628093D80019BC85E080930F0480917D
:10252000E10084FF2BC08091E20084FF27C080E19E
:1025300089BD82E189BD89B5982F917080FFFBCF5D
:102540008091D8008F7D8093D8008091E1008F7EAC
:102550008093E1008091E2008F7E8093E200809181
:10256000E20081608093E20080910604882309F4F0
:1025700047C084E080930F0480910F048091E100B4
:1025800083FF27C08091E20083FF23C08091E10098
:10259000877F8093E10082E080930F04109206040D
:1025A0008091E1008E7F8093E1008091E2008E7F38
:1025B0008093E2008091E20080618093E20042E03B
:1025C00060E080E00E94A1078091F0008860809325
:1025D000F000FF91EF91BF91AF919F918F917F910B
:1025E0006F915F914F913F912F910F900FBE0F9080
:1025F0001F90189519BC10920F041092E10374CF2C
:102600008091E30087FD93E090930F04B5CF789419
:102610001F921FB61F9211248F939F93AF93BF9366
:102620008091D8039091D903A091DA03B091DB0394
:102630000196A11DB11D8093D8039093D903A09357
:10264000DA03B093DB03BF91AF919F918F911F90FD
:102650001FBE1F9018959C014FB7F8948091D80326
:102660009091D903A091DA03B091DB034FBF821B95
:10267000930B08952FB7F8948091D8039091D903C4
:10268000A091DA03B091DB032FBF08958091CE03B0
:10269000811113C01092CB030E942E0C0E943A139A
:1026A00088579C4E9093CD038093CC0381E0809318
:1026B000CE0361E082E00E94750F0895A8E0B0E0CB
:1026C000E4E6F3E10C94E4338E010F5F1F4F88E0E2
:1026D000F80111928A95E9F780E5C82E81E0D82E9D
:1026E000F12CE12CAA24A394B12CF60181916F0165
:1026F0008F3F09F443C0F894E82FE295EF70F0E0C3
:1027000021A18F70A50102C0440F551F8A95E2F7E1
:10271000CA01922F982B91A392A18095892382A31D
:10272000789400C0E8E5F1E0912C31E021912F3F51
:1027300009F465C0A22FA295AF70B0E090968C917D
:1027400090E02F7002C0959587952A95E2F780FD5D
:1027500056C0832F982A330F51E0ED35F50731F736
:10276000F601319780818F3F11F00E94530A80EA71
:102770008A95F1F7F801EE0DFF1D9082EFEFEE1A4A
:10278000FE0AF8E0EF16F10409F0AFCF48E050E0A0
:10279000B8018CE192E00E944A34892B91F188E0E3
:1027A000F801ACE1B2E001900D928A95E1F781E089
:1027B00080931B020E943A1390931A02809319028D
:1027C0008091190290911A020E942B130597E8F04C
:1027D00048E050E06CE172E083E692E00E944A3407
:1027E000892BC1F088E0ECE1F2E0A3E6B2E00190D1
:1027F0000D928A95E1F781E010921B0207C080E0FC
:10280000A9CF80911B028111DBCF80E02896EBE0FD
:102810000C94003480E0F0CFCF93C82F8091DD037B
:1028200082FF0CC0809117028C1741F00E943A136E
:102830009093160280931502C0931702CF910895CA
:102840008091A5039091A603892B89F00E943A13E9
:102850002091150230911602AC01421B530B81E00E
:102860002091A5033091A6034217530708F480E096
:10287000817008958091CB0390911004892B8093EF
:10288000880180911702882319F18091A503909106
:10289000A603892B29F00E94201481110E942E0C7E
:1028A0008091880190911702892B809388018091F3
:1028B00016018823E1F18091DC0387FF38C08EE1A7
:1028C000EAE8F1E090E08150A0F591110E942E0C11
:1028D00040E250E065EF71E088E891E00E944A3400
:1028E000892B21F180E2E8E8F1E0A5EFB1E0019069
:1028F0000D928A95E1F7E091D303F091D4033097DC
:10290000A9F080911601882359F08091DC0387FF9C
:1029100007C0809188018093890186E080938801B7
:102920000280F381E02D88E891E00995089586E022
:10293000C7CF2191222339F29F5FC5CFCF93DF9379
:10294000EC01EA85FB85309719F06C857D8509954A
:102950008B810E94390C8C810E94400C0E943A1499
:1029600086E0FE0111928A95E9F7DF91CF910895F3
:10297000CF93DF93EC018D8181FD15C082608D8343
:10298000809110049B81892B809310048C810E947C
:10299000470C0E943A14E885F985309721F06C8540
:1029A0007D85CE0109951092D0031092CF038D81C1
:1029B00080FD03C0CE010E949E14DF91CF91089547
:1029C00080911501877F809315018091CE0381113D
:1029D00003C082E00E94390C8091150184FF06C07B
:1029E0008F7E8093150182E00E94470C8091150133
:1029F00085FF06C08F7D8093150180E20E94470C01
:102A00000E943A14089590E080E00E94EE0890E061
:102A100080E00E94D808109210040E943A14089591
:102A2000CF93C82F81FB662760F9811101C060E058
:102A300080E00E94750FC09311040E940315CF918E
:102A4000089580911104982F9670963021F4886033
:102A50000E9410150895877FFBCF21E030E001C070
:102A6000220F8A95EAF720958091110482230E9413
:102A7000101508959091F401809589238093F401B5
:102A8000282F277091F4282F082E000C330B921753
:102A9000130659F09091DD0392FF07C08595859547
:102AA00085950E942D150E944D0C08959091DD038F
:102AB00092FB222720F9281769F080FB92F9909366
:102AC000DD038091DC039091DD030E94C41182E05C
:102AD0000E943A15089521E030E001C0220F8A9546
:102AE000EAF780911104822B0E94101508959091AD
:102AF000DD0392FF10C098E0899F90011124622BA2
:102B00006093F4010E946B150E943A139093F301B5
:102B10008093F20108950E946B1508958093180226
:102B20000E94031508951092CB0380911601EAE8E4
:102B3000F1E0882361F08091DC0387FF08C08EE11B
:102B4000DF011D928A95E9F70E940315089586E03A
:102B5000F7CFAAE2B0E0EFEAF5E10C94EC3387E0BE
:102B600094E02091F100DC012D93CD01B4E08F3091
:102B70009B07B9F780910804833009F472C0B8F458
:102B8000813009F449C0823009F4B3C08091E80073
:102B900083FF96C280910704909108049A3008F050
:102BA0008FC2E92FF0E0E753FB4C0C9434348A30A9
:102BB00009F48EC08B3009F471C0893039F78091E7
:102BC0000704813219F780910B0490910C0400974F
:102BD00011F00297D9F68091E800877F8093E80092
:102BE0008091E80082FF38C09091F3008091F2005C
:102BF000029731F48091F100813011F0863021F498
:102C00008091F1008093E3038091E8008B778093BB
:102C1000E8000E948207BACF80910704813A09F048
:102C2000B5CF8091E800877F8093E80080910B0406
:102C300090910C04892B61F460E284EE93E070E0E3
:102C40000E942E088091E8008B778093E8009ECF49
:102C500060E090E080E0F3CF80910F048111C0CF5D
:102C600095CF80910704813A09F090CF80910B04B1
:102C700090910C04892B09F089CF8091E800877F1F
:102C80008093E8008091E80080FFFCCF80911601DE
:102C90008093F1008091E8008E77B9CF809107048E
:102CA000813209F073CF80910B0490910C04892B31
:102CB00009F06CCF8091E800877F8093E8000E9444
:102CC000820780910904809316010E9493155ECFBC
:102CD00080910704813209F059CF8091E800877F05
:102CE0008093E8000E94820780910A048093E203A7
:102CF0004DCF80910704813A09F048CF8091E800D8
:102D0000877F8093E8008091E80080FFFCCF80916E
:102D1000E203BECF803899F0823809F0D1C18091AA
:102D20000B048F70873008F0CBC18093E90080914D
:102D3000EB0085FB882780F91092E90006C080919E
:102D4000040490910504911182609091E800977FAE
:102D50009093E8008093F1001092F1008091E800D8
:102D60008E77AAC1882309F498C1823009F0A8C1DE
:102D70008091090481119BC180910B048F702FEF0A
:102D8000280F263008F09CC18093E9002091EB00C9
:102D900020FF8DC1933031F48091EB0080628093ED
:102DA000EB0085C19091EB0090619093EB0021E0E6
:102DB00030E001C0220F8A95EAF72093EA001092D2
:102DC000EA008091EB008860EACF811179C110910F
:102DD00009041F778091E3008078812B8093E300C2
:102DE0008091E800877F8093E8000E9482078091AD
:102DF000E80080FFFCCF8091E30080688093E300CF
:102E000082E0111183E080930F045AC18058823010
:102E100008F056C12091090430910A042C3DE3E0EA
:102E20003E07A1F583E08A838AE289834FB7F8944D
:102E3000DE01139620E03EE051E2E32FF0E05093F4
:102E40005700E49120FF03C0E295EF703F5FEF7001
:102E50008E2F90E0EA30C0F0C7968D939D932F5F40
:102E6000243159F74FBF8091E800877F8093E800B5
:102E70006AE270E0CE0101960E942E088091E8007F
:102E80008B778093E8001CC1C096E7CF80910B043C
:102E900090910C04432F55274330510509F44AC043
:102EA00078F54130510509F485C08BE590E0E2EEFC
:102EB000F6E04230510509F003C12091E800277F78
:102EC0002093E80020910D0430910E04821793079F
:102ED00008F49C0140E02115310509F070C0411152
:102EE0006EC08091E80082FDC9CF80910F048823D5
:102EF00029F2853019F28091E80083FFF2CFBECF2E
:102F00004132510509F447C04232510509F0D8C099
:102F10008330910508F0D4C0FC01EE0FFF1FE65886
:102F2000FE4F0190F081E02D89589E4FDC018C917D
:102F300090E01DC0332721303105E9F0211531051E
:102F400079F022303105F9F02330310509F0B8C0AD
:102F5000EFE4F7E0E4918E2F90E0EFE4F7E007C0B4
:102F6000EDE8F7E0E4918E2F90E0EDE8F7E00097D0
:102F700009F4A6C0A2CFEDE7F7E0E4918E2F90E030
:102F8000EDE7F7E0F4CFEDE6F7E0E4918E2F90E087
:102F9000EDE6F7E0ECCF8330910508F091C0880FA3
:102FA000991FFC01E058FE4F0190F081E02D89E06F
:102FB00090E083CF82E190E0EDE3F7E07ECF809177
:102FC0000F04882309F45ACF853009F457CF809134
:102FD000E80083FD53CF8091E80082FD82CF80918D
:102FE000E80080FF78CF9091F3008091F2002115E6
:102FF000310519F08830910550F041E0089709F04B
:1030000040E08091E8008E778093E80064CF44919F
:103010004093F1003196215031090196E8CF803874
:1030200009F04EC08091E800877F8093E80080918E
:1030300006048093F10092CE811142C010910904E0
:103040001230F0F58091E800877F8093E8001093BC
:1030500006040E948207112311F084E005C08091CC
:10306000E30087FDFACF81E080930F0442E061EC3A
:1030700081E00E94A10742E261EC84E00E94A10786
:1030800042E261EC82E00E94A10742E260EC83E050
:103090000E94A10780910F0413C080910904813020
:1030A00079F481E0933009F080E080930504109278
:1030B000E9008091E800877F8093E8000E94820702
:1030C0008091E80083FF0AC08091E800877F8093A9
:1030D000E8008091EB0080628093EB00AA96E3E029
:1030E0000C9408341F920F920FB60F9211242F9355
:1030F0003F934F935F936F937F938F939F93AF9380
:10310000BF93CF93DF93EF93FF93D091E900DF70EC
:103110008091EC00C82FC17080FDC0E81092E900DA
:103120008091F000877F8093F00078940E94A91529
:103130001092E9008091F00088608093F000CD2B20
:10314000CF70C093E900FF91EF91DF91CF91BF91D4
:10315000AF919F918F917F916F915F914F913F912F
:103160002F910F900FBE0F901F901895E3EAF3E098
:10317000128E138E8FEA90E09183808385E0848F96
:1031800028E833E13383228322E330E0378B268B38
:1031900028EC30E0318F208F158E178E168E20E5AB
:1031A00030E031A320A382A30E943D110E94931519
:1031B0001092DD031092DC03EDEDF3E0808184607A
:1031C00080838091DC039091DD030E94C4110E94F2
:1031D0000F100895AAE0B0E0E0EFF8E10C94E233BC
:1031E000809077039090780381E090E0909378034B
:1031F000809377039EE6A92E94E0B92E10E000E0BC
:103200006501712C1FC021E030E0063011053CF44F
:10321000F701EE0FFF1FEC0DFD1D259134914E2D92
:10322000672D802F0E9485118FEFE81AF80A85E03C
:10323000E816F10441F78AE0C80ED11C739488E0C7
:10324000781619F0F12CE12CDECF0F5F1F4F80E5CF
:10325000A80EB11C0830110599F60E94B6181A8202
:1032600019821C821B821E821D8218861F8288EC96
:1032700090E09A8789870BEE12E04AE050E0B801AF
:10328000CE0101960E94AF34065F1F4F0B3883E0DA
:10329000180799F790927803809277032A96EDE0C9
:1032A0000C94FE3380E00E94AB1160E086E290E077
:1032B0000E948B340E94EA180E94751181E00E94DE
:1032C000AB11089568EE7EEF90E080E00E94A93493
:1032D00060E082E090E00E948B3460E083E090E068
:1032E0000E948B341092180260E084E090E00E940B
:1032F0008B3464E082E290E00E948B3460E085E0F1
:1033000090E00E948B3460E086E090E00E948B3475
:103310006FEF87E090E00E948B3440E050E0BA010C
:1033200088E090E00E949D3460E08DE090E00E9493
:103330008B3440E050E0BA0188E190E00E949D3477
:1033400060E087E190E00E948B3440E050E0BA01F9
:103350008CE190E00E949D3470E060E080E290E0BB
:103360000E94A93440E050E0BA0188E190E00E9458
:103370009D3480E00E94AB110E94521940E050E061
:10338000BA018FE090E00E949D3440E050E0BA0125
:1033900083E190E00E949D340895CF92DF92EF92F6
:1033A000FF928FEF9FEF4430510508F46AC0FB0194
:1033B000C080D180E280F3800E9493158091DC036D
:1033C000C0FA80F9B701A60176956795579547959C
:1033D00040FB81F9B701A60122E0769567955795E4
:1033E00047952A95D1F740FB82F9B701A60133E052
:1033F00076956795579547953A95D1F740FB83F9B0
:10340000B701A601E4E07695679557954795EA954B
:10341000D1F740FB84F9B701A601F5E076956795F1
:1034200057954795FA95D1F740FB85F9B701A60165
:10343000A6E07695679557954795AA95D1F740FBF5
:1034400086F9B701A601B7E0769567955795479538
:10345000BA95D1F740FB87F98093DC038091DD03B7
:10346000D0FA80F9D1FACC24C0F8C0FA81F980935F
:10347000DD038091DC039091DD030E94C41190E094
:1034800080E0FF90EF90DF90CF9008950E94931519
:103490002FEF84E39CE0215080409040E1F700C092
:1034A000000088E19AE00FB6F894A8958093600038
:1034B0000FBE90936000FFCF882321F00E94390C4B
:1034C0000E943A1408958091CE03882349F082E245
:1034D0000E945C1A1092CE0360E082E00E94750F99
:1034E0000895882339F090911004982B909310043C
:1034F0000E943A140895882321F00E94400C0E94F3
:103500003A140895882321F00E94470C0E943A142F
:103510000895882351F19CEF980F913A40F4682F59
:1035200088E891E00E94AE080E943A14089590E263
:10353000980F983050F4877091E001C0990F8A95E8
:10354000EAF7892F0E94400CEFCF9BE5980F93304C
:1035500028F490E080E00E94EE080895885A8731B0
:1035600020F490E080E00E94D8080895CF93DF9384
:10357000EC010E94891ACE010E94200D9E01205E5E
:1035800031092830310510F0CD2B29F40E947B1A27
:10359000DF91CF9108950E945C1AFACFCF93C82F84
:1035A000882309F445C08CEF8C0F813A08F068C07D
:1035B000809116018823F1F18091DC0387FF3AC0E6
:1035C000EC2FE695E695E695F0E0E857FE4F828110
:1035D00090E04C2F477021E030E002C0220F331FF3
:1035E0004A95E2F782239323892B61F06C2F88E8B8
:1035F00091E00E94AE080E943A1426C08091DC033C
:1036000087FF26C0AC2FA695A695A695B0E0A85733
:10361000BE4FC77021E030E001C0220FCA95EAF723
:1036200012968C911297822B12968C930E943A14C8
:10363000CF910895EAE8F1E080E991E02191C21785
:10364000A9F28E179F07D1F7809116018111D6CF6D
:10365000AAE8B1E0EFEF80E09D91C91739F3EF3FA1
:1036600019F4911101C0E82F8F5F8630A9F7EF3F61
:10367000E9F20E2E000CFF0BE857FE4FC283D6CFA7
:1036800080E28C0F883048F4C77081E001C0880F59
:10369000CA95EAF70E94470CC9CFEBE5EC0FE3307F
:1036A00040F4F0E0E15EFE4F808190E00E94EE0881
:1036B000BFCFC85AC73108F0BBCFEC2FF0E0EE0FF8
:1036C000FF1FEE5DFE4F808191810E94D808B0CF30
:1036D0001F93CF93DF93182FC091C303D091C403DE
:1036E000893321F0C091C103D091C203812F0E9480
:1036F000CE1A209739F4812F0E94891ADF91CF9139
:103700001F9108958FE99FE00197F1F700C0000035
:103710002197EFCFB0E0A0E0E0E9FBE10C94E533C6
:10372000EC018AE0A82E2881222309F48FC02130E1
:10373000C9F599818A81913021F422960E94681BF3
:1037400005C0923029F422960E94CE1A2196EBCF22
:10375000933021F422960E94891AF8CF943011F008
:103760002196F4CF229630E020E0AE014F5F5F4F0C
:103770008053990B8A30910550F02150310930F374
:103780008FE99FE00197F1F700C00000F6CFA29EFD
:10379000B001A39E700D11249C01260F371F898153
:1037A000EA01E3CFE22FF0E0EF53F84FB490822F1D
:1037B00086958695869590E0FC01EF54F84FE4904D
:1037C0002770F12C022E02C0F594E7940A94E2F7D8
:1037D00031E0E322FF24FC01EF55F84FC490D12CD7
:1037E000022E02C0D594C7940A94E2F731E0C322B6
:1037F000DD24FC01EF56F84F049110E002C015954E
:1038000007952A95E2F701701127E114F10419F0E8
:1038100081EE0E94CE1AC114D10419F086EE0E94E6
:10382000CE1A8B2D0E94681BC114D10419F086EEAC
:103830000E94891AE114F10419F081EE0E94891A9C
:103840000115110509F482CF8CE278CFCDB7DEB730
:10385000EAE00C940134CF93DF93EC010E94200D39
:103860009E01205E31092830310510F0209741F487
:103870000E94821A8C2F0E94CE1ADF91CF91089558
:103880000E94711AF7CF662329F02091100422605C
:10389000209310049C013056211540E2340720F09B
:1038A000305E2115304108F499270E942B1C0895A1
:1038B000B0E0A0E0EEE5FCE10C94E8337C018B0184
:1038C000D42E8091150182FF8CC0C091C903D09184
:1038D000CA03CE15DF0521F0E114F10409F081C01F
:1038E000809115018B7F8093150181FD73C08091BC
:1038F000C7039091C803A801481B590B81E0209190
:103900001301309114014217530708F480E08170CD
:10391000F82E80911501F0FA81F980931501FE01CE
:1039200083E0F695E7958A95E1F7EE71FF27ED576D
:10393000FC4F20813181AE014F70552781E090E02E
:1039400002C0880F991F4A95E2F7FF2009F444C08E
:10395000822B932B918380838091CB0381FF08C0BE
:103960008091150180618093150182E00E94400CD6
:103970008091CB0385FF08C0809115018062809300
:10398000150180E20E94400C6F2DCE010E94431C65
:10399000DD2031F08091BE0385FF02C086FF3BC071
:1039A0008091C1039091C2030E94880E8091C90347
:1039B0009091CA039C013056211540E2340720F053
:1039C000305E2115304108F499270E94B61A0E94F2
:1039D000E0141DC081E09BCF8095909582239323B6
:1039E000B9CFC701992797013056211540E2340716
:1039F00028F0305E2115304108F0C7010E94B61A48
:103A00008091C9039091CA038E159F0501F310930D
:103A1000C8030093C703CDB7DEB7E7E00C940434C6
:103A2000A7E1B0E0E6E1FDE10C94EC33942F4B8B81
:103A3000252F5C8B6D8B7E8B8F8B4E895F89622FE0
:103A4000892F0E94740C811109C08091A901909165
:103A5000AA0101969093AA018093A9018D898111F1
:103A6000109210041A8A198A85E0FE017396DE010D
:103A70001D9601900D928A95E1F78091DD0382FFFA
:103A80001EC08091A5039091A603892BC1F00E94CE
:103A90003A132091F2013091F301821B930B209194
:103AA000A5033091A6038217930720F08091F401BB
:103AB00082FF6FC00E94201481110E942E0C86E0AC
:103AC000FE013D96DE01179601900D928A95E1F771
:103AD000CE0107960E94DF27811111C086E0FE010A
:103AE0003796DE01119601900D928A95E1F74A858D
:103AF0005B8568858F810E94740C882359F016E0DD
:103B00008091F1019091C001891331C06796E3E083
:103B10000C9408342091C00130E0C90101968770EF
:103B200099274091F1014817190699F096E0929F64
:103B3000D001939FB00D1124AF53BE4FFE013196BB
:103B400001900D929A95E1F78093C0010E947F0C3D
:103B5000D6CF0E9493151092C0011092F10186E019
:103B6000EAEBF1E0DF011D928A95E9F7C8CF819F6A
:103B7000C00111248F539E4F0E94DF27882331F20A
:103B80008091F10190E00196877099278093F1016F
:103B9000B7CF82E00E943A158DCFA5E0B0E0E3ED0B
:103BA000FDE10C94ED3390937A03809379038115B2
:103BB00020E2920730F40E94B61A2596E2E00C94B7
:103BC000093480EF89838A831B820E943A138160C3
:103BD000782F9D838C8349815A816B818D810E94CE
:103BE000101DEBCF0F931F93CF93DF938C01EB014D
:103BF0006DE872E08C2F0E94D211892BA1F4809184
:103C0000C1039091C2030E94880EDD27C358DD4F87
:103C10008881F801128218828330F1F048F48130F3
:103C200059F0823081F0DF91CF911F910F9108956B
:103C30008430B9F08530B9F780918D0290918E0271
:103C4000009789F306C080918F02909190020097AF
:103C500099F30E94CD1DE7CF80919102909192023D
:103C6000F6CF8091930290919402009791F7209162
:103C70008D0230918E0280918F02909190022115D9
:103C80003105F1F2009729F7C901E3CFA5E0B0E0D3
:103C9000ECE4FEE10C94ED3390937A038093790386
:103CA000811520E2920730F40E942B1C2596E2E059
:103CB0000C94093480EF89838A8381E08B830E948E
:103CC0003A138160782F9D838C8349815A816B815F
:103CD0008D810E94101DEACFCF93DF93EC010E94EB
:103CE000461E8091C1039091C2030E94880ECE01AE
:103CF0000E94CD1DDF91CF9108950F931F93CF9315
:103D0000DF938C01862F6DE872E00E94D211892B1F
:103D1000B1F4C0918D02D0918E02209781F0F8010C
:103D20008281833051F4CE010E946C1ECE010E942C
:103D30006C1ECE010E946C1E02C08430D0F7DF9151
:103D4000CF911F910F9108950F931F93CF93DF93FE
:103D50008C01EB016DE872E08C2F0E94D211892B4F
:103D600009F05CC0FE01FF27D80112968C911297D2
:103D7000E358FD4F8130B9F415969C9192FF02C033
:103D800080830AC090FFFCCF82E0808380918F0205
:103D9000909190020097B9F480918D0290918E02DB
:103DA0000097E1F110C08230B9F515968C9182FD33
:103DB00028C080FD0BC083E08083809191029091A8
:103DC0009202009701F10E94461E28C084E0808381
:103DD00080919302909194020097A9F780918D02AF
:103DE00090918E020097F9F00E946C1E80918F02D4
:103DF00090919002009739F780918D0290918E02F8
:103E0000E2CF85E0808380918D0290918E020097B1
:103E100029F00E946C1EF0CF86E08083DF91CF9165
:103E20001F910F91089580918F0290919002B8CFC9
:103E3000A4E0B0E0EEE1FFE10C94E3337C01DC01AF
:103E400013964D915C91149711966C9111978C91EA
:103E50000E94740C8111EDC061E0C7010E94F61050
:103E60008C01F70182818823E1F08091CF0390914A
:103E7000D0030097B1F00817190799F0FEE08F9F63
:103E8000C0011124FC01E456FD4F208124602083F1
:103E900089569D4FDC010D931C930E94B81410921B
:103EA0001004F7018281882311F40C946F27980184
:103EB00022513F452031310508F0D2C78FEF93E002
:103EC0000E9477348111A6C0FEEEDF2ED00E0BE8E3
:103ED00013E0D11036C019821A821B821C829924E9
:103EE0009A9468012FEFC21AD20AC8010E9477344F
:103EF00089831A82882309F48DC0813009F07FC03C
:103F0000580132E0A30EB11CC6010E947734C82EBE
:103F10008A83882309F47EC0C5010E947734D82E95
:103F20008FEF8C0D8330D8F4580143E0A40EB11C00
:103F3000DB82DD2021F0CE0101960E948A1B8501E3
:103F4000D0CF0115F4E01F0709F464C0C8010E9436
:103F50007734811101C0DA940F5F1F4FBACF8BEF16
:103F60008C0D833030F5C8010396DB825C01DD20C7
:103F700031F3580154E0A50EB11C0E9477348C83B4
:103F80008823E9F28B819C818130AFEF9A0710F092
:103F9000982F8827B6E0CB1631F0E7E0CE1631F047
:103FA0000E946C1ECCCF0E94461EC9CF0E94CD1D20
:103FB000C6CFF4E0CF12C3CF580124E0A20EB11C4B
:103FC000C80103960E947734DD2021F1882311F186
:103FD0008150990B989E9001999E300D11244D2D82
:103FE0004150550BCA01820F931F019708F4A7CFC8
:103FF000AFE9BFE01197F1F700C00000F6CFCE01A6
:1040000001960E948A1B56019ACF81E00E946B158F
:104010000E9421158091F401877059F0F701828187
:10402000882339F08091DD0382FF03C082E00E9483
:104030003A152496ECE00C94FF3381E00E942D1594
:10404000E7CF82E0E3CF2FEFC216D10411F008F0E2
:1040500033C76DE872E08C2D0E94D211892B29F5AF
:104060008EE08C9DF0018D9DF00D1124E956FD4FE1
:104070008281813009F0F5C080918D0290918E028D
:10408000892B99F080918F0290919002892B69F091
:10409000809191029091920220919302309194022A
:1040A000822B932B892B09F4E6C0D70112968C91B1
:1040B0008111E6C65801BB242EE0029FF0011124B5
:1040C000AF0149565D4F6A01D70112968C91E456B3
:1040D000FD4F908180FB90F99083882309F4DFC025
:1040E0000E943A139093310280933002F60182814C
:1040F0008F5F8283809110049091CB03892B8383FF
:104100008091170284830680F781E02D309731F08B
:10411000D6011C966D917C91C60109958EE08A9D11
:10412000F0018B9DF00D1124E956FD4F858181FF33
:10413000B3C090E080E09093CF038093D003D09001
:1041400017028091CB03D82A8091CE038111B2C08F
:10415000B2E2DB1202C00E9446138091BE0380FFD0
:1041600039C00E943A136C01D70112968C918823B2
:1041700009F447C18091150182FF08C022E332E0B3
:1041800040E0B60190E080E00E94581C0B31BCE595
:104190001B0709F428C10C31ECE51E0709F429C1FD
:1041A00090911501892F8E7F90FF81600A31FCE587
:1041B0001F0709F421C1C8019056811520E292071A
:1041C00028F0905E8115904108F029C11092CA0331
:1041D0001092C903F7018281882309F453C3033085
:1041E000FDE51F0708F012C20A3F2CE5120730F464
:1041F000C80182509C45449708F013C20E941911CF
:104200009093DD038093DC0302318CE5180709F4F9
:104210000FC308F05BC20930ACE51A0709F4E6C227
:1042200008F025C20530ECE51E0709F4CFC208F0FE
:1042300011C203302CE5120709F4C0C208F0C2C253
:104240008091DC03816002304CE5140709F43BC225
:104250008091DC039091DD030E94C4110E949315AC
:10426000D9CE823009F021CF8091910290919202B3
:10427000892B09F41ACF2EE02C9DC0012D9D900DA5
:104280001124FC01E456FD4F20812E7F20838956A6
:104290009D4F0E94B81409CF902F812F4CCFFA0167
:1042A000858181FF4CCFCA010E949E1448CF0E9495
:1042B0004613B0CE0E943A1388579C4E9093CD037C
:1042C0008093CC03F7018281882309F446CF8D2D9A
:1042D0008D79D1F50115F5E51F07C0F4011523E52A
:1042E000120708F03ACF011530E5130750F4011515
:1042F00040E41407B0F5063E110509F42ECF68011D
:1043000038C0011552E51507D0F727CF011589E50B
:10431000180750F4011598E5190708F01ECF04316D
:10432000A5E51A0761F719CFC8019056811590428B
:1043300030F7F7018581807FD1F4812F8F71823131
:1043400089F128F4823091F10E94631A06CF8431FA
:1043500009F403CF8631C1F756EEC52E52E1D52EB2
:1043600008C0D70115968C91807F09F4F6CE6801BC
:10437000DD248091150180FD1DC08FEF0E94390C56
:10438000B8E2CB16D104C0F4EEE1CE16D104F0F4BD
:10439000F4E0CF16D104C0F28091100482608093C3
:1043A000100414C075EEC72ED12CE3CF61EEC62EDB
:1043B000D12CDFCF8DEFE2CF2DE2C216D10461F315
:1043C00040F44AE2C416D10409F0BECF0E943A1468
:1043D000C4CE5CE4C516D104C9F38DE2C81682E0F0
:1043E000D806A1F3B1CF80911501816080931501AA
:1043F000E2CE809115018E7F809315010E94E0141A
:10440000DACE809115018F7E013E110531F0053E17
:104410001105C9F4809115018F7D8093150180915C
:10442000150180FFD7CED70112968C910832110565
:1044300028F50E31110508F072C00430110580F521
:104440008111C4CEC7CEC8019056811540E29407B1
:1044500020F0905E8115904110F78091150182FF48
:10446000B9CE8091C00381FDB5CE22E332E040E0B9
:10447000B60190E080E00E94581CACCE09331105D3
:1044800058F40D32110518F40B321105C9F690914C
:10449000BE0392FDD5CF08C004361105C1F3D0CFBD
:1044A0009091BE0394FDCCCF882309F4A8C08091DD
:1044B00017029091CB03892B8D7FB1F11092CA0323
:1044C0001092C9038091BE0381FD2EC0F80143E024
:1044D000F695E7954A95E1F7EE71FF27ED57FC4F0A
:1044E00098012F70332781E090E002C0880F991F58
:1044F0002A95E2F78095909520813181822393233C
:104500009183808360E0C8010E94431C8091170260
:104510008D7F0E940C1482E00E943A157BCD909111
:10452000BE0393FD8DCFC0CF86E0F701A2E3B2E0DA
:1045300001900D928A95E1F71092340210923602A2
:10454000109235028091C9039091CA030817190788
:10455000D1F52091BE0325FF36C03091150131FF02
:1045600002C026FF30C02091C7033091C803560116
:10457000A21AB30AB7010E94E611A816B90618F5E7
:104580008091CB0381FF08C08091150180618093E9
:10459000150182E00E94400C8091CB0385FF08C08A
:1045A0008091150180628093150180E20E94400C89
:1045B00060911501669561708091C9039091CA035D
:1045C0000E94431C27CD809117029091CB03982B1A
:1045D0002091150191FB21F9209315018D7F0E94F7
:1045E0000C141093CA030093C903D092C803C0925D
:1045F000C703809115018460809315018CCF9701CA
:1046000040E0B601C8010E94581C04CD053A3DE5C2
:10461000130709F4F3CDC0F401365DE5150709F47D
:10462000EDCD0A35BDE51B0709F4A5C108F081C130
:104630000115FCE51F0709F487C10E3D1C4509F073
:104640002EC10E9462197EC1C8018D5A9D450397F3
:1046500040F7D4CD8091DC03806207305CE515071C
:1046600091F108F4BFC08091DC0380642CC00D3050
:104670009CE5190709F4C4C090F48091DC038E7F97
:104680000B30BCE51B07F9F08091DC038C600C302B
:10469000ECE51E07C0F08091DC038D7F14C00F3065
:1046A000FCE51F0709F4BCC008F4AEC000313CE5CE
:1046B000130709F4B9C08091DC038F7B01314CE50D
:1046C000140709F0C5CD8093DC03C2CD0F3F5CE534
:1046D000150709F4B7C0A8F50A3F9CE5190709F4C6
:1046E00079C0C0F40431BCE51B0709F4B9C008F473
:1046F000A5C00531FCE51F0709F0AACD8091DC03B8
:1047000082FB992790F921E0922790FB82F990FB98
:1047100083F9D9CF0C3F2CE5120709F479C008F4CE
:104720005DC00D3F4CE5140709F476C08091DD03B0
:1047300083600E3F5CE5150709F08ACD8093DD03A9
:1047400087CD01368DE5180709F495C090F4013046
:10475000ADE51A0709F48DC008F478C060E00230B6
:10476000EDE51E0709F074CD8EE090E00E948B34D9
:104770006FCD0D3AFDE51F07E9F060F49091DC0381
:10478000892F8E7F90FF8160053A3DE5130709F47C
:104790009ACF5ECD0E3A4DE5140771F10F3A5DE503
:1047A000150709F055CD9091DD03892F877F93FF81
:1047B0008860C4CF8091DD038860C0CF8091DC0326
:1047C000826081CF8091DC0384607DCF8091DC03A7
:1047D000886079CF8091DD038160B0CF8091DD0367
:1047E0008260ACCF8091DC0380616DCF0E94931515
:1047F0008091DC03806867CF8091DD03877F9ECF47
:104800008091DC038B7F5FCF8091DC03877F5BCF60
:104810008091DD038E7F92CF8091DD038D7F8ECFDF
:104820008091DC038F7E4FCF8091DC038F7D4BCF57
:104830000E9493158091DC038F7745CF8091DC0334
:10484000837F41CF8091DD038C7F78CF8091DD0322
:10485000982F909591708E7F892B90FB81F96ECF68
:104860000E9493159091DC03892F97FB87F980585C
:104870002ACF61E079CF9091DC03892F8F7E94FF5E
:10488000806121CF023C8CE5180748F0063D9CE58D
:10489000190708F4BFCB0D35100709F4BBCBD701BE
:1048A00012968C9112970D911C91882309F467C080
:1048B000C8010E948110D82E682FC8010E94BD0C2B
:1048C000B8018D2D0E9464100E94AD0A8C01882EC3
:1048D000F701C280D580D2943FE0D3228091F401C9
:1048E0008770C1F0AC2CCC20B1F0812F807F803458
:1048F00021F080E2800F883068F08091DD0382FF34
:1049000009C082E00E943A158091F4018770AA24C0
:10491000A3948111A12C912E92942FE09222FBE07E
:10492000F91508F4A8C0E92DF0E0ED52FB4C0C9409
:1049300034340C353DE51307A1F0F8F0073A1D4576
:1049400009F0ADCF0E94461A0E9493158FEF94E3B1
:10495000ACE081509040A040E1F700C000000E9410
:1049600091088091DD0382FB882780F991E08927F7
:104970000E94561594CF81E0FBCF80E0F9CFC801AB
:104980000E94890CD82E9CCF212F2F70B22E812F00
:10499000807F19F0B29490EFB922CC20A9F0BB200F
:1049A00059F080E2800F883010F0811007C08B2D05
:1049B0000E94470C0E943A14802F5BC08091100423
:1049C000B82AB0921004F6CF802F0E94891ABB201B
:1049D00009F451C080E2800F883010F0811004C0CB
:1049E0008B2D0E94400C03C08B2D0E94390C0E941D
:1049F0003A1441C0312F3F70B32E812F807F803217
:104A000019F0B29480EFB822882029F141E0841691
:104A100009F4AFC0CC2009F4B8C0DD2009F480C08F
:104A200020E0D7014C9111965C91119712966C91F0
:104A3000129713967C91139714968C910E94D31021
:104A40008091C00381FDB8CFF701858180FFB4CF8D
:104A50008F70858365C08091DD0382FD41C0CC20CD
:104A6000C9F1BB2029F08B2D0E94470C0E943A14FB
:104A700080E00E94CE1A292D2850330B24303105B6
:104A800020F40E9404090E94920FC8010E94F40CB5
:104A90008111C0C11092AA011092A901AA20A9F007
:104AA0008091F40180FD11C0F701128285958595F2
:104AB00085950E946B15C7010E94181F8091F40113
:104AC0008595859585950E942D1560E0C7010E940A
:104AD000F610AFCA80E00E94891ABB2061F280CF35
:104AE000CC2011F1D11004C0809117028B2919C07C
:104AF00051E0D51206C0809117028B290E940C1438
:104B0000BACF8091BF03823078F3D812EDCF0E94E4
:104B10002E0C9091A8018B2D892B89138093A801CD
:104B20008B2D0E94821AA7CFD11003C00E942E0C99
:104B300017C08091BF0391E0D91216C0823008F4EB
:104B40009ACF8091CB038B2109F495CF0E942E0C34
:104B50009091A8018B2D8095892389138093A801BA
:104B60008B2D0E947B1A87CF823000F3D812DECFC4
:104B700082CF8091C503CC2021F08D1508F47BCF26
:104B8000CFCFD81608F077CFEBCFDD2049F3F9E38C
:104B90008F1238C18091C3039091C4030E94880E84
:104BA000802F0E94891A67CF812F86958695837002
:104BB00061F0813009F05FCFC8019370C11002C06D
:104BC00090E080E00E94D80856CFC8019370C110D1
:104BD00002C090E080E00E94EE084DCF812F8370EC
:104BE00091F5C11048CF402F429546954770440F2C
:104BF000440F802F8F70042E01C0880F0A94EAF7AB
:104C0000202F207104FF07C02FE030E001C0220FE9
:104C10004A95EAF72095312F369536953370323024
:104C200069F050F440911802313029F0822B84232E
:104C30000E948E1520CF842B822BFACF282B8091B7
:104C400018028227F5CF8695CC2011F0812F817034
:104C5000882309F410CF402F429546954770440FA2
:104C6000440F802F8F70042E01C0880F0A94EAF73A
:104C7000202F207104FF07C02FE030E001C0220F79
:104C80004A95EAF72095312F3695369533703230B4
:104C900069F050F440911104313029F0822B8423C3
:104CA0000E941015E8CE842B822BFACF282B8091FE
:104CB00011048227F5CF212F2F70B22ECC2029F09E
:104CC000822F0E946B15802F2CCF802F0E947B1A81
:104CD0008B2D0E942D15CFCE802F32EF8316B1F190
:104CE000381570F040EF8416D1F051EF851691F031
:104CF000CC2009F482C0D1105FCE812F8F712AC0E1
:104D000093EF891651F1A4EF8A12F2CF8091DD035F
:104D100082FD2FC0812F8F71CC20D9F21BC08091D2
:104D2000C503CC2079F0D81608F0A5CE212F2F711D
:104D300081E090E001C0880F2A95EAF79091110474
:104D40008927AECF8D1508F496CEF0CF812F8F71C5
:104D5000C110BFCF0E946B158ECE80E0CC2009F42D
:104D60009FCF81E0912F9F7101C0880F9A95EAF73C
:104D700097CF8091BF03823040F1CC20D1F0909149
:104D8000F4019770943041F40E944D0C812F8F7183
:104D90000E942D15A12C6FCED816E0F7B12FBF7150
:104DA000BB2E8B2F0E946B1563E08B2D0E94771515
:104DB000F1CFD81630F00E944D0C64E0812F8F7136
:104DC000F5CF81E00E943A15E5CFCC2059F0E12FD4
:104DD000EF71BE2E8E2F0E946B1563E08B2D0E940B
:104DE000771549CE81E00E943A15F1E0FD1508F0F3
:104DF00042CE82E00E943A153ECEDD2041F089335A
:104E000009F4C8CE8091C1039091C203C7CE812F0F
:104E10008F715FCFCC2019F0D1103CCE3FCED11096
:104E200039CE20E0D7014C9111965C9111971296E2
:104E30006C91129713967C91139714968C910E9403
:104E4000D3108091C00383FF25CE8091A90190915A
:104E5000AA01029709F01ECE802F0E94681B1ACE6D
:104E60000031FFE51F0709F4D0C801312FE5120713
:104E700009F4E7C86801E7E5DE1A882309F4E3C806
:104E800080916C0290916D020E942B13893E934099
:104E900068F00E943A1390936D0280936C02109216
:104EA0006B028091780280FF0E94990FBFEFCB16B2
:104EB000D10409F008F4FEC80C3AFDE51F0709F01B
:104EC0003EC9D70112968C91882309F4A3C880911A
:104ED000CE03882309F4EBC90E94631A9BC80031F2
:104EE0003FE5130709F4A9C801314FE5140711F68E
:104EF00082E0A4C8B0E0A0E0E0E8F7E20C94E6337A
:104F00008091BF01807F09F052C08091BC0188234D
:104F100009F44DC0C091F10186E0B82E8091C00126
:104F20008C1709F444C0F090BA01E090BB01C09026
:104F3000BD01D090BE01A6016E2D8F2D0E94740C74
:104F4000D0E0811139C0BC9E8001BD9E100D11249E
:104F5000F801EF53FE4F81818E112EC080818F1199
:104F60002BC08281811128C0E380F480EC18FD08F9
:104F700060E08AEB91E00E94F6106AEB71E00E941B
:104F8000E611E816F906C0F48091BF018F708061C8
:104F90008093BF01F801EA53FE4F80818F708061DA
:104FA00080838AEB91E00E94181F0E947F0CCDB78E
:104FB000DEB7E9E00C9402342196C770AFCFA1E1CF
:104FC000B0E0E5EEF7E20C94E0338C0185E0F80107
:104FD000DE011D9601900D928A95E1F7D8015C9053
:104FE00011966C9011971296EC9012971396CD90A3
:104FF000DC9060E08AEB91E00E94F6108AEBA82E2C
:1050000081E0B82E8090BD019090BE01A401609116
:10501000BB018091BA010E94740C811175C1F0909E
:10502000BC01F601E819F9094F0160E0FF2009F41D
:1050300021C1C5010E94F610B5010E94E6117090D1
:10504000BF018816990608F0D7C04091BD01509164
:10505000BE01B090BA01A090BB01872D807F6A2D60
:1050600009F082C08B2D0E94740CFE2C81111DC092
:10507000D80111968C9111978A1117C08C918B11C0
:1050800014C0E11012C0872D8F7080618093BF0122
:105090008AEB91E00E94181F8091BF01F80185837F
:1050A0008F2D6196EFE00C94FC33A601662D852DC3
:1050B0000E94740CD82E81E08E25D11080E080FFF4
:1050C00018C04E2D662D852D0E94540C882389F022
:1050D0008091C00380FF0DC08AEB91E00E94181FF1
:1050E00086E0EAEBF1E0DF011D928A95E9F7F12C09
:1050F000D7CF81E08E25D11080E0B82FB170CB2EB4
:1051000080FF29C04E2D662D852D0E94540CD82E6F
:10511000811121C05D866E868D859E850E94B010AE
:10512000292F22952F70223050F0243078F49F7070
:1051300051F0F8019581907F31F4FD2CB1CF9F7033
:1051400011F08823D1F3805E8830B8F3C8010E9443
:10515000181FDC2CF2CFEE2009F4A2CF8091BF0102
:1051600081608093BF01C3CF8B2D0E94740C81118D
:1051700019C0D80111968C9111978A1113C08C9186
:105180008B1110C0E1100EC015967C92C8010E94D0
:10519000181F86E0F801AAEBB1E001900D928A9504
:1051A000E1F77ECFC8010E94BD10882309F1EE20EF
:1051B000F9F08091BF01803270F02091BA013091F6
:1051C000BB0138872F831986DB86CA868C87CE0180
:1051D00007960E94181F86E0F801AAEBB1E0019043
:1051E0000D928A95E1F70E947A27FF24F39458CF15
:1051F000C8010E94181FF9CF872D807F09F46CCF5A
:105200009090BA018090BB014091BD015091BE01C8
:10521000682D892D0E94740C811113C0F8018181C1
:1052200088110FC0808189110CC0E1100AC07582FD
:10523000C8010E94181F86E0D5011D928A95E9F7E2
:105240002FCFC8010E94BD10882391F2EE2081F279
:105250008091BF01803208F4BECF2091BA01309115
:10526000BB013A8329831B82DD82CC828E83CE01EF
:105270000196AFCF8AEB91E00E94F6106AEB71E0E5
:105280000E94E61188169906B0F6FE2CEE2009F46D
:10529000AFCFE090BA01D090BB014091BD015091D9
:1052A000BE016D2D8E2D0E94740C81111FC0F8015E
:1052B00081818D111BC080818E1118C08091C00327
:1052C00082FD67CF9091BF0190FD63CF907F09F47D
:1052D00060CF8091BF018583903F09F457CF982F0D
:1052E000907F905F8F70892B858350CFC8010E947B
:1052F000BD10811170CF8091BF0181608093BF018B
:10530000C8010E94181FCCCEEE2009F471CFC8014D
:105310000E94BD10F82E882309F46ACF86E0F801B8
:10532000AAEBB1E001900D928A95E1F78091BA0164
:105330009091BB010E94B0100E947A27B1CE1F92BB
:105340001FB61F9211248F939F93AF93BF938091A9
:10535000D703811113C08091D8039091D903A091F4
:10536000DA03B091DB034196A11DB11D8093D803F0
:105370009093D903A093DA03B093DB03BF91AF916D
:105380009F918F911F901FBE1F901895CDB7DEB7CC
:10539000ED970FB6F894DEBF0FBECDBF85B780681E
:1053A00085BF85B7806885BF84B7877F84BF0FB608
:1053B000F894A895809160008861809360001092B5
:1053C00060000FBE80E890E00FB6F8948093610013
:1053D000909361000FBE81E59AE0909387018093DE
:1053E00086010E9494090E940F100E94E0060E940C
:1053F000D3078091E20084608093E20078948091EA
:105400000F048823A1F01091E9001F709091EC0027
:10541000892F817090FD80E8182B1092E90080910F
:10542000E80083FD0E94A9151F701093E90082E037
:1054300084BD93E095BD9AEF97BD80936E000E9466
:105440000011811102C00E94521900E511E0D8013B
:105450008D918D018F3F11F00E94530AB1E0083504
:105460001B07A9F708E511E08DE5E82E81E0F82E8D
:10547000F80181918F018F3F11F00E94530AE016CD
:10548000F106B1F788E0E3E6F2E0DF01282F1D9294
:105490002A95E9F7ECE1F2E0DF011D928A95E9F740
:1054A0000E942212811102C00E94621982E090E0E3
:1054B0000E947734809327020E9419119093DD0394
:1054C0008093DC030E945E13BFEFE6E7F1E0B1508A
:1054D000E040F040E1F700C000000E945E138091C0
:1054E000630280FF08C06FEF7FEF90E080E00E94D2
:1054F000A9340E94910883E090E00E9477340E94D2
:105500008E1560911104662309F410C166956170CF
:1055100080E00E94750F83E080935C0280E28093BC
:1055200012040E94DD326DE070E08CEA91E00E948E
:10553000A20F892BE9F580915C0263E070E081FDA8
:10554000F7C089EA91E00E94A20F892B89F56DE0EE
:1055500070E089E991E00E94A20F892B49F50E9431
:10556000A208605A75418F4F9F4F60937D037093DF
:105570007E0380937F0390938003E5E1F4E080E075
:1055800092E0DF019C011D9221503040E1F7F09341
:105590001C06E0931B068FEF9FEF909314048093FB
:1055A000130481E0809382038093810310925D0253
:1055B00080912402811130C00E942212811104C006
:1055C0000E9462190E94041288E090E00E947F34D9
:1055D000609378027093790280937A0290937B02B1
:1055E0006E7F71F40E94041288E090E00E947F3484
:1055F000609378027093790280937A0290937B0291
:105600000E94AC098091780280FF03C086950E94B9
:10561000640F81E08093240281E080933A023E98F7
:10562000469A54985C9A8FE891E00197F1F700C090
:10563000000020913A024BE352E0FA018E2F841BC6
:10564000821708F478C00E943A1390936F028093F7
:105650006E020E943A1390936D0280936C020E9436
:10566000990F89EB91E0909374028093730280E02C
:1056700091E09093D4038093D303A3E6B2E0A85FB4
:10568000ABAF80910F04B0E4FB2E00E112E1853056
:1056900009F4A8C00E945E1308E212E0A3E64A2EB5
:1056A000A2E05A2ED201F80191918D9142E0E033AF
:1056B000F40709F4A5C09817B9F3F3E6EF2EF2E06A
:1056C000FF2ED12CD701CD907D01F80191908F0153
:1056D0009C1419F19C24B12CAA24A394892D8A210D
:1056E000A1F0BEAADFAA91E08C2D8A2109F490E0F6
:1056F00098AF0E943A138160782F9AAF89AF4EA974
:105700005FA968AD8AAD0E94101DB394AA0CF5E0A4
:10571000BF12E4CFF8013197C082D39428E0D212AF
:10572000D1CF0E94A208CC24C3948BC060E0F0CEFD
:1057300086EA91E008CF86B186FB882780F94C99EC
:1057400004C090E0892B819379CF92E0FBCF8091C8
:105750000F04843009F438C0809178028E7F8093E2
:105760007802BFEFE0E7F2E0B150E040F040E1F74F
:1057700000C000000E94920E80E00E94920F0E94E2
:10578000CC0F1092D70328E130E00FB6F894A8951B
:10579000209360000FBEF092600083B7817F846029
:1057A00083BF83B7816083BF7894889583B78E7FEA
:1057B00083BF0FB6F894A8958091600088618093AC
:1057C0006000109260000FBE80910504882351F0A4
:1057D0000E945E13E3E6F2E081918111A2C63BAD27
:1057E0003E13FACF80910F04853009F4B0CF0E94A8
:1057F00093150E9404090E94920F0E94990F4ACFAC
:1058000098135BCF0E943A138C01809125029091EE
:10581000260208171907A1F08FEF89AB8AAB1BAAE4
:105820000E943A138160782F9DAB8CAB49A95AA98D
:105830006BA98DA90E94101D1093260200932502CA
:10584000C12C0091CF031091D0030115110529F14E
:1058500080913002909131020E942B137C01BE0195
:10586000655D7F4F86E0DB011D928A95E9F7C801EF
:105870000E94E6118E159F0580F48091CF03BEE053
:105880008B9FC0011124FC01E456FD4F208122FDB5
:1058900004C089569D4F0E94B8148091BE0380FFBA
:1058A0001EC08091150182FF1AC00E943A132091F8
:1058B000C7033091C803AC01421B530B2091130165
:1058C000309114014217530750F022E332E041E0D7
:1058D000BC018091C9039091CA030E94581C809119
:1058E000CE03882369F00E943A132091CC033091B3
:1058F000CD03821B930B8F3F9F4710F40E94631AC6
:10590000B12CD12C4BC00B2D10E0E6B1E6FBEE27FD
:10591000E0F94C996FC080E08E2BD801A55CBD4F9B
:10592000EC919E2F93708917C1F1EE0FEE0FE82BCB
:10593000EC93EF70F0E0E35AFE4F9801275C3D4F87
:1059400079018081D9019C91890F8C9320E084306A
:1059500054F0F801E85CFD4F80818F5F80838AEA14
:105960000E94681B21E0F70180818D3F54F4F8010B
:10597000E85CFD4F80818150808389EA0E94681B2A
:1059800021E0D7018C91082E000C990B64E070E0A7
:105990000E942034F7018083D22AB39480913A0286
:1059A000B81608F4B0CFD1100E94A20880918203EB
:1059B000882309F47AC085E194E090931C068093D3
:1059C0001B0684EF91E00E94030E82EF91E00E949B
:1059D000030E80EF91E00E94030E809111040E945B
:1059E0000F0D833089F040F4823009F4B9C081ECA6
:1059F00091E00CC082E090CF843009F4AEC08530D5
:105A0000B1F783EC91E002C081ED91E00E94030EBA
:105A10001091CB03812F817109F0A5C089EE91E02F
:105A20000E94030E812F847409F0A0C083EE91E0E0
:105A30000E94030E812F827209F09BC08CED91E0D1
:105A40000E94030E187886ED91E011F088ED91E048
:105A50000E94030E80918203882371F02091130429
:105A6000309114042115310539F080915D0261E017
:105A700070E0882309F481C0809181038823A9F014
:105A80000E94A20800917D0310917E0320917F0364
:105A900030918003601B710B820B930B6F3F7F4F24
:105AA0008F4F9F4710F40E94CC0FC11001C0D1103E
:105AB0000E94E70F0E940409182F80915E021817B8
:105AC00039F010935E020E94A208812F0E94920F6B
:105AD00080910F04843009F418C180916E02909176
