:100000000C9465060C9482060C9482060C9482066D
:100010000C9482060C9482060C9482060C94820640
:100020000C9482060C9482060C9403140C94EC1924
:100030000C94322A0C9482060C9482060C9482064C
:100040000C9482060C9482060C9482060C94820610
:100050000C9482060C94DC140C9482060C94820698
:100060000C9482060C9482060C9482060C948206F0
:100070000C9482060C9482060C9482060C948206E0
:100080000C9482060C9482060C9482060C948206D0
:100090000C9482060C9482060C9482060C948206C0
:1000A0000C9482060C9482060C9482060001BFFF19
:1000B000FFFF00000000000115FFFFFF000000002F
:1000C00005010980A101850319012AB70015012640
:1000D000B700950175108100C0050C0901A10185CB
:1000E0000419012AA002150126A0029501751081AC
:1000F00000C00660FF0961A1010962150026FF002A
:100100009520750881020963150026FF009520756A
:10011000089102C005010906A101050719E029E7B8
:100120001500250195087501810295017508810169
:100130000507190029FF150026FF0095067508819F
:1001400000050819012905950575019102950175AC
:10015000039101C00000000000000000000000004A
:10016000000000000000000000000000000000008F
:1001700000000000000000007E0F00D4FFFFFFC75A
:100180000000007800000000000000002A2B28007A
:100190000000000000000000000000000000002936
:1001A000000000002C1E3420212224342627252E76
:1001B000362D3738271E1F202122232425263333AE
:1001C000362E37381F0405060708090A0B0C0D0EDA
:1001D0000F101112131415161718191A1B1C1D2FA6
:1001E0003130232D350405060708090A0B0C0D0EC6
:1001F0000F101112131415161718191A1B1C1D2F86
:100200003130354C00DA0281FFD9F1DB20A4A62E73
:10021000AF00A0C000A1C800AED580A81FD3004089
:100220008D142000B600AC000000200047414D4571
:100230000046554E43004E415600534D424C004E31
:100240004D42520020004755490020005368667413
:10025000002000416C740020004374726C00200088
:10026000200020002000FD377A585A000004E6D60E
:10027000B4460200210116000000742FE5A3E0033C
:10028000ED01385D003D8889C65436C3174FE4F848
:10029000192F9410BC480EF4786E8BF4474ED22A76
:1002A0004D87AF6AE1E5DE9253C3E9A38D9EDE324E
:1002B0006CE5E4CFF464C7076B42AA4B08451C4ABF
:1002C000910B27BC56D1C9BDC7E25E3E9BAA28E070
:1002D000848EA8C5A57924708DC7F013B81AD81AD2
:1002E0003A5B353B6BD1D9A5A5B7FD4ED460ABBF0A
:1002F00074ED6589B3B41A5AB64BF3AA0C07EADE5B
:10030000DF2B8762368A3AECB5AE4D89741E7F9634
:100310008DB5079AC9A7B87AFB0976979EBB28FACC
:10032000C034D96D49210F6415F75AF702437CECAC
:10033000C50AD20A6C23C1E734644A445612349287
:100340008C8234C428AE988B5A03CAB1B64E493F4A
:10035000CF82BE1E247B806667074239317A6C45A6
:10036000F6B3E5EB654E022EB68C2E550095F09E49
:100370009F9BD099329B212C6BA5C062F4B4A40240
:1003800058D6952F18025D11B37EAAA8E3F029CFA5
:10039000980049EFAB5706E33B5DD68A2813038DDF
:1003A0001D8328FE685D947D6F99378C31575F55AA
:1003B000AE882ACA6481F5AB9D705212E800B61D62
:1003C0004E2C22C406440001D402EE0700000AF9B4
:1003D000D503B1C467FB020000000004595A0001B4
:1003E00001010101010101010202020202020202F5
:1003F00002030303030303030304040404040404C7
:10040000050505050506060606060707070707088A
:10041000080808090909090A0A0A0B0B0B0C0C0C3D
:100420000D0D0D0E0E0E0F0F0F10101111111212D7
:1004300013131414151516161717181819191A1A54
:100440001B1B1C1D1D1E1E1F2020212222232424B5
:10045000252626272829292A2B2C2D2D2E2F3031F1
:100460003232333435363738393A3B3C3D3E3F4003
:100470004142434445464748494A4C4D4E4F5051EE
:100480005354555658595A5B5D5E5F6162646566A8
:1004900068696B6C6D6F7072737577787A7B7D7E2F
:1004A0008082838587888A8C8E8F91939596989A7F
:1004B0009C9EA0A2A3A5A7A9ABADAFB1B3B5B7BA97
:1004C000BCBEC0C2C4C6C9CBCDCFD1D4D6D8DBDD6B
:1004D000DFE2E4E7E9EBEEF0F3F5F8FAFDFFAA005E
:1004E000A9000100010001000100AC00AB00010007
:1004F00001000100010014001A0008001500170097
:1005000004681664076109620A001D001B000600EA
:10051000190005002E002D0029452B432C443400E2
:1005200035004C742A422845380037003600100048
:10053000110033780F640E710D720B00130012005E
:100540000C0018001C0014001A0008001500170009
:1005500004001600070009000A001D001B00060029
:10056000190005002E642D6229612B432C44346848
:1005700001534C742A4228453800370036001000D9
:10058000110033000F000E000D000B0013001200CD
:100590000C0018001C00000000000000000000001B
:1005A000E300E200E000E1000000000000000000C5
:1005B00000000000000000000000000000004900F2
:1005C0000000000001000000000065004D004A002E
:1005D00051044F00520051005000520400004B00E3
:1005E0004E000000000031002400250026002700F6
:1005F00036002100220023002F0037001E001F00BC
:1006000020003000E0004C00350001000000000038
:1006100000000000000000000000000000000000DA
:100620000000E700E200E400E50000000000000038
:1006300000000000000031022402250226022702E9
:1006400036022102220223022F0237021E021F025B
:1006500020023002E0002A003502015301000000B0
:10066000000000000000000000000000000000008A
:100670000000E700E200E400E500000000000000E8
:10068000000000000000450040004100420046001C
:1006900044003D003E003F00480043003A003B005C
:1006A0003C003900E00028000100AB00AE00000073
:1006B0000000000000000100000000000000000039
:1006C0000000E700E200E400E50000000000000098
:1006D00000000000000000AF00AE09025B00030153
:1006E00000A0FA0904000001030101000921110121
:1006F00000012240000705810308000109040100F0
:100700000203000000092111010001222200070557
:1007100082032000010705030320000109040200F1
:100720000103000000092111010001223200070528
:1007300084032000011201000200000008EDFE34D5
:10074000700001010203011C037600690061006C66
:10075000003A006600360034006300320062003365
:1007600000630000000E0370006900630061003444
:1007700000300000000E037A007A0065006E00650C
:1007800000670000000403090407087F0807003E13
:100790005B4F5B3E003E6B4F6B3E001C3E7C3E1C45
:1007A00000183C7E3C18001C577D571C001C5E7FC7
:1007B0005E1C0000183C180000FFE7C3E7FF0000C4
:1007C0001824180000FFE7DBE7FF0030483A060E68
:1007D00000262979292600407F05050700407F056E
:1007E000253F005A3CE73C5A007F3E1C1C0800088D
:1007F0001C1C3E7F0014227F2214005F5F005F5F9D
:100800000006097F017F00006689956A00606060CC
:1008100060600094A2FFA2940008047E0408001007
:10082000207E20100008082A1C0800081C2A08083E
:10083000001E10101010000C1E0C1E0C0030383E54
:10084000383000060E3E0E060000000000000000DA
:10085000005F000000000700070000147F147F14F1
:1008600000242A7F2A1200231308646200364956A6
:10087000205000000807030000001C224100000077
:1008800041221C00002A1C7F1C2A0008083E080880
:1008900000008070300000080808080800000060B0
:1008A0006000002010080402003E5149453E00004F
:1008B000427F4000007249494946002141494D3379
:1008C000001814127F10002745454539003C4A495D
:1008D000493100412111090700364949493600468E
:1008E0004949291E000000140000000040340000A7
:1008F00000000814224100141414141400004122B2
:100900001408000201590906003E415D594E007C61
:100910001211127C007F49494936003E4141412273
:10092000007F4141413E007F49494941007F09091B
:100930000901003E41415173007F0808087F000013
:10094000417F4100002040413F01007F08142241C7
:10095000007F40404040007F021C027F007F04086F
:10096000107F003E4141413E007F09090906003EDB
:100970004151215E007F0919294600264949493223
:100980000003017F0103003F4040403F001F204023
:10099000201F003F4038403F0063140814630003E9
:1009A00004780403006159494D4300007F414141EF
:1009B00000020408102000004141417F00040201B0
:1009C00002040040404040400000030708000020AF
:1009D00054547840007F2844443800384444442824
:1009E00000384444287F0038545454180000087ECE
:1009F00009020018A4A49C78007F08040478000071
:100A0000447D4000002040403D00007F102844000D
:100A10000000417F4000007C04780478007C0804DA
:100A2000047800384444443800FC18242418001882
:100A3000242418FC007C080404080048545454245E
:100A40000004043F4424003C4040207C001C204023
:100A5000201C003C4030403C004428102844004CFE
:100A60009090907C004464544C440000083641004F
:100A7000000000770000000041360800000201027B
:100A80000402003C2623263C000000000000004039
:100A90004040F0F8F8FF38FFF8F83FF8F8FF38FF6B
:100AA000F8F8F040404000000000000080C0C0C0E6
:100AB000800000C0C08000000080C0C000C0C00036
:100AC0000080C0C00000000000C0C0C0C0C000C0A6
:100AD000C000000000000000000000000000000056
:100AE0000000000000000000000000000000000006
:100AF00000000000000000000000000000000000F6
:100B00000000000000000000C0F0F8FC3E1E0601DE
:100B10000000007F4141417F007F4141417F000053
:100B200080C0E07E5B4F5BFEC00000C000DCD7DE13
:100B3000DEDED7DC00C00000000000000000000086
:100B4000000000000000000000000000000000495C
:100B50004949FFFFFFFFE0DFBFBF00BFBFDFE0FF8E
:100B6000FFFFFF49494900000000001F3F6060E0AF
:100B7000BF1F007F7F071E381E077F7F007F7F0E0D
:100B80001F3B716000000000007F7F0C0C0C007E9A
:100B90007E007F7E0303007F7E03037E7E03037F50
:100BA0007E000F3E703C063C703E0F00327B494990
:100BB0003F7E007F7E0303001E3F69696F260000B1
:100BC0000000000000000000030F1F3F3C78706031
:100BD0000000007F4141417F007F4141417F003063
:100BE0007B7F7830202030787F3B0003000F7F0F21
:100BF0000F0F7F0F00030000000000000000000046
:100C000000000000000000000000000000000001E3
:100C10000101070F0F7F0F7F0F0F7E0F0F7F0F7FD9
:100C20000F0F07010101000000000000000000009C
:100C300001010000000000000000000000000000B2
:100C400000000000000000000000000000000000A4
:100C50000000000000000000000000000000000094
:100C60000000000000000000000000000000000084
:100C70000000000000000000000000000000000074
:100C80000000000000000000000000000000000064
:100C90000000000000000000000000000000000054
:100CA0000000000000000000000000000000000044
:100CB0000000000000000000000000000000000034
:100CC0000000000000000000000011241FBECFEF54
:100CD000DAE0DEBFCDBF11E0A0E0B1E0EEEBFCE674
:100CE00002C005900D92A838B107D9F725E0A8E811
:100CF000B1E001C01D92AF39B207E1F70E94592A55
:100D00000C9432360C940000863124E6920789F068
:100D100030F48F30944669F086E990E0089584308D
:100D200028E6920719F083339847B1F78AEF90E0ED
:100D3000089581EE90E00895E8EDF0E080818E7FE7
:100D400080831092E2001092DA001092E100A0EE8F
:100D5000B0E08C9181608C9380818F77808319BC07
:100D6000A7EDB0E08C918E7F8C9380818F7E808305
:100D700010927B0308952091E4003091E50095E600
:100D8000A9012091EC00822F817020FF06C0809184
:100D9000E80080FF06C080E008952091E80022FD71
:100DA0001AC080919203882389F0853089F0809160
:100DB000EB0085FD0FC02091E4003091E500421763
:100DC0005307F9F29150E1F684E0089582E0089526
:100DD00083E0089581E00895EF92FF920F931F93AF
:100DE000CF937C018B010E94BB06C82F811117C0D5
:100DF0008091E80085FD0BC08091E8008E7780939C
:100E0000E8000E94BB06882399F3C82F08C0F701A9
:100E100081917F018093F1000150110949F78C2FD6
:100E2000CF911F910F91FF90EF900895CF93FC0108
:100E300080919203843001F5C091E900CF70209138
:100E4000EC00922F917020FD90E8C92B82E08093F6
:100E5000E9008091E80080FF0CC050E040E060E2D3
:100E600070E0CF010E94EC068091E8008E778093BD
:100E7000E800CF70C093E900CF91089580918A0374
:100E800087FF13C08091E80082FF06C08091E800D0
:100E90008B778093E80004C0809192038111F2CF98
:100EA0000895809192038823D9F38091E80080FF10
:100EB000F8CF8091E8008E77ECCF982F9093E900DF
:100EC000242F762F50E0891731F07091EC0020919B
:100ED000ED005091F00021FD07C09F5F973071F742
:100EE0008093E90081E008953091EB003E7F3093DC
:100EF000EB003091ED003D7F3093ED003091EB0041
:100F000031603093EB007093EC002093ED00509330
:100F1000F0002091EE0027FDE0CF80E00895B0E0E2
:100F2000A0E0E5E9F7E00C945B35C8EDD0E08881FE
:100F30008F7E8883E7EDF0E080818160808384E0AC
:100F400082BF81E080937B0388818E7F888302EE5D
:100F500010E0F80110821092DA0081EEC82ED12C38
:100F6000F601108288818F778883888180688883E2
:100F700088818F7D888319BC109292031092890317
:100F8000109288031092870390EEE92EF12CF7015E
:100F900080818B7F808388818160888342E060E0EC
:100FA00080E00E945D07F60180818E7F8083F801DA
:100FB000808181608083808188608083F701808167
:100FC0008E7F8083888180618883CDB7DEB7E8E03B
:100FD0000C947735FC0180919003909191038617D2
:100FE0009707A0F06115710529F49091E8009E77AC
:100FF0009093E80090E06115710551F4911108C0DB
:101000008091E80082FF34C080E00895BC01F2CFF7
:10101000809192038823C1F18530C1F18091E8006D
:1010200083FD30C08091E80082FDEACF8091E80026
:1010300080FFE1CF8091F3002091F200382F6115FD
:10104000710519F02830310558F091E0283031054C
:1010500009F090E02091E8002E772093E800CBCFB4
:1010600081918093F100615071092F5F3F4FE7CF6D
:1010700080919203882341F0853041F08091E8000F
:1010800083FFBECF81E0089582E0089583E0089554
:101090000895089580917E03089587E797E79093D8
:1010A00001088093000888E19AE00FB6F894A895AB
:1010B000809360000FBE90936000FFCF2FB7F8942D
:1010C000609174037091750380917603909177031A
:1010D0002FBF08959C01FC0132969FEF80E0419163
:1010E000461751F09F3F19F4411101C0982F8F5FAF
:1010F0008630A9F79F3F09F40895290F311D97FD08
:101100003A95F90162830895209171033091720339
:101110002817390771F09093720380937103E0915F
:101120006F03F0917003309721F00084F185E02D7A
:101130000995089520916D0330916E0328173907A2
:1011400071F090936E0380936D03E0916F03F091C3
:101150007003309721F00680F781E02D09950895FE
:10116000E0916F03F0917003309729F00190F081C6
:10117000E02D0995089580E00895CF93DF93EC0169
:1011800040913303509134036091350370913603DD
:101190002FB7F8948091740390917503A091760312
:1011A000B09177032FBF841B950BA60BB70B843F21
:1011B0009140A105B10518F5809133039091340356
:1011C000A0913503B091360380932F0390933003A1
:1011D000A0933103B093320384EF91E0A0E0B0E03C
:1011E00080932B0390932C03A0932D03B0932E0395
:1011F000D0933B03C0933A03DF91CF9108950E94AF
:101200005E0860932F0370933003809331039093B3
:10121000320382E390E0A0E0B0E0E2CFFC01848101
:10122000862351F492819923B9F06923808583FF45
:1012300005C081E061110FC080E00895892F8F7093
:1012400092959F70982B862F8F7062956F70682B88
:1012500081E09613F1CF089581E0FDCF452B39F061
:10126000682381E06F3F09F080E08170089581E09C
:10127000FCCFDC016091270380912803962F89130E
:1012800001C00895292F30E0F901EE0FFF1FE15E44
:10129000FC4F408151814A175B07A1F487E08A9F88
:1012A000A0018B9F500D11244F5E5C4F81E0FA012D
:1012B00084839613E6CF2F5F3F4F2370332720930D
:1012C000270308952F5F3F4F922F9370D8CF10922E
:1012D000AE021092AD0280911603811104C01092EB
:1012E00015031092170380911D03811104C0109201
:1012F0001C0310921E03089581152CE5920741F4FA
:1013000020919E0230919F02232B11F490E080E007
:10131000089580915402982F9E7F39F48091540251
:10132000817082608093540208958430B8F70895E4
:10133000AF92BF92DF92EF92FF920F931F93CF93E2
:10134000DF93082F162FE901E42FF0E0E252FC4F63
:10135000611110C0E4915E2F4E2F4983E8835A83B8
:10136000DF91CF911F910F91FF90EF90DF90BF9091
:10137000AF900895E62EF12C4491D42EE42FF0E0A6
:1013800026E0829FC00111242FEF30E0B9010E94B6
:101390003D35802F90E0880F991F55E5569FD0016D
:1013A000579FB00D11248A1B9B0B982F990F890F03
:1013B0005901AE18BF08AE9ED001AF9EB00DBE9EC3
:1013C000B00D11245B2F189F80011124012F1127CC
:1013D0005901A01AB10AAE9E8001AF9E100DBE9EAB
:1013E000100D11245901A81AB108AE9CC001AF9C80
:1013F000900DBE9C900D1124892F9927281B390B25
:101400002E9FC0012F9F900D3E9F900D1124E92F1C
:1014100062307105A1F050F46115710509F49DCF9A
:101420006130710581F0EB2F512F97CF643071053A
:1014300069F080F06630710509F48FCFF4CFE42FA6
:101440004B2F592F8ACFE42F412F87CFEB2F542FCB
:10145000492F83CF4B2F5D2DE12F7FCF80E0089563
:10146000F894E82FE295EF70F0E031A1282F2F706B
:1014700081E090E001C0880F2A95EAF7982F9095B7
:10148000932391A392A1892B82A37894089590919C
:101490000B0292FF06C0282F28712830F9F4877FAD
:1014A000846093FF06C0282F28712831F1F4877ECD
:1014B000846120910C0220FF06C0382F387138302B
:1014C000D9F4877F816021FF06C0282F2871283139
:1014D000D1F4877E816194FD877E0895282F247141
:1014E0002430F9F68B7F8860DCCF282F24712431DB
:1014F00001F78B7E8861DDCF382F3171313019F7DC
:101500008E7F8860E0CF282F2171213121F78E7ED8
:101510008861E1CFCF93DF93EC0182389105A9F187
:10152000D8F58133910509F496C048F589329105C3
:1015300009F48AC08A9709F495C0C11522E5D2073B
:1015400008F0B6C0C11531E5D30708F026C1C83E82
:10155000D10508F09CC0C03ED10560F5C83AD10560
:1015600008F087C0C53AD10508F0EFC0C130D105F9
:1015700009F12097F9F0C430D105E0F440C085337B
:10158000910509F45AC0C997C1F680910B02837086
:1015900089F0C0EED0E00EC0833E910599F170F461
:1015A000803E910501F1823E910539F680910B0252
:1015B00082FD21C0CE01DF91CF910895863E910535
:1015C00061F1873E910571F1843E910509F0B5CF37
:1015D00080910C0281FFEECF80910B02C7EED0E02C
:1015E00084FD0DC0E7CF80910B0280FD07C1909173
:1015F0000C0290FFDFCFC3EED0E084FFDBCFD0E062
:10160000C0E0D8CF80910B0282FDFBC090910C020C
:1016100090FDBFCF84FFCECFF2CF80910B0283FD30
:10162000DDCFC8CF80910B0283FDEEC090910C02FC
:1016300091FFF0CFC4EED0E0BDCF80910B0285FFCB
:10164000B9CFC9E2D0E0B6CF80910B0285FFB2CF0F
:10165000C5E3D0E0AFCF80910B0286FFABCFCAE2EB
:10166000D0E0A8CF80910B0286FFA4CFC1E3D0E0E9
:10167000A1CFCF3BD10518F6C85AD0E0CC0FDD1F63
:10168000CD5DDE4F0990D881C02DD46493CFC115B4
:1016900040E5D40708F064C0C11580E4D80708F01D
:1016A0005CC0CE019A9581159F4108F483CFA7CFE6
:1016B000C11536E5D30718F5C11545E5D40708F07F
:1016C00084C0C11584E5D80708F07AC09C2F969590
:1016D00096959E0123703327C115D34508F462C047
:1016E000C1E0D0E002C0CC0FDD1F2A95E2F730E266
:1016F000939FC0011124C82BD92BDA685BCFC11589
:101700008AE5D80778F4C11599E5D90708F068C0CB
:10171000C11528E5D20708F472CFDC2FCC27C06FA3
:10172000D06A48CFCE0190568115904208F067CF1D
:101730008D2F8F710E94470A90E0982F8827882765
:101740009F719C012C2BE90149C0C55AD0E0C05EB5
:10175000DE4FC881D0E0D0642DCFDF70D06A2ACFB1
:10176000CE01E4E096958795EA95E1F783702C2FFA
:1017700026952695237040E2249F90011124382B52
:101780008C2F8370C1E0D0E002C0CC0FDD1F8A95A2
:10179000E2F7C22BD32BDC680DCFDC2FCC27C16F37
:1017A000D06A08CFC1E0D0E002C0CC0FDD1F2A957F
:1017B000E2F720E2929FC0011124C82BD92BEBCF76
:1017C000DC2FCC27C46FD06AF5CE8C2F0E94470A3D
:1017D000C82FD0E0DC2FCC27CC27DF71D062EACE37
:1017E0008C2F8F700E94470A34E0D695C7953A95A2
:1017F000E1F7CF709C2FEC01D069DCCEC9E3D0E0DB
:10180000D9CEC2EED0E0D6CEC6EED0E0D3CE809117
:10181000FE01882331F01092FE011092FD0110921A
:10182000FC010895809590913E03982390933E0388
:101830000895809590917C03982390937C0308955C
:101840001092F3011092F2011092F1010895ECE868
:10185000F1E09191891303C0DF0111971C9291E08F
:10186000E239F907B1F708952091F0019091AF01A5
:10187000291302C080E0089530E0F90153E0EE0F33
:10188000FF1F5A95E1F7E055FE4F5181561306C0F0
:101890005081581303C05281541304C02F5F3F4F2F
:1018A0002770E6CF81E008958091F0019091AF011B
:1018B000981301C008958F5F8770FACFA82FA77083
:1018C00023E0969587952A95E1F7FC01EE0FFF1F1F
:1018D000E80FF91FE60FF71F50E040E080E021918C
:1018E00030E00A2E02C0369527950A94E2F721705F
:1018F0003327042E01C0220F0A94EAF7822B4F5F90
:101900005F4F4330510559F70895903FC9F0983023
:1019100080F48530A8F4282F30E068E971E0A9014F
:10192000E5E09E9F400D511D1124CA010E945E0CEE
:1019300008959C5F923020F465E971E090E0F6CF65
:1019400080E00895262F277091E001C0990F2A9515
:10195000EAF723E0769567952A95E1F7FB01EE0F0C
:10196000FF1FE60FF71FE40FF51F50E040E0682F60
:1019700070E08191DF0111979B01042E02C0369522
:1019800027950A94E2F721702195282729232827F3
:101990002C934F5F5F4F4330510559F70895282F1F
:1019A000862F903F79F0983070F4253058F4622FEC
:1019B00070E025E0929F600D711D112448E951E00F
:1019C0000E94A20C08959C5F9230E0F7622F70E0B5
:1019D00045E951E0F5CF982F92959F7011F0892F2E
:1019E00094E0282F2695269511F09E5F822F8695EC
:1019F00009F09F5F892F08959C013A9521153F4179
:101A000050F5FC01EE27F170BC0166277270AC0145
:101A1000442754709C012227387094FF0EC080E147
:101A2000EF2B09F480E0672B09F08062452B09F069
:101A30008064232B89F08068089581E0EF2B09F4FE
:101A400080E0672B09F08260452B09F08460232B2E
:101A500019F08860089580E00895CF93DF93682F90
:101A600081E06A3019F06D3031F480E00E94AD0DF4
:101A7000DF91CF91089580919D0590919E0526E07C
:101A8000FC01A7E9B5E001900D922A95E1F7603ECF
:101A900008F458C026E0FC0111922A95E9F7C0919C
:101AA0009D05D0919E0546E050E0BE0187E995E096
:101AB0000E94BE359E0127593340892B41F1C9014F
:101AC00045E0969587954A95E1F741E050E0BA01E7
:101AD00002C0660F771F8A95E2F7CB0160919503EC
:101AE00070919603862B972BB9016B5F7F4FE5E0D2
:101AF00076956795EA95E1F702C0440F551F6A9500
:101B0000E2F7842B952B90939603809395032A5F9D
:101B10003F4F40919403642F70E0C9010E943D350E
:101B2000481B463010F4240F311D211572E0370791
:101B300010F030E020E029563C4F30939E05209372
:101B40009D0596CFF6E06F9FB00111246757784F3F
:101B500046E050E00E94B535A2CFCF93382FE091F8
:101B60009D05F0919E05E759F34020919403622F63
:101B700070E0CF010E943D35281B822F332361F096
:101B800066E00E948835C82FC15010F4CF910895A7
:101B900080E20E942D0DF8CF9F01280F311D2115E5
:101BA000324018F080E0F0E0E0E08E0F9F2F911DB2
:101BB00089569C4F90939E0580939D05E7CFCF93C8
:101BC000DF93EC01FE018491811106C081E00E9447
:101BD000AD0DDF91CF9108950E942D0D2196F2CF8A
:101BE000B0E0A0E0E6EFFDE00C945B356C017B011A
:101BF00064E670E088E70E945434EC0197FD12C05F
:101C000010E000E0F601E00FF11F849164E670E05F
:101C10000E94C234EC01892B29F40F5F1F4F0E156F
:101C20001F0581F70E943935CE01CDB7DEB7E8E058
:101C30000C9477358091A8029091A902911103C06C
:101C400091E089270895882369F062E070E088EDCB
:101C500096E00E94F00D892B19F08091A80208955A
:101C60001092A8028091A802EBCFCF93C091A80256
:101C70008091A9028823D1F00E945E08605A7541C4
:101C80008F4F9F4F6093A4027093A5028093A6028A
:101C90009093A702C11108C062E070E086ED96E063
:101CA0000E94F00D892B29F0C091A8028C2FCF91B2
:101CB000089581E08093A802F7CF80937803709312
:101CC0007A0360937903809192038430F9F48093CE
:101CD000E9008FEF9091E800815095FD06C095EDE9
:101CE0009A95F1F700008111F5CF8091E80085FF0A
:101CF0000DC050E040E063E070E088E793E00E94B0
:101D0000EC068091E8008E778093E8000895BC018E
:101D100084E00E945D0E0895BC0183E00E945D0E88
:101D20000895CF93DF93EC0181E08093E9008FEF7A
:101D30009091E800815095FD06C095ED9A95F1F7D8
:101D400000008111F5CF8091E80085FF14C050E0BC
:101D500040E068E070E0CE010E94EC068091E8006F
:101D60008E778093E80088E0FE01AFE7B3E0019052
:101D70000D928A95E1F7DF91CF910895A5E0B0E04B
:101D8000E4ECFEE00C9454358091540280FF89C04D
:101D900080904F02909050028114910409F457C032
:101DA00080FF55C0D12CC12C66246394712C53E064
:101DB000552E80914E0293010C2C01C0220F0A94E3
:101DC000EAF7822309F43BC0F601EE0FFF1FE80D8E
:101DD000F91DE590F490E114F104C9F145E050E0FB
:101DE000B701CE0101960E94B53509810F3F39F147
:101DF0008A81800F9927991F1816190614F481E01B
:101E000090E05C01AA0CBB1C8A0D9B1D9C012F5A03
:101E10003D4F5901059D800111240F5A1D4F0A1590
:101E20001B0520F035E0E30EF11CD8CF98014D8161
:101E30006C818B810E9498090D5F1F4FF0CF5FEF7F
:101E4000C51AD50A88E0C816D10409F0B2CF539A52
:101E50003BB1377F2BB128604FB7F89481E592E012
:101E6000FC015191CF0168E02BB9000000C057FF81
:101E70003BB9550F000000C000C000C03BB900C016
:101E80006A9591F7F2E084359F0751F74FBF8FE5D0
:101E900094E00197F1F700C000002596EFE00C9464
:101EA000703510925202109251021092530270CF6C
:101EB000A3E0B0E0EEE5FFE00C945E35182F062FAE
:101EC000F42E8091540280FF1BC0E82FE695F0E0CD
:101ED000EA58FE4F908190934C028E7F823051F4ED
:101EE0009E012F5F3F4F812F0E94980980915402DD
:101EF00080FD0AC01093550200935602F0925702DB
:101F00002396E5E00C947A358B8199812A81209380
:101F1000520290935102809353020E94BE0EEACF68
:101F20008091540280FF0CC08170826080935402C3
:101F30004091570260915602809155020E94580FBD
:101F4000089521E030E0A90102C0440F551F8A9591
:101F5000E2F7CA0120914E02662369F0822B80933A
:101F60004E0280914D02811105C0809154028695E8
:101F70000E94900F089580958223F1CF81FB662700
:101F800060F981E00E94A10F0895CF93DF93CBE524
:101F9000D2E060E0CE010E94F6352196C11584E0C2
:101FA000D807B9F7DF91CF9108950F931F93CF937F
:101FB000DF93142F022F8630F0F461111CC094E0DF
:101FC000899FE0011124C95FDD4F82E090E0442346
:101FD00011F090E080E0632F8C0F9D1F0E94F6357A
:101FE00083E090E0112311F081E090E0602F8C0FEE
:101FF0009D1F0E94F635DF91CF911F910F9108959B
:102000001F93CF93DF93122F8630E0F46830D0F423
:102010004530C0F4C42FD0E0CC0FDD1F9AE0699F9B
:10202000C00DD11D112490E5899FC00DD11D112433
:10203000632FCE0187960E94F635612FCE018896D8
:102040000E94F635DF91CF911F910895CF93C82F4D
:102050006FEF811169E183E290E00E94F6356FEF46
:10206000C11160E684E290E00E94F6356FEFC11185
:102070006FE785E290E00E94F635CF910895AEE1DA
:10208000B0E0E5E4F0E10C945435A0909E02B090ED
:102090009F0281E090E090939F0280939E029EEDCC
:1020A000E92E94E0F92E26EFC22E24E0D22E10E085
:1020B000460100E015C0F30125913491452D602FB4
:1020C000812F0E94001082E0680E711C5394E5E09D
:1020D0005E12F1CFFAE08F0E911C0F5F083019F0FD
:1020E0003401512CE8CFF7012591349141E060E0B3
:1020F000812F0E94D50FF70132962591349140E04F
:1021000060E0812F0E94D50F84E0E80EF11C1F5F74
:10211000E0E5CE0ED11C163009F0CACF1A82198222
:102120001C821B821E821D8218861F8286E990E017
:102130009A8789874AE050E06FE172E0CE0101960C
:102140000E941A364AE050E069E272E0CE01019640
:102150000E941A368AE0F82E8E01055F1F4FF801A3
:102160008F2D11928A95E9F74AE050E063E372E01F
:10217000C8010E941A364AE050E06DE372E0C801DF
:102180000E941A36065F1F4FF8011192FA94E9F780
:102190008FEF9FEF9A8F898F87E08E8F4AE050E014
:1021A00067E472E0C8010E941A364AE050E061E537
:1021B00072E0C8010E941A36B0929F02A0929E025D
:1021C0006E96EFE00C94703580E00E94261060E07F
:1021D00086E290E00E94F6350E943F100E94C50FF3
:1021E00081E00E94261008959B01823070F49AE0ED
:1021F000899FB0011124615E7D4F4AE050E0C90122
:102200000E94D23590E080E008958FEF9FEF08950F
:10221000AAE0B0E0EEE0F1E10C94613588E19FE1E5
:1022200090934203809341038FE39FE19093440393
:102230008093430389E99EE190934603809345038D
:102240001092560310925503BE016F5F7F4F80E0DE
:102250000E94F410892B31F489859A859093540358
:102260008093530388E19FE1909358038093570331
:102270008FE39FE190935A038093590389E99EE18C
:1022800090935C0380935B0381E090E090936C03F8
:1022900080936B03BE016F5F7F4F0E94F410892B08
:1022A00031F489859A8590936A03809369032A960D
:1022B000E2E00C947D35AAE0B0E0E1E6F1E10C94B7
:1022C000573500E812E08AE7C82E82E0D82E97E45E
:1022D000E92E92E0F92E27E0922E39E7A32E32E084
:1022E000B32E88248394D6010D931D936D014AE08B
:1022F00050E0B701CE0101960E94D235F801389620
:10230000DF01892D1D928A95E9F789819A81D8018B
:1023100011969C938E938F8112968C9312978D8138
:1023200013968C931397888514968C9314978985AC
:1023300015968C9315978B819C8117969C938E9301
:10234000169718961C9218978A8587FF3CC01E9690
:102350001C921E921D9780FF03C0D80118968C9284
:1023600081FF04C0F80190859260908782FF07C0CA
:10237000D80118969C911897946018969C9383FFA7
:1023800004C0F80190859860908784FF07C0D80149
:1023900018969C911897906118969C9385FF04C09D
:1023A000F801808580628087015F1F4FFAE0EF0EA1
:1023B000F11C8BE5E81682E0F80609F094CF2A9626
:1023C000ECE00C947335F801B686A586C4CFAAE07C
:1023D000B0E0EDEEF1E10C945F35E5E6F2E084E18A
:1023E000DF011D928A95E9F723E133E08CE0D90102
:1023F0001D928A95E9F701E113E0D801ED93FC9372
:102400004AE050E063E372E0CE0101960E94D235CB
:1024100088E0FE013196A5E6B2E001900D928A9522
:10242000E1F789859A85F801938382838FE692E0AC
:10243000908787834AE050E06DE372E0CE01019619
:102440000E94D23588E0FE013196AFE6B2E00190FD
:102450000D928A95E1F789859A85D8011A969C9301
:102460008E9319972A96E4E00C947B35FF920F9394
:102470001F93CF93DF93F42E863040F5611126C071
:1024800024E0829F80011124095F1D4F82E090E0CB
:10249000442311F090E080E0800F911F0E94E2350C
:1024A000C82FD0E0DC2FCC2783E090E0FF2011F094
:1024B00081E090E0800F911F0E94E2359E01282B61
:1024C000C901CDB7DEB7E5E00C947A3590E080E045
:1024D000F8CF0F931F93CF93DF93863030F568309A
:1024E00020F5453010F5C42FD0E0CC0FDD1F2AE0D9
:1024F000629FC00DD11D112430E5839FC00DD11DF9
:102500001124CE0187960E94E235082F10E0102F8B
:102510000027CE0188960E94E2359801282BC90138
:10252000DF91CF911F910F91089590E080E0F8CF57
:10253000462F672F2091A2023091A302232BF9F49A
:10254000703F39F4403FD9F48091A0029091A102EC
:1025500008958630A0F4783028F4453080F40E9445
:10256000691208957D3F39F4411109C041E060E0EE
:102570000E94361208957C3F11F44423C1F390E089
:1025800080E00895CF92DF92FF920F931F93CF9335
:10259000DF936C01009193038091FF01082BC7E04A
:1025A000D0E010E0FC2EC8010C2E02C09595879556
:1025B0000A94E2F780FD0CC02197A0F7F12C8F2D33
:1025C000DF91CF911F910F91FF90DF90CF900895F1
:1025D000B6018C2F0E9498120E948A0A019761F31B
:1025E000EECFCF93DF93EC010E94C212BE010E9496
:1025F00098120E948A0ADF91CF910895FC0186818A
:102600009781009791F00E948A0A92959F70963068
:10261000B9F080F4925F9F70923080F4803F19F09F
:1026200058F4883E58F481E00895808191810E9499
:10263000F112EBCF9A5FEFCF843FA9F380E00895CA
:10264000883E88F3813FD1F7EECFA5E0B0E0EBE222
:10265000F3E10C9460359C01FC0186819781009721
:10266000E1F485E0DE01119601900D928A95E1F783
:10267000F901228189819A81222399F0662389F0C8
:102680000E94C212182F682F89819A810E94CF0C54
:1026900069817A81812F0E9498122596E3E00C943B
:1026A0007C350E94850C182FF3CF83E290E00E94C6
:1026B000E235893189F484E290E00E94E235803687
:1026C00059F485E290E00E94E23591E08F3709F0FD
:1026D00090E0892F8170089580E0FCCFCF92DF9247
:1026E000EF92FF92E4E5F2E083E0808311821282B0
:1026F00080E883831482C080D180E280F3800E94CE
:102700008909B701A60188E090E00E940836FF9091
:10271000EF90DF90CF90089568EE7EEF90E080E03C
:102720000E94143660E082E090E00E94F63560E09E
:1027300083E090E00E94F6351092FF0160E084E0B3
:1027400090E00E94F63564E082E290E00E94F63567
:1027500060E085E090E00E94F63560E086E090E081
:102760000E94F6356FEF87E090E00E94F63540E07A
:1027700050E0BA0188E090E00E94083660E08DE009
:1027800090E00E94F63540E050E0BA0188E190E028
:102790000E94083660E087E190E00E94F63540E054
:1027A00050E0BA018CE190E00E94083670E060E0F1
:1027B00080E290E00E94143640E050E0BA0188E1E7
:1027C00090E00E94083680E00E9426100E94E410EB
:1027D00040E050E0BA018FE090E00E94083640E00F
:1027E00050E0BA0183E190E00E940836089590E03D
:1027F00080E00E94F035883E9E4F19F40E945513E8
:10280000089580E008951F920F920FB60F92112441
:102810002F933F934F935F936F937F938F939F93E8
:10282000AF93BF93EF93FF938091E10082FF09C0C4
:102830008091E20082FF05C08091E1008B7F809350
:10284000E1008091DA0080FF24C08091D80080FFF1
:1028500020C08091DA008E7F8093DA008091D900C9
:1028600080FF9DC080E189BD82E189BD09B400FE81
:10287000FDCF81E08093920380917B03811109C099
:102880000E949C060E948F078091E20084608093E2
:10289000E2008091E10080FF17C08091E20080FF9C
:1028A00013C08091E2008E7F8093E2008091E2006D
:1028B00080618093E2008091D80080628093D8008C
:1028C00019BC85E0809392038091E10084FF2BC0C6
:1028D0008091E20084FF27C080E189BD82E189BD4B
:1028E00089B5982F917080FFFBCF8091D8008F7DA4
:1028F0008093D8008091E1008F7E8093E1008091E9
:10290000E2008F7E8093E2008091E20081608093FC
:10291000E20080918903882309F447C084E0809312
:102920009203809192038091E10083FF27C0809100
:10293000E20083FF23C08091E100877F8093E10064
:1029400082E080939203109289038091E1008E7F50
:102950008093E1008091E2008E7F8093E20080917D
:10296000E20080618093E20042E060E080E00E944B
:102970005D078091F00088608093F000FF91EF91F7
:10298000BF91AF919F918F917F916F915F914F9187
:102990003F912F910F900FBE0F901F90189519BC6B
:1029A0001092920310927B0374CF8091E30087FD15
:1029B00093E090939203B5CF78941F921FB61F9225
:1029C00011248F939F93AF93BF9380917403909141
:1029D0007503A0917603B09177030196A11DB11DF7
:1029E0008093740390937503A0937603B093770359
:1029F000BF91AF919F918F911F901FBE1F9018950F
:102A00009C014FB7F8948091740390917503A09145
:102A10007603B09177034FBF821B930B08952FB7B6
:102A2000F8948091740390917503A0917603B0910E
:102A300077032FBF08958091AC0281110FC01092CF
:102A40007C030E94070C0E940F1588579C4E9093A0
:102A5000AB028093AA0281E08093AC020895A8E0C3
:102A6000B0E0E5E3F5E10C9456358E010F5F1F4FA2
:102A700088E0F80111928A95E9F781E5C82E81E096
:102A8000D82EF12CE12CAA24A394B12C2EE5822E71
:102A900021E0922EF60181916F018F3F09F442C02F
:102AA000F894E82FE295EF70F0E021A18F70A50176
:102AB00002C0440F551F8A95E2F7CA01922F982B46
:102AC00091A392A18095892382A3789400C0E9E51F
:102AD000F1E0712C31E021912F3F09F45FC0A22F6A
:102AE000A295AF70B0E090968C9190E02F7002C0EC
:102AF000959587952A95E2F780FD50C0832F782A17
:102B0000330F8E169F0639F7F601319780818F3F7C
:102B100011F00E94300A50EA5A95F1F7F801EE0DD3
:102B2000FF1D70828FEFE81AF80AE8E0EE16F10454
:102B300009F0B0CF48E050E0B80183E092E00E9495
:102B4000BE35FF24F394009709F4F12C892B41F151
:102B500088E0F801A3E0B2E001900D928A95E1F7D8
:102B600081E0809302020E940F15909301028093EE
:102B7000000280910002909101020E9400150597C9
:102B800098F0E3E0F2E0A4E4B2E081918D9342E0BA
:102B9000EB30F407D1F71092020206C080E0AFCF0D
:102BA000809102028111E5CF8F2D2896EDE00C94E3
:102BB000723580917C0390913E03892B80938A012A
:102BC0008091FE01882319F10E940F152091FC01CC
:102BD0003091FD01821B930B8838934110F00E94C5
:102BE000070C80918A019091FE01892B80938A01C4
:102BF00020E08CE891E0FC013191CF0131112F5F91
:102C0000F1E082399F07B9F721110E94070C8091EA
:102C10003703809590918A01892390913803892BFD
:102C200080938A0148E050E064EF71E08AE891E027
:102C30000E94BE35892BA9F088E0EAE8F1E0A4EF14
:102C4000B1E001900D928A95E1F7E0916F03F09168
:102C50007003309731F00280F381E02D8AE891E033
:102C600009950895EF92FF920F931F93CF93DF93EF
:102C7000EC018A85811134C0EB80FC8087E5F81A6D
:102C800026E12E9DC0012F9D900D1124DC01AF5B2C
:102C9000BC4F1496ED91FC911597309731F05496F6
:102CA0006D917C91895B9C4F099586E18E9D800199
:102CB0008F9D100D11240F5B1C4FF80187810E941E
:102CC000190CF80180850E94120C0E94D9151882F7
:102CD00019861B861E821D821092400310923F03AC
:102CE000CDB7DEB7E6E00C947935CF93DF93EC01F6
:102CF0008989811119C081E0898B80917C039F8132
:102D0000892B80937C0380913E039885892B809347
:102D10003E030E94D915EA81FB81309729F06C8926
:102D20007D89CE0106960995DF91CF91089590E0B7
:102D300080E00E949A0890E080E00E94840810924F
:102D40003E030E94D9150895CF93C82F81FB6627B3
:102D500060F9811101C060E080E00E94A10FC09382
:102D600093030E949716CF91089580919303982F13
:102D70009670963021F488600E94A4160895877F8B
:102D8000FBCF21E030E001C0220F8A95EAF72095C1
:102D90008091930382230E94A41608959091F301D9
:102DA000809589238093F301282F277091F4282F91
:102DB000082E000C330B9217130659F090910C0259
:102DC00092FF07C08595859585950E94C1160E9442
:102DD000200C0895CF93C0910C02C2FB992790F963
:102DE000981791F080FBC2F9C0930C0260910B021E
:102DF00084E090E00E94F6356C2F82E290E00E9421
:102E0000F63582E00E94CE16CF91089521E030E0A1
:102E100001C0220F8A95EAF780919303822B0E94CA
:102E2000A41608958093FF010E9497160895ECE878
:102E3000F1E086E0DF011D928A95E9F70E9497167E
:102E40000895AAE2B0E0E7E2F7E10C9460358AE881
:102E500093E02091F100DC012D93CD01B3E08239A4
:102E60009B07B9F780918B03833009F472C0B8F4E3
:102E7000813009F449C0823009F4B5C08091E8007E
:102E800083FF98C280918A0390918B039A3008F057
:102E900091C2E92FF0E0EC5CF94C0C94A8358A3033
:102EA00009F490C08B3009F471C0893039F78091F2
:102EB0008A03813219F780918E0390918F030097D6
:102EC00011F00297D9F68091E800877F8093E8009F
:102ED0008091E80082FF38C09091F3008091F20069
:102EE000029731F48091F100813011F0863021F4A5
:102EF0008091F10080937E038091E8008B7780932E
:102F0000E8000E943E07BACF80918A03813A09F017
:102F1000B5CF8091E800877F8093E80080918E0391
:102F200090918F03892B61F468E08FE793E070E064
:102F30000E94EA078091E8008B778093E8009ECF9B
:102F400060E090E080E0F3CF809192038111C0CFE8
:102F500095CF80918A03813A09F090CF80918E03BA
:102F600090918F03892B09F089CF8091E800877FAA
:102F70008093E8008091E80080FFFCCF80911701EA
:102F80008093F1008091E8008E77B9CF80918A0319
:102F9000813209F073CF80918E0390918F03892B3A
:102FA00009F06CCF8091E800877F8093E8000E9451
:102FB0003E0780918C038093170110927C030E943E
:102FC00017175CCF80918A03813209F057CF809127
:102FD000E800877F8093E8000E943E0780918D0380
:102FE00080937D034BCF80918A03813A09F046CFCD
:102FF0008091E800877F8093E8008091E80080FF5F
:10300000FCCF80917D03BCCF803899F0823809F0E5
:10301000D1C180918E038F70873008F0CBC180932F
:10302000E9008091EB0085FB882780F91092E90088
:1030300006C08091870390918803911182609091DE
:10304000E800977F9093E8008093F1001092F100E0
:103050008091E8008E77AAC1882309F498C1823054
:1030600009F0A8C180918C0381119BC180918E03CE
:103070008F702FEF280F263008F09CC18093E90055
:103080002091EB0020FF8DC1933031F48091EB0053
:1030900080628093EB0085C19091EB0090619093EA
:1030A000EB0021E030E001C0220F8A95EAF720937F
:1030B000EA001092EA008091EB008860EACF81116B
:1030C00079C110918C031F778091E3008078812B68
:1030D0008093E3008091E800877F8093E8000E945E
:1030E0003E078091E80080FFFCCF8091E30080687C
:1030F0008093E30082E0111183E0809392035AC130
:103100008058823008F056C120918C0330918D0395
:103110002C3DE3E03E07A1F583E08A838AE28983C0
:103120004FB7F894DE01139620E03EE051E2E32F22
:10313000F0E050935700E49120FF03C0E295EF7058
:103140003F5FEF708E2F90E0EA30C0F0C7968D930E
:103150009D932F5F243159F74FBF8091E800877FFF
:103160008093E8006AE270E0CE0101960E94EA07CF
:103170008091E8008B778093E8001CC1C096E7CF70
:1031800080918E0390918F03432F55274330510533
:1031900009F44AC078F54130510509F485C08BE542
:1031A00090E0EAEDF6E04230510509F003C12091CC
:1031B000E800277F2093E80020919003309191034D
:1031C0008217930708F49C0140E02115310509F0AE
:1031D00070C041116EC08091E80082FDC9CF80911E
:1031E0009203882329F2853019F28091E80083FF49
:1031F000F2CFBECF4132510509F447C042325105EA
:1032000009F0D8C08330910508F0D4C0FC01EE0F5E
:10321000FF1FE558FE4F0190F081E02D88589E4F2A
:10322000DC018C9190E01DC0332721303105E9F09D
:103230002115310579F022303105F9F023303105BF
:1032400009F0B8C0E7E4F7E0E4918E2F90E0E7E4FE
:10325000F7E007C0E5E8F7E0E4918E2F90E0E5E8BD
:10326000F7E0009709F4A6C0A2CFE5E7F7E0E49104
:103270008E2F90E0E5E7F7E0F4CFE5E6F7E0E491A4
:103280008E2F90E0E5E6F7E0ECCF8330910508F073
:1032900091C0880F991FFC01EF57FE4F0190F081FC
:1032A000E02D89E090E083CF82E190E0E5E3F7E074
:1032B0007ECF80919203882309F45ACF853009F498
:1032C00057CF8091E80083FD53CF8091E80082FDC5
:1032D00082CF8091E80080FF78CF9091F3008091B9
:1032E000F2002115310519F08830910550F041E0C8
:1032F000089709F040E08091E8008E778093E8001D
:1033000064CF44914093F1003196215031090196E8
:10331000E8CF803809F04EC08091E800877F809325
:10332000E800809189038093F10092CE811142C020
:1033300010918C031230F0F58091E800877F809324
:10334000E800109389030E943E07112311F084E0E6
:1033500005C08091E30087FDFACF81E0809392035E
:1033600042E061EC81E00E945D0742E261EC84E0B2
:103370000E945D0742E261EC82E00E945D0742E24A
:1033800060EC83E00E945D078091920313C08091FE
:103390008C03813079F481E0933009F080E08093F0
:1033A00088031092E9008091E800877F8093E8000D
:1033B0000E943E078091E80083FF0AC08091E800E8
:1033C000877F8093E8008091EB0080628093EB0020
:1033D000AA96E3E00C947C351F920F920FB60F92E1
:1033E00011242F933F934F935F936F937F938F930A
:1033F0009F93AF93BF93CF93DF93EF93FF93D091BE
:10340000E900DF708091EC00C82FC17080FDC0E83A
:103410001092E9008091F000877F8093F00078940B
:103420000E9421171092E9008091F000886080933B
:10343000F000CD2BCF70C093E900FF91EF91DF91A9
:10344000CF91BF91AF919F918F917F916F915F913C
:103450004F913F912F910F900FBE0F901F90189595
:1034600010927C030E9417172FEF84E39CE02150F9
:1034700080409040E1F700C0000088E19AE00FB67C
:10348000F894A895809360000FBE90936000FFCFE2
:10349000882321F00E94120C0E94D9150895809172
:1034A000AC02882329F082E20E94481A1092AC02F2
:1034B0000895882339F090913E03982B90933E0312
:1034C0000E94D9150895882321F00E94190C0E94AA
:1034D000D9150895882339F090917C03982B909307
:1034E0007C030E94D9150895882339F19CEF980F29
:1034F000913A28F40E94270C0E94D915089590E271
:10350000980F983050F4877091E001C0990F8A9518
:10351000EAF7892F0E94190CEFCF9BE5980F9330A3
:1035200028F490E080E00E949A080895885A873134
:1035300020F490E080E00E9484080895FF920F93A9
:103540001F93CF93DF93F82E00913C0310913D031E
:103550000115110509F449C010923B0310923A037A
:103560001092370310923803D8011696CD91DC9152
:103570009E013A9521153F4108F4D07ED1E0C1115A
:1035800001C0D0E0D8011996ED91FC911A973097BF
:1035900031F01B966D917C9180E00995D823DD2355
:1035A00039F08CEF8C0F813A30F58C2F0E94270C6C
:1035B000FF2099F0E0913C03F0913D03808584FD6C
:1035C0000CC080913903882341F0808191819C0156
:1035D000215031092C3A3D45A0F00E94D915109296
:1035E0003D0310923C0310923903C801CDB7DEB7FA
:1035F000E5E00C947A350E94D9158C2F0E94741A3C
:10360000D7CF0E94BD08E9CFCF93C82F8823A9F058
:103610008CEF8C0F813A98F4ECE8F1E082E991E0CC
:103620002191C217B9F18E179F07D1F76C2F8AE845
:1036300091E00E946A080E94D915CF91089580E216
:103640008C0F883068F4C77021E030E001C0220F91
:10365000CA95EAF780917C03822B80937C03EBCFA1
:10366000EBE5EC0FE33040F4F0E0E05EFE4F8081EC
:1036700090E00E949A08E1CFC85AC731F0F6EC2FCB
:10368000F0E0EE0FFF1FED5DFE4F808191810E9403
:103690008408D3CF8C2F0E94270C0E94D915C6CF47
:1036A0001F93CF93DF93182FEB010E94041B2097E9
:1036B00039F4812F0E94741ADF91CF911F910895E0
:1036C0008FE99FE00197F1F700C000002197EFCF4D
:1036D000B0E0A0E0EEE6FBE10C945935EC018AE0A5
:1036E000A82E2881222309F49FC0213009F03FC071
:1036F00099818A81913051F4229670E060E089339B
:1037000011F460E570E00E94501B05C0923029F46E
:1037100022960E94041B2196E4CF933021F4229636
:103720000E94741AF8CF943011F02196F4CF2296AB
:1037300030E020E0AE014F5F5F4F8053990B8A303D
:10374000910550F02150310930F38FE99FE0019746
:10375000F1F700C00000F6CFA29EB001A39E700D4D
:1037600011249C01260F371F8981EA01E3CFE22F44
:10377000F0E0EC57FE4FB490822F869586958695A3
:1037800090E0FC01EC58FE4FE4902770F12C022EE3
:1037900002C0F594E7940A94E2F731E0E322FF24B3
:1037A000FC01EC59FE4FC490D12C022E02C0D594DE
:1037B000C7940A94E2F731E0C322DD24FC01EC5AFD
:1037C000FE4F049110E002C0159507952A95E2F787
:1037D00001701127E114F10419F081EE0E94041B1D
:1037E000C114D10419F086EE0E94041B89E370E035
:1037F00060E0B81202C060E570E08B2D0E94501BA3
:10380000C114D10419F086EE0E94741AE114F10477
:1038100019F081EE0E94741A0115110509F47BCF8D
:1038200070E060E08CE26FCFCDB7DEB7EAE00C94D9
:103830007535CF93DF93EC010E94FC0C9E01205E56
:1038400031092830310510F0209741F40E946A1A9E
:103850008C2F0E94041BDF91CF9108950E94591A6A
:10386000F7CF90910C0292FF10C098E0899F9001D1
:103870001124622B6093F3010E9406170E940F151A
:103880009093F2018093F10108950E940617089524
:10389000A9E1B0E0EEE4FCE10C945135498B5A8B80
:1038A0006B8B7C8B8D8B611110923E031D861E8667
:1038B0001F86188A85E0FE017196DE011996019037
:1038C0000D928A95E1F780910C0282FF1CC00E9444
:1038D0000F152091F1013091F201821B930B883872
:1038E000934120F08091F30182FFE7C10E940F1500
:1038F0002091FC013091FD01821B930B883893418C
:1039000010F00E94070C4C855D856A8589850E94B0
:103910002E09811111C061E0CE0109960E94251384
:103920006C018B8547EFC4164CE5D40681F48823DF
:1039300021F181E08093160129853A854B855C85CC
:103940006D857E858F8598890E94D128C4C068EFD7
:10395000C6166CE5D60629F4882379F00E948F29D3
:10396000EBCF79EFC7167CE5D70639F4882329F029
:10397000809116018111F2CFDCCF01E113E0E12C3F
:10398000B12CA12C88248394912C3EEF532E4424F7
:103990004394F8014081518166246A94762C20E09A
:1039A000822F90E0FC01EE0FFF1FE40FF51F6081F6
:1039B00071816115710551F0C616D70609F43C01F5
:1039C0002F5FEECFAA24A394B12CE3CFF12CFFEF0D
:1039D0006F167F0609F444C0F8014481F090160187
:1039E0008F2D411180E0F82FF170FF2EF801258016
:1039F00086819B85992309F4EFC0FF2009F4ECC070
:103A0000211014C0A401062C01C0440F0A94EAF747
:103A1000842B86838091AD029091AE02C29730F4E0
:103A200062E370E07093AE026093AD02C40102C025
:103A3000880F991F2A95E2F70197F8012681281728
:103A4000190671F48091290390912A03009709F4D3
:103A500046C00E940015C39708F441C0F801448293
:103A6000EF28095F1F4FF1E0AF16B10409F0AACFAC
:103A70008B85882309F40CC1EE2009F409C10E944A
:103A80000F1590932A03809329038091B002883008
:103A900010F591E0980F9093B00298E0FE013996EE
:103AA000DE01119601900D929A95E1F72CE0829F2C
:103AB000C00111248F549D4F28E0FE013196DC0196
:103AC00001900D922A95E1F72FEF3FEFFC0131872E
:103AD0002087D386C2866996E2E10C946D35809189
:103AE000270350912803982FF0E0E0E0851314C0DD
:103AF00090932703E017F10709F4B2CF90E0FC019F
:103B0000EE0FFF1FE15EFC4FB182A0820196837031
:103B1000992780932803A4CF282E312CF101EE0F92
:103B2000FF1FE15EFC4F20813181F7E0F29FD00161
:103B3000F39FB00D1124AF5EBC4F2D913C911197B6
:103B4000398F288F40E020E030E0E32FF0E0EE0FE7
:103B5000FF1F688D798DE60FF71F608071806114FB
:103B60007104E1F0F8010190F081E02DFF8BEE8B04
:103B700020E005C06616770609F44F2D2F5FE22F6F
:103B8000F0E0EE0FFF1F6E897F89E60FF71F60815F
:103B900071816115710571F73F5FD7CF4423C9F07B
:103BA000F801231708F0FD0144820E171F0721F4C6
:103BB00090932703F42E54CF981305C0AE17BF0778
:103BC00011F49F5F937091012F5F3F4F822F83709D
:103BD0008DCFF0E0E0E0F7CF90E0211020C0B401FD
:103BE00002C0660F771F2A95E2F79B012150310929
:103BF0008217930731F4442309F448C0C5010E9499
:103C00003909C401062C01C0880F0A94EAF7982FDD
:103C10009095F801868189238683F22C21CF9C011F
:103C2000062C02C0359527950A94E2F7A901417048
:103C30005527BC016150710986239723892B11F503
:103C4000452B01F1F80182819381892BC1F01B8200
:103C50001C821D821E8259825A820E940F15816029
:103C6000582F9D838C83F801828193818F8398875D
:103C700029813A814B816D817E810E94D128F80192
:103C80001582BFCFF22FF1702F2EBBCF2F2CB9CFC3
:103C90009091270380912803981731F00E949E2964
:103CA000EE2009F449CE17CF0E94412910922A0331
:103CB000109229030E946709F3CF82E00E94CE167A
:103CC00015CEA5E0B0E0E7E6FEE10C945F358C018F
:103CD0009093A1028093A002011580E21807C0F41E
:103CE000802F0E94741AC8010E94FC0C9801205E6B
:103CF00031092830310518F00115110531F40E9401
:103D0000631A2596E4E00C947B350E94481AF9CF9B
:103D100080EF89838A831B820E940F158160782F30
:103D20009D838C8349815A816B818D810E94481CBF
:103D3000E8CF0F931F93CF93DF938C01EB016BE5DB
:103D400072E08C2F0E94F410892B71F4DD27C75A82
:103D5000DD4F8881F801108218828330F1F048F439
:103D6000813059F0823081F0DF91CF911F910F9116
:103D700008958430B9F08530B9F780915B02909155
:103D80005C02009789F306C080915D0290915E020B
:103D9000009799F30E94611EE7CF80915F02909196
:103DA0006002F6CF8091610290916202009791F7D4
:103DB00020915B0230915C0280915D0290915E02E5
:103DC00021153105F1F2009729F7C901E3CFA5E0EC
:103DD000B0E0EDEEFEE10C9461359093A10280938A
:103DE000A002811520E2920730F40E94191C25964A
:103DF000E2E00C947D3580EF89838A8381E08B83B8
:103E00000E940F158160782F9D838C8349815A8190
:103E10006B818D810E94481CEACFCF93DF93EC0128
:103E20000E94E71ECE010E94611EDF91CF9108958E
:103E30000F931F93CF93DF938C01862F6BE572E076
:103E40000E94F410892BB1F4C0915B02D0915C0206
:103E5000209781F0F8018081833051F4CE010E94D7
:103E60000D1FCE010E940D1FCE010E940D1F02C02A
:103E70008430D0F7DF91CF911F910F9108950F9368
:103E80001F93CF93DF938C01EB016BE572E08C2FD6
:103E90000E94F410892B09F061C0FE01FF27D801B0
:103EA0008C91E75AFD4F8130D9F419969C9119975E
:103EB000992311F080830CC01A969C919923D1F319
:103EC00082E0808380915D0290915E020097D9F438
:103ED00080915B0290915C02009709F43FC013C08F
:103EE0008230D1F519968C91199781112AC01A96B2
:103EF0008C9181110BC083E0808380915F0290914F
:103F00006002009701F10E94E71E28C084E08083D0
:103F100080916102909162020097A9F780915B0203
:103F200090915C020097F9F00E940D1F80915D0254
:103F300090915E02009739F780915B0290915C024C
:103F4000E2CF85E0808380915B0290915C020097D4
:103F500029F00E940D1FF0CF86E08083DF91CF9182
:103F60001F910F91089580915D0290915E02B4CFF0
:103F7000A7E0B0E0EEEBFFE10C9451357C01DC01F1
:103F800013964D915C91149711966C9111978C91A9
:103F90000E942E0981116BC161E0C7010E942513A7
:103FA0008C01F7018281811161C0D70112968C9139
:103FB00081119BC00031FFE51F0709F45CC101318D
:103FC0002FE5120709F45BC16801E7E5DE1AFFEF90
:103FD000CF16D10409F060F56BE572E08C2D0E94DC
:103FE000F410892B29F586E18C9DF0018D9DF00D53
:103FF0001124EF5BFC4F8681813009F042C1809132
:104000005B0290915C02892B99F080915D02909106
:104010005E02892B69F080915F029091600220918D
:10402000610230916202822B932B892B09F433C1F8
:10403000F7015280552009F440C10F35FDE51F07F7
:1040400009F437C100362DE5120751F00E353DE574
:10405000130709F032C180910001882309F429C1B6
:104060001092000180E00E949E1AF1C080910D0123
:1040700090910E01019609F498CF71E4C72E73E078
:10408000D72EB12CA12C9924939480910D0190915D
:104090000E018A159B050CF488CFF60186818823D2
:1040A000E9F0818592850817190739F480913F035B
:1040B000909140030817190789F0D6011F969C922A
:1040C0001F971C961C930E931B97C6010E94751692
:1040D000C60106960E94321610923E03BFEFAB1A3D
:1040E000BB0AE6E1CE0ED11CD0CFC80182519F455C
:1040F000409708F087C58FEF93E00E94E235811169
:10410000A6C06EEED62ED00E0BE512E0D11036C052
:1041100019821A821B821C8299249A9468012FEFBB
:10412000C21AD20AC8010E94E23589831A82882302
:1041300009F48DC0813009F07FC0580132E0A30E30
:10414000B11CC6010E94E235C82E8A83882309F477
:104150007EC0C5010E94E235D82E8FEF8C0D8330D2
:10416000D8F4580143E0A40EB11CDB82DD2021F01D
:10417000CE0101960E94681B8501D0CF0115F4E0A5
:104180001F0709F464C0C8010E94E235811101C013
:10419000DA940F5F1F4FBACF8BEF8C0D833030F561
:1041A000C8010396DB825C01DD2031F3580154E045
:1041B000A50EB11C0E94E2358C838823E9F28B8125
:1041C0009C818130AFEF9A0710F0982F8827B6E0D6
:1041D000CB1631F0E7E0CE1631F00E940D1FCCCFA8
:1041E0000E94E71EC9CF0E94611EC6CFF4E0CF1225
:1041F000C3CF580124E0A20EB11CC80103960E944F
:10420000E235DD2021F1882311F18150990B989E30
:104210009001999E300D11244D2D4150550BCA012E
:10422000820F931F019708F4A7CFAFE9BFE0119762
:10423000F1F700C00000F6CFCE0101960E94681B86
:1042400056019ACF81E00E9406170E94B516809110
:10425000F301877061F0D70112968C91882339F0B1
:1042600080910C0282FF03C082E00E94CE16279646
:10427000E2E10C946D3581E00E94C116E6CF82E048
:10428000FBCF823009F0D4CE80915F029091600222
:10429000892B09F4CDCE26E12C9DC0012D9D900DDA
:1042A00011248F5B9C4FDC0150961C920E94751666
:1042B000BFCE81E080930001CACF809100018823A6
:1042C00009F4CCC3480140EE841A91084090FE01E5
:1042D00080919401482A80917C03482A58E08516F1
:1042E000910408F086C098012770332781E090E0A0
:1042F00001C0880F2A95EAF7552009F477C0482AAB
:10430000D7018D919C910E94850C21E030E039010C
:1043100002C0660C771C8A95E2F7E0913C03F091AD
:104320003D03FF83EE8320909201309093011D8224
:104330002D81E22FF0E0EE0FFF1FE658FD4FC08009
:10434000D180C114D10409F448C4411005C0D6017C
:1043500012968C91811189C0F601838190E08621AB
:104360009721892B09F481C08085982F977009F4D3
:1043700087E0F8E08F16910408F055C0552009F445
:104380004EC086958170882309F46FC0D601AD9028
:10439000BC900A151B0519F4552009F466C0EE817E
:1043A000FF81CE16DF0609F460C0D6011D96ED919F
:1043B000FC91309721F08081882309F456C0642D48
:1043C000C6010E940E09882309F44FC00A151B0577
:1043D00009F024C40115110509F425C4511025C4A0
:1043E000A214B30409F041C0512C1FC48095482287
:1043F00087CF552009F4DAC31093930100939201FB
:104400000E945E08609333037093340380933503F6
:104410009093360310923B0310923A0371CF82FBC4
:10442000882780F9B0CF552001F18170ACCF0E9470
:10443000741A19C40497813A910558F46A2D8AE8D0
:1044400091E00E946A08552009F408C30E94D9151A
:10445000FECE0E94D9158FE39CE90197F1F700C0C9
:1044600000008A2D0E94041BEECF9D819F5F9D83DB
:104470005FCFFC01208131810217130709F0E7C2E9
:104480005110E7C21092390380E0B9C3882309F4C0
:1044900034C3FA018189882309F42FC3C501895BDC
:1044A0009C4F0E94321629C30C3AFDE51F0709F004
:1044B00024C3D70112968C91882309F4C8CE809129
:1044C000AC02882319F00E944F1AC1CE0E941B151E
:1044D000BECE0E940F1588579C4E9093AB028093DE
:1044E000AA02F7018281882309F415C38D2D8D79E5
:1044F00099F50115F5E51F07C0F4011523E512072D
:1045000008F009C3011530E5130750F4011540E424
:10451000140728F5063E110509F4FDC2C80127C09D
:10452000011552E51507D0F7F6C2011589E5180700
:1045300050F4011598E5190708F0EDC20431A5E51E
:104540001A0761F7E8C2C80190568115904230F70A
:10455000F7018581807F49F40E944F1ADCC2D701A0
:1045600015968C91807F09F4D6C2C80199271092C4
:104570003E038832910548F48E31910560F404972A
:1045800058F382E080933E0306C08D329105C9F353
:1045900028F48A9709F70E94D915BDC28C34910579
:1045A000D1F38D329240B9F3D7CF0A354DE51407D8
:1045B00081F158F401158CE5180791F00E3D1C456A
:1045C00009F0BAC20E948C1309C00C35ADE51A0778
:1045D000B1F008F1073A1D4509F0AEC20E94301A49
:1045E00010927C030E941717FFEF24E33CE0F15088
:1045F00020403040E1F700C000000E944D0880914B
:104600000C0282FB882780F991E089270E94EA1634
:1046100093C281E0FBCF80E0F9CF828100811181DC
:10462000882369F0C8010E94C212D82E682FC801E1
:104630000E94CF0CB8018D2D0E94981283C2C80130
:104640000E94850CD82EF6CF212F2F70D22E107FEE
:1046500019F0D29490EFD922CC20B9F0DD2069F086
:1046600080E2800F883010F0011109C080917C0336
:10467000D82AD0927C030E94D915802F40C0809107
:104680003E03D82AD0923E03F6CF802F0E94741AA0
:10469000DD20B9F180E2800F883010F0011104C0F4
:1046A0008D2D0E94190C03C08D2D0E94120C0E94AA
:1046B000D91527C0312F3F70D32E107F103219F03B
:1046C000D29480EFD822002351F0013009F490C039
:1046D000CC2009F499C0BB2009F466C0CECF8091EC
:1046E0000C0282FD3AC0CC2091F1DD2039F080919E
:1046F0007C03D82AD0927C030E94D91580E00E94C6
:10470000041BE92DE850FF0B349720F40E94B008F9
:104710000E94BE0FAA20B1F08091F30180FD12C06B
:10472000D70112961C928595859585950E9406174E
:10473000C7010E94B81F8091F301859585958595E5
:104740000E94C11660E0C7010E94251390CD80E051
:104750000E94741ADD20A9F2A3CFCC2049F1B11038
:1047600004C08091FE018D2920C041E0B41210C028
:1047700082FFC7CF8091FE01D82AD81611F20E947D
:104780000F159093FD018093FC01D092FE01B9CFEB
:1047900055E0B512E6CF0E94070C909194018D2D43
:1047A000892B8913809394018D2D0E946A1AA9CFB9
:1047B000B11003C00E94070C12C081E0B81213C0F0
:1047C00080917C038D2109F49CCF0E94070C90916D
:1047D00094018D2D809589238913809394018D2DCB
:1047E0000E94631A8ECF95E0B91609F48ACFE2CF02
:1047F000CC2029F0A5E0AB1508F483CFD5CFB4E0E9
:10480000BB1508F47ECFEBCFBB2049F3093349F445
:10481000EFEFF7EE23E0E150F0402040E1F700C079
:104820000000802F0E94741A6CCF812F8695869588
:10483000837061F0813009F064CFC8019370C110BA
:1048400002C090E080E00E9484085BCFC8019370B2
:10485000C11002C090E080E00E949A0852CF812FE0
:10486000837089F5C1104DCF402F42954695477012
:10487000440F440F802F8F70042E01C0880F0A94BC
:10488000EAF7202F207104FF07C02FE030E001C0BD
:10489000220F4A95EAF72095169516951370123057
:1048A00069F050F43091FF01113029F0822B8323FD
:1048B0000E94121726CF832B822BFACF282B8091B0
:1048C000FF018227F5CF8695CC2011F0812F8170D2
:1048D000882309F416CF402F429546954770440F20
:1048E000440F802F8F70042E01C0880F0A94EAF7BE
:1048F000202F207104FF07C02FE030E001C0220FFD
:104900004A95EAF72095169516951370123069F0BE
:1049100050F430919303113029F0822B83230E94AD
:10492000A416EFCE832B822BFACF282B80919303F2
:104930008227F5CF1F70CC2029F0812F0E94061707
:10494000802F33CF802F0E94631A812F0E94C116BF
:10495000D8CE023F89F160F4003FB9F0013F81F009
:10496000CC2009F464C0B11088CE812F8F7128C08B
:10497000033F49F1043FA1F780910C0282FD2FC053
:10498000812F8F71CC2011F31BC0CC2081F034E03B
:104990003B1508F4B6CE1F7181E090E0012E01C0F6
:1049A000880F0A94EAF7909193038927B8CF45E0DE
:1049B0004B1508F4A6CEEFCF812F8F71C110C6CF53
:1049C0000E9406179ECE80E0CC2009F4A8CF1F716C
:1049D00081E0012E01C0880F0A94EAF7A0CFCC2015
:1049E000C9F08091F3018770843041F40E94200C5B
:1049F000812F8F710E94C116A12C83CE54E05B15CC
:104A0000D8F31F71812F0E94061763E0812F0E9447
:104A1000311CF2CF84E08B1530F40E94200C64E04E
:104A2000812F8F71F4CF81E00E94CE16E5CFBB209D
:104A300059F0093309F0F5CE9FEFA7EEB3E091509E
:104A4000A040B040E1F7EBCE812F8F717FCF552092
:104A500029F0DC0118968C9185FF16CDC801975579
:104A60008F3F910511F008F01FCD20910D0130917D
:104A70000E012817390724F490930E0180930D013D
:104A8000F701228136E1389F5001399FB00C112483
:104A9000A5014F5B5C4F6A01DA0150962C93509749
:104AA000928116968C911697992309F4EFCC1A9659
:104AB0001C930E9319978F5F16968C930E940F1577
:104AC000F601968785878091FE01878380913E035A
:104AD00090917C03892B80870190F081E02D3097A5
:104AE00041F0D60154966D917C91C501895B9C4F34
:104AF00009951093400300933F03D090FE018091ED
:104B00007C03D82A8091AC028111E3CCB2E2DB12A3
:104B100002C00E941B15F7018281811146CD023C23
:104B2000FCE51F0748F0063D2CE5120708F48FCB83
:104B30000D35100709F48BCBF7018681978100971B
:104B400009F46BCD0E948A0A8C01F701C280B580FE
:104B5000B2943FE0B3228091F3018770C1F0AC2C96
:104B6000CC20B1F0812F807F803421F080E2800F53
:104B7000883068F080910C0282FF09C082E00E94B8
:104B8000CE168091F3018770AA24A3948111A12CE1
:104B9000912E92942FE09222FBE0F91508F4B1CD0A
:104BA000E92DF0E0E25CF94C0C94A835809192017B
:104BB000909193010817190781F4109293011092B4
:104BC0009201109233031092340310923503109225
:104BD000360310923B0310923A0380913C0390916C
:104BE0003D03009709F43ACFA8E08A16910408F033
:104BF00040CC642D0E940E09811130CF81E00E94CB
:104C00009E1A2CCF00313FE5130709F41BCB01316D
:104C10004FE5140709F00CCA82E015CBA114B104CA
:104C200009F0DECB512CB12CA12C80E00E949E1A01
:104C3000D0923D03C0923C0381E080933903F6019A
:104C400085818093370351100EC0AB2861F0F601C7
:104C5000808191819C0124503109213A310508F06D
:104C6000E6CB0E94270CD6011696AD90BC90C501EC
:104C70009A9581159F4110F4E0EEBE22772473943B
:104C8000C50101978C3A9D4508F0712CD601199603
:104C9000ED91FC911A97309731F01B966D917C91B4
:104CA00081E009957822772079F0F6018681978155
:104CB0000E94FC0C80933803C501F8E08F16910424
:104CC00008F0B8CB0E94BD080E94D915BCCBB0E05B
:104CD000A0E0EDE6F6E20C945B358091AC01807FBC
:104CE00031F48091A901C091F001811107C0CDB7C5
:104CF000DEB7E8E00C9477352196C7708091AF015C
:104D00008C17A9F3F090A701E090A801C090AA0128
:104D1000D090AB01A6016E2D8F2D0E942E09D0E000
:104D20008111EACF8E0183E0000F111F8A95E1F710
:104D3000F801E055FE4F81818E11DECF80818F1109
:104D4000DBCF82818111D8CFE380F480EC18FD089D
:104D500060E087EA91E00E9425130E948406E8162D
:104D6000F90650F68091AC018F7080618093AC01A0
:104D7000F801EB54FE4F80818F708061808387EA59
:104D800091E00E94B81F0E94540CB1CFA5E1B0E0A1
:104D9000ECECF6E20C9452358C0185E0F801DE0172
:104DA000519601900D928A95E1F7D8016C90119679
:104DB0007C9011971296EC9012971396AD90BC9040
:104DC00060E087EA91E00E9425136C0187EA482E93
:104DD00081E0582E8090AA019090AB01A4016091CF
:104DE000A8018091A7010E942E098111BFC1F090F6
:104DF000A901F501E819F9094F0160E0FF2009F464
:104E00004EC1C2010E9425130E9484063090AC015D
:104E10008816990608F0F6C04091AA015091AB019E
:104E20009090A7018090A801832D807F682D09F0C4
:104E300090C0892D0E942E09FE2C811126C0D80118
:104E400011968C911197881120C08C9189111DC0E9
:104E50002091AD013091AE0116968D919C9128174D
:104E6000390799F4E11011C0832D8F708061809310
:104E7000AC01C2010E94B81F8091AC01F80185838A
:104E80008F2D6596E1E10C946E35C6010E94840673
:104E90006C01A501672D862D0E942E09B82EF4EF16
:104EA000CF16F1E0DF06D0F081E08E25B11080E072
:104EB00080FF14C04E2D672D862D0E94340C882350
:104EC00069F087EA91E00E94B81F88E0E7EAF1E024
:104ED000DF011D928A95E9F7F12CD2CF81E08E2572
:104EE000B11080E0B82FB170CB2E80FF29C04E2DBD
:104EF000672D862D0E94340CD82E811121C0698A1D
:104F00007A8A89899A890E94F112292F22952F7015
:104F1000223050F0243078F49F7051F0F8019581E0
:104F2000907F31F4FD2CACCF9F7011F08823D1F32A
:104F3000805E8830B8F3C8010E94B81FDC2CF2CF25
:104F4000EE2009F49DCF8091AC0181608093AC018B
:104F5000C3CF892D0E942E09811124C0D80111963A
:104F60008C91119788111EC08C9189111BC02091C2
:104F7000AD013091AE0116968D919C91179728172F
:104F8000390781F4E1100EC015963C92C8010E94C9
:104F9000B81F88E0F801A7EAB1E001900D928A9568
:104FA000E1F76ECFC8010E94FE12882339F1EE208E
:104FB00029F18091AC018032A0F02091A7013091BD
:104FC000A8013A8729871B86BD86AC868E8780918B
:104FD000AD019091AE01988B8F87CE0109960E940A
:104FE000B81F88E0F801A7EAB1E001900D928A9518
:104FF000E1F70E946726FF24F39442CFC8010E9484
:10500000B81FF9CF832D807F09F45BCFD090A70123
:10501000C090A8014091AA015091AB016C2D8D2D3B
:105020000E942E0981111CC0F80181818C1118C0C9
:1050300080818D1115C02091AD013091AE01868126
:1050400097812817390761F4E1100AC03582C80139
:105050000E94B81F88E0D2011D928A95E9F710CF0F
:10506000C8010E94FE12882349F2EE2039F2809195
:10507000AC01803208F4B5CF2091A7013091A8018E
:105080003A8329831B82BD82AC828E838091AD01DD
:105090009091AE0198878F83CE010196A0CF87EAC9
:1050A00091E00E9425130E9484068816990608F054
:1050B00057C0FE2CEE2009F4A1CFE090A701B090DC
:1050C000A8014091AA015091AB016B2D8E2D0E9439
:1050D0002E09811137C0F80181818B1133C0808185
:1050E0008E1130C02091AD013091AE018681978143
:1050F0002817390739F5FCE2CF16F4E4DF0659F03A
:105100002CE4C21624E7D20631F08AE2C81682E403
:10511000D80609F03ECF8091AC0180FD3ACF982FA0
:10512000907F09F436CFD80115968C931597903F50
:1051300009F42CCF982F907F905F8F70892B159654
:105140008C9324CFC8010E94FE1281114ACF809116
:10515000AC0181608093AC01C8010E94B81F90CE61
:1051600088E0F20111928A95E9F78ACEEE2009F4DF
:1051700045CFC8010E94FE12F82E882309F43ECFC5
:1051800088E0F801A7EAB1E001900D928A95E1F775
:105190008091A7019091A8010E94F1120E946726B8
:1051A0006FCEA0E1B0E0E7EDF8E20C94613529871D
:1051B0003A874B875C876D877E878F87988BCE0178
:1051C00009960E94C62681112FC088E0FE013996FB
:1051D000DE01119601900D928A95E1F74C855D856F
:1051E0006A8589850E942E0981111EC0A091AF0198
:1051F000B0E0CD010196877099272091F001281722
:105200001906E1F093E0AA0FBB1F9A95E1F7A055AC
:10521000BE4F98E0FE01319601900D929A95E1F70C
:105220008093AF010E94540C8091F0019091AF01E6
:10523000891314C06096E2E00C947D3510927C03D3
:105240000E9417171092AF011092F00188E0E7EA70
:10525000F1E0DF011D928A95E9F7E6CFB8E08B9F78
:10526000C001112480559E4F0E94C626882311F349
:105270008091F00190E00196877099278093F0016A
:10528000D3CFEF92FF920F931F93CF93DF93809131
:10529000B002882361F0C091AF028CE0F82E8091BB
:1052A000B002C81748F01092B0021092AF02CDB70A
:1052B000DEB7E6E00C947935EE24E394EC0EE09250
:1052C000AF020C2F10E0CF9DE0011124CF54DD4F31
:1052D0004B815C81698188810E942E0981111DC0EA
:1052E0008E819F81892B21F488859985019651F4BF
:1052F000288139814A815B816C817D818E819F818A
:105300000E94D128F09EF001F19EF00D1124EF547F
:10531000FD4F1482138210923E03CE2DC0CF109207
:105320002A0310922903109216018091280380937A
:1053300027030E9467090E9441290895B0E0A0E078
:10534000E4EAF9E20C945235C091270397E0892EE4
:1053500001E010E02CE0322E3EEF932E44244394E3
:10536000809128038C1309C00E9441290E9467097B
:10537000CDB7DEB7E1E10C946E35D0E0FE01EE0F63
:10538000FF1FE15EFC4F80819181889ED001899E44
:10539000B00D1124AF5EBC4F14962C9114972111BF
:1053A00058C05090B002E1EBF2E030E020E0712C08
:1053B0005D01251508F04BC0E284F384D501CD9042
:1053C000DC906FEF7FEF612C462D50E0DA01AA0FE1
:1053D000BB1FAC0DBD1D0D90BC91A02D109731F0E1
:1053E000EA16FB0609F4BA016394EECF6F3F760725
:1053F000A9F1D80102C0AA0FBB1F6A95E2F77A2A69
:10540000B801062C02C0660F771F0A94E2F7AB01C1
:105410004150510974161506F9F4329EF001339E7D
:10542000F00D1124EF54FD4F889ED001899EB00DE0
:105430001124AF5EBC4F12962D913C911397378388
:105440002683908291829187808715964C920E9444
:1054500039092196C37084CF148213822F5F3F4F86
:105460003C96A7CF1F921FB61F9211248F939F9334
:10547000AF93BF9380917303811113C08091740324
:1054800090917503A0917603B09177034196A11D89
:10549000B11D8093740390937503A0937603B0932A
:1054A0007703BF91AF919F918F911F901FBE1F9067
:1054B0001895CDB7DEB7C555D1090FB6F894DEBF44
:1054C0000FBECDBF85B7806885BF85B7806885BFB3
:1054D00084B7877F84BF0FB6F894A8958091600049
:1054E000886180936000109260000FBE80E890E0B9
:1054F0000FB6F89480936100909361000FBE8EE226
:105500009AE090938901809388010E9408110E947B
:10551000E7110E945B110E949C060E948F078091F8
:10552000E20084608093E200789480919203882363
:10553000A1F01091E9001F709091EC00892F81700B
:1055400090FD80E8182B1092E9008091E80083FD1F
:105550000E9421171F701093E90082E084BD93E040
:1055600095BD9AEF97BD80936E000E9455138111EF
:1055700002C00E94E41001E511E039E5E32E31E0BC
:10558000F32ED8018D918D018F3F11F00E94300ACA
:10559000E016F106B1F709E511E0F80181918F01FC
:1055A0008F3F11F00E94300AF1E00E351F07A9F776
:1055B00088E0E4E4F2E0DF01282F1D922A95E9F764
:1055C000E3E0F2E0DF011D928A95E9F70E94F7130C
:1055D000811102C00E948C1382E090E00E94E235AB
:1055E0008093100284E090E00E94E235182F82E25E
:1055F00090E00E94E235982F812F90930C028093C7
:105600000B020E942F15EFE3FCE93197F1F700C080
:1056100000000E942F158091440280FF08C06FEFA8
:105620007FEF90E080E00E9414360E944D0883E0F6
:1056300090E00E94E2350E94121760919303662366
:1056400009F489C16695617080E00E94A10F83E032
:1056500080933D0280E2809394030E944E346DE07B
:1056600070E087E192E00E94F00D892BE9F58091CE
:105670003D0263E070E081FD70C184E192E00E9430
:10568000F00D892B89F56DE070E084E092E00E94D6
:10569000F00D892B49F50E945E08605A75418F4FC5
:1056A0009F4F6093A4027093A5028093A6029093EB
:1056B000A702E7E9F3E080E092E0DF019C011D92A0
:1056C00021503040E1F7F0939E05E0939D058FEF68
:1056D0009FEF909396038093950381E08093A902B6
:1056E0008093A80210923E0280910D02811130C079
:1056F0000E94F713811104C00E948C130E946E1344
:1057000088E090E00E94EA3560935402709355025D
:1057100080935602909357026E7F71F40E946E132D
:1057200088E090E00E94EA3560935402709355023D
:1057300080935602909357020E94890980915402E7
:1057400080FF03C086950E94900F81E080930D0238
:1057500081E080931B0254985C9A3E98469A8FE8A9
:1057600091E00197F1F700C0000020911B024CE18D
:1057700052E0FA018E2F841B821708F4F1C084E2F4
:1057800092E09093500280934F0281E091E09093D9
:10579000700380936F0384E492E0A8E0A80F6496FE
:1057A000AFAF649780919203853009F520E4F22E23
:1057B000EE24E39400E112E180919203853009F434
:1057C000DAC010927C030E9417170E94B0080E9452
:1057D000BE0F10920F0280910E02882341F080913B
:1057E000540281608093540286950E94900F0E941B
:1057F0002F15E82E81110E945E0894E4292E92E074
:10580000392EE1E1F2E0D10110E000E0302F8D917E
:105810009191981709F40DC1292F282790E0FF24B2
:10582000F394422F4F2109F4FFC028969FAF289789
:1058300029963FAF29978F2191E009F490E02A96AD
:105840009FAF2A970E940F158160782F2C969FAFEB
:105850008EAF2C9728964FAD289729965FAD299744
:105860002A966FAD2A972C968FAD2C970E94481CD4
:10587000F801EF5EFD4F8081F826F08280913A03B7
:1058800090913B03892B09F43EC040912F03509126
:10589000300360913103709132032FB7F8948091F7
:1058A000740390917503A0917603B09177032FBF95
:1058B000841B950BA60BB70B40912B0350912C0327
:1058C00060912D0370912E0384179507A607B707E3
:1058D000D0F080913A0390913B030E94191C1092E2
:1058E0003B0310923A0310922F0310923003109250
:1058F00031031092320310922B0310922C0310925A
:105900002D0310922E0380910D0190910E010196AE
:1059100009F0F5C0809116018111FBC08091AC02A5
:10592000882369F00E940F152091AA023091AB02E2
:10593000821B930B8F3F9F4710F40E944F1A912CAC
:10594000F12CA4E0AA2EB12CBDEF8B2E77247394FA
:105950001CEF612EB0C160E077CE81E192E08FCE86
:1059600089B182958170369904C090E0892B81932A
:1059700001CF92E0FBCF80919203843009F442C0C2
:1059800080E00E94BE0F80910F02811116C0E0924C
:105990000F0280915402982F917090930E028E7F87
:1059A00080935402BFEFE0E7F2E0B150E040F040F6
:1059B000E1F700C000000E94BE0E0E941A0E109275
:1059C000730328E130E00FB6F894A89520936000A7
:1059D0000FBEF092600083B7817F846083BF83B77E
:1059E000816083BF7894889583B78E7F83BF0FB61D
:1059F000F894A8958091600088618093600010926F
:105A000060000FBE80918803882309F4D5CE0E94E0
:105A10002F15E4E4F2E0819181111FC764963FAD38
:105A200064973E13F8CFC8CE9F5FFF0C953009F006
:105A3000F8CE0F5F1F4F0830110509F0E7CE8FEF4A
:105A40002D968FAF2D972E968FAF2E972F961FAE38
:105A50002F970E940F158160782F61969FAF8EAFB0
:105A600061972D964FAD2D972E965FAD2E972F9661
:105A70006FAD2F9761968FAD61970E94481CFECE47
:105A8000909EF001919EF00D1124EF5BFC4FC288B7
:105A9000D388C114D10451F4D501282D1D922A9523
:105AA000E9F7818592850E9484066C01909EF00141
:105AB000919EF00D1124EF5BFC4F86818823A1F0AD
:105AC000858596850E940015C816D90668F4F99C4C
:105AD00080011124C8018F5B9C4F0E947516C8017C
