:100000000C94B1050C94CE050C94CE050C94CE0541
:100010000C94CE050C94CE050C94CE050C94CE0514
:100020000C94CE050C94CE050C9456100C947216BC
:100030000C94EE290C94CE050C94CE050C94CE05B0
:100040000C94CE050C94CE050C94CE050C94CE05E4
:100050000C94CE050C942F110C94CE050C94CE0567
:100060000C94CE050C94CE050C94CE050C94CE05C4
:100070000C94CE050C94CE050C94CE050C94CE05B4
:100080000C94CE050C94CE050C94CE050C94CE05A4
:100090000C94CE050C94CE050C94CE050C94CE0594
:1000A0000C94CE050C94CE050C94CE050501098068
:1000B000A101850319012AB700150126B700950192
:1000C00075108100C0050C0901A101850419012AE0
:1000D000A002150126A002950175108100C005013E
:1000E0000906A1018506050719E029E71500250184
:1000F0009508750181020507190029EF15002501F2
:1001000095F075018102050819012905950575010C
:100110009102950175039101C00660FF0961A1017B
:100120000962150026FF00952075088102096315F4
:100130000026FF00952075089102C005010906A15F
:1001400001050719E029E7150025019508750181CA
:10015000029501750881010507190029FF15002680
:10016000FF00950675088100050819012905950508
:1001700075019102950175039101C000DA0281FFBA
:10018000D9F1DB20A4A62EAF00A0C000A1C800AE0C
:10019000D580A81FD300408D14200020004755496A
:1001A00000200053686674002000416C7400200039
:1001B0004374726C00200020002000FD377A585AEA
:1001C000000004E6D6B446020021011600000074C7
:1001D0002FE5A3E003ED01385D003D8889C6543664
:1001E000C3174FE4F8192F9410BC480EF4786E8BA7
:1001F000F4474ED22A4D87AF6AE1E5DE9253C3E958
:10020000A38D9EDE326CE5E4CFF464C7076B42AA8F
:100210004B08451C4A910B27BC56D1C9BDC7E25EAD
:100220003E9BAA28E0848EA8C5A57924708DC7F0CE
:1002300013B81AD81A3A5B353B6BD1D9A5A5B7FDCF
:100240004ED460ABBF74ED6589B3B41A5AB64BF3A4
:10025000AA0C07EADEDF2B8762368A34EEBB92E710
:100260006CBD46F575F428152D76D7C5963B1BA0B9
:10027000AF675E224985E4F5FF9326BBCC9E2D1126
:100280008F83ABCA9B7CB3FE17DE6B82935A4E33CF
:10029000DC679702CCDCB36B5B5A3F8C642448ACC0
:1002A0008CBBBC541724E69A1BCE2D768386442C37
:1002B000A9B2998879517C765BD05DE4F2E62B3562
:1002C00004D079A89602FFA66B150DE4FE63F2D95F
:1002D00027CC8BF9A1788EBB757FAC81EC2B407657
:1002E0000DCA958469CFF70D19712124726F1B8295
:1002F000D1CFFE47B0A76118B57BBA0458D6F4FE3B
:10030000BE329702C82CCDC9869DAA80EA9D367060
:10031000FCEF00B07D532A3B6AC34B0001D402EED0
:100320000700000AF9D503B1C467FB020000000012
:1003300004595AA900AA00AB00AC00AB00AC0014F1
:10034000001A000800150017000400160007000935
:10035000000A001D001B00060019000500E000E176
:1003600000E20001512C00130012000C0018001CC8
:100370000033000F000E000D000B00380037003670
:1003800000100011002A00E500E7000251280029B2
:100390000024002500260027002E00210022002333
:1003A000002F002D001E001F002000300001000162
:1003B0000001000100000045004200410040003102
:1003C0000044003F003E003D00340043003C003B41
:1003D000003A0035000100010001000100AE002BD1
:1003E0000024022502260227022E022102220223D5
:1003F000022F022D021E021F022002300201000104
:100400000001000100390049004B004E004C003152
:10041000024F005200510050003402000000004D15
:10042000004A003502010001000100010000000146
:100430000001009A030A0F3D0F000002000200961F
:10044000030A0F3D0F0000030001009B030A0F3D4C
:100450000F00000400020080030A0F3D0FC50805CD
:100460000001009C030A0F3D0F00000600020082FD
:10047000030A0F3D0F00000700020098030A0F3D1A
:100480000F0000080001009D030A0F3D0F0000123D
:100490000002009E030A0F3D0F000013000200A09F
:1004A000030A0F3D0F000014000100A2030A0F3DD4
:1004B0000F00001500000000004B0811180000009C
:1004C000AF00AE09025B00030100A0FA09040000BE
:1004D000010301010009211101000122400007056B
:1004E0008103080001090401000203000000092142
:1004F00011010001222200070582032000010705E7
:100500000303200001090402000103000000092187
:1005100011010001226D0007058403200001120172
:10052000000200000008EDFE410800010102030185
:100530001C037600690061006C003A00660036001A
:1005400034006300320062003300630000000E03D9
:1005500070006900630061003400300000000E0389
:100560007A007A0065006E006500670000000403F1
:10057000090400000000000000000000000000006E
:10058000000000000000000000000000000000006B
:100590000000000000007E0F00D4FFFFFFC7000036
:1005A000007800000000000000002A2B2800000056
:1005B0000000000000000000000000000029000012
:1005C00000002C1E3420212224342627252E362DEF
:1005D0003738271E1F202122232425263333362E89
:1005E00037381F0405060708090A0B0C0D0E0F10FB
:1005F0001112131415161718191A1B1C1D2F313040
:10060000232D350405060708090A0B0C0D0E0F10E3
:100610001112131415161718191A1B1C1D2F31301F
:10062000354C07087F0807003E5B4F5B3E003E6B82
:100630004F6B3E001C3E7C3E1C00183C7E3C18006C
:100640001C577D571C001C5E7F5E1C0000183C1868
:100650000000FFE7C3E7FF00001824180000FFE7D1
:10066000DBE7FF0030483A060E00262979292600EC
:10067000407F05050700407F05253F005A3CE73CC9
:100680005A007F3E1C1C0800081C1C3E7F001422E0
:100690007F2214005F5F005F5F0006097F017F001B
:1006A000006689956A0060606060600094A2FFA2A5
:1006B000940008047E04080010207E201000080822
:1006C0002A1C0800081C2A0808001E101010100020
:1006D0000C1E0C1E0C0030383E383000060E3E0E4C
:1006E000060000000000000000005F00000000079E
:1006F00000070000147F147F1400242A7F2A1200B0
:10070000231308646200364956205000000807038E
:100710000000001C224100000041221C00002A1C95
:100720007F1C2A0008083E08080000807030000086
:100730000808080808000000606000002010080495
:1007400002003E5149453E0000427F400000724990
:10075000494946002141494D33001814127F1000C9
:100760002745454539003C4A494931004121110995
:100770000700364949493600464949291E0000000C
:100780001400000000403400000000081422410062
:100790001414141414000041221408000201590911
:1007A00006003E415D594E007C1211127C007F49CB
:1007B000494936003E41414122007F4141413E00CE
:1007C0007F49494941007F09090901003E414151E2
:1007D00073007F0808087F0000417F41000020402F
:1007E000413F01007F08142241007F40404040000B
:1007F0007F021C027F007F0408107F003E414141C0
:100800003E007F09090906003E4151215E007F0933
:100810001929460026494949320003017F01030096
:100820003F4040403F001F2040201F003F403840D5
:100830003F00631408146300030478040300615943
:10084000494D4300007F414141000204081020004F
:10085000004141417F000402010204004040404049
:1008600040000003070800002054547840007F280F
:1008700044443800384444442800384444287F0025
:1008800038545454180000087E09020018A4A49C8F
:1008900078007F080404780000447D400000204078
:1008A000403D00007F102844000000417F400000D0
:1008B0007C04780478007C080404780038444444BC
:1008C0003800FC182424180018242418FC007C0884
:1008D0000404080048545454240004043F442400F1
:1008E0003C4040207C001C2040201C003C4030400C
:1008F0003C004428102844004C9090907C004464B4
:10090000544C44000008364100000000770000000D
:100910000041360800000201020402003C262326A2
:100920003C00000000000000404040F0F8F8FF38B4
:10093000FFF8F83FF8F8FF38FFF8F8F040404000C3
:10094000000000000080C0C0C0800000C0C0800067
:10095000000080C0C000C0C0000080C0C000000017
:100960000000C0C0C0C0C000C0C000000000000047
:100970000000000000000000000000000000000077
:100980000000000000000000000000000000000067
:100990000000000000000000000000000000000057
:1009A00000C0F0F8FC3E1E06010000007F414141FE
:1009B0007F007F4141417F000080C0E07E5B4F5B54
:1009C000FEC00000C000DCD7DEDEDED7DC00C000E9
:1009D0000000000000000000000000000000000017
:1009E0000000000000000000494949FFFFFFFFE050
:1009F000DFBFBF00BFBFDFE0FFFFFFFF4949490086
:100A0000000000001F3F6060E0BF1F007F7F071EE7
:100A1000381E077F7F007F7F0E1F3B716000000044
:100A200000007F7F0C0C0C007E7E007F7E030300A5
:100A30007F7E03037E7E03037F7E000F3E703C06B5
:100A40003C703E0F00327B49493F7E007F7E0303AE
:100A5000001E3F69696F26000000000000000000D2
:100A600000030F1F3F3C7870600000007F41414150
:100A70007F007F4141417F00307B7F7830202030F4
:100A8000787F3B0003000F7F0F0F0F7F0F000300E5
:100A90000000000000000000000000000000000056
:100AA0000000000000000000010101070F0F7F0F90
:100AB0007F0F0F7E0F0F7F0F7F0F0F0701010100C8
:100AC0000000000000000000000101000000000024
:100AD0000000000000000000000000000000000016
:100AE0000000000000000000000000000000000006
:100AF00000000000000000000000000000000000F6
:100B000000000000000000000000000000000000E5
:100B100000000000000000000000000000000000D5
:100B200000000000000000000000000000000000C5
:100B300000000000000000000000000000000000B5
:100B400000000000000000000000000000000000A5
:100B50000000000000000000000000000000000095
:100B6000000011241FBECFEFDAE0DEBFCDBF11E0E1
:100B7000A0E0B1E0EEE1FAE602C005900D92A638E1
:100B8000B107D9F726E0A6E8B1E001C01D92AE3961
:100B9000B207E1F70E94152A0C94E9340C94000086
:100BA000E8EDF0E080818E7F80831092E200109269
:100BB000DA001092E100A0EEB0E08C9181608C939D
:100BC00080818F77808319BCA7EDB0E08C918E7FF8
:100BD0008C9380818F7E808310926204089520918F
:100BE000E4003091E50095E6A9012091EC00822F08
:100BF000817020FF06C08091E80080FF06C080E081
:100C000008952091E80022FD1AC080919004882365
:100C100089F0853089F08091EB0085FD0FC020912F
:100C2000E4003091E50042175307F9F29150E1F6E4
:100C300084E0089582E0089583E0089581E00895B6
:100C4000EF92FF920F931F93CF937C018B010E9431
:100C5000EF05C82F811117C08091E80085FD0BC0FA
:100C60008091E8008E778093E8000E94EF0588234A
:100C700099F3C82F08C0F70181917F018093F1009B
:100C80000150110949F78C2FCF911F910F91FF90BF
:100C9000EF900895CF93FC0180919004843001F58A
:100CA000C091E900CF702091EC00922F917020FD4F
:100CB00090E8C92B82E08093E9008091E80080FFF2
:100CC0000CC050E040E060E270E0CF010E942006DE
:100CD0008091E8008E778093E800CF70C093E900A0
:100CE000CF9108958091880487FF13C08091E80018
:100CF00082FF06C08091E8008B778093E80004C0F3
:100D0000809190048111F2CF0895809190048823FE
:100D1000D9F38091E80080FFF8CF8091E8008E77CA
:100D2000ECCF982F9093E900242F762F50E089176D
:100D300031F07091EC002091ED005091F00021FD18
:100D400007C09F5F973071F78093E90081E00895B5
:100D50003091EB003E7F3093EB003091ED003D7F12
:100D60003093ED003091EB0031603093EB007093E5
:100D7000EC002093ED005093F0002091EE0027FD51
:100D8000E0CF80E00895B0E0A0E0E9ECF6E00C945C
:100D90000F34C8EDD0E088818F7E8883E7EDF0E0E6
:100DA00080818160808384E082BF81E080936204DF
:100DB00088818E7F888302EE10E0F8011082109205
:100DC000DA0081EEC82ED12CF601108288818F774F
:100DD000888388818068888388818F7D888319BC17
:100DE0001092900410928704109286041092850449
:100DF00090EEE92EF12CF70180818B7F8083888132
:100E00008160888342E060E080E00E949106F60104
:100E100080818E7F8083F8018081816080838081E2
:100E200088608083F70180818E7F808388818061E4
:100E30008883CDB7DEB7E8E00C942B34FC018091B9
:100E40008E0490918F0486179707A0F061157105A5
:100E500029F49091E8009E779093E80090E0611566
:100E6000710551F4911108C08091E80082FF34C0EF
:100E700080E00895BC01F2CF809190048823C1F1F5
:100E80008530C1F18091E80083FD30C08091E80099
:100E900082FDEACF8091E80080FFE1CF8091F300EE
:100EA0002091F200382F6115710519F028303105B5
:100EB00058F091E02830310509F090E02091E800E9
:100EC0002E772093E800CBCF81918093F100615081
:100ED00071092F5F3F4FE7CF80919004882341F045
:100EE000853041F08091E80083FFBECF81E0089516
:100EF00082E0089583E00895089508958091640440
:100F0000089587E797E7909301088093000888E1A8
:100F10009AE00FB6F894A895809360000FBE909366
:100F20006000FFCF2FB7F8946091590470915A0474
:100F300080915B0490915C042FBF0895209117016C
:100F40002223C9F020915D0427FF15C0E62FE69506
:100F5000E695E695EE31D8F4E80FF92FF11D6770AC
:100F600021E030E001C0220F6A95EAF720958281E6
:100F7000282322830895FC0132960896219162135A
:100F800003C0DF0111971C92E817F907B9F708951C
:100F900020915604309157042817390771F0909327
:100FA000570480935604E0915404F091550430970F
:100FB00021F00084F185E02D0995089520915204D7
:100FC000309153042817390771F09093530480939C
:100FD0005204E0915404F0915504309721F00680BA
:100FE000F781E02D09950895E0915404F09155049E
:100FF000309729F00190F081E02D0995089580E067
:101000000895452B39F0682381E06F3F09F080E0B7
:101010008170089581E0FCCFDC0160914C048091E7
:101020004D04962F891301C00895292F30E0F9014E
:10103000EE0FFF1FEC5BFB4F408151814A175B07AE
:10104000A1F487E08A9FA0018B9F500D1124445F7B
:101050005B4F81E0FA0184839613E6CF2F5F3F4F09
:101060002370332720934C0408952F5F3F4F922F16
:101070009370D8CF1092A9031092A803ECE0F4E08B
:101080008581811102C014821682379684E0E4348F
:10109000F807B1F70895B0E0A0E0E1E5F8E00C94BE
:1010A0000D348FEF9FEF4430510508F469C0409133
:1010B0005D0441FB882780F990E0880F991F42FB6F
:1010C000002700F910E0000F111F000F111F802BE7
:1010D000912B40FBCC24C0F8D12C8C299D2943FBBB
:1010E000222720F9C22FE0E0DE2F53E0CC0FDD1FD6
:1010F0005A95E1F78C2B9D2B44FBAA27A0F9B0E071
:10110000E4E0AA0FBB1FEA95E1F78A2B9B2B45FB76
:10111000EE27E0F9F0E0A5E0EE0FFF1FAA95E1F75A
:101120008E2B9F2B46FB222720F930E0B6E0220FC2
:10113000331FBA95E1F7822B932B47FB222720F927
:1011400030E03695322F222737952795822B932B27
:1011500020915E04322F3170F32EE82EF92A269565
:101160002170B22EBB0CA82EBF28C501BB0CAA0B48
:10117000BB0BFB0180839183A283B38390E080E06B
:10118000CDB7DEB7EAE00C942934809180039091CA
:10119000810390931401809313010895E3E9F2E031
:1011A00090E080E068E27EE14FE45EE12DE93DE120
:1011B0007783668351874087338722879587848723
:1011C00001963E968830910599F7089581152CE592
:1011D000920741F42091530330915403232B11F4CF
:1011E00090E080E0089580E00895F894E82FE2957B
:1011F000EF70F0E031A1282F2F7081E090E001C066
:10120000880F2A95EAF7982F9095932391A392A19E
:10121000892B82A37894089590915D0492FF06C073
:10122000282F28712830F9F4877F846093FF06C047
:10123000282F28712831F1F4877E846120915E0483
:1012400020FF06C0382F38713830D9F4877F81608D
:1012500021FF06C0282F28712831D1F4877E8161B3
:1012600094FD877E0895282F24712430F9F68B7F12
:101270008860DCCF282F2471243101F78B7E8861B0
:10128000DDCF382F3171313019F78E7F8860E0CF94
:10129000282F2171213121F78E7E8861E1CFCF93F4
:1012A000DF93EC0182389105B1F108F040C0813341
:1012B000910509F49DC048F58932910509F48DC066
:1012C0008A9709F49CC0C11522E5D20708F0BDC079
:1012D000C11531E5D30708F025C1C83ED10508F096
:1012E000A3C0C13ED10588F5C83AD10508F08EC02B
:1012F000C53AD10508F0F6C0C130D10531F12097CB
:1013000021F1C430D10508F545C08533910509F4B4
:101310005FC0C997C1F680915D04837009F037C141
:1013200080915E0483FF11C0C9E2D0E00EC0833E0D
:10133000910599F170F4803E910501F1823E91058D
:1013400011F680915D0482FD21C0CE01DF91CF9125
:101350000895863E910561F1873E910571F1843EC5
:10136000910509F0B0CF80915E0481FFEECF8091AE
:101370005D04C7EED0E084FD0DC0E7CF80915D0431
:1013800080FD33C090915E0490FFDFCFC3EED0E0CC
:1013900084FFDBCFD0E0C0E0D8CF80915D0482FD38
:1013A000F3C090915E0490FDF2C084FFCECFF2CFE7
:1013B00080915D0483FDDDCFC8CF80915D0483FD06
:1013C000E9C090915E0491FFF0CFC4EED0E0BDCFB4
:1013D00080915D0485FFB9CFA7CF80915D0485FD25
:1013E000DCC080915E0483FFB0CFC9E3D0E0ADCF15
:1013F00080915D0486FFA9CFCAE2D0E0A6CF80919C
:101400005D0486FFA2CFC1E3D0E09FCFCF3BD105E3
:1014100008F6C85AD0E0CC0FDD1FCD5DDE4F099035
:10142000D881C02DD46491CFC11540E5D40708F010
:1014300064C0C11580E4D80708F05CC0CE019A955D
:1014400081159F4108F481CFA5CFC11536E5D3079B
:1014500018F5C11545E5D40708F07DC0C11584E530
:10146000D80708F073C09C2F969596959E0123701F
:101470003327C115D34508F45AC0C1E0D0E002C0FB
:10148000CC0FDD1F2A95E2F730E2939FC0011124B3
:10149000C82BD92BDA6859CFC1158AE5D80778F45B
:1014A000C11529E5D20708F061C0C11538E5D30799
:1014B00008F470CFDC2FCC27C06FD06A46CFCE01A6
:1014C00090568115904208F065CF8D2F8F710E9444
:1014D0000C0990E0982F882788279F719C012C2B5E
:1014E000E90142C0C55AD0E0C05EDE4FC881D0E0FD
:1014F000D0642BCFDF70D06A28CF2C2F269526956D
:10150000237080E2289F900111248C2F8370C1E00A
:10151000D0E002C0CC0FDD1F8A95E2F7C22BD32B9F
:10152000DD6813CFDC2FCC27C16FD06A0ECFC1E0AE
:10153000D0E002C0CC0FDD1F2A95E2F720E2929F97
:10154000C0011124C82BD92BDC68FFCEDC2FCC279F
:10155000C46FD06AFACE8C2F0E940C09C82FD0E03D
:10156000DC2FCC27CC27DF71D062EFCE8C2F8F7091
:101570000E940C0934E0D695C7953A95E1F7CF70F3
:101580009C2FEC01D069E1CEC2EED0E0DECEC0EE01
:10159000D0E0DBCEC6EED0E0D8CEC5E3D0E0D5CEED
:1015A00080912C02882331F010922C0210922B0291
:1015B00010922A0208958095909192049823909316
:1015C00092040895809590915F03982390935F0310
:1015D000089590915F03892B80935F030895109283
:1015E0000902109208021092070208952091060243
:1015F0009091C501291302C080E0089530E0F901FF
:1016000053E0EE0FFF1F5A95E1F7EA53FE4F518169
:10161000561306C05081581303C05281541304C09E
:101620002F5F3F4F2770E6CF81E00895809106023B
:101630009091C501981301C008958F5F8770FACF0C
:10164000A82FA77023E0969587952A95E1F7FC01CE
:10165000EE0FFF1FE80FF91FE60FF71F50E040E005
:1016600080E0219130E00A2E02C0369527950A9439
:10167000E2F721703327042E01C0220F0A94EAF703
:10168000822B4F5F5F4F4330510559F70895903FCC
:10169000C9F0983080F48530A8F4282F30E06EEA45
:1016A00071E0A901E5E09E9F400D511D1124CA0182
:1016B0000E94200B08959C5F923020F46BEA71E049
:1016C00090E0F6CF80E00895262F277091E001C0CA
:1016D000990F2A95EAF723E0769567952A95E1F721
:1016E000FB01EE0FFF1FE60FF71FE40FF51F50E0A1
:1016F00040E0682F70E08191DF0111979B01042E7B
:1017000002C0369527950A94E2F721702195282783
:10171000292328272C934F5F5F4F4330510559F7FA
:101720000895282F862F903F79F0983070F4253057
:1017300058F4622F70E025E0929F600D711D112416
:101740004EEA51E00E94640B08959C5F9230E0F7EE
:10175000622F70E04BEA51E0F5CF92959F70963082
:1017600091F058F4925F9F70923058F4803F19F0D6
:1017700030F4883E30F481E008959A5FF4CF843FDE
:10178000D1F380E00895883EB0F3813FD1F7F3CFE5
:101790009C013A9521153F4150F5FC01EE27F1706F
:1017A000BC0166277270AC01442754709C0122274B
:1017B000387094FF0EC080E1EF2B09F480E0672BB6
:1017C00009F08062452B09F08064232B89F0806842
:1017D000089581E0EF2B09F480E0672B09F0826027
:1017E000452B09F08460232B19F08860089580E070
:1017F0000895CF93DF93682F81E06A3019F06D3040
:1018000031F480E00E94790CDF91CF9108958091AE
:101810009C0690919D0626E0FC01A6E9B6E00190A9
:101820000D922A95E1F7603E08F458C026E0FC01CD
:1018300011922A95E9F7C0919C06D0919D0646E049
:1018400050E0BE0186E996E00E9472349E0126595E
:101850003440892B41F1C90145E0969587954A9519
:10186000E1F741E050E0BA0102C0660F771F8A95A8
:10187000E2F7CB016091940470919504862B972B2D
:10188000B9016B5F7F4FE5E076956795EA95E1F7E3
:1018900002C0440F551F6A95E2F7842B952B909355
:1018A0009504809394042A5F3F4F40919304642FE2
:1018B00070E0C9010E94F133481B463010F4240F38
:1018C000311D211572E0370710F030E020E02A5674
:1018D0003B4F30939D0620939C0696CFF6E06F9F7A
:1018E000B00111246E5D794F46E050E00E946934EA
:1018F000A2CFCF93382FE0919C06F0919D06E65938
:10190000F44020919304622F70E0CF010E94F133E4
:10191000281B822F332361F066E00E943C34C82FDD
:10192000C15010F4CF91089580E20E94F90BF8CFD6
:101930009F01280F311D2115324018F080E0F0E0A2
:10194000E0E08E0F9F2F911D8A569B4F90939D062E
:1019500080939C06E7CFCF93DF93EC01FE01849147
:10196000811106C081E00E94790CDF91CF9108952A
:101970000E94F90B2196F2CF80935F04709361046B
:1019800060936004809190048430F9F48093E900BE
:101990008FEF9091E800815095FD06C095ED9A95E6
:1019A000F1F700008111F5CF8091E80085FF0DC0AF
:1019B00050E040E063E070E08FE594E00E94200694
:1019C0008091E8008E778093E8000895BC0184E060
:1019D0000E94BC0C0895BC0183E00E94BC0C0895D9
:1019E000CF93DF93EC01809117018823B1F18091AF
:1019F0005D0487FF32C060E284E08093E9008FEFEE
:101A00009091E800815095FD06C095ED9A95F1F70B
:101A100000008111F5CF8091E80085FF1BC0809107
:101A2000170170E050E040E0811104C050E040E058
:101A300068E070E0CE010E9420068091E8008E7779
:101A40008093E80080E2FE01A5E6B4E001900D92EB
:101A50008A95E1F7DF91CF91089568E081E0CDCFDD
:101A6000019708F40895EFE9FFE03197F1F700C01E
:101A70000000F6CFB0E0A0E0E0E4FDE00C940F340D
:101A80006C017B0164E670E088E70E940B33EC0197
:101A900097FD12C010E000E0F601E00FF11F849105
:101AA00064E670E00E947733EC01892B29F40F5F24
:101AB0001F4F0E151F0581F70E94ED33CE01CDB7E4
:101AC000DEB7E8E00C942B3480915D0390915E03C7
:101AD000911103C091E089270895882369F062E09D
:101AE00070E081EC94E00E943A0D892B19F080910E
:101AF0005D03089510925D0380915D03EBCFCF935A
:101B0000C0915D0380915E038823D1F00E9492070B
:101B1000605A75418F4F9F4F6093590370935A03DA
:101B200080935B0390935C03C11108C062E070E096
:101B30008FEB94E00E943A0D892B29F0C0915D0350
:101B40008C2FCF91089581E080935D03F7CF0F93A1
:101B50001F93CF93DF9300E813E0C7ECD2E0CE01F0
:101B60000E949F34F80181938F012196CB3EF2E0D1
:101B7000DF07A9F7C9E3D4E0FE01859194910097AE
:101B800011F0FC0109952C96F4E0C93CDF07A1F7A0
:101B9000DF91CF911F910F910895FF920F931F93A3
:101BA000CF93DF93F42E883040F5611126C024E0F6
:101BB000829F8001112409551D4F82E090E044234B
:101BC00011F090E080E0800F911F0E949F34C82F99
:101BD000D0E0DC2FCC2783E090E0FF2011F081E003
:101BE00090E0800F911F0E949F349E01282BC90115
:101BF000CDB7DEB7E5E00C942E3490E080E0F8CF6E
:101C00000F931F93CF93DF93883030F5683020F522
:101C1000453010F5C42FD0E0CC0FDD1F2AE0629FC5
:101C2000C00DD11D112430E5839FC00DD11D11249D
:101C3000CE0187960E949F34082F10E0102F0027B6
:101C4000CE0188960E949F349801282BC901DF910C
:101C5000CF911F910F91089590E080E0F8CF462F2B
:101C6000672F2091570330915803232BF9F4703FCD
:101C700039F4403FD9F4809155039091560308956B
:101C80008830A0F4783028F4453080F40E94000EAB
:101C900008957D3F39F4411109C041E060E00E94A0
:101CA000CD0D08957C3F11F44423C1F390E080E012
:101CB0000895CF92DF92FF920F931F93CF93DF93FC
:101CC0006C010091910480912D02082BC7E0D0E0B7
:101CD00010E0FC2EC8010C2E02C0959587950A9441
:101CE000E2F780FD0CC02197A0F7F12C8F2DDF913A
:101CF000CF911F910F91FF90DF90CF900895B60183
:101D00008C2F0E942F0E0E944F09019761F3EECF96
:101D1000CF93DF93EC010E94590EBE010E942F0E5B
:101D20000E944F09DF91CF910895CF93DF93EC018B
:101D30004B815C81698188810E940108811110C0FA
:101D40008E819F81009739F00E944F090E94AD0B50
:101D5000DF91CF910895888199810E94880EF6CFF6
:101D600080E0F6CFA5E0B0E0E8EBFEE00C941434A0
:101D700049835A8389819A81662399F0222389F0C5
:101D80000E94590E182F682F89819A810E94910B09
:101D900069817A81812F0E942F0E2596E3E00C94B1
:101DA00030340E94470B182FF3CFFC01262F868179
:101DB0009781009739F440815181628173818481D8
:101DC0000E94B20E089583E290E00E949F34873A09
:101DD00089F484E290E00E949F34873559F485E2CB
:101DE00090E00E949F3491E0863C09F090E0892FBA
:101DF0008170089580E0FCCFCF9384E090E00E9452
:101E00009F34C82F82E290E00E949F34982F8C2F3D
:101E1000CF910895DB01FC01329625913491421750
:101E2000530758F0FC01349665917491A901CD01D6
:101E30000E947F3490E080E008958FEF9FEF089537
:101E40000F931F93CF93DF9300E813E0C7ECD2E02A
:101E5000CE010E949F34F80161918F01681719F03B
:101E6000CE010E94AD342196CB3EF2E0DF0781F730
:101E7000DF91CF911F910F910895DA019C012E5FA0
:101E80003F4FF90145915491F90125913491A217E1
:101E9000B30758F0FC013496859194910E947F34E9
:101EA0000E94200F90E080E008958FEF9FEF08954B
:101EB000CF93DF93CBE8D3E060E0CE010E94AD3456
:101EC0002196C11584E0D807B9F7DF91CF91089525
:101ED0000F931F93CF93DF93142F022F8830F0F4CA
:101EE00061111CC094E0899FE0011124C955DD4FA8
:101EF00082E090E0442311F090E080E0632F8C0FAB
:101F00009D1F0E94AD3483E090E0112311F081E029
:101F100090E0602F8C0F9D1F0E94AD34DF91CF9118
:101F20001F910F9108951F93CF93DF93122F883045
:101F3000E0F46830D0F44530C0F4C42FD0E0CC0FCA
:101F4000DD1F9AE0699FC00DD11D112490E5899F86
:101F5000C00DD11D1124632FCE0187960E94AD3490
:101F6000612FCE0188960E94AD34DF91CF911F91F1
:101F70000895CF93C82F6FEF811167EA83E290E055
:101F80000E94AD346FEFC11167E584E290E00E94DA
:101F9000AD346FEFC11166EC85E290E00E94AD3484
:101FA000CF910895CF93C92F682F84E090E00E94CD
:101FB000AD346C2F82E290E00E94AD34CF91089551
:101FC0009B01883070F49AE0899FB001112465511B
:101FD0007D4F4AE050E0C9010E948F3490E080E0DC
:101FE00008958FEF9FEF0895AAE0B0E0EAEFFFE0D9
:101FF0000C9415349C0137552F3F310509F068F4D6
:10200000BE016F5F7F4F0E94E00F892B31F48985FD
:102010009A852A96E2E00C9431348091980390914D
:102020009903F7CFAAE0B0E0E8E1F0E10C940F34B7
:10203000E3E0F3E080E5DF011D928A95E9F7ECE04B
:10204000F4E088E3DF011D928A95E9F783E0C82E6A
:1020500083E0D82E7F010BE313E0F701D182C08229
:102060004AE050E0B801CE0101960E948F3488E02A
:10207000FE013196D60101900D928A95E1F789858E
:102080009A85D70113969C938E931297BAE0CB0E44
:10209000D11CE7E0EE0EF11C065F1F4F0B38F3E09A
:1020A0001F07D9F62A96E8E00C942B341F920F9262
:1020B0000FB60F9211242F933F934F935F936F931B
:1020C0007F938F939F93AF93BF93EF93FF938091F1
:1020D000E10082FF09C08091E20082FF05C080918B
:1020E000E1008B7F8093E1008091DA0080FF24C0C3
:1020F0008091D80080FF20C08091DA008E7F80938D
:10210000DA008091D90080FF9DC080E189BD82E125
:1021100089BD09B400FEFDCF81E0809390048091D9
:102120006204811109C00E94D0050E94C3068091FB
:10213000E20084608093E2008091E10080FF17C09C
:102140008091E20080FF13C08091E2008E7F809337
:10215000E2008091E20080618093E2008091D800EB
:1021600080628093D80019BC85E0809390048091B0
:10217000E10084FF2BC08091E20084FF27C080E152
:1021800089BD82E189BD89B5982F917080FFFBCF11
:102190008091D8008F7D8093D8008091E1008F7E60
:1021A0008093E1008091E2008F7E8093E200809135
:1021B000E20081608093E20080918704882309F423
:1021C00047C084E080939004809190048091E10066
:1021D00083FF27C08091E20083FF23C08091E1004C
:1021E000877F8093E10082E08093900410928704BF
:1021F0008091E1008E7F8093E1008091E2008E7FEC
:102200008093E2008091E20080618093E20042E0EE
:1022100060E080E00E9491068091F00088608093E9
:10222000F000FF91EF91BF91AF919F918F917F91BE
:102230006F915F914F913F912F910F900FBE0F9033
:102240001F90189519BC109290041092620474CFDC
:102250008091E30087FD93E090939004B5CF78944C
:102260001F921FB61F9211248F939F93AF93BF931A
:102270008091590490915A04A0915B04B0915C0440
:102280000196A11DB11D8093590490935A04A09307
:102290005B04B0935C04BF91AF919F918F911F90AD
:1022A0001FBE1F9018959C014FB7F8948091590458
:1022B00090915A04A0915B04B0915C044FBF821BC3
:1022C000930B08952FB7F8948091590490915A0474
:1022D000A0915B04B0915C042FBF0895A8E0B0E02A
:1022E000E4E7F1E10C940C348E010F5F1F4F88E09E
:1022F000F80111928A95E9F781E5C82E81E0D82E80
:10230000F12CE12CAA24A394B12CF60181916F0148
:102310008F3F09F443C0F894E82FE295EF70F0E0A6
:1023200021A18F70A50102C0440F551F8A95E2F7C5
:10233000CA01922F982B91A392A18095892382A301
:10234000789400C0E9E5F1E0912C31E021912F3F34
:1023500009F465C0A22FA295AF70B0E090968C9161
:1023600090E02F7002C0959587952A95E2F780FD41
:1023700056C0832F982A330F51E0EE35F50731F719
:10238000F601319780818F3F11F00E94F50880EAB5
:102390008A95F1F7F801EE0DFF1D9082EFEFEE1A2E
:1023A000FE0AF8E0EF16F10409F0AFCF48E050E084
:1023B000B80181E392E00E947234892B91F188E0A8
:1023C000F801A1E3B2E001900D928A95E1F781E076
:1023D000809330020E94621190932F0280932E020C
:1023E00080912E0290912F020E9453110597E8F0E0
:1023F00048E050E061E372E089E792E00E947234C5
:10240000892BC1F088E0E1E3F2E0A9E7B2E00190B6
:102410000D928A95E1F781E01092300207C080E0CA
:10242000A9CF809130028111DBCF80E02896EBE0CC
:102430000C94283480E0F0CFCF93C82F80915E04B5
:1024400082FF0CC080912C028C1741F00E94621117
:1024500090932B0280932A02C0932C02CF9108956F
:102460008091820390918303892B89F00E946211ED
:1024700020912A0230912B02AC01421B530B81E0C8
:1024800020918203309183034217530708F480E0C0
:102490008170089580915F0390919204892B8093BD
:1024A000880180912C02882319F1809182039091F8
:1024B0008303892B29F00E94301281110E94D00AD7
:1024C0008091880190912C02892B809388018091C2
:1024D00017018823E1F180915D0487FF38C08EE108
:1024E000EAE8F1E090E08150A0F591110E94D00A55
:1024F00040E250E06AE072E088E891E00E947234C5
:10250000892B21F180E2E8E8F1E0AAE0B2E0019055
:102510000D928A95E1F7E0915404F09155043097BB
:10252000A9F080911701882359F080915D0487FFFD
:1025300007C0809188018093890186E0809388019B
:102540000280F381E02D88E891E00995089586E006
:10255000C7CF2191222339F29F5FC5CFCF93DF935D
:10256000EC01EA85FB85309719F06C857D8509952E
:102570008B810E94DB0A8C810E94E20A0E944A122F
:1025800086E0FE0111928A95E9F7DF91CF910895D7
:10259000CF93DF93EC018D8181FD15C082608D8327
:1025A000809192049B81892B809392048C810E945C
:1025B000E90A0E944A12E885F985309721F06C8576
:1025C0007D85CE01099510925104109250048D81A1
:1025D00080FD03C0CE010E94AE12DF91CF9108951D
:1025E00080911501877F8093150182E00E94DB0AAC
:1025F0008091150184FF06C08F7E8093150182E0D3
:102600000E94E90A8091150185FF06C08F7D8093A5
:10261000150180E20E94E90A0E944A12089590E0A2
:1026200080E00E94DE0790E080E00E94C8071092E0
:1026300092040E944A120895809391040E940F13FD
:10264000089580919104982F9670963021F48860B7
:102650000E941C130895877FFBCF21E030E001C06A
:10266000220F8A95EAF720958091910482230E9497
:102670001C13089590910902809589238093090283
:10268000282F277091F4282F082E000C330B921757
:10269000130659F090915E0492FF07C085958595C9
:1026A00085950E942D130E94EF0A089590915E0473
:1026B00092FB222720F9281769F080FB92F990936A
:1026C0005E0480915D0490915E040E94D20F82E0CE
:1026D0000E943A13089521E030E001C0220F8A954C
:1026E000EAF780919104822B0E941C130895909127
:1026F0005E0492FF10C098E0899F90011124622B24
:10270000609309020E946B130E9462119093080269
:102710008093070208950E946B13089580932D0201
:102720000E940F13089510925F0380911701EAE849
:10273000F1E0882361F080915D0487FF08C08EE19D
:10274000DF011D928A95E9F70E940F13089586E034
:10275000F7CFAAE2B0E0EFEAF3E10C94143488E892
:1027600094E02091F100DC012D93CD01B4E080399B
:102770009B07B9F780918904833009F472C0B8F4DB
:10278000813009F449C0823009F4B3C08091E80077
:1027900083FF96C280918804909189049A3008F052
:1027A0008FC2E92FF0E0E551FB4C0C945C348A3089
:1027B00009F48EC08B3009F471C0893039F78091EB
:1027C0008804813219F780918C0490918D040097D0
:1027D00011F00297D9F68091E800877F8093E80096
:1027E0008091E80082FF38C09091F3008091F20060
:1027F000029731F48091F100813011F0863021F49C
:102800008091F100809364048091E8008B7780933D
:10281000E8000E947206BACF80918804813A09F0DC
:10282000B5CF8091E800877F8093E80080918C0489
:1028300090918D04892B61F460E285E694E070E06C
:102840000E941E078091E8008B778093E8009ECF5E
:1028500060E090E080E0F3CF809190048111C0CFE0
:1028600095CF80918804813A09F090CF80918C04B3
:1028700090918D04892B09F089CF8091E800877FA2
:102880008093E8008091E80080FFFCCF80911701E1
:102890008093F1008091E8008E77B9CF8091880411
:1028A000813209F073CF80918C0490918D04892B33
:1028B00009F06CCF8091E800877F8093E8000E9448
:1028C000720680918A04809317010E9493135ECF51
:1028D00080918804813209F059CF8091E800877F88
:1028E0008093E8000E94720680918B0480936304B9
:1028F0004DCF80918804813A09F048CF8091E8005B
:10290000877F8093E8008091E80080FFFCCF809172
:102910006304BECF803899F0823809F0D1C180912C
:102920008C048F70873008F0CBC18093E9008091D0
:10293000EB0085FB882780F91092E90006C08091A2
:10294000850490918604911182609091E800977FB0
:102950009093E8008093F1001092F1008091E800DC
:102960008E77AAC1882309F498C1823009F0A8C1E2
:1029700080918A0481119BC180918C048F702FEF0C
:10298000280F263008F09CC18093E9002091EB00CD
:1029900020FF8DC1933031F48091EB0080628093F1
:1029A000EB0085C19091EB0090619093EB0021E0EA
:1029B00030E001C0220F8A95EAF72093EA001092D6
:1029C000EA008091EB008860EACF811179C1109113
:1029D0008A041F778091E3008078812B8093E30045
:1029E0008091E800877F8093E8000E9472068091C2
:1029F000E80080FFFCCF8091E30080688093E300D3
:102A000082E0111183E0809390045AC18058823093
:102A100008F056C120918A0430918B042C3DE3E0EC
:102A20003E07A1F583E08A838AE289834FB7F89451
:102A3000DE01139620E03EE051E2E32FF0E05093F8
:102A40005700E49120FF03C0E295EF703F5FEF7005
:102A50008E2F90E0EA30C0F0C7968D939D932F5F44
:102A6000243159F74FBF8091E800877F8093E800B9
:102A70006AE270E0CE0101960E941E078091E80094
:102A80008B778093E8001CC1C096E7CF80918C04BF
:102A900090918D04432F55274330510509F44AC0C6
:102AA00078F54130510509F485C08BE590E0E3EC01
:102AB000F4E04230510509F003C12091E800277F7E
:102AC0002093E80020918E0430918F0482179307A1
:102AD00008F49C0140E02115310509F070C0411156
:102AE0006EC08091E80082FDC9CF80919004882358
:102AF00029F2853019F28091E80083FFF2CFBECF32
:102B00004132510509F447C04232510509F0D8C09D
:102B10008330910508F0D4C0FC01EE0FFF1FE75889
:102B2000FE4F0190F081E02D8A589E4FDC018C9180
:102B300090E01DC0332721303105E9F02115310522
:102B400079F022303105F9F02330310509F0B8C0B1
:102B5000E0E3F5E0E4918E2F90E0E0E3F5E007C0DC
:102B6000EEE6F5E0E4918E2F90E0EEE6F5E00097DA
:102B700009F4A6C0A2CFEEE5F5E0E4918E2F90E037
:102B8000EEE5F5E0F4CFEEE4F5E0E4918E2F90E091
:102B9000EEE4F5E0ECCF8330910508F091C0880FAA
:102BA000991FFC01E158FE4F0190F081E02D89E072
:102BB00090E083CF82E190E0EEE1F5E07ECF80917E
:102BC0009004882309F45ACF853009F457CF8091B7
:102BD000E80083FD53CF8091E80082FD82CF809191
:102BE000E80080FF78CF9091F3008091F2002115EA
:102BF000310519F08830910550F041E0089709F04F
:102C000040E08091E8008E778093E80064CF4491A3
:102C10004093F1003196215031090196E8CF803878
:102C200009F04EC08091E800877F8093E800809192
:102C300087048093F10092CE811142C010918A04E2
:102C40001230F0F58091E800877F8093E8001093C0
:102C500087040E947206112311F084E005C0809160
:102C6000E30087FDFACF81E08093900442E061ECBD
:102C700081E00E94910642E261EC84E00E949106AC
:102C800042E261EC82E00E94910642E260EC83E065
:102C90000E9491068091900413C080918A04813033
:102CA00079F481E0933009F080E0809386041092FB
:102CB000E9008091E800877F8093E8000E94720617
:102CC0008091E80083FF0AC08091E800877F8093AD
:102CD000E8008091EB0080628093EB00AA96E3E02D
:102CE0000C9430341F920F920FB60F9211242F9331
:102CF0003F934F935F936F937F938F939F93AF9384
:102D0000BF93CF93DF93EF93FF93D091E900DF70F0
:102D10008091EC00C82FC17080FDC0E81092E900DE
:102D20008091F000877F8093F00078940E94A9132F
:102D30001092E9008091F00088608093F000CD2B24
:102D4000CF70C093E900FF91EF91DF91CF91BF91D8
:102D5000AF919F918F917F916F915F914F913F9133
:102D60002F910F900FBE0F901F901895E0E8F3E0A1
:102D7000128E138E8FEA90E09183808385E0848F9A
:102D800028E833E13383228322E330E0378B268B3C
:102D900028EC30E0318F208F158E178E168E20E5AF
:102DA00030E031A320A382A30E94200F0E9493133E
:102DB00010925E0410925D04EEE5F4E08081846080
:102DC000808380915D0490915E040E94D20F0E94E6
:102DD000A70D0895A4E1B0E0E0EFF6E10C9405340E
:102DE000409053035090540381E090E0909354033B
:102DF0008093530393E3A92E93E0B92E25E3822E0B
:102E000023E0922E3FE3C32E33E0D32E10E000E008
:102E10003601212C302E20C021E030E00330110596
:102E20003CF4F701EE0FFF1FE60DF71D25913491DD
:102E30004E2D622D832D0E94930F8FEFE81AF80A12
:102E4000E5E0EE16F10441F7FAE06F0E711C2394F1
:102E500088E0281609F45CC0F12CE12CDDCFF501E7
:102E60002591349141E060E0832D0E94680FF401C8
:102E70002591349140E060E0832D0E94680F0F5F40
:102E80001F4FE4E0AE0EB11CF4E08F0E911C80E504
:102E9000C80ED11C0830110509F0BACF0E94B61631
:102EA0001A8219821C821B821E821D8218861F8232
:102EB00088EC90E09A8789870BEE12E04AE050E0B8
:102EC000B801CE0101960E94D134065F1F4F0B332B
:102ED000E3E01E0799F77E01FBE0EF0EF11C8AE0AC
:102EE000F70111928A95E9F74AE050E0B801C7016D
:102EF0000E94D134065F1F4F0B38F3E01F07A1F784
:102F000050925403409253036496E2E10C942134AE
:102F1000033011050CF4A3CF21E030E041E060E084
:102F2000832D0E94680F21E030E0A4CF80E00E9452
:102F3000B90F60E086E290E00E94AD340E94EA168C
:102F40000E94580F81E00E94B90F089568EE7EEF4D
:102F500090E080E00E94CB3460E082E090E00E944C
:102F6000AD3460E083E090E00E94AD3410922D0219
:102F700060E084E090E00E94AD3464E082E290E0A2
:102F80000E94AD3460E085E090E00E94AD3460E0E6
:102F900086E090E00E94AD346FEF87E090E00E9401
:102FA000AD3440E050E0BA0188E090E00E94BF34C8
:102FB00060E08DE090E00E94AD3440E050E0BA0166
:102FC00088E190E00E94BF3460E087E190E00E94D9
:102FD000AD3440E050E0BA018CE190E00E94BF3493
:102FE00070E060E080E290E00E94CB3440E050E08E
:102FF000BA0188E190E00E94BF3480E00E94B90FDE
:103000000E94961740E050E0BA018FE090E00E94E5
:10301000BF3440E050E0BA0183E190E00E94BF3449
:103020000895CF92DF92EF92FF928FEF9FEF44309F
:10303000510508F46AC0FB01C080D180E280F380B2
:103040000E94931380915D04C0FA80F9B701A60134
:10305000769567955795479540FB81F9B701A6018D
:1030600022E076956795579547952A95D1F740FBCD
:1030700082F9B701A60133E0769567955795479594
:103080003A95D1F740FB83F9B701A601E4E07695C4
:10309000679557954795EA95D1F740FB84F9B701B5
:1030A000A601F5E07695679557954795FA95D1F77E
:1030B00040FB85F9B701A601A6E07695679557957F
:1030C0004795AA95D1F740FB86F9B701A601B7E06D
:1030D0007695679557954795BA95D1F740FB87F94F
:1030E00080935D0480915E04D0FA80F9D1FACC24FB
:1030F000C0F8C0FA81F980935E0480915D049091DC
:103100005E040E94D20F90E080E0FF90EF90DF908D
:10311000CF9008950E9493132FEF84E39CE02150F9
:1031200080409040E1F700C0000088E19AE00FB6CF
:10313000F894A895809360000FBE90936000FFCF35
:10314000882321F00E94DB0A0E944A1208958823F6
:1031500039F090919204982B909392040E944A1215
:103160000895882321F00E94E20A0E944A120895DD
:10317000882321F00E94E90A0E944A1208958823B8
:1031800051F19CEF980F913A40F4682F88E891E054
:103190000E949E070E944A12089590E2980F98306C
:1031A00050F4877091E001C0990F8A95EAF7892F52
:1031B0000E94E20AEFCF9BE5980F933028F490E04D
:1031C00080E00E94DE070895885A873120F490E05D
:1031D00080E00E94C8070895CF93DF93EC010E941E
:1031E000BF18CE010E94C80B9E01205E3109283015
:1031F000310510F0CD2B29F40E94B118DF91CF9149
:1032000008950E94A018FACFCF93C82F882309F4FD
:1032100045C08CEF8C0F813A08F068C0809117018F
:103220008823F1F180915D0487FF3AC0EC2FE69589
:10323000E695E695F0E0E857FE4F828190E04C2F4E
:10324000477021E030E002C0220F331F4A95E2F7B9
:1032500082239323892B61F06C2F88E891E00E94F0
:103260009E070E944A1226C080915D0487FF26C0F7
:10327000AC2FA695A695A695B0E0A857BE4FC770EF
:1032800021E030E001C0220FCA95EAF712968C9136
:103290001297822B12968C930E944A12CF91089516
:1032A000EAE8F1E080E991E02191C217A9F28E17D6
:1032B0009F07D1F7809117018111D6CFAAE8B1E01D
:1032C000EFEF80E09D91C91739F3EF3F19F49111A9
:1032D00001C0E82F8F5F8630A9F7EF3FE9F20E2E8D
:1032E000000CFF0BE857FE4FC283D6CF80E28C0F55
:1032F000883048F4C77081E001C0880FCA95EAF7AA
:103300000E94E90AC9CFEBE5EC0FE33040F4F0E0AE
:10331000E05EFE4F808190E00E94DE07BFCFC85A7A
:10332000C73108F0BBCFEC2FF0E0EE0FFF1FED5DD3
:10333000FE4F808191810E94C807B0CF1F93CF9329
:10334000DF93182FC091A003D091A103893321F0FE
:10335000C0919E03D0919F03812F0E940419209752
:1033600039F4812F0E94BF18DF91CF911F910895EA
:103370008FE99FE00197F1F700C000002197EFCFA0
:10338000B0E0A0E0E6ECF9E10C940D34EC018AE049
:10339000A82E2881222309F48FC02130C9F59981F4
:1033A0008A81913021F422960E949E1905C09230A4
:1033B00029F422960E9404192196EBCF933021F430
:1033C00022960E94BF18F8CF943011F02196F4CFC6
:1033D000229630E020E0AE014F5F5F4F8053990BA3
:1033E0008A30910550F02150310930F38FE99FE088
:1033F0000197F1F700C00000F6CFA29EB001A39E96
:10340000700D11249C01260F371F8981EA01E3CF3B
:10341000E22FF0E0EE55FA4FB490822F8695869514
:10342000869590E0FC01EE56FA4FE4902770F12C5F
:10343000022E02C0F594E7940A94E2F731E0E32209
:10344000FF24FC01EE57FA4FC490D12C022E02C08B
:10345000D594C7940A94E2F731E0C322DD24FC013D
:10346000EE58FA4F049110E002C0159507952A9581
:10347000E2F701701127E114F10419F081EE0E94C6
:103480000419C114D10419F086EE0E9404198B2D81
:103490000E949E19C114D10419F086EE0E94BF1833
:1034A000E114F10419F081EE0E94BF180115110515
:1034B00009F482CF8CE278CFCDB7DEB7EAE00C9486
:1034C0002934CF93DF93EC010E94C80B9E01205E4C
:1034D00031092830310510F0209741F40E94B818C6
:1034E0008C2F0E940419DF91CF9108950E94A71894
:1034F000F7CF662329F02091920422602093920452
:103500009C013056211540E2340720F0305E211531
:10351000304108F499270E94611A0895B0E0A0E0B4
:10352000E4E9FAE10C9410347C018B01D42E8091F3
:10353000150182FF8CC0C091A603D091A703CE15C0
:10354000DF0521F0E114F10409F081C0809115013B
:103550008B7F8093150181FD73C08091A4039091AE
:10356000A503A801481B590B81E02091130130915C
:1035700014014217530708F480E08170F82E8091FF
:103580001501F0FA81F980931501FE0183E0F695AB
:10359000E7958A95E1F7EE71FF27E05AFC4F20810D
:1035A0003181AE014F70552781E090E002C0880F55
:1035B000991F4A95E2F7FF2009F444C0822B932B10
:1035C0009183808380915F0381FF08C08091150102
:1035D00080618093150182E00E94E20A80915F037E
:1035E00085FF08C08091150180628093150180E2FB
:1035F0000E94E20A6F2DCE010E94791ADD2031F07F
:1036000080919B0385FF02C086FF3BC080919E0393
:1036100090919F030E94300D8091A6039091A70383
:103620009C013056211540E2340720F0305E211510
:10363000304108F499270E94EC180E94F0121DC036
:1036400081E09BCF8095909582239323B9CFC701CA
:10365000992797013056211540E2340728F0305E53
:103660002115304108F0C7010E94EC188091A60393
:103670009091A7038E159F0501F31093A503009366
:10368000A403CDB7DEB7E7E00C942C34A9E1B0E099
:10369000ECE4FBE10C940534942F498B252F5A8BD5
:1036A0006B8B7C8B8D8B4C895D89622F892F0E945F
:1036B0000108811109C08091A9019091AA01019688
:1036C0009093AA018093A9018B8981111092920491
:1036D0001D861E861F86188A85E0FE017196DE0112
:1036E000199601900D928A95E1F780915E0482FF10
:1036F0001EC08091820390918303892BC1F00E94A8
:1037000062112091070230910802821B930B2091D5
:103710008203309183038217930720F0809109027E
:1037200082FFE2C10E94301281110E94D00A4C85B2
:103730005D856A8589850E940108811111C061E05B
:10374000CE0109960E94D50E6C018B8527EFC2161B
:103750002CE5D20681F4882321F181E080931601C3
:1037600029853A854B855C856D857E858F85988911
:103770000E948F28C6C038EFC3163CE5D30629F453
:10378000882379F00E944B29EBCF49EFC4164CE512
:10379000D40639F4882329F0809116018111F2CFE3
:1037A000DCCF0CE014E0512CB12CA12C222423946A
:1037B000312C2EEF422EF8014081518188248A94C9
:1037C000982C20E0822F90E0FC01EE0FFF1FE40F09
:1037D000F51F608171816115710531F0C616D7063C
:1037E00009F44C012F5FEECFF12CFFEF8F169F06EF
:1037F00009F449C0F8014481F09016018F2D411160
:1038000080E0F82FF170FF2EF801E58086819B851E
:10381000992309F4F8C0FF2009F4F5C060909603DD
:1038200070909703E11013C0A101082C01C0440F50
:103830000A94EAF7842B86838091A8039091A903C8
:103840008615970520F47092A9036092A803C10120
:1038500002C0880F991F2A95E2F70197F801268187
:103860002817190681F480914E0490914F04009717
:1038700009F44BC00E9453116816790608F045C040
:1038800021E0F80124835F28FFEFAF1ABF0A095F28
:103890001F4F28E0A216B10409F08DCF8B85882335
:1038A00009F40DC1552009F40AC10E9462119093D8
:1038B0004F0480934E048091AB03883010F591E063
:1038C000980F9093AB0398E0FE013996DE011196B4
:1038D00001900D929A95E1F73CE0839FC00111247D
:1038E00084559C4F28E0FE013196DC0101900D9239
:1038F0002A95E1F72FEF3FEFFC0131872087D38630
:10390000C2866996E2E10C94213480914C04509176
:103910004D04982FF0E0E0E0851314C090934C0420
:10392000E017F10709F4AFCF90E0FC01EE0FFF1FA5
:10393000EC5BFB4FB182A082019683709927809344
:103940004D04A1CF682E712CF301EE0FFF1FEC5B2D
:10395000FB4F2081318147E0429FD001439FB00D52
:103960001124A45FBB4F6D917C911197798F688F63
:1039700040E020E030E0E32FF0E0EE0FFF1F688D25
:10398000798DE60FF71F8080918081149104E1F01A
:10399000F8010190F081E02DFF8BEE8B20E005C057
:1039A0008616970609F44F2D2F5FE22FF0E0EE0FF9
:1039B000FF1F6E897F89E60FF71F60817181611596
:1039C000710571F73F5FD7CF4423D1F0F80123177A
:1039D00008F0FD0121E024830E171F0721F49093C6
:1039E0004C04F42E50CF981305C0AE17BF0711F446
:1039F0009F5F937093012F5F3F4F822F83708CCF17
:103A0000F0E0E0E0F7CF90E0E11020C0B10102C0AB
:103A1000660F771F2A95E2F79B0121503109821723
:103A2000930731F4442309F448C0C5010E940C08EF
:103A3000C101082C01C0880F0A94EAF7982F9095CD
:103A4000F801868189238683FE2C1DCF9C01082CDA
:103A500002C0359527950A94E2F7A90141705527D0
:103A6000BC016150710986239723892B11F5452BE1
:103A700001F1F80182819381892BC1F01B821C82A4
:103A80001D821E8249824A820E9462118160582FE3
:103A90009D838C83F801828193818F83988729810C
:103AA0003A814B816D817E810E948F28F8011582B9
:103AB000BFCFF22FF170EF2EBBCFEF2CB9CF90918B
:103AC0004C0480914D04981731F00E945A295520DA
:103AD00009F446CE16CF0E94FD2810924F04109292
:103AE0004E040E943A08F3CF82E00E943A131ACEA5
:103AF000A5E0B0E0EEE7FDE10C9415349093560399
:103B000080935503811520E2920730F40E94EC184F
:103B10002596E2E00C94313480EF89838A831B82FE
:103B20000E9462118160782F9D838C8349815A8124
:103B30006B818D810E94461BEBCF0F931F93CF9318
:103B4000DF938C01EB0169E872E08C2F0E94E00F9B
:103B5000892BA1F480919E0390919F030E94300DC8
:103B6000DD27CF57DD4F8881F8011282188283301C
:103B7000F1F048F4813059F0823081F0DF91CF913B
:103B80001F910F9108958430B9F08530B9F7809175
:103B9000890290918A02009789F306C080918B0276
:103BA00090918C02009799F30E94781DE7CF809145
:103BB0008D0290918E02F6CF80918F0290919002AB
:103BC000009791F72091890230918A0280918B02AF
:103BD00090918C0221153105F1F2009729F7C90166
:103BE000E3CFA5E0B0E0E7EFFDE10C94153490934E
:103BF000560380935503811520E2920730F40E940A
:103C0000611A2596E2E00C94313480EF89838A832F
:103C100081E08B830E9462118160782F9D838C8369
:103C200049815A816B818D810E94461BEACFCF93D7
:103C3000DF93EC010E94F11D80919E0390919F0300
:103C40000E94300DCE010E94781DDF91CF91089522
:103C50000F931F93CF93DF938C01862F69E872E057
:103C60000E94E00F892BB1F4C0918902D0918A02A1
:103C7000209781F0F8018281833051F4CE010E94B7
:103C8000171ECE010E94171ECE010E94171E02C0F1
:103C90008430D0F7DF91CF911F910F9108950F934A
:103CA0001F93CF93DF938C01EB0169E872E08C2FB7
:103CB0000E94E00F892B09F05CC0FE01FF27D801AC
:103CC00012968C911297EF57FD4F8130B9F41596EB
:103CD0009C9192FF02C080830AC090FFFCCF82E0DB
:103CE000808380918B0290918C020097B9F480912F
:103CF000890290918A020097E1F110C08230B9F5F3
:103D000015968C9182FD28C080FD0BC083E08083D6
:103D100080918D0290918E02009701F10E94F11D19
:103D200028C084E0808380918F0290919002009758
:103D3000A9F78091890290918A020097F9F00E9478
:103D4000171E80918B0290918C02009739F7809119
:103D5000890290918A02E2CF85E080838091890276
:103D600090918A02009729F00E94171EF0CF86E0FA
:103D70008083DF91CF911F910F91089580918B02E5
:103D800090918C02B8CFA4E0B0E0E9ECFEE10C9495
:103D90000C347C01DC0113964D915C9114971196C3
:103DA0006C9111978C910E9401088111EDC061E026
:103DB000C7010E94D50E8C01F70182818823E1F0B2
:103DC00080915004909151040097B1F008171907A1
:103DD00099F0FEE08F9FC0011124FC01E856FD4FD1
:103DE0002081246020838D569D4FDC010D931C9310
:103DF0000E94C81210929204F7018281882309F46C
:103E00002EC7980122513F452031310508F098C650
:103E10008FEF93E00E949F348111A6C06EEED62EE4
:103E2000D00E0BE813E0D11036C019821A821B8223
:103E30001C8299249A9468012FEFC21AD20AC801F1
:103E40000E949F3489831A82882309F48DC08130AF
:103E500009F07FC0580132E0A30EB11CC6010E94D8
:103E60009F34C82E8A83882309F47EC0C5010E942E
:103E70009F34D82E8FEF8C0D8330D8F4580143E057
:103E8000A40EB11CDB82DD2021F0CE0101960E9440
:103E9000C0198501D0CF0115F4E01F0709F464C0F3
:103EA000C8010E949F34811101C0DA940F5F1F4F37
:103EB000BACF8BEF8C0D833030F5C8010396DB82CF
:103EC0005C01DD2031F3580154E0A50EB11C0E94C5
:103ED0009F348C838823E9F28B819C818130AFEF02
:103EE0009A0710F0982F8827B6E0CB1631F0E7E05C
:103EF000CE1631F00E94171ECCCF0E94F11DC9CF03
:103F00000E94781DC6CFF4E0CF12C3CF580124E041
:103F1000A20EB11CC80103960E949F34DD2021F13E
:103F2000882311F18150990B989E9001999E300D34
:103F300011244D2D4150550BCA01820F931F01973B
:103F400008F4A7CFAFE9BFE01197F1F700C0000078
:103F5000F6CFCE0101960E94C01956019ACF81E09A
:103F60000E946B130E94211380910902877061F0F7
:103F7000D70112968C91882339F080915E0482FFDC
:103F800003C082E00E943A132496EBE00C9428349C
:103F900081E00E942D13E6CF82E0E2CF823009F06B
:103FA00010C680918D0290918E02892B09F409C66A
:103FB0002EE02C9DC0012D9D900D1124FC01E85692
:103FC000FD4F20812E7F20838D569D4F0E94C81269
:103FD000F8C52FEFC216D10409F008F4F2C580919C
:103FE0009B0380FF39C00E9462116C01D7011296B9
:103FF0008C91882309F490C08091150182FF08C03C
:1040000026E432E040E0B60190E080E00E948E1AA3
:104010000B31BCE51B0709F471C00C31ECE51E0740
:1040200009F472C090911501892F8E7F90FF8160F5
:104030000A31FCE51F0709F46AC0C80190568115D2
:1040400020E2920728F0905E8115904108F072C03E
:104050001092A7031092A603F7018281882309F426
:104060007CC10330FDE51F0708F05BC10A3F2CE56A
:10407000120730F4C80182509C45449708F05DC196
:104080000E94FC0E90935E0480935D0402318CE5E7
:10409000180709F492C208F0DEC10930ACE51A072E
:1040A00009F469C208F0A8C10530ECE51E0709F45F
:1040B00052C208F094C103302CE5120709F443C240
:1040C00008F045C280915D04816002304CE5140720
:1040D00009F4BEC180915D0490915E040E94D20FEC
:1040E0000E94931341CF902F812FB4C5F601858193
:1040F00081FF75CFC6010E94AE1271CF809115016C
:1041000081608093150199CF809115018E7F8093F6
:1041100015010E94F01291CF809115018F7E013E12
:10412000110531F0053E1105C9F4809115018F7D0F
:10413000809315018091150180FF8ECFD7011296D3
:104140008C910832110528F50E31110508F072C066
:104150000430110580F581117BCF7ECFC8019056C8
:10416000811540E2940720F0905E8115904110F790
:104170008091150182FF70CF80919D0381FD6CCFEE
:1041800026E432E040E0B60190E080E00E948E1A22
:1041900063CF0933110558F40D32110518F40B32B1
:1041A0001105C9F690919B0392FDD5CF08C0043646
:1041B0001105C1F3D0CF90919B0394FDCCCF882300
:1041C00009F4A8C080912C0290915F03892B8D7F08
:1041D000B1F11092A7031092A60380919B0381FD79
:1041E0002EC0F80143E0F695E7954A95E1F7EE71A8
:1041F000FF27E05AFC4F98012F70332781E090E0B1
:1042000002C0880F991F2A95E2F78095909520812A
:104210003181822393239183808360E0C8010E94CF
:10422000791A80912C028D7F0E941C1282E00E94DC
:104230003A139ACE90919B0393FD8DCFC0CF88E027
:10424000F701A6E4B2E001900D928A95E1F7109291
:10425000480210924A02109249028091A60390915E
:10426000A70308171907D1F520919B0325FF36C036
:104270003091150131FF02C026FF30C02091A40308
:104280003091A5035601A21AB30AB7010E94F40F98
:10429000A816B90618F580915F0381FF08C08091C8
:1042A000150180618093150182E00E94E20A8091ED
:1042B0005F0385FF08C0809115018062809315011E
:1042C00080E20E94E20A609115016695617080911A
:1042D000A6039091A7030E94791A46CE80912C02E2
:1042E00090915F03982B2091150191FB21F9209368
:1042F00015018D7F0E941C121093A7030093A60343
:10430000D092A503C092A40380911501846080938C
:1043100015018CCF970140E0B601C8010E948E1AAA
:1043200023CE053A3DE5130709F4AACE08F050C0A4
:1043300001365DE5150709F4A3CE0A358DE51807AA
:1043400009F48AC108F063C10115ACE51A0709F444
:1043500069C10E3D1C4509F472C1F7018681978140
:10436000009709F47DC10E944F09182F092FF7010A
:10437000C280D580D2943FE0D32280910902877019
:10438000C1F0AC2CCC20B1F0892F807F803421F09B
:1043900080E2810F883068F080915E0482FF09C05E
:1043A00082E00E943A13809109028770AA24A394A4
:1043B0008111A12C902E92942FE09222FBE0F9150E
:1043C00008F4DBC1E92DF0E0EB50FB4C0C945C34BD
:1043D000C8018D5A9D45039708F0AFCF51CE80910B
:1043E0005D04806207305CE5150791F108F4BFC0F9
:1043F00080915D0480642CC00D309CE5190709F4A0
:10440000C4C090F480915D048E7F0B30BCE51B0727
:10441000F9F080915D048C600C30ECE51E07C0F073
:1044200080915D048D7F14C00F30FCE51F0709F4F7
:10443000BCC008F4AEC000313CE5130709F4B9C0B4
:1044400080915D048F7B01314CE5140709F042CE69
:1044500080935D043FCE0F3F5CE5150709F4B7C0BC
:10446000A8F50A3F9CE5190709F479C0C0F40431A6
:10447000BCE51B0709F4B9C008F4A5C00531FCE58B
:104480001F0709F027CE80915D0482FB992790F9E0
:1044900021E0922790FB82F990FB83F9D9CF0C3F62
:1044A0002CE5120709F479C008F45DC00D3F4CE516
:1044B000140709F476C080915E0483600E3F5CE5CA
:1044C000150709F007CE80935E0404CE01368DE512
:1044D000180709F495C090F40130ADE51A0709F406
:1044E0008DC008F478C060E00230EDE51E0709F0E9
:1044F000F1CD8EE090E00E94AD34ECCD0D3AFDE5BB
:104500001F07E9F060F490915D04892F8E7F90FF82
:104510008160053A3DE5130709F49ACFDBCD0E3AE9
:104520004DE5140771F10F3A5DE5150709F0D2CD9D
:1045300090915E04892F877F93FF8860C4CF80911C
:104540005E048860C0CF80915D04826081CF8091DD
:104550005D0484607DCF80915D04886079CF809117
:104560005E048160B0CF80915E048260ACCF8091A8
:104570005D0480616DCF0E94931380915D0480681B
:1045800067CF80915E04877F9ECF80915D048B7F93
:104590005FCF80915D04877F5BCF80915E048E7FCB
:1045A00092CF80915E048D7F8ECF80915D048F7E4F
:1045B0004FCF80915D048F7D4BCF0E9493138091EC
:1045C0005D048F7745CF80915D04837F41CF8091DB
:1045D0005E048C7F78CF80915E04982F90959170C7
:1045E0008E7F892B90FB81F96ECF0E94931390915F
:1045F0005D04892F97FB87F980582ACF61E079CF36
:1046000090915D04892F8F7E94FF806121CF0C35BE
:10461000EDE51E07B9F010F1073A1D4509F09DCEF2
:104620000E948A180E9493133FEF44E35CE03150EC
:1046300040405040E1F700C000000E9481070E9406
:10464000A617EECF80915E0482FB882780F991E067
:1046500089270E94561381CE81E0FBCF80E0F9CFFD
:10466000828100811181882369F0C8010E94590E5E
:10467000D82E682FC8010E94910BB8018D2D0E9481
:104680002F0E71CEC8010E94470BD82EF6CF202FD7
:104690002F70B22E802F807F19F0B29490EFB92244
:1046A000CC20A9F0BB2059F080E2810F883010F0B7
:1046B000111107C08B2D0E94E90A0E944A12812F16
:1046C0005AC080919204B82AB0929204F6CF812FFA
:1046D0000E94BF18BB2009F450C080E2810F8830CF
:1046E00010F0111104C08B2D0E94E20A03C08B2D23
:1046F0000E94DB0A0E944A1240C0302F3F70B32E46
:10470000802F807F803219F0B29480EFB82211237D
:1047100021F1113009F4AEC0CC2009F4B7C0DD207E
:1047200009F47FC020E0D7014C9111965C9111975C
:1047300012966C91129713967C91139714968C9104
:104740000E94B20E80919D0381FDB9CFF701858152
:1047500080FFB5CF8F70858364C080915E0482FD39
:1047600040C0CC20C1F1BB2029F08B2D0E94E90A6A
:104770000E944A1280E00E940419A92DA850BB0B88
:10478000149710F40E94F407812F902F0E94AD0B14
:104790008111B7C11092AA011092A901AA20B1F00B
:1047A0008091090280FD12C0D70112961C92859556
:1047B000859585950E946B13C7010E94C31E809149
:1047C00009028595859585950E942D1360E0C701A6
:1047D0000E94D50ED9CB80E00E94BF18BB2069F2A1
:1047E00082CFCC2011F1D11004C080912C028B29F2
:1047F00019C041E0D41206C080912C028B290E947E
:104800001C12BBCF80919C03823078F3D812EDCF7D
:104810000E94D00A9091A8018B2D892B8913809337
:10482000A8018B2D0E94B818A8CFD11003C00E94F8
:10483000D00A17C080919C0351E0D51216C0823077
:1048400008F49BCF80915F038B2109F496CF0E94DF
:10485000D00A9091A8018B2D80958923891380938C
:10486000A8018B2D0E94B11888CF823000F3D81296
:10487000DECF83CF8091A203CC2021F08D1508F4E8
:104880007CCFCFCFD81608F078CFEBCFDD2049F31F
:104890008091A0039091A103193321F080919E0390
:1048A00090919F030E94300D812F0E94BF1865CF09
:1048B000802F86958695837069F0813009F05DCFF1
:1048C000812F902F9370C11002C090E080E00E9471
:1048D000C80753CF812F902F9370C11002C090E072
:1048E00080E00E94DE0749CF802F837091F5C110D0
:1048F00044CF412F429546954770440F440F812F76
:104900008F70042E01C0880F0A94EAF7212F2071BE
:1049100014FF07C02FE030E001C0220F4A95EAF7EC
:104920002095302F369536953370323069F050F43B
:1049300040912D02313029F0822B84230E948E1366
:104940001CCF842B822BFACF282B80912D0282271B
:10495000F5CF8695CC2011F0802F8170882309F443
:104960000CCF412F429546954770440F440F812F3D
:104970008F70042E01C0880F0A94EAF7212F20714E
:1049800014FF07C02FE030E001C0220F4A95EAF77C
:104990002095302F369536953370323069F050F4CB
:1049A00040919104313029F0822B84230E941C1302
:1049B000E4CE842B822BFACF282B8091910482277E
:1049C000F5CFF02FFF70BF2ECC2029F08F2F0E9443
:1049D0006B13812F27CF812F0E94B1188B2D0E943E
:1049E0002D13CBCE123F89F160F4103FB9F0113F87
:1049F00081F0CC2009F480C0D11061CE802F8F715E
:104A000028C0133F49F1143FA1F780915E0482FD55
:104A10002FC0802F8F71CC2011F31BC08091A20377
:104A2000CC2079F0D81608F0A8CE202F2F7181E085
:104A300090E001C0880F2A95EAF7909191048927A8
:104A4000B5CF8D1508F499CEF0CF802F8F71C1109E
:104A5000C6CF0E946B1391CE80E0CC2009F4A6CF84
:104A600081E0902F9F7101C0880F9A95EAF79ECF41
:104A700080919C03823040F1CC20D1F090910902CA
:104A80009770943041F40E94EF0A802F8F710E943A
:104A90002D13A12C72CED816E0F7202F2F71B22E35
:104AA000822F0E946B1363E08B2D0E947713F1CF4E
:104AB000D81630F00E94EF0A64E0802F8F71F5CF96
:104AC00081E00E943A13E5CFCC2059F0302F3F719E
:104AD000B32E832F0E946B1363E08B2D0E947713FC
:104AE0004CCE81E00E943A1341E04D1508F045CECE
:104AF00082E00E943A1341CED110CACE802F8F712E
:104B00006ECFCC2019F0D11045CE48CED11042CE78
:104B100020E0F701408151816281738184810E948C
:104B2000B20E80919D0383FF35CE8091A9019091B3
:104B3000AA01029709F02ECE812F0E949E192ACE3B
:104B40000031BFE51B0709F40ACA0131EFE51E0772
:104B500009F422CA6801E7E5DE1A81113ACAFFEFBB
:104B6000CF16D10411F008F03ACA69E872E08C2D32
:104B70000E94E00F892B29F58EE08C9DF0018D9D20
:104B8000F00D1124ED56FD4F8281813009F006CAE7
:104B90008091890290918A02892B99F080918B02F1
:104BA00090918C02892B69F080918D0290918E02F8
:104BB00020918F0230919002822B932B892B09F444
:104BC000F7C95801BB243EE0039FF0011124AF0157
:104BD0004D565D4F6A01D70112968C91E856FD4FF4
:104BE000908180FB90F99083882309F47FCA0E940A
:104BF00062119093450280934402D60112968C91E3
:104C000012978F5F12968C931297809192049091D5
:104C10005F03892B13968C93139780912C02149623
:104C20008C9314971696ED91FC911797309729F075
:104C30001C966D917C91C60109958EE08A9DF001CC
:104C40008B9DF00D1124ED56FD4F858181FF4BCAE0
:104C500090E080E09093500480935104C0C90031EB
:104C6000FFE51F0709F494C901312FE5120709F088
:104C700071CF82E08EC9B0E0A0E0E1E4F6E20C94EE
:104C80000F348091C201807F31F48091BF01C091C7
:104C90000602811107C0CDB7DEB7E8E00C942B34D3
:104CA0002196C7708091C5018C17A9F3F090BD01C2
:104CB000E090BE01C090C001D090C101A6016E2D50
:104CC0008F2D0E940108D0E08111EACF8E0183E090
:104CD000000F111F8A95E1F7F801EA53FE4F818119
:104CE0008E11DECF80818F11DBCF82818111D8CFF1
:104CF000E380F480EC18FD0860E08DEB91E00E9409
:104D0000D50E6DEB71E00E94F40FE816F90640F63F
:104D10008091C2018F7080618093C201F801E553D8
:104D2000FE4F80818F70806180838DEB91E00E94C7
:104D3000C31E0E94160BAFCFA5E1B0E0E2EAF6E297
:104D40000C9408348C0185E0F801DE015196019045
:104D50000D928A95E1F7D8015C9011966C901197AD
:104D60001296EC9012971396CD90DC9060E08DEB4C
:104D700091E00E94D50E8DEBA82E81E0B82E809098
:104D8000C0019090C101A4016091BE018091BD015C
:104D90000E9401088111A8C1F090BF01F601E81935
:104DA000F9094F0160E0FF2009F44BC1C5010E94E1
:104DB000D50EB5010E94F40F7090C20188169906B5
:104DC00008F0F2C04091C0015091C101B090BD0106
:104DD000A090BE01872D807F6A2D09F08CC08B2D9D
:104DE0000E940108FE2C811127C0D80111968C91D8
:104DF00011978A1121C08C918B111EC02091C30183
:104E00003091C40116968D919C9128173907A1F411
:104E1000E11012C0872D8F7080618093C2018DEBED
:104E200091E00E94C31E8091C201F80185838F2DFD
:104E30006596EFE00C942434A601662D852D0E9422
:104E40000108D82E81E08E25D11080E080FF18C0A7
:104E50004E2D662D852D0E94F60A882389F08091BB
:104E60009D0380FF0DC08DEB91E00E94C31E88E082
:104E7000EDEBF1E0DF011D928A95E9F7F12CD7CF38
:104E800081E08E25D11080E0B82FB170CB2E80FF4D
:104E900029C04E2D662D852D0E94F60AD82E81112F
:104EA00021C0598A6A8A89899A890E94880E292F85
:104EB00022952F70223050F0243078F49F7051F0FA
:104EC000F8019581907F31F4FD2CB1CF9F7011F0E6
:104ED0008823D1F3805E8830B8F3C8010E94C31ED6
:104EE000DC2CF2CFEE2009F4A2CF8091C2018160C8
:104EF0008093C201C3CF8B2D0E940108811124C071
:104F0000D80111968C9111978A111EC08C918B112A
:104F10001BC02091C3013091C40116968D919C91C4
:104F200017972817390781F4E1100EC015967C9267
:104F3000C8010E94C31E88E0F801ADEBB1E001900A
:104F40000D928A95E1F773CFC8010E94950E8823D0
:104F500039F1EE2029F18091C2018032A0F0209138
:104F6000BD013091BE013A8729871B86DD86CC863C
:104F70008E878091C3019091C401988B8F87CE0159
:104F800009960E94C31E88E0F801ADEBB1E00190E4
:104F90000D928A95E1F70E943B26FF24F39447CFB8
:104FA000C8010E94C31EF9CF872D807F09F45BCF13
:104FB0009090BD018090BE014091C0015091C1010F
:104FC000682D892D0E94010881111CC0F801818182
:104FD000881118C08081891115C02091C3013091BA
:104FE000C401868197812817390761F4E1100AC04E
:104FF0007582C8010E94C31E88E0D5011D928A9562
:10500000E9F715CFC8010E94950E882349F2EE20DA
:1050100039F28091C201803208F4B5CF2091BD01F0
:105020003091BE013A8329831B82DD82CC828E833C
:105030008091C3019091C40198878F83CE0101961E
:10504000A0CF8DEB91E00E94D50E6DEB71E00E9438
:10505000F40F8816990680F6FE2CEE2009F4A0CFF6
:10506000E090BD01D090BE014091C0015091C101BE
:105070006D2D8E2D0E940108811128C0F8018181BB
:105080008D1124C080818E1121C02091C3013091E7
:10509000C4018681978128173907C1F480919D0347
:1050A00082FD49CF9091C20190FD45CF907F09F4D8
:1050B00042CF8091C2018583903F09F439CF982F68
:1050C000907F905F8F70892B858332CFC8010E94BB
:1050D000950E811158CF8091C20181608093C201E9
:1050E000C8010E94C31EA3CEEE2009F459CFC80107
:1050F0000E94950EF82E882309F452CF88E0F8011B
:10510000ADEBB1E001900D928A95E1F78091BD0180
:105110009091BE010E94880E0E943B2688CEA0E19D
:10512000B0E0E5E9F8E20C94153429873A874B871B
:105130005C876D877E878F87988BCE0109960E944A
:105140009C2681112FC088E0FE013996DE01119660
:1051500001900D928A95E1F74C855D856A85898578
:105160000E94010881111EC0A091C501B0E0CD01CF
:105170000196877099272091060228171906E1F0F9
:1051800093E0AA0FBB1F9A95E1F7AA53BE4F98E090
:10519000FE01319601900D929A95E1F78093C50139
:1051A0000E94160B809106029091C501891312C0CE
:1051B0006096E2E00C9431340E9493131092C50182
:1051C0001092060288E0EDEBF1E0DF011D928A9576
:1051D000E9F7E8CFB8E08B9FC00111248A539E4FB6
:1051E0000E949C26882321F38091060290E001967C
:1051F0008770992780930602D5CFEF92FF920F9385
:105200001F93CF93DF938091AB03882361F0C0910C
:10521000AA038CE0F82E8091AB03C81748F01092D7
:10522000AB031092AA03CDB7DEB7E6E00C942D34A1
:10523000EE24E394EC0EE092AA030C2F10E0CF9D35
:10524000E0011124C455DC4F4B815C816981888168
:105250000E94010881111DC08E819F81892B21F43C
:1052600088859985019651F4288139814A815B812D
:105270006C817D818E819F810E948F28F09EF0013C
:10528000F19EF00D1124E455FC4F1482138210920C
:105290009204CE2DC0CF10924F0410924E04109263
:1052A000160180914D0480934C040E943A080E949C
:1052B000FD280895B0E0A0E0E0E6F9E20C940634A1
:1052C000C0914C0497E0892E01E010E02CE0322ED2
:1052D0003EEF932E4424439480914D048C1309C0D7
:1052E0000E94FD280E943A08CDB7DEB7E1E10C9498
:1052F0002234D0E0FE01EE0FFF1FEC5BFB4F8081FC
:105300009181889ED001899EB00D1124A45FBB4F6E
:1053100014962C911497211158C05090AB03ECEACD
:10532000F3E030E020E0712C5D01251508F04BC062
:10533000E284F384D501CD90DC906FEF7FEF612C98
:10534000462D50E0DA01AA0FBB1FAC0DBD1D0D901C
:10535000BC91A02D109731F0EA16FB0609F4BA01B2
:105360006394EECF6F3F7607A9F1D80102C0AA0F70
:10537000BB1F6A95E2F77A2AB801062C02C0660FB5
:10538000771F0A94E2F7AB014150510974161506D4
:10539000F9F4329EF001339EF00D1124E455FC4FD8
:1053A000889ED001899EB00D1124A45FBB4F129638
:1053B0002D913C9113973783268390829182918718
:1053C000808715964C920E940C082196C37084CF5A
:1053D000148213822F5F3F4F3C96A7CF1F921FB6B8
:1053E0001F9211248F939F93AF93BF938091580482
:1053F000811113C08091590490915A04A0915B04CB
:10540000B0915C044196A11DB11D80935904909305
:105410005A04A0935B04B0935C04BF91AF919F9139
:105420008F911F901FBE1F901895CDB7DEB7C35543
:10543000D1090FB6F894DEBF0FBECDBF85B7806827
:1054400085BF85B7806885BF84B7877F84BF0FB667
:10545000F894A89580916000886180936000109214
:1054600060000FBE80E890E00FB6F8948093610072
:10547000909361000FBE83EF98E090938701809333
:1054800086010E94CE080E9412100E94A70D0E9461
:10549000D0050E94C3068091E20084608093E20000
:1054A0007894809190048823A1F01091E9001F70F6
:1054B0009091EC00892F817090FD80E8182B10925C
:1054C000E9008091E80083FD0E94A9131F701093EA
:1054D000E90082E084BD93E095BD9AEF97BD80938B
:1054E0006E000E94E30E811102C00E94961701E532
:1054F00011E039E5E32E31E0F32ED8018D918D01D5
:105500008F3F11F00E94F508E016F106B1F709E5AA
:1055100011E02EE5E22E21E0F22EF80181918F01BB
:105520008F3F11F00E94F508E016F106B1F788E010
:10553000E9E7F2E0DF01282F1D922A95E9F7E1E380
:10554000F2E0DF011D928A95E9F790E080E00E9489
:10555000A734883E9E4F21F40E94E30E811102C0C1
:105560000E94A61782E090E00E949F3480933B0245
:105570000E94FC0E90935E0480935D040E946E1165
:10558000EFEFF6E721E0E150F0402040E1F700C006
:1055900000000E946E118091790280FF08C06FEFB9
:1055A0007FEF90E080E00E94CB340E94810783E08F
:1055B00090E00E949F340E948E1383E080937202D9
:1055C00080E2809393040E9405336DE070E08EE8E2
:1055D00091E00E943A0D892BE9F58091720263E017
:1055E00070E081FDBFC08BE891E00E943A0D892BED
:1055F00089F56DE070E08BE791E00E943A0D892B10
:1056000049F50E949207605A75418F4F9F4F6093F2
:10561000590370935A0380935B0390935C03E6E90C
:10562000F4E080E092E0DF019C011D9221503040C7
:10563000E1F7F0939D06E0939C068FEF9FEF909328
:1056400095048093940481E080935E0380935D03CE
:105650001092730281E0809350023E98469A5498CB
:105660005C9A8FE891E00197F1F700C0000020916B
:10567000500241E552E0FA018E2F841B821708F494
:1056800074C080E091E0909355048093540489E7BE
:1056900092E0A8E0A80F6296AFAF62978091900465
:1056A00090E4F92E00E112E1853009F4A3C00E94D4
:1056B0006E110CE3A02E02E0B02E89E7C82E82E026
:1056C000D82ED601F50191918D9132E0E434F307A3
:1056D00009F49AC09817B9F310E0D6010D916D0145
:1056E000F50181915F018017A1F1982E9026F12C90
:1056F000EE24E394892D8E2121F12D96FFAE2D9776
:105700002E961FAF2E9791E0802F8E2109F490E006
:105710002F969FAF2F970E9462118160782F61961C
:105720009FAF8EAF61972D964FAD2D972E965FADA3
:105730002E972F966FAD2F9761968FAD61970E9430
:10574000461BF394EE0CF5E0FF12D4CFF501319730
:1057500000831F5F183009F0C0CF0E949207EE242B
:10576000E39483C088E891E040CF86B186FB882728
:1057700080F94C9904C090E0892B81937DCF92E011
:10578000FBCF80919004843029F10E94640D109227
:105790005804E8E1F0E00FB6F894A895E0936000B3
:1057A0000FBEF092600083B7817F846083BF83B7B0
:1057B000816083BF7894889583B78E7F83BF0FB64F
:1057C000F894A895809160008861809360001092A1
:1057D00060000FBE80918604882361F00E946E11E4
:1057E000E9E7F2E081918111C4C662962FAD62971C
:1057F0002E13F8CF80919004853009F4C2CF0E9417
:1058000093130E94F40753CF981366CF0E9462113E
:105810008C018091390290913A020817190721F101
:105820008FEF28968FAF289729968FAF29972A96C2
:105830001FAE2A970E9462118160782F2C969FAF2D
:105840008EAF2C9728964FAD289729965FAD299754
:105850002A966FAD2A972C968FAD2C970E94461BE7
:1058600010933A0200933902E12C009150041091F8
:1058700051040115110529F18091440290914502CE
:105880000E9453116C01BE01655D7F4F88E0DB0112
:105890001D928A95E9F7C8010E94F40F8C159D05A9
:1058A00080F480915004BEE08B9FC0011124FC0164
:1058B000E856FD4F208122FD04C08D569D4F0E9469
:1058C000C812809116018823F9F080914E049091BE
:1058D0004F040097C9F00E9453112091A803309102
:1058E000A9032817390780F490914C0480914D0446
:1058F0009817C1F10E945A291092A9031092A80387
:1059000010924F0410924E0480919B0380FF1EC0A2
:105910008091150182FF1AC00E9462112091A40398
:105920003091A503AC01421B530B20911301309120
:1059300014014217530750F026E432E041E0BC0165
:105940008091A6039091A7030E948E1A912CF12CAE
:10595000A4E0AA2EB12CBDEF8B2E772473941CEFFC
:10596000612EB1C00E94FD2810924F0410924E0487
:105970000E943A08C9CF092D10E0E6B1E6FBEE27F8
:10598000E0F94C9956C180E08E2BD801AF5ABD4F3B
:10599000EC919E2F9370891709F494C0EE0FEE0FCF
:1059A000E82BEC93EF70F0E0E25AFE4F9801215B98
:1059B0003D4F69018081D9019C91890F8C9320E032
:1059C00084300CF43FC0F801E25BFD4F80818F5FB3
:1059D00080830E9462119DAE6EAE7FAE8160782F93
:1059E00022969FAF8EAF2297492D5CEF61E0229601
:1059F0008FAD22970E94461BEFE3FFE13197F1F74D
:105A000000C000000E94621123969FAE2397249647
:105A10006FAE249725961FAE25978160782F279625
:105A20009FAF8EAF2797492D5CEF60E027968FAD33
:105A300027970E94461B8FE39FE10197F1F700C073
:105A4000000021E0D6018C918D3F8CF5F801E25BDE
:105A5000FD4F8081815080830E9462119BAA8CAA95
:105A60007DAA8160782F9FAB8EAB492D5DEF61E001
:105A70008FA90E94461BEFE3FFE13197F1F700C0C9
:105A800000000E94621198AE89AE1AAE8160782F34
:105A90009CAF8BAF492D5DEF60E08CAD0E94461B43
:105AA0008FE39FE10197F1F700C0000021E0D601EC
:105AB0008C91082E000C990BB5010E944834F60118
:105AC0008083F22A939480915002981608F453CF61
:105AD000F1100E94920780915E03882309F45FC051
