:100000000C94AC060C94C9060C94C9060C94C90651
:100010000C94C9060C94C9060C94C9060C94C90624
:100020000C94C9060C94C9060C946C140C94451AD3
:100030000C9435290C94C9060C94C9060C94C90675
:100040000C94C9060C94C9060C94C9060C94C906F4
:100050000C94C9060C9445150C94C9060C94C90659
:100060000C94C9060C94C9060C94C9060C94C906D4
:100070000C94C9060C94C9060C94C9060C94C906C4
:100080000C94C9060C94C9060C94C9060C94C906B4
:100090000C94C9060C94C9060C94C9060C94C906A4
:1000A0000C94C9060C94C9060C94C9060001D5FF2E
:1000B000FFFF000000000001BFFFFFFF0000000085
:1000C000000115FFFFFF0000000005010902A1016A
:1000D00085020901A100050919012905150025015D
:1000E00095057501810295017503810105010930AE
:1000F00009311581257F950275088106093815811A
:10010000257F950175088106050C0A3802158125A1
:100110007F950175088106C0C005010980A1018590
:100120000319012AB700150126B700950175108142
:1001300000C0050C0901A101850419012AA00215BE
:100140000126A002950175108100C005010906A1D4
:10015000018506050719E029E715002501950875B1
:100160000181020507190029EF1500250195F07599
:10017000018102050819012905950575019102956E
:100180000175039101C00660FF0961A101096215B3
:100190000026FF009520750881020963150026FFDF
:1001A00000952075089102C005010906A101050707
:1001B00019E029E7150025019508750181029501CF
:1001C000750881010507190029FF150026FF009514
:1001D0000675088100050819012905950575019125
:1001E00002950175039101C000DA0281FFD9F1DBAC
:1001F00020A4A62EAF00A0C000A1C800AED580A844
:100200001FD300408D142000C000B600AC000000D9
:10021000200046554E43004E415600534D424C007F
:100220004E4D425200200047554900200053686659
:1002300074002000416C740020004374726C002034
:100240000020002000FD377A585A000004E6D6B49A
:10025000460200210116000000742FE5A3E003ED23
:1002600001385D003D8889C65436C3174FE4F8193C
:100270002F9410BC480EF4786E8BF4474ED22A4D62
:1002800087AF6AE1E5DE9253C3E9A38D9EDE326C4F
:10029000E5E4CFF464C7076B42AA4B08451C4A91BA
:1002A0000B27BC56D1C9BDC7E25E3E9BAA28E0849D
:1002B0008EA8C5A57924708DC7F013B81AD81A3A3C
:1002C0005B353B6BD1D9A5A5B7FD4ED460ABBF74F0
:1002D000ED6589B3B41A5AB64BF3AA0C07EADEDF10
:1002E0002B8762368A34EEBB92E76CBD46F575F417
:1002F00028152D76D7C5963B1BA0AF675E22498592
:10030000E4F5FF9326BBCC9E2D118F83ABCA9B7C5B
:10031000B3FE17DE6B82935A4E33DC679702CCDC58
:10032000B36B5B5A3F8C642448AC8CBBBC54172421
:10033000E69A1BCE2D768386442CA9B299887951F2
:100340007C765BD05DE4F2E62B3504D079A896028A
:10035000FFA66B150DE4FE63F2D927CC8BF9A178CB
:100360008EBB757FAC81EC2B40760DCA958469CF2E
:10037000F70D19712124726F1B82D1CFFE47B0A7F0
:100380006118B57BBA0458D6F4FEBE329702C82C69
:10039000CDC9869DAA80EA9D3670FCEF00B07D53E2
:1003A0002A3B6AC34B0001D402EE0700000AF9D5CC
:1003B00003B1C467FB020000000004595A000101A8
:1003C0000101010101010102020202020202020214
:1003D00003030303030303030404040404040405E4
:1003E00005050505060606060607070707070808A8
:1003F0000808090909090A0A0A0B0B0B0C0C0C0D59
:100400000D0D0E0E0E0F0F0F1010111111121213F1
:10041000131414151516161717181819191A1A1B6C
:100420001B1C1D1D1E1E1F202021222223242425CB
:100430002626272829292A2B2C2D2D2E2F30313204
:1004400032333435363738393A3B3C3D3E3F404114
:1004500042434445464748494A4C4D4E4F505153FC
:1004600054555658595A5B5D5E5F616264656668B3
:10047000696B6C6D6F7072737577787A7B7D7E8037
:1004800082838587888A8C8E8F91939596989A9C83
:100490009EA0A2A3A5A7A9ABADAFB1B3B5B7BABC97
:1004A000BEC0C2C4C6C9CBCDCFD1D4D6D8DBDDDF68
:1004B000E2E4E7E9EBEEF0F3F5F8FAFDFFA900AAB4
:1004C00000A900AA00AB00AC00AB00AC00AB00ACD4
:1004D00000AB00AC0014001A00080015001700045F
:1004E000681664076109620A001D001B00060019F6
:1004F0000005002E002D0029452B432C441300122B
:10050000000C0018001C0033780F640E710D720B84
:100510000038003700360010001100340035004C60
:10052000742A42284514001A000800150017000418
:10053000001600070009000A001D001B0006001934
:100540000005002E642D6229612B432C44130012F8
:10055000000C0018001C0033000F000E000D000BF3
:100560000038003700360010001100346801534C89
:10057000742A42284500000000000000000000E34B
:1005800000E200E000E100000000000000000000C8
:100590000000000000000000000000000000004B10
:1005A000004E00000000004F005200510050005269
:1005B00004000065004D004A00510449000000009D
:1005C000000100000031002400250026002700362D
:1005D000002100220023002F0037001E001F0020F2
:1005E000003000E00028002A000100015300000054
:1005F00000000000000000E700E200E400E5000069
:1006000000000000000000000000000000000000EA
:1006100000000000003102240225022602270236D3
:10062000022102220223022F0237021E021F022091
:10063000023002E000280000002A00010000000053
:1006400000000000000000E700E200E400E5000018
:10065000000000000000000000000000000000009A
:1006600000000000004500400041004200460044F8
:10067000003D003E003F00480043003A003B003C84
:10068000003900E0004C000100AB00AE00000000AB
:1006900000000000000000E700E200E400E50000C8
:1006A000000000000000000000000000000000004A
:1006B000000000010000AF00AE09025B0003010072
:1006C000A0FA090400000103010100092111010041
:1006D000012240000705810308000109040100020E
:1006E00003000000092111010001222200070582F8
:1006F0000320000107050303200001090402000193
:100700000300000009211101000122BC000705843B
:10071000032000011201000200000008EDFE410864
:100720000001010203011C037600690061006C00F6
:100730003A00660036003400630032006200330085
:10074000630000000E037000690063006100340064
:10075000300000000E037A007A0065006E0065002C
:10076000670000000403090400000000000000000E
:100770000000000000000000000000000000000079
:100780000000000000000000000000007E0F00D408
:10079000FFFFFFC70000007800000000000000001D
:1007A0002A2B2800000000000000000000000000CC
:1007B00000000029000000002C1E342021222434D7
:1007C0002627252E362D3738271E1F2021222324A9
:1007D00025263333362E37381F0405060708090A45
:1007E0000B0C0D0E0F101112131415161718191AE1
:1007F0001B1C1D2F3130232D350405060708090A5F
:100800000B0C0D0E0F101112131415161718191AC0
:100810001B1C1D2F3130354C07087F0807003E5B3D
:100820004F5B3E003E6B4F6B3E001C3E7C3E1C000F
:10083000183C7E3C18001C577D571C001C5E7F5ED8
:100840001C0000183C180000FFE7C3E7FF00001879
:1008500024180000FFE7DBE7FF0030483A060E00EF
:10086000262979292600407F05050700407F0525B8
:100870003F005A3CE73C5A007F3E1C1C0800081C05
:100880001C3E7F0014227F2214005F5F005F5F0028
:1008900006097F017F00006689956A0060606060DC
:1008A000600094A2FFA2940008047E0408001020B7
:1008B0007E20100008082A1C0800081C2A080800CE
:1008C0001E10101010000C1E0C1E0C0030383E388C
:1008D0003000060E3E0E0600000000000000000082
:1008E0005F000000000700070000147F147F140061
:1008F000242A7F2A120023130864620036495620F6
:100900005000000807030000001C224100000041C5
:10091000221C00002A1C7F1C2A0008083E08080030
:1009200000807030000008080808080000006060BF
:1009300000002010080402003E5149453E000042DC
:100940007F4000007249494946002141494D33002A
:100950001814127F10002745454539003C4A494983
:1009600031004121110907003649494936004649FD
:1009700049291E000000140000000040340000005F
:10098000000814224100141414141400004122140D
:1009900008000201590906003E415D594E007C12D3
:1009A00011127C007F49494936003E4141412200F5
:1009B0007F4141413E007F49494941007F09090982
:1009C00001003E41415173007F0808087F0000414B
:1009D0007F4100002040413F01007F081422410078
:1009E0007F40404040007F021C027F007F040810CF
:1009F0007F003E4141413E007F09090906003E411A
:100A000051215E007F0919294600264949493200D3
:100A100003017F0103003F4040403F001F20402072
:100A20001F003F4038403F00631408146300030474
:100A3000780403006159494D4300007F4141410062
:100A4000020408102000004141417F00040201021D
:100A500004004040404040000003070800002054CC
:100A6000547840007F2844443800384444442800E7
:100A7000384444287F0038545454180000087E0934
:100A8000020018A4A49C78007F08040478000044A5
:100A90007D4000002040403D00007F1028440000C1
:100AA00000417F4000007C04780478007C08040446
:100AB0007800384444443800FC18242418001824D2
:100AC0002418FC007C0804040800485454542400F2
:100AD00004043F4424003C4040207C001C20402073
:100AE0001C003C4030403C004428102844004C90FE
:100AF00090907C004464544C44000008364100004F
:100B000000007700000000413608000002010204E6
:100B100002003C2623263C0000000000000040406C
:100B200040F0F8F8FF38FFF8F83FF8F8FF38FFF822
:100B3000F8F040404000000000000080C0C0C080CD
:100B40000000C0C08000000080C0C000C0C0000025
:100B500080C0C00000000000C0C0C0C0C000C0C055
:100B60000000000000000000000000000000000085
:100B70000000000000000000000000000000000075
:100B80000000000000000000000000000000000065
:100B900000000000000000C0F0F8FC3E1E0601004E
:100BA00000007F4141417F007F4141417F00008043
:100BB000C0E07E5B4F5BFEC00000C000DCD7DEDE25
:100BC000DED7DC00C00000000000000000000000D4
:100BD0000000000000000000000000000000494983
:100BE00049FFFFFFFFE0DFBFBF00BFBFDFE0FFFF48
:100BF000FFFF49494900000000001F3F6060E0BF5F
:100C00001F007F7F071E381E077F7F007F7F0E1F1C
:100C10003B716000000000007F7F0C0C0C007E7EAA
:100C2000007F7E0303007F7E03037E7E03037F7EBF
:100C3000000F3E703C063C703E0F00327B49493F3E
:100C40007E007F7E0303001E3F69696F260000005F
:100C500000000000000000030F1F3F3C78706000A0
:100C600000007F4141417F007F4141417F00307B57
:100C70007F7830202030787F3B0003000F7F0F0FFC
:100C80000F7F0F00030000000000000000000000C4
:100C90000000000000000000000000000000010152
:100CA00001070F0F7F0F7F0F0F7E0F0F7F0F7F0F3B
:100CB0000F0701010100000000000000000000011A
:100CC0000100000000000000000000000000000023
:100CD0000000000000000000000000000000000014
:100CE0000000000000000000000000000000000004
:100CF00000000000000000000000000000000000F4
:100D000000000000000000000000000000000000E3
:100D100000000000000000000000000000000000D3
:100D200000000000000000000000000000000000C3
:100D300000000000000000000000000000000000B3
:100D400000000000000000000000000000000000A3
:100D5000000000000000000011241FBECFEFDAE009
:100D6000DEBFCDBF11E0A0E0B1E0E8E8FAE602C0E6
:100D700005900D92A438B107D9F726E0A4E8B1E0B8
:100D800001C01D92A337B207E1F70E945C290C94C1
:100D90001E350C940000863124E69207C9F050F409
:100DA000873021E69207B9F08F30944689F08CE8BD
:100DB00090E008958E3021E7920769F0833328E7A9
:100DC000920719F08430984691F786EE90E00895E6
:100DD0008EEB90E008958FEA90E00895E8EDF0E062
:100DE00080818E7F80831092E2001092DA00109250
:100DF000E100A0EEB0E08C9181608C9380818F77D0
:100E0000808319BCA7EDB0E08C918E7F8C9380819C
:100E10008F7E80831092380408952091E4003091F1
:100E2000E50095E6A9012091EC00822F817020FF5A
:100E300006C08091E80080FF06C080E00895209100
:100E4000E80022FD1AC080916604882389F085306D
:100E500089F08091EB0085FD0FC02091E400309176
:100E6000E50042175307F9F29150E1F684E0089546
:100E700082E0089583E0089581E00895EF92FF9263
:100E80000F931F93CF937C018B010E940D07C82FF6
:100E9000811117C08091E80085FD0BC08091E800AA
:100EA0008E778093E8000E940D07882399F3C82F5E
:100EB00008C0F70181917F018093F1000150110971
:100EC00049F78C2FCF911F910F91FF90EF900895CC
:100ED000CF93FC0180916604843001F5C091E90054
:100EE000CF702091EC00922F917020FD90E8C92BDB
:100EF00082E08093E9008091E80080FF0CC050E020
:100F000040E060E270E0CF010E943E078091E8007F
:100F10008E778093E800CF70C093E900CF91089559
:100F200080915E0487FF13C08091E80082FF06C0B5
:100F30008091E8008B778093E80004C0809166047C
:100F40008111F2CF0895809166048823D9F38091AE
:100F5000E80080FFF8CF8091E8008E77ECCF982FE3
:100F60009093E900242F762F50E0891731F070918B
:100F7000EC002091ED005091F00021FD07C09F5F33
:100F8000973071F78093E90081E008953091EB008C
:100F90003E7F3093EB003091ED003D7F3093ED00CC
:100FA0003091EB0031603093EB007093EC002093B4
:100FB000ED005093F0002091EE0027FDE0CF80E09F
:100FC0000895B0E0A0E0E7EEF7E00C944734C8EDF8
:100FD000D0E088818F7E8883E7EDF0E080818160BA
:100FE000808384E082BF81E08093380488818E7F93
:100FF000888302EE10E0F80110821092DA0081EE90
:10100000C82ED12CF601108288818F778883888141
:101010008068888388818F7D888319BC10926604DC
:1010200010925D0410925C0410925B0490EEE92E25
:10103000F12CF70180818B7F808388818160888398
:1010400042E060E080E00E94AF07F60180818E7F81
:101050008083F801808181608083808188608083C3
:10106000F70180818E7F8083888180618883CDB7FE
:10107000DEB7E8E00C946334FC0180916404909145
:10108000650486179707A0F06115710529F4909102
:10109000E8009E779093E80090E06115710551F4A7
:1010A000911108C08091E80082FF34C080E008956B
:1010B000BC01F2CF809166048823C1F18530C1F173
:1010C0008091E80083FD30C08091E80082FDEACF86
:1010D0008091E80080FFE1CF8091F3002091F20041
:1010E000382F6115710519F02830310558F091E05D
:1010F0002830310509F090E02091E8002E77209308
:10110000E800CBCF81918093F100615071092F5F8E
:101110003F4FE7CF80916604882341F0853041F04E
:101120008091E80083FFBECF81E0089582E00895BA
:1011300083E00895089580913A04089587E797E73A
:10114000909301088093000888E19AE00FB6F89424
:10115000A895809360000FBE90936000FFCF2FB7DB
:10116000F89460912F047091300480913104909133
:1011700032042FBF0895209114012223C9F0209139
:10118000330427FF15C0E62FE695E695E695EE3188
:10119000D8F4E80FF92FF11D677021E030E001C0AD
:1011A000220F6A95EAF720958281282322830895E9
:1011B000FC01329608962191621303C0DF0111975A
:1011C0001C92E817F907B9F708952091140122231A
:1011D000C1F02091330427FF14C0E62FE695E69571
:1011E000E695EE31F8F4E80FF92FF11D677021E074
:1011F00030E001C0220F6A95EAF78281822B828358
:101200000895FC0132962FEF30E04191641751F0C0
:101210002F3F19F4411101C0232F3F5F3630A9F74A
:101220002F3F09F40895820F911D27FD9A95FC0127
:101230006283089520912C0430912D0428173907DA
:1012400071F090932D0480932C04E0912A04F09186
:101250002B04309721F00084F185E02D0995089545
:1012600020912804309129042817390771F09093B0
:10127000290480932804E0912A04F0912B043097EC
:1012800021F00680F781E02D09950895E0912A0468
:10129000F0912B04309729F00190F081E02D099511
:1012A000089580E00895452B39F0682381E06F3F71
:1012B00009F080E08170089581E0FCCFDC0160914D
:1012C000210480912204962F891301C00895292FAB
:1012D00030E0F901EE0FFF1FE75EFB4F40815181C7
:1012E0004A175B07A1F487E08A9FA0018B9F500DEE
:1012F000112447555C4F81E0FA0184839613E6CFB1
:101300002F5F3F4F237033272093210408952F5FD1
:101310003F4F922F9370D8CF109245031092440301
:10132000E9EAF3E08581811102C0148216823796C2
:1013300084E0E931F807B1F7089580918F02982F82
:101340009E7F39F480918F028170826080938F023A
:1013500008958430B8F70895AF92BF92DF92EF926C
:10136000FF920F931F93CF93DF93082F162FE9015E
:10137000E42FF0E0E354FC4F611110C0E4915E2FC4
:101380004E2F4983E8835A83DF91CF911F910F91AC
:10139000FF90EF90DF90BF90AF900895E62EF12C74
:1013A0004491D42EE42FF0E026E0829FC001112466
:1013B0002FEF30E0B9010E942934802F90E0880F90
:1013C000991F55E5569FD001579FB00D11248A1BD8
:1013D0009B0B982F990F890F5901AE18BF08AE9E2D
:1013E000D001AF9EB00DBE9EB00D11245B2F189F93
:1013F00080011124012F11275901A01AB10AAE9EB4
:101400008001AF9E100DBE9E100D11245901A81A27
:10141000B108AE9CC001AF9C900DBE9C900D1124F4
:10142000892F9927281B390B2E9FC0012F9F900DC4
:101430003E9F900D1124E92F62307105A1F050F408
:101440006115710509F49DCF6130710581F0EB2FB5
:10145000512F97CF6430710569F080F066307105C7
:1014600009F48FCFF4CFE42F4B2F592F8ACFE42FDD
:10147000412F87CFEB2F542F492F83CF4B2F5D2D3B
:10148000E12F7FCF90918302803F59F480918402B5
:1014900087FF0DC01092840291110BC010927B0245
:1014A00008C0813F81F48091840218169CF399232F
:1014B00081F08091850290918602892B09F064C0A9
:1014C00010927A020895823F49F497FFF0CF10926C
:1014D0008302809184028111ECCFE0CF833F19F425
:1014E0001916ACF3E4CF20918502893F29F4121636
:1014F000F4F610928502DBCF8A3F19F427FFD7CF8D
:10150000F8CF209186028B3F29F427FFD0CF10928D
:101510008602CDCF8C3F19F41216CCF3C8CF843F8E
:1015200031F4809182028E7F80938202C0CF853F0A
:1015300021F4809182028D7FF7CF863F21F4809144
:1015400082028B7FF1CF873F21F480918202877FD7
:10155000EBCF883F21F4809182028F7EE5CF8D3FD3
:1015600031F480917C028E7F80937C02A0CF8E3FED
:1015700021F480917C028D7FF7CF8F3F09F097CFC8
:1015800080917C028B7FF0CF089580917C0280FD5A
:1015900016C081FD16C082FD16C080917A02882394
:1015A000A1F0883280F428E0829FC001112468E213
:1015B00070E00E948034862F672B39F0089582E016
:1015C000089584E0089588E0089581E00895809169
:1015D0007C0280FD14C081FD14C082FD16C0809184
:1015E0007B02882381F08E3180F420E5829FC00148
:1015F00011246EE170E00E948034862F089584E10A
:10160000089588E2089588E0089580E50895803F70
:1016100031F40E94E70A8195809384020895813F06
:1016200019F40E94E70AF8CF823F31F40E94E70ADA
:101630008195809383020895833F19F40E94E70AFD
:10164000F8CF893F29F40E94C50A80938502089546
:101650008A3F21F40E94C50A8195F7CF8B3F31F470
:101660000E94C50A81958093860208958C3F19F4E3
:101670000E94C50AF8CF843F31F4809182028160D4
:10168000809382020895853F21F4809182028260D6
:10169000F7CF863F21F4809182028460F1CF873FAB
:1016A00021F4809182028860EBCF883F21F4809101
:1016B00082028061E5CF8D3F31F480917C028160B0
:1016C00080937C0208958E3F21F480917C02826099
:1016D000F7CF8F3FB9F780917C028460F1CF80E033
:1016E0000895F894E82FE295EF70F0E031A1282FEB
:1016F0002F7081E090E001C0880F2A95EAF7982FBB
:101700009095932391A392A1892B82A37894089515
:101710009091330492FF06C0282F28712830F9F4E5
:10172000877F846093FF06C0282F28712831F1F449
:10173000877E84612091340420FF06C0382F3871E1
:101740003830D9F4877F816021FF06C0282F2871A7
:101750002831D1F4877E816194FD877E0895282FFA
:1017600024712430F9F68B7F8860DCCF282F247118
:10177000243101F78B7E8861DDCF382F3171313014
:1017800019F78E7F8860E0CF282F2171213121F752
:101790008E7E8861E1CFCF93DF93EC018238910593
:1017A000B1F108F040C08133910509F49DC048F5BE
:1017B0008932910509F48DC08A9709F49CC0C1153E
:1017C00021E5D20708F0C3C0C11530E5D30708F002
:1017D0001EC1C83ED10508F0A3C0C13ED10588F5A1
:1017E000C83AD10508F08EC0C53AD10508F007C146
:1017F000C130D10531F1209721F1C430D10508F570
:1018000045C08533910509F45FC0C997C1F6809141
:101810003304837009F044C18091340483FF11C004
:10182000C9E2D0E00EC0833E910599F170F4803E8C
:10183000910501F1823E910511F68091330482FDFC
:1018400021C0CE01DF91CF910895863E910561F1CF
:10185000873E910571F1843E910509F0B0CF8091EA
:10186000340481FFEECF80913304C7EED0E084FDD5
:101870000DC0E7CF8091330480FD33C090913404D4
:1018800090FFDFCFC3EED0E084FFDBCFD0E0C0E03D
:10189000D8CF8091330482FD00C19091340490FD33
:1018A000FFC084FFCECFF2CF8091330483FDDDCF24
:1018B000C8CF8091330483FDF6C09091340491FF2A
:1018C000F0CFC4EED0E0BDCF8091330485FFB9CF17
:1018D000A7CF8091330485FDE9C08091340483FF54
:1018E000B0CFC9E3D0E0ADCF8091330486FFA9CF5C
:1018F000CAE2D0E0A6CF8091330486FFA2CFC1E335
:10190000D0E09FCFCF3BD10508F6C85AD0E0CC0F2E
:10191000DD1FC05EDE4F0990D881C02DD46491CF09
:10192000C11540E2D40758F4C11581E0D80708F08A
:1019300088CFC03FD10508F4A9CFD06582CFC115AB
:1019400020E4D20708F4A2CFDF70D06A7ACFC115A5
:1019500035E5D30718F5C11544E5D40708F085C06F
:10196000C11583E5D80708F06CC0C11522E5D20780
:1019700008F462C0CE018370992721E030E002C0F4
:10198000220F331F8A95E2F7C695C69580E2C89F5D
:10199000E0011124C22BD32BDC6853CFC11539E5EC
:1019A000D307A8F4C11548E5D40708F063C0C115F2
:1019B00086E5D80708F06ACF8C2F0E94880BC82FC5
:1019C000D0E0DC2FCC27CC27DF71D0623ACFC11515
:1019D0002AE5D20708F453C0CE01905681159042F3
:1019E00008F054CF8D2F8F710E94880B90E0982FB4
:1019F000882788279F719C012C2BE901E6CFC55AC7
:101A0000D0E0C35EDE4FC881D0E0D0641ACF2C2F67
:101A100026952695237040E2249F900111248C2F57
:101A20008370C1E0D0E002C0CC0FDD1F8A95E2F7E1
:101A3000C22BD32BDD6805CFDC2FCC27C16FD06A3A
:101A400000CFCE018370992721E030E002C0220F41
:101A5000331F8A95E2F7C695C69540E2C49FE00120
:101A60001124C22BD32BDA68ECCEDC2FCC27C46F29
:101A7000D06AE7CEDC2FCC27C06FD06AE2CE8C2FA5
:101A80008F700E94880B34E0D695C7953A95E1F7A0
:101A9000CF709C2FEC01D069D4CEC2EED0E0D1CE75
:101AA000C0EED0E0CECEC6EED0E0CBCEC5E3D0E0E7
:101AB000C8CE80912902882331F010922902109219
:101AC0002802109227020895809590914003982350
:101AD000909340030895109206021092050210920E
:101AE00004020895809103029091C201981301C0ED
:101AF00008958F5F8770FACFA82FA77023E096957F
:101B000087952A95E1F7FC01EE0FFF1FE80FF91FFB
:101B1000E60FF71F50E040E080E0219130E00A2E10
:101B200002C0369527950A94E2F721703327042ED8
:101B300001C0220F0A94EAF7822B4F5F5F4F4330B8
:101B4000510559F70895903FC9F0983080F48530D9
:101B5000A8F4282F30E06BEA71E0A901E5E09E9F30
:101B6000400D511D1124CA010E947C0D08959C5FF7
:101B7000923020F468EA71E090E0F6CF80E00895BA
:101B8000262F277091E001C0990F2A95EAF723E0EC
:101B9000769567952A95E1F7FB01EE0FFF1FE60F9B
:101BA000F71FE40FF51F50E040E0682F70E08191CF
:101BB000DF0111979B01042E02C0369527950A94E8
:101BC000E2F7217021952827292328272C934F5F9E
:101BD0005F4F4330510559F70895282F862F903FC6
:101BE00079F0983070F4253058F4622F70E025E0D9
:101BF000929F600D711D11244BEA51E00E94C00DAF
:101C000008959C5F9230E0F7622F70E048EA51E05F
:101C1000F5CF982F92959F7011F0892F94E0282F7F
:101C20002695269511F09E5F822F869509F09F5F7D
:101C3000892F08959C013A9521153F4150F5FC01EB
:101C4000EE27F170BC0166277270AC014427547016
:101C50009C012227387094FF0EC080E1EF2B09F41D
:101C600080E0672B09F08062452B09F08064232B0C
:101C700089F08068089581E0EF2B09F480E0672BFC
:101C800009F08260452B09F08460232B19F08860ED
:101C9000089580E00895CF93DF93682F81E06A3044
:101CA00019F06D3031F480E00E94CB0EDF91CF91BE
:101CB0000895809171069091720626E0FC01ABE6D2
:101CC000B6E001900D922A95E1F7603E08F458C005
:101CD00026E0FC0111922A95E9F7C0917106D09196
:101CE000720646E050E0BE018BE696E00E94AA3400
:101CF0009E012B563440892B41F1C90145E0969550
:101D000087954A95E1F741E050E0BA0102C0660FBD
:101D1000771F8A95E2F7CB016091690470916A049C
:101D2000862B972BB9016B5F7F4FE5E07695679522
:101D3000EA95E1F702C0440F551F6A95E2F7842B3C
:101D4000952B90936A04809369042A5F3F4F4091DA
:101D50006804642F70E0C9010E942934481B463092
:101D600010F4240F311D211572E0370710F030E018
:101D700020E025593B4F309372062093710696CF91
:101D8000F6E06F9FB0011124685E774F46E050E0A7
:101D90000E94A134A2CFCF93382FE0917106F09129
:101DA0007206EB56F44020916804622F70E0CF0178
:101DB0000E942934281B822F332361F066E00E94A1
:101DC0007434C82FC15010F4CF91089580E20E945E
:101DD0004B0EF8CF9F01280F311D2115324018F00E
:101DE00080E0F0E0E0E08E0F9F2F911D85599B4F22
:101DF0009093720680937106E7CFCF93DF93EC0147
:101E0000FE018491811106C081E00E94CB0EDF911A
:101E1000CF9108950E944B0E2196F2CF8093350406
:101E20007093370460933604809166048430F9F42B
:101E30008093E9008FEF9091E800815095FD06C0F6
:101E400095ED9A95F1F700008111F5CF8091E800AA
:101E500085FF0DC050E040E063E070E085E394E072
:101E60000E943E078091E8008E778093E8000895F5
:101E7000BC0184E00E940E0F0895BC0183E00E9423
:101E80000E0F08959C0184E08093E9009FEF8091FC
:101E9000E800915085FD06C085ED8A95F1F70000B8
:101EA0009111F5CF8091E80085FF0CC050E040E033
:101EB00066E070E0C9010E943E078091E8008E77DD
:101EC0008093E8000895CF93DF93EC018091140193
:101ED0008823B1F18091330487FF32C060E284E04F
:101EE0008093E9008FEF9091E800815095FD06C046
:101EF00095ED9A95F1F700008111F5CF8091E800FA
:101F000085FF1BC08091140170E050E040E081111A
:101F100004C050E040E068E070E0CE010E943E075F
:101F20008091E8008E778093E80080E2FE01ABE3C9
:101F3000B4E001900D928A95E1F7DF91CF91089579
:101F400068E081E0CDCFA5E0B0E0E9EAFFE00C94E5
:101F5000403480918F0280FF89C080908A029090E7
:101F60008B028114910409F457C080FF55C0D12C15
:101F7000C12C66246394712C53E0552E8091890204
:101F800093010C2C01C0220F0A94EAF7822309F472
:101F90003BC0F601EE0FFF1FE80DF91DE590F49030
:101FA000E114F104C9F145E050E0B701CE0101961A
:101FB0000E94A13409810F3F39F18A81800F99274E
:101FC000991F1816190614F481E090E05C01AA0C20
:101FD000BB1C8A0D9B1D9C0124573D4F5901059D3B
:101FE0008001112404571D4F0A151B0520F035E010
:101FF000E30EF11CD8CF98014D816C818B810E943A
:10200000AC090D5F1F4FF0CF5FEFC51AD50A83E013
:10201000C816D10409F0B2CF539A3BB1377F2BB128
:1020200028604FB7F8948CE892E0FC015191CF0101
:1020300068E02BB9000000C057FF3BB9550F000006
:1020400000C000C000C03BB900C06A9591F7F2E043
:102050008F389F0751F74FBF8FE594E00197F1F755
:1020600000C000002596EFE00C945C3410928D02C5
:1020700010928C0210928E0270CFA3E0B0E0E3E4E5
:10208000F0E10C944A34182F062FF42E80918F0221
:1020900080FF1BC0E82FE695F0E0ED58FE4F9081E1
:1020A000909387028E7F823051F49E012F5F3F4FC5
:1020B000812F0E94AC0980918F0280FD0AC010938D
:1020C000900200939102F09292022396E5E00C9424
:1020D00066348B8199812A8120938D0290938C02A2
:1020E00080938E020E94A30FEACF80918F0280FF1F
:1020F0000CC08170826080938F0240919202609147
:102100009102809190020E943D10089521E030E0FC
:10211000A90102C0440F551F8A95E2F7CA01209118
:102120008902662369F0822B80938902809188025C
:10213000811105C080918F0286950E9475100895C7
:1021400080958223F1CF81FB662760F981E00E94B0
:1021500086100895EFE8F2E08081816080838695A3
:102160000E9475100895B0E0A0E0E9EBF0E10C9456
:1021700047346C017B0164E670E088E70E944333DA
:10218000EC0197FD12C010E000E0F601E00FF11F36
:10219000849164E670E00E94AF33EC01892B29F44E
:1021A0000F5F1F4F0E151F0581F70E942534CE01CA
:1021B000CDB7DEB7E8E00C94633480913E03909194
:1021C0003F03911103C091E089270895882369F0A6
:1021D00062E070E087EB96E00E94B310892B19F063
:1021E00080913E03089510923E0380913E03EBCF11
:1021F000CF93C0913E0380913F038823D1F00E948A
:10220000AF08605A75418F4F9F4F60933A037093A8
:102210003B0380933C0390933D03C11108C062E0EF
:1022200070E085EB96E00E94B310892B29F0C091F5
:102230003E038C2FCF91089581E080933E03F7CF2A
:10224000CF93DF93C7E6D3E060E0CE010E94E23493
:102250002196C11584E0D807B9F7DF91CF91089591
:102260000F931F93CF93DF93142F022F8830F0F436
:1022700061111CC094E0899FE0011124C955DD4F14
:1022800082E090E0442311F090E080E0632F8C0F17
:102290009D1F0E94E23483E090E0112311F081E061
:1022A00090E0602F8C0F9D1F0E94E234DF91CF9150
:1022B0001F910F9108951F93CF93DF93122F8830B2
:1022C000E0F46830D0F44530C0F4C42FD0E0CC0F37
:1022D000DD1F9AE0699FC00DD11D112490E5899FF3
:1022E000C00DD11D1124632FCE0187960E94E234C8
:1022F000612FCE0188960E94E234DF91CF911F9129
:102300000895CF93C82F6FEF81116DE083E290E0C5
:102310000E94E2346FEFC11165EC84E290E00E940C
:10232000E2346FEFC11168EC85E290E00E94E23484
:10233000CF910895AAE0B0E0E0EAF1E10C943D34D9
:10234000409034035090350381E090E09093350342
:10235000809334039DEBA92E94E0B92E2FEB822EAF
:1023600024E0922E35EDC32E34E0D32E10E000E0B1
:102370003601212C302E20C021E030E0063011053E
:102380003CF4F701EE0FFF1FE60DF71D2591349188
:102390004E2D622D832D0E945B118FEFE81AF80AF3
:1023A00095E0E916F10441F7EAE06E0E711C239402
:1023B000F8E02F1609F440C0F12CE12CDDCFF50137
:1023C0002591349141E060E0832D0E943011F401A9
:1023D0002591349140E060E0832D0E9430110F5F21
:1023E0001F4F84E0A80EB11C94E0890E911CE0E51B
:1023F000CE0ED11C0830110509F0BACFCE010196DE
:102400007C018AE0F70111928A95E9F707EC12E066
:102410004AE050E0B801C7010E940635065F1F4F31
:102420000736F3E01F07A1F75092350340923403BB
:102430002A96E2E10C945934063011050CF4BFCF12
:1024400021E030E041E060E0832D0E94301121E086
:1024500030E0C0CF80E00E94811160E086E290E031
:102460000E94E2340E949A110E94201181E00E9491
:1024700081110895FF920F931F93CF93DF93F42E52
:10248000883040F5611126C024E0829F800111242C
:1024900009551D4F82E090E0442311F090E080E068
:1024A000800F911F0E94CE34C82FD0E0DC2FCC27A4
:1024B00083E090E0FF2011F081E090E0800F911F19
:1024C0000E94CE349E01282BC901CDB7DEB7E5E0CE
:1024D0000C94663490E080E0F8CF0F931F93CF9375
:1024E000DF93883030F5683020F5453010F5C42F83
:1024F000D0E0CC0FDD1F2AE0629FC00DD11D11245A
:1025000030E5839FC00DD11D1124CE0187960E9416
:10251000CE34082F10E0102F0027CE0188960E949D
:10252000CE349801282BC901DF91CF911F910F91D3
:10253000089590E080E0F8CF462F672F2091380370
:1025400030913903232BF9F4703F39F4403FD9F42B
:10255000809136039091370308958830A0F4783045
:1025600028F4453080F40E946D1208957D3F39F4BF
:10257000411109C041E060E00E943A1208957C3F99
:1025800011F44423C1F390E080E00895CF92DF92EC
:10259000FF920F931F93CF93DF936C010091670419
:1025A00080912A02082BC7E0D0E010E0FC2EC80181
:1025B0000C2E02C0959587950A94E2F780FD0CC019
:1025C0002197A0F7F12C8F2DDF91CF911F910F91C3
:1025D000FF90DF90CF900895B6018C2F0E949C123F
:1025E0000E94CB0B019761F3EECFCF93DF93EC0109
:1025F0000E94C612BE010E949C120E94CB0BDF916A
:10260000CF9108950F931F93CF938C01FC014381C9
:102610005481618180810E945309C82F81112AC091
:10262000F80186819781009791F00E94CB0B9295DB
:102630009F709630D1F080F4925F9F70923080F45A
:10264000803F19F058F4883E58F4C1E009C08081F9
:1026500091810E94F512EBCF9A5FEFCF843FA9F3EF
:102660008C2FCF911F910F910895883E70F3813F79
:10267000B9F7EBCFC0E0F4CFA5E0B0E0E2E4F3E1DE
:102680000C944C349C01FC01868197810097E1F405
:1026900085E0DE01119601900D928A95E1F7F9012E
:1026A000228189819A81222399F0662389F00E94F0
:1026B000C612182F682F89819A810E94ED0D6981B9
:1026C0007A81812F0E949C122596E3E00C94683455
:1026D0000E94A30D182FF3CF83E290E00E94CE3426
:1026E0008D3089F484E290E00E94CE34853C59F428
:1026F00085E290E00E94CE3491E0883C09F090E0C1
:10270000892F8170089580E0FCCFCF9384E090E022
:102710000E94CE34C82F82E290E00E94CE34982FDF
:102720008C2FCF910895AAE0B0E0E9E9F3E10C9491
:102730004734E4E9F2E080EADF011D928A95E9F787
:10274000E9EAF3E080E7DF011D928A95E9F784E981
:10275000C82E82E0D82E7F0107EC12E0F701D1826B
:10276000C0824AE050E0B801CE0101960E94BE341A
:1027700088E0FE013196D60101900D928A95E1F72D
:1027800089859A85D70113969C938E931297BAE008
:10279000CB0ED11CE7E0EE0EF11C065F1F4F073693
:1027A000F3E01F07D9F62A96E8E00C946334CF9241
:1027B000DF92EF92FF92EFE8F2E083E080831182F4
:1027C0008FEF828383831482C080D180E280F38084
:1027D0000E949D09B701A60188E090E00E94F434B0
:1027E000FF90EF90DF90CF90089568EE7EEF90E03D
:1027F00080E00E94003560E082E090E00E94E234D8
:1028000060E083E090E00E94E23410922A0260E0EF
:1028100084E090E00E94E23464E082E290E00E9472
:10282000E23460E085E090E00E94E23460E086E01F
:1028300090E00E94E2346FEF87E090E00E94E23483
:1028400040E050E0BA0188E090E00E94F43460E09B
:102850008DE090E00E94E23440E050E0BA0188E16F
:1028600090E00E94F43460E087E190E00E94E2345E
:1028700040E050E0BA018CE190E00E94F43470E056
:1028800060E080E290E00E94003540E050E0BA0154
:1028900088E190E00E94F43480E00E9481110E945F
:1028A0002A1240E050E0BA018FE090E00E94F43438
:1028B00040E050E0BA0183E190E00E94F4340895D2
:1028C00090E080E00E94DC34883E9E4F19F40E9424
:1028D0006C13089580E008951F920F920FB60F9227
:1028E00011242F933F934F935F936F937F938F9315
:1028F0009F93AF93BF93EF93FF938091E10082FF8B
:1029000009C08091E20082FF05C08091E1008B7FC9
:102910008093E1008091DA0080FF24C08091D8008C
:1029200080FF20C08091DA008E7F8093DA00809152
:10293000D90080FF9DC080E189BD82E189BD09B4D5
:1029400000FEFDCF81E08093660480913804811100
:1029500009C00E94EE060E94E1078091E2008460B7
:102960008093E2008091E10080FF17C08091E20037
:1029700080FF13C08091E2008E7F8093E2008091FF
:10298000E20080618093E2008091D80080628093B1
:10299000D80019BC85E0809366048091E10084FF33
:1029A0002BC08091E20084FF27C080E189BD82E1D5
:1029B00089BD89B5982F917080FFFBCF8091D80099
:1029C0008F7D8093D8008091E1008F7E8093E1001D
:1029D0008091E2008F7E8093E2008091E20081602E
:1029E0008093E20080915D04882309F447C084E06D
:1029F00080936604809166048091E10083FF27C084
:102A00008091E20083FF23C08091E100877F809363
:102A1000E10082E08093660410925D048091E10001
:102A20008E7F8093E1008091E2008E7F8093E200B0
:102A30008091E20080618093E20042E060E080E00B
:102A40000E94AF078091F00088608093F000FF91B2
:102A5000EF91BF91AF919F918F917F916F915F9116
:102A60004F913F912F910F900FBE0F901F9018958F
:102A700019BC109266041092380474CF8091E30060
:102A800087FD93E090936604B5CF78941F921FB6AC
:102A90001F9211248F939F93AF93BF9380912F0424
:102AA00090913004A0913104B09132040196A11D9F
:102AB000B11D80932F0490933004A0933104B09300
:102AC0003204BF91AF919F918F911F901FBE1F90B5
:102AD00018959C014FB7F89480912F049091300481
:102AE000A0913104B09132044FBF821B930B089523
:102AF0002FB7F89480912F0490913004A091310465
:102B0000B09132042FBF089580914303811113C007
:102B1000109240030E94590D0E94781588579C4ED0
:102B2000909342038093410381E08093430361E0EB
:102B300082E00E94861008950E9478159C01909171
:102B4000830280918402982B21F03093800220939D
:102B50007F029091850280918602982B21F030931C
:102B60007E0220937D02E0912A04F0912B0430979D
:102B700049F082E0809381020480F581E02D81E8B4
:102B800092E009950895A8E0B0E0E9ECF5E10C9435
:102B900044348E010F5F1F4F88E0F80111928A952F
:102BA000E9F78EE4C82E81E0D82EF12CE12CAA247E
:102BB000A394B12CF60181916F018F3F09F443C0BA
:102BC000F894E82FE295EF70F0E021A18F70A50155
:102BD00002C0440F551F8A95E2F7CA01922F982B25
:102BE00091A392A18095892382A3789400C0E6E501
:102BF000F1E0912C31E021912F3F09F465C0A22F23
:102C0000A295AF70B0E090968C9190E02F7002C0CA
:102C1000959587952A95E2F780FD56C0832F982ACF
:102C2000330F51E0EB35F50731F7F601319780812D
:102C30008F3F11F00E94710B80EA8A95F1F7F8013D
:102C4000EE0DFF1D9082EFEFEE1AFE0AF8E0EF1690
:102C5000F10409F0AFCF48E050E0B8018EE292E015
:102C60000E94AA34892B91F188E0F801AEE2B2E02B
:102C700001900D928A95E1F781E080932D020E94E8
:102C8000781590932C0280932B0280912B029091C7
:102C90002C020E9469150597E8F048E050E06EE2CA
:102CA00072E08DE692E00E94AA34892BC1F088E0A0
:102CB000EEE2F2E0ADE6B2E001900D928A95E1F726
:102CC00081E010922D0207C080E0A9CF80912D02F3
:102CD0008111DBCF80E02896EBE00C94603480E03B
:102CE000F0CF8091400390914603892B8093860119
:102CF00080912902882329F10E94781520912702CA
:102D000030912802821B930B8838934110F00E9467
:102D1000590D8091860190912902892B809386011B
:102D2000809114018823E1F18091330487FF38C03A
:102D30008EE1E8E8F1E090E08150A0F591110E9469
:102D4000590D40E250E067E072E086E891E00E94B1
:102D5000AA34892B21F180E2E6E8F1E0A7E0B2E0B5
:102D600001900D928A95E1F7E0912A04F0912B04ED
:102D70003097A9F080911401882359F08091330491
:102D800087FF07C0809186018093870186E080934A
:102D900086010280F381E02D86E891E0099508958F
:102DA00086E0C7CF2191222339F29F5FC5CF90E003
:102DB00080E00E94300990E080E00E941A091092A1
:102DC00046030E94711686E0E1E8F2E0DF011D9201
:102DD0008A95E9F710927B0210927A0210927C0297
:102DE0000E949C150895CF93C82F81FB662760F938
:102DF000811101C060E080E00E948610C0936704EA
:102E00000E94D716CF91089580916704982F9670ED
:102E1000963021F488600E94F3160895877FFBCFD7
:102E200021E030E001C0220F8A95EAF720958091D9
:102E3000670482230E94F3160895909106028095FC
:102E4000892380930602282F277091F4282F082EBB
:102E5000000C330B9217130659F09091340492FF33
:102E600007C08595859585950E9410170E946B0D6A
:102E70000895CF93C0913404C2FB992790F9981715
:102E800091F080FBC2F9C09334046091330484E074
:102E900090E00E94E2346C2F82E290E00E94E234E3
:102EA00082E00E941D17CF91089521E030E001C01B
:102EB000220F8A95EAF780916704822B0E94F3160D
:102EC000089580932A020E94D71608951092400315
:102ED00080911401E8E8F1E0882361F080913304E7
:102EE00087FF08C08EE1DF011D928A95E9F70E94F5
:102EF000D716089586E0F7CFAAE2B0E0E2E8F7E15E
:102F00000C944C348EE594E02091F100DC012D937B
:102F1000CD01B4E086369B07B9F780915F0483301A
:102F200009F472C0B8F4813009F449C0823009F460
:102F3000B3C08091E80083FF96C280915E049091B7
:102F40005F049A3008F08FC2E92FF0E0E05EFA4C9F
:102F50000C9494348A3009F48EC08B3009F471C01B
:102F6000893039F780915E04813219F780916204CB
:102F700090916304009711F00297D9F68091E800D0
:102F8000877F8093E8008091E80082FF38C09091AD
:102F9000F3008091F200029731F48091F1008130CA
:102FA00011F0863021F48091F10080933A048091F1
:102FB000E8008B778093E8000E949007BACF809159
:102FC0005E04813A09F0B5CF8091E800877F809355
:102FD000E8008091620490916304892B61F460E2BF
:102FE0008BE394E070E00E943C088091E8008B77CE
:102FF0008093E8009ECF60E090E080E0F3CF809186
:1030000066048111C0CF95CF80915E04813A09F0AA
:1030100090CF8091620490916304892B09F089CF4D
:103020008091E800877F8093E8008091E80080FF2E
:10303000FCCF809114018093F1008091E8008E779D
:10304000B9CF80915E04813209F073CF8091620420
:1030500090916304892B09F06CCF8091E800877F01
:103060008093E8000E94900780916004809314018F
:103070000E9466175ECF80915E04813209F059CFBD
:103080008091E800877F8093E8000E9490078091FC
:103090006104809339044DCF80915E04813A09F038
:1030A00048CF8091E800877F8093E8008091E80016
:1030B00080FFFCCF80913904BECF803899F08238F0
:1030C00009F0D1C1809162048F70873008F0CBC1C4
:1030D0008093E9008091EB0085FB882780F91092AE
:1030E000E90006C080915B0490915C0491118260BC
:1030F0009091E800977F9093E8008093F100109200
:10310000F1008091E8008E77AAC1882309F498C164
:10311000823009F0A8C18091600481119BC1809127
:1031200062048F702FEF280F263008F09CC1809327
:10313000E9002091EB0020FF8DC1933031F48091A4
:10314000EB0080628093EB0085C19091EB00906171
:103150009093EB0021E030E001C0220F8A95EAF75E
:103160002093EA001092EA008091EB008860EACF99
:10317000811179C1109160041F778091E3008078FC
:10318000812B8093E3008091E800877F8093E800A3
:103190000E9490078091E80080FFFCCF8091E300BF
:1031A00080688093E30082E0111183E080936604DD
:1031B0005AC18058823008F056C120916004309185
:1031C00061042C3DE3E03E07A1F583E08A838AE2B7
:1031D00089834FB7F894DE01139620E03EE051E278
:1031E000E32FF0E050935700E49120FF03C0E295F5
:1031F000EF703F5FEF708E2F90E0EA30C0F0C7961F
:103200008D939D932F5F243159F74FBF8091E80034
:10321000877F8093E8006AE270E0CE0101960E9409
:103220003C088091E8008B778093E8001CC1C09631
:10323000E7CF8091620490916304432F5527433078
:10324000510509F44AC078F54130510509F485C0AB
:103250008BE590E0E9EBF6E04230510509F003C15F
:103260002091E800277F2093E800209164043091AA
:1032700065048217930708F49C0140E0211531058D
:1032800009F070C041116EC08091E80082FDC9CF85
:1032900080916604882329F2853019F28091E80034
:1032A00083FFF2CFBECF4132510509F447C042320D
:1032B000510509F0D8C08330910508F0D4C0FC0155
:1032C000EE0FFF1FE858FE4F0190F081E02D8B5864
:1032D0009E4FDC018C9190E01DC0332721303105D9
:1032E000E9F02115310579F022303105F9F023306C
:1032F000310509F0B8C0E6E2F7E0E4918E2F90E0E6
:10330000E6E2F7E007C0E4E6F7E0E4918E2F90E014
:10331000E4E6F7E0009709F4A6C0A2CFE4E5F7E001
:10332000E4918E2F90E0E4E5F7E0F4CFE4E4F7E0F9
:10333000E4918E2F90E0E4E4F7E0ECCF8330910548
:1033400008F091C0880F991FFC01E258FE4F0190D0
:10335000F081E02D89E090E083CF82E190E0E4E12C
:10336000F7E07ECF80916604882309F45ACF853038
:1033700009F457CF8091E80083FD53CF8091E80096
:1033800082FD82CF8091E80080FF78CF9091F3009A
:103390008091F2002115310519F08830910550F027
:1033A00041E0089709F040E08091E8008E77809333
:1033B000E80064CF44914093F100319621503109E7
:1033C0000196E8CF803809F04EC08091E800877FF1
:1033D0008093E80080915D048093F10092CE81118A
:1033E00042C0109160041230F0F58091E800877FB0
:1033F0008093E80010935D040E949007112311F060
:1034000084E005C08091E30087FDFACF81E08093DE
:10341000660442E061EC81E00E94AF0742E261ECA9
:1034200084E00E94AF0742E261EC82E00E94AF07B5
:1034300042E260EC83E00E94AF078091660413C013
:1034400080916004813079F481E0933009F080E06C
:1034500080935C041092E9008091E800877F80935C
:10346000E8000E9490078091E80083FF0AC08091E5
:10347000E800877F8093E8008091EB008062809372
:10348000EB00AA96E3E00C9468341F920F920FB6FB
:103490000F9211242F933F934F935F936F937F93DA
:1034A0008F939F93AF93BF93CF93DF93EF93FF934C
:1034B000D091E900DF708091EC00C82FC17080FDD1
:1034C000C0E81092E9008091F000877F8093F000BF
:1034D00078940E947C171092E9008091F000886037
:1034E0008093F000CD2BCF70C093E900FF91EF9156
:1034F000DF91CF91BF91AF919F918F917F916F910C
:103500005F914F913F912F910F900FBE0F901F90A1
:1035100018950E9466172FEF84E39CE021508040AD
:103520009040E1F700C0000088E19AE00FB6F894FF
:10353000A895809360000FBE90936000FFCF882312
:1035400041F08095909146038923809346030E9421
:103550007116089580914303882349F082E20E9406
:103560009F1A1092430360E082E00E948610089543
:10357000882339F090914603982B909346030E943C
:1035800071160895882321F00E94640D0E9471161F
:103590000895882339F090914003982B909340032D
:1035A0000E9471160895882391F19CEF980F913A2B
:1035B00040F4682F86E891E00E94BB080E947116D3
:1035C000089590E2980F983050F4877091E001C010
:1035D000990F8A95EAF7892F0E94640DEFCF9BE53A
:1035E000980F933028F490E080E00E94300908950D
:1035F00098E5980F973128F490E080E00E941A092E
:103600000895803F20F00E94420A0E949C15089570
:10361000CF93C82F8823D9F18CEF8C0F813AC8F54E
:1036200080911401882311F18091330487FF1EC01B
:10363000EC2FE695E695E695F0E0EA57FE4F82819D
:1036400090E04C2F477021E030E002C0220F331F82
:103650004A95E2F782239323892B91F06C2F86E819
:1036600091E00E94BB080E9471160AC0E8E8F1E0F0
:103670008EE891E02191C21789F38E179F07D1F749
:103680006C2F86E891E00E94E5080E947116CF91A8
:10369000089580E28C0F883068F4C77021E030E034
:1036A00001C0220FCA95EAF780914003822B8093D4
:1036B0004003EBCFEBE5EC0FE33040F4F0E0E35EEA
:1036C000FE4F808190E00E943009E1CFE8E5EC0FE9
:1036D000E73150F4F0E0EE0FFF1FE05EFE4F808117
:1036E00091810E941A09D3CFC03F88F28C2F0E948B
:1036F000070B0E949C15CBCF1F93CF93DF93182FFE
:10370000D0E0C0E0893311F4C0E5D0E0812F0E9401
:10371000081B209739F4812F0E94D31ADF91CF9193
:103720001F9108958FE99FE00197F1F700C0000015
:103730002197EFCFB0E0A0E0E0EAFBE10C94453444
:10374000EC018AE0A82E2881222309F48FC02130C1
:10375000C9F599818A81913021F422960E947C1BBF
:1037600005C0923029F422960E94081B2196EBCFC7
:10377000933021F422960E94D31AF8CF943011F09E
:103780002196F4CF229630E020E0AE014F5F5F4FEC
:103790008053990B8A30910550F02150310930F354
:1037A0008FE99FE00197F1F700C00000F6CFA29EDD
:1037B000B001A39E700D11249C01260F371F898133
:1037C000EA01E3CFE22FF0E0E856F84FB490822F01
:1037D00086958695869590E0FC01E857F84FE49031
:1037E0002770F12C022E02C0F594E7940A94E2F7B8
:1037F00031E0E322FF24FC01E858F84FC490D12CBB
:10380000022E02C0D594C7940A94E2F731E0C32295
:10381000DD24FC01E859F84F049110E002C0159531
:1038200007952A95E2F701701127E114F10419F0C8
:1038300081EE0E94081BC114D10419F086EE0E948B
:10384000081B8B2D0E947C1BC114D10419F086EE3D
:103850000E94D31AE114F10419F081EE0E94D31AE8
:103860000115110509F482CF8CE278CFCDB7DEB710
:10387000EAE00C946134B0E0A0E0E1E4FCE10C94F7
:1038800047346B01C42FD22FFC0182818823A9F019
:10389000409327040E947815909326048093250472
:1038A000C77081E001C0880FCA95EAF70E94C91A63
:1038B000CDB7DEB7E8E00C946334109127041413FD
:1038C00037C080912504909126040E9469157C01DF
:1038D000C6010E94CB06E816F90650F5C0E2CD0FEE
:1038E0001D17C1F080E2810F883048F4177081E025
:1038F000012E01C0880F0A94EAF70E94C21AC8304C
:1039000048F481E09D2F977001C0880F9A95EAF7DF
:103910000E94C91A802F0E947C1BC83048F6D770BD
:1039200081E001C0880FDA95EAF70E94C21AC0CF81
:10393000C77081E001C0880FCA95EAF7F6CF909171
:10394000340492FF10C098E0899F90011124622BEB
:10395000609306020E9455170E9478159093050205
:103960008093040208950E9455170895A9E1B0E0DC
:10397000ECEBFCE10C943D34498B5A8B6B8B7C8BCC
:103980008D8B6111109246031D861E861F86188A34
:1039900085E0FE017196DE01199601900D928A95DF
:1039A000E1F78091340482FF1CC00E9478152091B9
:1039B000040230910502821B930B8838934120F05A
:1039C0008091060282FFE6C10E94781520912702AD
:1039D00030912802821B930B8838934110F00E948B
:1039E000590D4C855D856A8589850E945309811131
:1039F00011C061E0CE0109960E943C136C018B85D9
:103A000047EFC4164CE5D40681F4882321F181E008
:103A10008093130129853A854B855C856D857E856C
:103A20008F8598890E94D627C3C068EFC6166CE5BB
:103A3000D60629F4882379F00E949228EBCF79EFFB
:103A4000C7167CE5D70639F4882329F08091130145
:103A50008111F2CFDCCF09EA13E0E12CB12CA12CCB
:103A600088248394912C2EEF522E44244394F80101
:103A70004081518166246A94762C20E0822F90E068
:103A8000FC01EE0FFF1FE40FF51F608171816115CE
:103A9000710531F0C616D70609F43C012F5FEECF51
:103AA000F12CFFEF6F167F0609F444C0F801448142
:103AB000F09013018F2D411180E0F82FF170FF2E4F
:103AC000F801258086819B85992309F4F2C0FF20A7
:103AD00009F4EFC0211014C0A401062C01C0440F4A
:103AE0000A94EAF7842B86838091440390914503DE
:103AF000C29730F462E370E070934503609344032F
:103B0000C40102C0880F991F2A95E2F70197F801B6
:103B100026812817190671F48091230490912404BA
:103B2000009709F449C00E946915C39708F444C07E
:103B3000F8014482EF28FFEFAF1ABF0A095F1F4F59
:103B400020E1A216B10409F092CF8B85882309F4F5
:103B50000CC1EE2009F409C10E9478159093240449
:103B60008093230480914803883010F591E0980FEA
:103B70009093480398E0FE013996DE01119601907A
:103B80000D929A95E1F73CE0839FC0011124875B79
:103B90009C4F28E0FE013196DC0101900D922A95A0
:103BA000E1F72FEF3FEFFC0131872087D386C286F4
:103BB0006996E2E10C9459348091210450912204D9
:103BC000982FF0E0E0E0851314C090932104E017F3
:103BD000F10709F4AFCF90E0FC01EE0FFF1FE75EA5
:103BE000FB4FB182A08201968370992780932204B3
:103BF000A1CF282E312CF101EE0FFF1FE75EFB4F06
:103C000020813181F7E0F29FD001F39FB00D1124A4
:103C1000A755BC4F2D913C911197398F288F40E0CB
:103C200020E030E0E32FF0E0EE0FFF1F688D798D8C
:103C3000E60FF71F6080718061147104E1F0F801F4
:103C40000190F081E02DFF8BEE8B20E005C0661621
:103C5000770609F44F2D2F5FE22FF0E0EE0FFF1FE4
:103C60006E897F89E60FF71F60817181611571058B
:103C700071F73F5FD7CF4423C9F0F801231708F04D
:103C8000FD0144820E171F0721F490932104F42EA6
:103C900051CF981305C0AE17BF0711F49F5F937003
:103CA00091012F5F3F4F822F83708DCFF0E0E0E0D6
:103CB000F7CF90E0211020C0B40102C0660F771F3B
:103CC0002A95E2F79B01215031098217930731F4BD
:103CD000442309F448C0C5010E945E09C401062CB2
:103CE00001C0880F0A94EAF7982F9095F801868111
:103CF00089238683F22C1ECF9C01062C02C03595A9
:103D000027950A94E2F7A90141705527BC0161503B
:103D1000710986239723892B11F5452B01F1F801B1
:103D200082819381892BC1F01B821C821D821E829D
:103D300059825A820E9478158160582F9D838C8306
:103D4000F801828193818F83988729813A814B8101
:103D50006D817E810E94D627F8011582BFCFF22F98
:103D6000F1702F2EBBCF2F2CB9CF909121048091D1
:103D70002204981731F00E94A128EE2009F44ACEBF
:103D800017CF0E94442810922404109223040E940A
:103D90008C09F3CF82E00E941D1716CEA5E0B0E09B
:103DA000E4EDFEE10C944B348C0190933703809347
:103DB0003603011580E21807C0F4802F0E94D31A41
:103DC000C8010E941A0E9801205E31092830310581
:103DD00018F00115110531F40E94C21A2596E4E08D
:103DE0000C9467340E949F1AF9CF80EF89838A83ED
:103DF0001B820E9478158160782F9D838C83498176
:103E00005A816B818D810E94B61CE8CFA5E0B0E09D
:103E1000ECE0FFE10C944B348C01909337038093DA
:103E20003603011580E21807C0F4C8010E941A0E7B
:103E30009801205E31092830310518F0011511056F
:103E400049F40E94C91A802F0E94081B2596E4E0BD
:103E50000C9467340E94B81AF6CF80EF89838A8366
:103E600081E08B830E9478158160782F9D838C83FD
:103E700049815A816B818D810E94B61CE7CFA4E0F5
:103E8000B0E0E5E4FFE10C9444347C01FC014381A3
:103E90005481618180810E9453098111CDC061E00C
:103EA000C7010E943C138C01F7018281882309F429
:103EB000EEC5C80182519F45409708F0B6C58FEF07
:103EC00093E00E94CE348111A8C05EEED52ED00EB4
:103ED00007E613E0D11036C019821A821B821C82B9
:103EE00099249A9468012FEFC21AD20AC8010E943D
:103EF000CE3489831A82882309F48FC0813009F077
:103F000081C0580132E0A30EB11CC6010E94CE341C
:103F1000C82E8A83882309F480C0C5010E94CE344C
:103F2000D82E8FEF8C0D8330D8F4580143E0A40EC7
:103F3000B11CDB82DD2021F0CE0101960E949A1B8C
:103F40008501D0CF0115F4E01F0709F466C0C80150
:103F50000E94CE34811101C0DA940F5F1F4FBACF97
:103F60008BEF8C0D833040F5C8010396DB825C013A
:103F7000DD2031F3580154E0A50EB11C0E94CE346F
:103F80008C838823E9F20B811C8101308FEF1807A5
:103F900010F0102F002796E0C91651F0E7E0CE167A
:103FA00019F0C8010E94061FC8010E94CE1EC8CF8A
:103FB000C8010E94061FC4CFF4E0CF12C1CF580140
:103FC00024E0A20EB11CC80103960E94CE34DD206D
:103FD00021F1882311F18150990B989E9001999EAF
:103FE000300D11244D2D4150550BCA01820F931FE6
:103FF000019708F4A5CFEFE9FFE03197F1F700C092
:104000000000F6CFCE0101960E949A1B560198CF70
:1040100081E00E9455170E94041780910602877064
:1040200059F0F7018281882339F08091340482FFAE
:1040300003C082E00E941D172496EBE00C946034CC
:1040400081E00E941017E7CF82E0E3CF0E94841541
:10405000E4CFD090290280914003D82A8091430375
:10406000811124C0F2E2DF1202C00E948415033FD6
:104070002CE5120709F4F1C008F090C0083D4CE5AA
:10408000140709F4E4C0093D5CE5150709F4FDC017
:10409000073D8CE5180709F08DC006E221EE41EEE0
:1040A00067ED7CE5C7010E943B1CB7CF0E947815E5
:1040B00088579C4E9093420380934103F70182817D
:1040C0008823A9F28D2D8D79C9F50115F5E51F0716
:1040D000B8F4011523E5120750F6011530E5130772
:1040E00050F4011540E41407A0F5063E110509F44B
:1040F000BECFC80135C0011552E51507D0F7B7CFBF
:10410000011589E5180750F4011598E5190708F01D
:10411000AECF0431E5E51E0761F7A9CFC80190567F
:104120008115904230F7F7018581807FB9F4812FA6
:104130008F71823159F028F4823041F00E94AA1A1E
:1041400096CF843109F493CF8631C1F7109246039C
:10415000F5CFF7018581807F09F489CFC8019927C0
:10416000109246038832910548F48E31910560F42F
:10417000049720F382E08093460306C08D329105B8
:10418000C9F328F48A97D1F60E94711670CF8C3447
:104190009105D1F38D329240B9F3D0CF053F9CE524
:1041A000190709F466C008F45EC0063FFCE51F0766
:1041B00009F465C0F7018281882309F473C4109261
:1041C00027040330FDE51F0708F065C00A3F2CE512
:1041D000120730F4C80182509C45449708F066C02D
:1041E0000E948513909334048093330402318CE54C
:1041F000180709F46BC108F0B7C00930ECE51E07D9
:1042000009F442C108F081C005302CE5120709F419
:104210002FC108F068C003304CE5140709F420C131
:1042200008F022C102308CE5180709F411C1609131
:1042300033041091340484E090E00E94E234612F52
:1042400082E290E00E94E2340E946617E6CE07E226
:1042500025EE45EE68ED7CE525CF06E221EE40EE49
:1042600063EF7CE51FCF07E225EE44EE64EF7CE5CB
:1042700019CF06E221EE42EE65EF7CE513CF07E2AF
:1042800025EE46EE66EF7CE50DCF08E221E045EE37
:1042900069ED7CE507CF053A3DE5130709F4A0CFAA
:1042A000E0F401365DE5150709F49ACF06318CE597
:1042B000180709F00BC4809140038A7A91E009F451
:1042C00090E09093A60169E2811165E386E891E0B0
:1042D0000E94E5080E947116A0CEC8018D5A9D4526
:1042E000039720F77DCF80913304806207309CE5EF
:1042F0001907B9F18091330480610830ECE51E079D
:1043000080F18091330480642CC00D30FCE51F07E0
:1043100009F4C4C090F4809133048E7F0B303CE5E7
:104320001307F9F0809133048C600C304CE51407CE
:10433000C0F0809133048D7F14C00F305CE5150709
:1043400009F4BCC008F4AEC000319CE5190709F4BB
:10435000B9C0809133048F7B0131ECE51E0709F071
:1043600066CF8093330463CF0F3FFCE51F0709F44A
:10437000B7C0A8F50A3F3CE5130709F47DC0C0F4B7
:1043800004315CE5150709F4B9C008F4A5C005318E
:104390009CE5190709F04BCF8091330482FB9927E4
:1043A00090F921E0922790FB82F990FB83F9D9CF15
:1043B0000C3FECE51E0709F479C008F461C00D3F1D
:1043C0002CE5120709F476C08091340483600E3F17
:1043D0003CE5130709F02BCF8093340428CF013636
:1043E0004DE5140709F495C090F401308DE51807E8
:1043F00009F48DC008F478C060E00230EDE51E07D6
:1044000009F015CF8EE090E00E94E23410CF0D3A13
:10441000FDE51F0709F160F490913304892F8E7F29
:1044200090FF8160053A3DE5130709F49ACFFFCE6E
:104430000E3A4DE5140771F10F3A5DE5150709F0E5
:10444000F6CE90913404892F877F93FF8860C4CF84
:1044500080913304816085CF809134048860BCCF23
:104460008091330482607DCF80913304846079CF62
:1044700080913304886075CF809134048160ACCF23
:10448000809134048260A8CF0E9466178091330423
:10449000806867CF80913404877F9ECF80913304FA
:1044A0008B7F5FCF80913304877F5BCF8091340413
:1044B0008E7F92CF809134048D7F8ECF8091330494
:1044C0008F7E4FCF809133048F7D4BCF0E94661734
:1044D000809133048F7745CF80913304837F41CF20
:1044E000809134048C7F78CF80913404982F9095FC
:1044F00091708E7F892B90FB81F96ECF0E94661799
:1045000090913304892F97FB87F980582ACF61E077
:1045100079CF90913304892F8F7E94FF806121CFD2
:104520008091A60169E2811165E386E891E00E942D
:10453000BB08D0CE0E9466179FEFE4E3FCE09150E9
:10454000E040F040E1F700C000000E949E0880912A
:10455000340482FB882780F991E089270E9439176B
:10456000F701868197810097C1F10E94CB0B8C01E6
:10457000F701C280B580B2943FE0B3228091060279
:104580008770C1F0AC2CCC20B1F0812F807F8034BB
:1045900021F080E2800F883068F08091340482FF3F
:1045A00009C082E00E941D17809106028770AA242C
:1045B000A3948111A12C912E92942FE09222FBE0E2
:1045C000F91508F481C0E92DF0E0E65DFA4C0C9491
:1045D000943481E0C3CF80E0C1CF8281008111811A
:1045E000882369F0C8010E94C612D82E682FC8011E
:1045F0000E94ED0DB8018D2D0E949C12B6CFC8010E
:104600000E94A30DD82EF6CF212F2F70D22E107F0F
:1046100019F0D29490EFD922CC20B9F0DD2069F0C6
:1046200080E2800F883010F0011109C080914003B2
:10463000D82AD09240030E947116802F43C08091E7
:104640004603D82AD0924603F6CF802F0E94D31A71
:10465000DD20D1F180E2800F883010F0011104C01C
:104660008D2D0E94640D06C0D09480914603D822FF
:10467000D09246030E94711627C0312F3F70D32E6F
:10468000107F103219F0D29480EFD822002351F01D
:10469000013009F490C0CC2009F499C0BB2009F482
:1046A00066C0CBCF8091340482FD3AC0CC2091F11A
:1046B000DD2039F080914003D82AD09240030E9437
:1046C000711680E00E94081B492D4850550B44305C
:1046D000510520F40E9446090E94A310AA20A9F0C7
:1046E0008091060280FD11C0F701128285958595A3
:1046F00085950E945517C7010E943F1F80910602B1
:104700008595859585950E94101760E0C7010E94E8
:104710003C1392CC80E00E94D31ADD20A9F2A0CFF6
:10472000CC2049F1B11004C0809129028D2920C00C
:1047300041E0B41210C082FFC7CF80912902D82A6D
:10474000D81611F20E9478159093280280932702C0
:10475000D0922902B9CF55E0B512E6CF0E94590D8B
:104760009091A7018D2D892B89138093A7018D2D01
:104770000E94C91AA9CFB11003C00E94590D12C0DE
:1047800081E0B81213C0809140038D2109F49CCFC1
:104790000E94590D9091A7018D2D80958923891331
:1047A0008093A7018D2D0E94C21A8ECF95E0B91675
:1047B00009F48ACFE2CFCC2029F0E5E0EB1508F42C
:1047C00083CFD5CFF4E0FB1508F47ECFEBCFBB2031
:1047D00049F3093349F42FEF37EE43E021503040DD
:1047E0004040E1F700C00000802F0E94D31A6CCF38
:1047F000812F86958695837061F0813009F064CFB2
:10480000C8019370C11002C090E080E00E941A09B4
:104810005BCFC8019370C11002C090E080E00E949D
:10482000300952CF802FCC2029F00E94070B0E9424
:104830009C154ACF0E94420AFACF812F837089F5D6
:10484000C11042CF402F429546954770440F440F08
:10485000802F8F70042E01C0880F0A94EAF7202F52
:10486000207104FF07C02FE030E001C0220F4A95FD
:10487000EAF72095169516951370123069F050F4EA
:1048800030912A02113029F0822B83230E94611774
:104890001BCF832B822BFACF282B80912A028227D1
:1048A000F5CF8695CC2011F0812F8170882309F4F3
:1048B0000BCF402F429546954770440F440F802FF1
:1048C0008F70042E01C0880F0A94EAF7202F207100
:1048D00004FF07C02FE030E001C0220F4A95EAF73D
:1048E0002095169516951370123069F050F430919A
:1048F0006704113029F0822B83230E94F316E4CE43
:10490000832B822BFACF282B809167048227F5CF47
:104910001F70CC2029F0812F0E945517802F28CF9F
:10492000802F0E94C21A812F0E941017CDCE023F05
:1049300089F160F4003FB9F0013F81F0CC2009F427
:1049400064C0B1107ACE812F8F7128C0033F49F126
:10495000043FA1F78091340482FD2FC0812F8F7115
:10496000CC2011F31BC0CC2081F054E05B1508F47F
:10497000ABCE1F7181E090E0012E01C0880F0A9438
:10498000EAF7909167048927B8CF85E08B1508F482
:104990009BCEEFCF812F8F71C110C6CF0E945517CC
:1049A00093CE80E0CC2009F4A8CF1F7181E0012EC6
:1049B00001C0880F0A94EAF7A0CFCC20C9F08091FB
:1049C00006028770843041F40E946B0D812F8F7135
:1049D0000E941017A12C78CE94E09B15D8F31F717C
:1049E000812F0E94551763E0812F0E949F1CF2CFF8
:1049F000E4E0EB1530F40E946B0D64E0812F8F71C1
:104A0000F4CF81E00E941D17E5CFBB2059F0093398
:104A100009F0EACEFFEF27EE33E0F15020403040BE
:104A2000E1F7E0CE812F8F717FCF0031FFE51F07C7
:104A300009F4EECA01312FE5120709F405CB809184
:104A40007602909177020E946915893E934068F042
:104A50000E947815909377028093760210927502E7
:104A600080918F0280FF0E94AA100C3A3DE5130747
:104A700009F0EFCAF7018281882309F4CECA809138
:104A80004303882309F4E2CA0E94AA1AC6CA003165
:104A90003FE5130709F4D4CA01314FE5140729F79C
:104AA00082E0CFCA06315CE5150709F439CD023C36
:104AB0008CE5180708F454CD063D9CE5190708F469
:104AC000ACCA0D35100709F4A8CA4ACD0A35FDE570
:104AD0001F0709F47ECD68F401153CE5130709F4BE
:104AE00029CD0E3D1C4509F03BCD0E94F5130E94D7
:104AF000891A0C355DE5150709F429CD08F46BCD4D
:104B0000073A1D45A1F32CCDB0E0A0E0EAE8F5E2BC
:104B10000C9447348091BF01807F31F48091BC01B7
:104B2000C0910302811107C0CDB7DEB7E8E00C9455
:104B300063342196C7708091C2018C17A9F3F0905D
:104B4000BA01E090BB01C090BD01D090BE01A601AA
:104B50006E2D8F2D0E945309D0E08111EACF8E0176
:104B600083E0000F111F8A95E1F7F801ED53FE4F26
:104B700081818E11DECF80818F11DBCF8281811107
:104B8000D8CFE380F480EC18FD0860E08AEB91E078
:104B90000E943C130E94CB06E816F90650F680915D
:104BA000BF018F7080618093BF01F801E853FE4F11
:104BB00080818F70806180838AEB91E00E943F1F2B
:104BC0000E94720DB1CFA5E1B0E0E9EEF5E20C94E0
:104BD0003E348C0185E0F801DE01519601900D9282
:104BE0008A95E1F7F801408031806280E380F480AB
:104BF00060E08AEB91E00E943C135C014AEBC42E1A
:104C000041E0D42E8090BD019090BE01A40160913E
:104C1000BB018091BA010E945309582E8111ABC18A
:104C20007090BC01C701881999094C0160E0772098
:104C300009F444C1C6010E943C130E94CB06B09007
:104C4000BF018816990608F0E1C04091BD0150915E
:104C5000BE01D090BA01C090BB018B2D807F6C2D1E
:104C600009F080C08D2D0E945309762C811124C03B
:104C7000F80181818C1120C080818D111DC020918F
:104C8000C0013091C1018681978128173907A1F4AD
:104C9000611012C08B2D8F7080618093BF018AEBF1
:104CA00091E00E943F1F8091BF01F8018583872D0D
:104CB0006596E1E10C945A34A701632D842D0E947E
:104CC0005309811122C081E08625F82FF170FF2E53
:104CD00080FF3EC0809103022091C201821317C061
:104CE000498A3A8A89899A890E94F512292F229540
:104CF0002F70223008F1243030F59F7009F1F8014F
:104D00009581907FE9F4752CD2CF80E0DECF90E0E2
:104D1000FC0133E0EE0FFF1F3A95E1F7ED53FE4F34
:104D20003181331206C03081431203C032816312D5
:104D30000FC001968770D2CF9F7011F0882319F3AE
:104D4000805E883000F3C8010E943F1F5F2CDBCFDC
:104D5000662009F4ACCF8091BF0181608093BF01D0
:104D6000712CA5CF8D2D0E94530981111FC0F80110
:104D700081818C111BC080818D1118C02091C001D0
:104D80003091C101868197812817390779F4611024
:104D90000DC0B582C8010E943F1F88E0F801AAEB50
:104DA000B1E001900D928A95E1F781CFC8010E9490
:104DB0000213882339F1662029F18091BF018032E6
:104DC000A0F02091BA013091BB013A8729871B8658
:104DD000FD86EC868E878091C0019091C101988BF1
:104DE0008F87CE0109960E943F1F88E0F801AAEB49
:104DF000B1E001900D928A95E1F70E948425772415
:104E0000739455CFC8010E943F1FF9CF8B2D807F2F
:104E100051F48AEB91E00E943F1F88E0F601119265
:104E20008A95E9F79DCFA090BA019090BB0140917F
:104E3000BD015091BE01692D8A2D0E945309811137
:104E40001CC0F8018181891118C080818A1115C0A8
:104E50002091C0013091C1018681978128173907BF
:104E600061F461100AC0B582C8010E943F1F88E04A
:104E7000F60111928A95E9F71ACFC8010E94021330
:104E8000882309F4BFCF662009F4BCCF8091BF010D
:104E9000803208F4AACF2091BA013091BB013A8345
:104EA00029831B82FD82EC828E838091C0019091C8
:104EB000C10198878F83CE01019695CF8AEB91E04F
:104EC0000E943C130E94CB068816990680F6762C29
:104ED000662009F497CFF090BA01E090BB014091B1
:104EE000BD015091BE016E2D8F2D0E94530981117D
:104EF00034C0F80181818E1130C080818F112DC0A6
:104F00002091C0013091C10186819781281739070E
:104F100021F5FCE2AF16F4E4BF0659F02CE4A2162A
:104F200024E7B20631F08AE2A81682E4B80609F056
:104F300034CF8091BF0180FD30CF982F907F09F44E
:104F40002CCFF8018583903F09F424CF982F907FD0
:104F5000905F8F70892B85831DCFC8010E9402133B
:104F6000811143CF8091BF0181608093BF01C8014F
:104F70000E943F1F9CCE662009F444CFC8010E94C6
:104F80000213782E882309F43DCF88E0F801AAEBBC
:104F9000B1E001900D928A95E1F78091BA0190916C
:104FA000BB010E94F5120E94842581CEA0E1B0E0F1
:104FB000ECEDF7E20C944D3429873A874B875C87F8
:104FC0006D877E878F87988BCE0109960E94E32597
:104FD00081112FC088E0FE013996DE011196019003
:104FE0000D928A95E1F74C855D856A8589850E94D9
:104FF000530981111EC0A091C201B0E0CD010196FC
:10500000877099272091030228171906E1F093E091
:10501000AA0FBB1F9A95E1F7AD53BE4F98E0FE0172
:10502000319601900D929A95E1F78093C2010E940A
:10503000720D809103029091C201891312C0609693
:10504000E2E00C9469340E9466171092C20110923B
:10505000030288E0EAEBF1E0DF011D928A95E9F7AF
:10506000E8CFB8E08B9FC00111248D539E4F0E9462
:10507000E325882321F38091030290E00196877055
:10508000992780930302D5CFEF92FF920F931F933E
:10509000CF93DF9380914803882361F0C091470349
:1050A0008CE0F82E80914803C81748F0109248030E
:1050B00010924703CDB7DEB7E6E00C946534EE24DA
:1050C000E394EC0EE09247030C2F10E0CF9DE0013B
:1050D0001124C75BDC4F4B815C81698188810E9410
:1050E000530981111DC08E819F81892B21F48885F0
:1050F0009985019651F4288139814A815B816C81BF
:105100007D818E819F810E94D627F09EF001F19EC5
:10511000F00D1124E75BFC4F1482138210924603BA
:10512000CE2DC0CF109224041092230410921301AC
:1051300080912204809321040E948C090E944428BB
:105140000895B0E0A0E0E7EAF8E20C943E34C091A4
:10515000210497E0892E01E010E02CE0322E3EEF92
:10516000932E44244394809122048C1309C00E94FE
:1051700044280E948C09CDB7DEB7E1E10C945A3483
:10518000D0E0FE01EE0FFF1FE75EFB4F80819181B3
:10519000889ED001899EB00D1124A755BC4F14964E
:1051A0002C911497211158C050904803E9E4F3E082
:1051B00030E020E0712C5D01251508F04BC0E28441
:1051C000F384D501CD90DC906FEF7FEF612C462DFD
:1051D00050E0DA01AA0FBB1FAC0DBD1D0D90BC91B4
:1051E000A02D109731F0EA16FB0609F4BA0163947A
:1051F000EECF6F3F7607A9F1D80102C0AA0FBB1FFF
:105200006A95E2F77A2AB801062C02C0660F771F6A
:105210000A94E2F7AB014150510974161506F9F4EE
:10522000329EF001339EF00D1124E75BFC4F889E07
:10523000D001899EB00D1124A755BC4F12962D9117
:105240003C91139737832683908291829187808740
:1052500015964C920E945E092196C37084CF1482E9
:1052600013822F5F3F4F3C96A7CF1F921FB61F920E
:1052700011248F939F93AF93BF9380912E0481113C
:1052800013C080912F0490913004A0913104B0910B
:1052900032044196A11DB11D80932F0490933004D8
:1052A000A0933104B0933204BF91AF919F918F913D
:1052B0001F901FBE1F901895CDB7DEB7CD54D109F2
:1052C0000FB6F894DEBF0FBECDBF85B7806885BF2F
:1052D00085B7806885BF84B7877F84BF0FB6F89491
:1052E000A8958091600088618093600010926000B2
:1052F0000FBE80E890E00FB6F89480936100909321
:1053000061000FBE8FE69BE090938501809384013E
:105310000E9493130E94EE060E94E1078091E20032
:1053200084608093E2007894809166048823A1F0E1
:105330001091E9001F709091EC00892F817090FD11
:1053400080E8182B1092E9008091E80083FD0E940C
:105350007C171F701093E90082E084BD93E095BD37
:105360009AEF97BD80936E000E946C13811102C06A
:105370000E942A120EE411E0D8018D918D018F3F19
:1053800011F00E94710BB1E006351B07A9F706E585
:1053900011E0F80181918F018F3F11F00E94710B94
:1053A000F1E00B351F07A9F788E0EDE6F2E0DF0139
:1053B000282F1D922A95E9F7EEE2F2E0DF011D9217
:1053C0008A95E9F70E946014811102C00E94F513CA
:1053D00082E090E00E94CE34809339020E948513CF
:1053E00090933404809333040E94C315BFEFE6E723
:1053F000F1E0B150E040F040E1F700C000000E9451
:10540000C31580916D0280FF08C06FEF7FEF90E0C1
:1054100080E00E9400350E949E0883E090E00E9498
:10542000CE340E94611760916704662309F423C19A
:105430006695617080E00E94861083E0809366022A
:1054400080E2809368040E943D336DE070E08BEF52
:1054500091E00E94B310892BE9F58091660263E028
:1054600070E081FD0AC188EF91E00E94B310892BA2
:1054700089F56DE070E088EE91E00E94B310892B11
:1054800049F50E94AF08605A75418F4F9F4F609356
:105490003A0370933B0380933C0390933D03EBE608
:1054A000F4E080E092E0DF019C011D922150304049
:1054B000E1F7F0937206E09371068FEF9FEF909300
:1054C0006A048093690481E080933F0380933E03E4
:1054D0001092670280913602811130C00E946014E0
:1054E000811104C00E94F5130E94D71388E090E058
:1054F0000E94D63460938F02709390028093910241
:10550000909392026E7F71F40E94D71388E090E02E
:105510000E94D63460938F02709390028093910220
:10552000909392020E949D0980918F0280FF03C098
:1055300086950E94751081E08093360281E0809309
:1055400044023E98469A54985C9A8FE891E00197FD
:10555000F1F700C000002091440245E452E0FA0156
:105560008E2F841B821708F48BC00E9478159093AD
:105570007902809378020E94781590937702809345
:1055800076020E94AA1088E092E090938B028093AA
:105590008A0280E091E090932B0480932A04ADE688
:1055A000B2E0A85F2C96AFAF2C978091660420E400
:1055B000F22E00E112E1853009F4BBC00E94C31550
:1055C0000AE312E09DE6292E92E0392E22E432E031
:1055D000D101F80191918D912E173F0709F4B7C0C1
:1055E0009817C1F38DE6E82E82E0F82ED12CD70172
:1055F000CD907D01F80191908F019C1499F19C242C
:10560000B12CAA24A394892D8A2121F12596BFAE1D
:1056100025972696DFAE269791E08C2D8A2109F4F6
:1056200090E027969FAF27970E9478158160782F8A
:1056300029969FAF8EAF299725964FAD2597269631
:105640005FAD269727966FAD279729968FAD29973F
:105650000E94B61CB394AA0CF5E0BF12D4CFF80197
:105660003197C082D39428E0D212C1CF0E94AF08F4
:10567000EE24E39499C060E0DDCE85EF91E0F5CEB5
:1056800086B186FB882780F94C9904C090E0892B6D
:10569000819366CF92E0FBCF80916604843009F459
:1056A00038C080918F028E7F80938F02BFEFE0E73A
:1056B000F2E0B150E040F040E1F700C000000E948D
:1056C000A30F80E00E94A3100E94DD1010922E0410
:1056D00028E130E00FB6F894A895209360000FBE43
:1056E000F092600083B7817F846083BF83B781605D
:1056F00083BF7894889583B78E7F83BF0FB6F89465
:10570000A89580916000886180936000109260008D
:105710000FBE80915C04882361F00E94C315EDE602
:10572000F2E08191811181C72C963FAD2C973E13F9
:10573000F8CF80916604853009F4AECF0E946617D9
:105740000E9446090E94A3100E94AA1037CF981306
:1057500049CF0E9478158C018091370290913802D0
:105760000817190701F18FEF8FAF21968FAF21979F
:1057700022961FAE22970E9478158160782F24967A
:105780009FAF8EAF24974FAD21965FAD21972296A4
:105790006FAD229724968FAD24970E94B61C10936C
:1057A000380200933702E12C809113018823F9F02D
:1057B00080912304909124040097C9F00E946915F8
:1057C00020914403309145032817390780F49091C4
:1057D000210480912204981739F10E94A128109287
:1057E00045031092440310922404109223048091E4
:1057F0004303882369F00E9478152091410330917A
:105800004203821B930B8F3F9F4710F40E94AA1AFA
:10581000912CF12CA4E0AA2EB12CBDEF8B2E772475
:1058200073941CEF612EA2C00E944428109224049D
:10583000109223040E948C09DACF092D10E0E6B102
:10584000E6FBEE27E0F94C99BDC080E08E2BD80135
:10585000AB5BBD4FEC919E2F9370891709F485C007
:10586000EE0FEE0FE82BEC93EF70F0E0E55AFE4FF1
:10587000C8018D5B9D4F6C018081D6019C91890F81
:105880008C9320E084308CF1F801EE5BFD4F808139
:105890008F5F80830E9478159DAA6EAA7FAA81607F
:1058A000782F99AF88AF492D5CEF61E089AD0E94F8
:1058B000B61CEFE3FFE13197F1F700C000000E9452
:1058C00078159AAE6BAE1CAE8160782F9EAF8DAF0F
:1058D000492D5CEF60E08EAD0E94B61C8FE39FE126
:1058E0000197F1F700C0000021E0D6018C918D3FB7
:1058F0008CF5F801EE5BFD4F8081815080830E9422
:1059000078159BA68CA67DA68160782F9FA78EA771
:10591000492D5DEF61E08FA50E94B61CEFE3FFE12A
:105920003197F1F700C000000E94781598AA89AA63
:105930001AAA8160782F9CAB8BAB492D5DEF60E09C
:105940008CA90E94B61C8FE39FE10197F1F700C07C
:10595000000021E0D6018C91082E000C990BB501B6
:105960000E948034F6018083F22A9394809144024D
:10597000981608F462CFF1100E94AF0880913F039F
:10598000882309F47AC08BE694E0909372068093A2
:10599000710683E492E00E94FD0E81E492E00E9491
:1059A000FD0E8FE392E00E94FD0E809167040E943D
:1059B000090E833089F040F4823009F489C180E116
:1059C00092E00CC082E042CF843009F47EC1853081
:1059D000B1F782E192E002C080E292E00E94FD0E07
:1059E00010914003812F817109F075C188E392E025
:1059F0000E94FD0E812F847409F070C182E392E051
:105A00000E94FD0E812F827209F06BC18BE292E041
:105A10000E94FD0E187885E292E011F087E292E094
:105A20000E94FD0E80913F03882371F0209169044C
:105A300030916A042115310539F08091670261E0E7
:105A400070E0882309F451C180913E038823A9F0B6
:105A50000E94AF0800913A0310913B0320913C0350
:105A600030913D03601B710B820B930B6F3F7F4F97
:105A70008F4F9F4710F40E94DD10E11001C0F1101C
:105A80000E94F81086E0E1E8F2E08E010F5F1F4F00
:105A9000D80101900D928A95E1F71092830210923D
:105AA000840210928502109286028B819C81892B40
:105AB00009F44AC080917F02909180020E9469158A
:105AC0009C0190917B02992309F4D2C525313105BF
:105AD000D8F19F3F19F09F5F90937B02FB80FF20DE
