:100000000C9465050C9482050C9482050C94820571
:100010000C9482050C9482050C9482050C94820544
:100020000C9482050C9482050C94D2100C948315C8
:100030000C948E1F0C9482050C9482050C948205FE
:100040000C9482050C9482050C9482050C94820514
:100050000C9482050C94AB110C9482050C948205CF
:100060000C9482050C9482050C9482050C948205F4
:100070000C9482050C9482050C9482050C948205E4
:100080000C9482050C9482050C9482050C948205D4
:100090000C9482050C9482050C9482050C948205C4
:1000A0000C9482050C9482050C9482050001D5FF06
:1000B000FFFF000000000001BFFFFFFF0000000085
:1000C000000115FFFFFF00000000A900AA00A90021
:1000D000AA00AB00AC00AB00AC00AB00AC00AB00C6
:1000E000AC0014001A00080015001700046816641C
:1000F000076109620A001D001B00060019000500C7
:100100002E002D0029452B432C44130012000C0017
:1001100018001C0033780F640E710D720B0038004C
:100120003700360010001100340035004C742A42AC
:10013000284514001A0008001500170004001600D6
:10014000070009000A001D001B0006001900050039
:100150002E642D6229612B432C44130012000C00E5
:1001600018001C0033000F000E000D000B003800BB
:100170003700360010001100346801534C742A42D5
:10018000284500000000000000000000E300E2003D
:10019000E000E1000000000000000000000000009E
:1001A0000000000000000000000000004B004E00B6
:1001B000000000004F0052005100500052040000A7
:1001C00065004D004A005104490000000000010094
:1001D0000000310024002500260027003600210001
:1001E000220023002F0037001E001F0020003000D7
:1001F000E00028002A000100015300000000000078
:1002000000000000E700E200E400E500000000005C
:1002100000000000000000000000000000000000DE
:1002200000003102240225022602270236022102A2
:10023000220223022F0237021E021F022002300276
:10024000E000280000002A0001000000000000007B
:1002500000000000E700E200E400E500000000000C
:10026000000000000000000000000000000000008E
:1002700000004500400041004200460044003D00AF
:100280003E003F00480043003A003B003C0039007C
:10029000E0004C000100AB00AE00000000000000D8
:1002A00000000000E700E200E400E50000000000BC
:1002B000000000000000000000000000000000003E
:1002C000010000DA0281FFD9F1DB20A4A62EAF00E5
:1002D000A0C000A1C800AED580A81FD300408D14D7
:1002E0002000C000B600AC000000200046554E4380
:1002F000004E415600534D424C004E4D425200209C
:100300000047554900200053686674002000416C86
:10031000740020004374726C002000200020000054
:1003200001010101010101010102020202020202B6
:100330000202030303030303030304040404040489
:10034000040505050505060606060607070707074F
:1003500008080808090909090A0A0A0B0B0B0C0C02
:100360000C0D0D0D0E0E0E0F0F0F1010111111129E
:100370001213131414151516161717181819191A1D
:100380001A1B1B1C1D1D1E1E1F2020212222232480
:1003900024252626272829292A2B2C2D2D2E2F30BF
:1003A000313232333435363738393A3B3C3D3E3FD3
:1003B000404142434445464748494A4C4D4E4F50C0
:1003C000515354555658595A5B5D5E5F616264657E
:1003D0006668696B6C6D6F7072737577787A7B7D08
:1003E0007E8082838587888A8C8E8F91939596985C
:1003F0009A9C9EA0A2A3A5A7A9ABADAFB1B3B5B778
:10040000BABCBEC0C2C4C6C9CBCDCFD1D4D6D8DB4E
:10041000DDDFE2E4E7E9EBEEF0F3F5F8FAFDFF00EB
:10042000AF00AE05010902A10185020901A1000585
:100430000919012908150025019508750181020592
:1004400001093009311581257F950275088106095A
:10045000381581257F950175088106050C0A38023B
:100460001581257F950175088106C0C005010980A9
:10047000A101850319012AB700150126B7009501CE
:1004800075108100C0050C0901A101850419012A1C
:10049000A002150126A002950175108100C005017A
:1004A0000906A1018506050719E029E715002501C0
:1004B0009508750181020507190029EF150025012E
:1004C00095F0750181020508190129059505750149
:1004D0009102950175039101C005010906A101056D
:1004E0000719E029E7150025019508750181029596
:1004F00001750881010507190029FF150026FF0075
:1005000095067508810005081901290595057501ED
:100510009102950175039101C009023B000201009F
:10052000A0FA0904000001030101000921110100E2
:1005300001224000070581030800010904010001B0
:100540000300000009211101000122B60007058205
:10055000032000011201000200000008EDFE410826
:100560000001010200010E037000690063006100D8
:100570003400300000000E037A007A0065006E003F
:100580006500670000000403090407087F080700EE
:100590003E5B4F5B3E003E6B4F6B3E001C3E7C3E25
:1005A0001C00183C7E3C18001C577D571C001C5E2C
:1005B0007F5E1C0000183C180000FFE7C3E7FF0047
:1005C000001824180000FFE7DBE7FF0030483A0678
:1005D0000E00262979292600407F05050700407F67
:1005E00005253F005A3CE73C5A007F3E1C1C080092
:1005F000081C1C3E7F0014227F2214005F5F005FF6
:100600005F0006097F017F00006689956A006060CF
:100610006060600094A2FFA2940008047E040800B9
:1006200010207E20100008082A1C0800081C2A0838
:1006300008001E10101010000C1E0C1E0C0030388C
:100640003E383000060E3E0E06000000000000009E
:1006500000005F000000000700070000147F147F07
:100660001400242A7F2A12002313086462003649EA
:1006700056205000000807030000001C2241000023
:100680000041221C00002A1C7F1C2A0008083E088A
:10069000080000807030000008080808080000000A
:1006A000606000002010080402003E5149453E00F1
:1006B00000427F4000007249494946002141494DAE
:1006C00033001814127F10002745454539003C4A75
:1006D000494931004121110907003649494936008D
:1006E000464949291E000000140000000040340063
:1006F00000000008142241001414141414000041D6
:10070000221408000201590906003E415D594E00BD
:100710007C1211127C007F49494936003E4141411B
:1007200022007F4141413E007F49494941007F0904
:10073000090901003E41415173007F0808087F000C
:1007400000417F4100002040413F01007F0814220A
:1007500041007F40404040007F021C027F007F0438
:1007600008107F003E4141413E007F090909060013
:100770003E4151215E007F09192946002649494919
:10078000320003017F0103003F4040403F001F2033
:1007900040201F003F4038403F00631408146300AE
:1007A0000304780403006159494D4300007F41412F
:1007B0004100020408102000004141417F00040272
:1007C00001020400404040404000000307080000D0
:1007D0002054547840007F2844443800384444442E
:1007E0002800384444287F00385454541800000826
:1007F0007E09020018A4A49C78007F0804047800F5
:1008000000447D4000002040403D00007F1028440F
:10081000000000417F4000007C04780478007C08E0
:1008200004047800384444443800FC182424180098
:1008300018242418FC007C0804040800485454546C
:10084000240004043F4424003C4040207C001C2041
:1008500040201C003C4030403C004428102844000C
:100860004C9090907C004464544C44000008364105
:10087000000000007700000000413608000002017F
:10088000020402003C2623263C0000000000000079
:10089000404040F0F8F8FF38FFF8F83FF8F8FF382C
:1008A000FFF8F8F040404000000000000080C0C0A9
:1008B000C0800000C0C08000000080C0C000C0C078
:1008C000000080C0C00000000000C0C0C0C0C00068
:1008D000C0C0000000000000000000000000000098
:1008E0000000000000000000000000000000000008
:1008F00000000000000000000000000000000000F8
:10090000000000000000000000C0F0F8FC3E1E06E1
:10091000010000007F4141417F007F4141417F0054
:100920000080C0E07E5B4F5BFEC00000C000DCD7F3
:10093000DEDEDED7DC00C0000000000000000000AA
:1009400000000000000000000000000000000000A7
:10095000494949FFFFFFFFE0DFBFBF00BFBFDFE046
:10096000FFFFFFFF49494900000000001F3F606092
:10097000E0BF1F007F7F071E381E077F7F007F7F3D
:100980000E1F3B716000000000007F7F0C0C0C000C
:100990007E7E007F7E0303007F7E03037E7E030353
:1009A0007F7E000F3E703C063C703E0F00327B495C
:1009B000493F7E007F7E0303001E3F69696F26006A
:1009C000000000000000000000030F1F3F3C787093
:1009D000600000007F4141417F007F4141417F0035
:1009E000307B7F7830202030787F3B0003000F7F02
:1009F0000F0F0F7F0F000300000000000000000039
:100A000000000000000000000000000000000000E6
:100A1000010101070F0F7F0F7F0F0F7E0F0F7F0F59
:100A20007F0F0F070101010000000000000000001F
:100A300000010100000000000000000000000000B4
:100A400000000000000000000000000000000000A6
:100A50000000000000000000000000000000000096
:100A60000000000000000000000000000000000086
:100A70000000000000000000000000000000000076
:100A80000000000000000000000000000000000066
:100A90000000000000000000000000000000000056
:100AA0000000000000000000000000000000000046
:100AB0000000000000000000000000000000000036
:100AC0000000000000000000000011241FBECFEF56
:100AD000DAE0DEBFCDBF11E0A0E0B1E0ECEDFEE476
:100AE00002C005900D92AA36B107D9F724E0AAE614
:100AF000B1E001C01D92A03CB207E1F70E94B51F12
:100B00000C9456270C940000863124E69207C9F015
:100B100050F4873021E69207B9F08F30944689F07F
:100B200086E990E008958E3021E7920769F08333DB
:100B300028E7920719F08430984691F78CED90E001
:100B400008958EEB90E008958AEA90E00895E8ED2C
:100B5000F0E080818E7F80831092E2001092DA00B4
:100B60001092E100A0EEB0E08C9181608C938081C6
:100B70008F77808319BCA7EDB0E08C918E7F8C932A
:100B800080818F7E80831092860208952091E400F8
:100B90003091E50095E6A9012091EC00822F81704B
:100BA00020FF06C08091E80080FF06C080E0089525
:100BB0002091E80022FD1AC08091AB02882389F0C1
:100BC000853089F08091EB0085FD0FC02091E40015
:100BD0003091E50042175307F9F29150E1F684E0B5
:100BE000089582E0089583E0089581E00895EF92EA
:100BF000FF920F931F93CF937C018B010E94C60538
:100C0000C82F811117C08091E80085FD0BC080912D
:100C1000E8008E778093E8000E94C605882399F348
:100C2000C82F08C0F70181917F018093F100015026
:100C3000110949F78C2FCF911F910F91FF90EF90E1
:100C400008958091AD0287FF13C08091E80082FF74
:100C500006C08091E8008B778093E80004C0809103
:100C6000AB028111F2CF08958091AB028823D9F3B2
:100C70008091E80080FFF8CF8091E8008E77ECCF7C
:100C8000982F9093E900242F762F50E0891731F0A8
:100C90007091EC002091ED005091F00021FD07C013
:100CA0009F5F973071F78093E90081E0089530915C
:100CB000EB003E7F3093EB003091ED003D7F3093B1
:100CC000ED003091EB0031603093EB007093EC005D
:100CD0002093ED005093F0002091EE0027FDE0CF2F
:100CE00080E00895B0E0A0E0E8E7F6E00C94A526E7
:100CF000C8EDD0E088818F7E8883E7EDF0E08081C9
:100D00008160808384E082BF81E080938602888155
:100D10008E7F888302EE10E0F80110821092DA00D4
:100D200081EEC82ED12CF601108288818F778883BE
:100D300088818068888388818F7D888319BC109220
:100D4000AB021092AC021092AA021092A90290EE8D
:100D5000E92EF12CF70180818B7F8083888181606F
:100D6000888342E060E080E00E944006F6018081D6
:100D70008E7F8083F801808181608083808188609C
:100D80008083F70180818E7F808388818061888362
:100D9000CDB7DEB7E8E00C94C126FC018091B30228
:100DA0009091B40286179707A0F06115710529F498
:100DB0009091E8009E779093E80090E061157105AE
:100DC00051F4911108C08091E80082FF34C080E0A6
:100DD0000895BC01F2CF8091AB028823C1F1853028
:100DE000C1F18091E80083FD30C08091E80082FD70
:100DF000EACF8091E80080FFE1CF8091F30020915D
:100E0000F200382F6115710519F02830310558F0BE
:100E100091E02830310509F090E02091E8002E772C
:100E20002093E800CBCF81918093F100615071094C
:100E30002F5F3F4FE7CF8091AB02882341F0853091
:100E400041F08091E80083FFBECF81E0089582E009
:100E5000089583E00895089580918802089587E7B2
:100E600097E7909301088093000888E19AE00FB615
:100E7000F894A895809360000FBE90936000FFCF18
:100E80002FB7F89460917D0270917E0280917F026D
:100E9000909180022FBF0895209113012223C9F061
:100EA0002091810227FF15C0E62FE695E695E6958D
:100EB000EE31D8F4E80FF92FF11D677021E030E032
:100EC00001C0220F6A95EAF72095828128232283A8
:100ED0000895FC01329608962191621303C0DF0148
:100EE00011971C92E817F907B9F70895209113019B
:100EF0002223C1F02091810227FF14C0E62FE6953E
:100F0000E695E695EE31F8F4E80FF92FF11D6770DC
:100F100021E030E001C0220F6A95EAF78281822B3E
:100F200082830895FC0132962FEF30E041916417DF
:100F300051F02F3F19F4411101C0232F3F5F36308C
:100F4000A9F72F3F09F40895820F911D27FD9A9567
:100F5000FC016283089520917A0230917B02281768
:100F6000390771F090937B0280937A02E0917802C6
:100F7000F0917902309721F00084F185E02D0995F8
:100F8000089520917602309177022817390771F081
:100F90009093770280937602E0917802F091790243
:100FA000309721F00680F781E02D09950895E091B2
:100FB0007802F0917902309729F00190F081E02DCC
:100FC0000995089580E0089580916302982F9E7F8F
:100FD00039F4809163028170826080936302089586
:100FE0008430B8F70895AF92BF92DF92EF92FF92EC
:100FF0000F931F93CF93DF93082F162FE901E42F50
:10100000F0E0E15EFC4F611110C0E4915E2F4E2FC5
:101010004983E8835A83DF91CF911F910F91FF900D
:10102000EF90DF90BF90AF900895E62EF12C4491A1
:10103000D42EE42FF0E026E0829FC00111242FEF90
:1010400030E0B9010E948726802F90E0880F991F19
:1010500055E5569FD001579FB00D11248A1B9B0B5D
:10106000982F990F890F5901AE18BF08AE9ED00175
:10107000AF9EB00DBE9EB00D11245B2F189F800156
:101080001124012F11275901A01AB10AAE9E800127
:10109000AF9E100DBE9E100D11245901A81AB10863
:1010A000AE9CC001AF9C900DBE9C900D1124892F69
:1010B0009927281B390B2E9FC0012F9F900D3E9F13
:1010C000900D1124E92F62307105A1F050F46115E3
:1010D000710509F49DCF6130710581F0EB2F512F1F
:1010E00097CF6430710569F080F06630710509F4BE
:1010F0008FCFF4CFE42F4B2F592F8ACFE42F412FDE
:1011000087CFEB2F542F492F83CF4B2F5D2DE12F0E
:101110007FCF409157028D3E59F48091580287FF4E
:101120000DC01092580241110BC010924F0208C01E
:101130008E3E81F48091580218169CF3442381F06E
:101140008091590290915A02892B09F05AC010924D
:101150004E0208958F3E49F447FFF0CF1092570298
:10116000809158028111ECCFE0CF803F19F4141622
:10117000ACF3E4CF90915902893F29F41916F4F6A3
:1011800010925902DBCF8A3F19F497FFD7CFF8CFDF
:1011900090915A028B3F29F497FFD0CF10925A02B8
:1011A000CDCF8C3F19F41916CCF3C8CF9FE0980F20
:1011B000983090F4815F990B21E030E0B90102C0D2
:1011C000660F771F8A95E2F7CB01809590915602C2
:1011D000892380935602B2CF8D3F31F48091500223
:1011E0008E7F80935002AACF8E3F21F480915002CF
:1011F0008D7FF7CF8F3F09F0A1CF809150028B7F79
:10120000F0CF08958091500280FD16C081FD16C078
:1012100082FD16C080914E028823A1F0883280F4AE
:1012200028E0829FC001112468E270E00E94DE265F
:10123000862F672B39F0089582E0089584E00895A1
:1012400088E0089581E008958091500280FD14C0E7
:1012500081FD14C082FD16C080914F02882381F069
:101260008E3180F420E5829FC00111246EE170E090
:101270000E94DE26862F089584E1089588E208956D
:1012800088E0089580E508958D3E31F40E94240998
:1012900081958093580208958E3E19F40E94240986
:1012A000F8CF8F3E31F40E94240981958093570234
:1012B0000895803F19F40E942409F8CF893F29F44A
:1012C0000E9402098093590208958A3F21F40E94E6
:1012D00002098195F7CF8B3F31F40E940209819575
:1012E00080935A0208958C3F19F40E940209F8CFA6
:1012F0009FE0980F983070F4815F990B21E030E007
:1013000001C0220F8A95EAF780915602822B8093C2
:10131000560208958D3F31F4809150028160809390
:10132000500208958E3F21F4809150028260F7CFE1
:101330008F3FB9F7809150028460F1CF80E008952B
:10134000F894E82FE295EF70F0E031A1282F2F708C
:1013500081E090E001C0880F2A95EAF7982F9095D8
:10136000932391A392A1892B82A3789408959091BD
:10137000810292FF06C0282F28712830F9F4877F58
:10138000846093FF06C0282F28712831F1F4877EEE
:1013900084612091820220FF06C0382F38713830D6
:1013A000D9F4877F816021FF06C0282F287128315A
:1013B000D1F4877E816194FD877E0895282F247162
:1013C0002430F9F68B7F8860DCCF282F24712431FC
:1013D00001F78B7E8861DDCF382F3171313019F7FD
:1013E0008E7F8860E0CF282F2171213121F78E7EFA
:1013F0008861E1CF972F7830A8F4653048F570E028
:1014000025E0929F600D711D1124FB0198E2899FD8
:10141000E00DF11D1124EE0FFF1FEE51FF4F8591DE
:10142000949108957D3F49F4611112C024E0829F98
:10143000F0011124E653FF4FF2CF7C3F49F46111D4
:1014400007C094E0899FF0011124E453FF4FE7CFD8
:1014500080E090E00895CF93DF93EC01823891050E
:10146000B1F108F040C08133910509F49DC048F501
:101470008932910509F48DC08A9709F49CC0C11581
:1014800021E5D20708F0C3C0C11530E5D30708F045
:101490001EC1C83ED10508F0A3C0C13ED10588F5E4
:1014A000C83AD10508F08EC0C53AD10508F007C189
:1014B000C130D10531F1209721F1C430D10508F5B3
:1014C00045C08533910509F45FC0C997C1F6809185
:1014D0008102837009F043C18091820283FF11C0B1
:1014E000C9E2D0E00EC0833E910599F170F4803ED0
:1014F000910501F1823E910511F68091810282FDF4
:1015000021C0CE01DF91CF910895863E910561F112
:10151000873E910571F1843E910509F0B0CF80912D
:10152000820281FFEECF80918102C7EED0E084FD80
:101530000DC0E7CF8091810280FD33C0909182027F
:1015400090FFDFCFC3EED0E084FFDBCFD0E0C0E080
:10155000D8CF8091810282FDFFC09091820290FDE0
:10156000FEC084FFCECFF2CF8091810283FDDDCF1C
:10157000C8CF8091810283FDF5C09091820291FFD6
:10158000F0CFC4EED0E0BDCF8091810285FFB9CF0E
:10159000A7CF8091810285FDE8C08091820283FF00
:1015A000B0CFC9E3D0E0ADCF8091810286FFA9CF53
:1015B000CAE2D0E0A6CF8091810286FFA2CFC1E32C
:1015C000D0E09FCFCF3BD10508F6C85AD0E0CC0F72
:1015D000DD1FC95EDE4F0990D881C02DD46491CF44
:1015E000C11540E2D40758F4C11581E0D80708F0CE
:1015F00088CFCD3ED10508F4A9CFD06582CFC115E3
:1016000020E4D20708F4A2CFDF70D06A7ACFC115E8
:1016100035E5D30718F5C11544E5D40708F084C0B3
:10162000C11583E5D80708F06BC0C11522E5D207C4
:1016300008F461C0CE018370992721E030E002C038
:10164000220F331F8A95E2F7C695C69580E2C89FA0
:10165000E0011124C22BD32BDC6853CFC11539E52F
:10166000D307A8F4C11548E5D40708F062C0C11536
:1016700086E5D80708F06ACF8C2F0E94B709C82FDB
:10168000D0E0DC2FCC27CC27DF71D0623ACFC11558
:101690002AE5D20708F452C0CE0190568115904237
:1016A00008F054CF8D2F8F710E94B70990E0982FCA
:1016B000882788279F719C012C2BE901E6CFC55A0A
:1016C000D0E0CC5EDE4FC881D0E0D0641ACFCE012E
:1016D0008370992721E030E002C0220F331F8A95E2
:1016E000E2F7C695C69540E2C49FE0011124C22BE3
:1016F000D32BDD6806CFDC2FCC27C16FD06A01CF9A
:10170000CE018370992721E030E002C0220F331F01
:101710008A95E2F7C695C69540E2C49FE001112480
:10172000C22BD32BDA68EDCEDC2FCC27C46FD06A66
:10173000E8CEDC2FCC27C06FD06AE3CE8C2F8F7021
:101740000E94B70934E0D695C7953A95E1F7CF7076
:101750009C2FEC01D069D5CEC2EED0E0D2CEC0EE47
:10176000D0E0CFCEC6EED0E0CCCEC5E3D0E0C9CE3F
:101770008091FE0181111092FE0108958095909153
:101780006E02982390936E020895452B39F06823DA
:1017900081E06F3F09F080E08170089581E0FCCF27
:1017A0008091DC019091AB01981301C008958F5F87
:1017B0008770FACFB0E0A0E0E0EEFBE00C94A42646
:1017C0007C0100912402109125028091FF019091EB
:1017D0000002082B192BCFE0D0E0CC24C394D12CED
:1017E000BC2EC6010C2E02C0880F991F0A94E2F786
:1017F00080239123892B49F4219790F7B12C8B2DCD
:10180000CDB7DEB7E9E00C94C026B7018C2F0E945B
:10181000FA090E942B0A019779F3F1CFCF93DF9356
:10182000EC010E94DA0BBE010E94FA090E942B0A09
:10183000DF91CF910895A82FA77023E09695879503
:101840002A95E1F7880F991F880F991FFB01E80F70
:10185000F91F50E040E080E0219130E00A2E02C004
:10186000369527950A94E2F721703327042E01C09C
:10187000220F0A94EAF7822B4F5F5F4F44305105E5
:1018800059F70895292F983068F4853090F490E046
:1018900061E971E035E0239F800D911D11240E94C4
:1018A0001B0C08952C5F223020F46DE871E090E06D
:1018B000F6CF80E00895262F277091E001C0990FA0
:1018C0002A95EAF723E0769567952A95E1F7660F62
:1018D000771F660F771FFA01E60FF71F50E040E011
:1018E000682F70E08191DF0111979B01042E02C0E7
:1018F000369527950A94E2F7217021952827292308
:1019000028272C934F5F5F4F4430510559F70895B6
:10191000282F862F983070F4253058F4622F70E00D
:1019200025E0929F600D711D112441E951E00E9454
:101930005B0C08959C5F9230E0F7622F70E04DE8F9
:1019400051E0F5CF0F931F93CF938C01FC0143819E
:101950005481618180810E94C50BC82F811123C0F1
:10196000F801808191810E940E0C92959F709630B3
:10197000A9F058F4925F9F70923058F4803F19F0AC
:1019800030F4883E30F4C1E004C09A5FF4CF843F65
:10199000D1F38C2FCF911F910F910895883E98F32A
:1019A000813FB9F7F0CFC0E0F4CFA5E0B0E0EBEDB8
:1019B000FCE00C94AA2625E0FC01DE0111960190C2
:1019C0000D922A95E1F7FC01228189819A812223D7
:1019D00099F0662389F00E94DA0B182F682F89810D
:1019E0009A810E94880C69817A81812F0E94FA096C
:1019F0002596E3E00C94C6260E94420C182FF3CFE4
:101A0000CF93DF93682F81E06A3019F06D3031F4A5
:101A100080E00E94800DDF91CF9108958091BE04F7
:101A20009091BF0426E0FC01A8EBB4E001900D9278
:101A30002A95E1F7603E08F458C026E0FC011192B7
:101A40002A95E9F7C091BE04D091BF0446E050E06A
:101A5000BE0188EB94E00E9401279E01285B324082
:101A6000892B41F1C90145E0969587954A95E1F7A3
:101A700041E050E0BA0102C0660F771F8A95E2F795
:101A8000CB016091B6027091B702862B972BB901FA
:101A90006B5F7F4FE5E076956795EA95E1F702C0C9
:101AA000440F551F6A95E2F7842B952B9093B7024C
:101AB0008093B6022A5F3F4F4091B502642F70E0D9
:101AC000C9010E948726481B463010F4240F311D9F
:101AD000211572E0370710F030E020E028543D4F28
:101AE0003093BF042093BE0496CFF6E06F9FB00101
:101AF000112466577A4F46E050E00E94F826A2CFA4
:101B0000CF93382FE091BE04F091BF04E85BF24020
:101B10002091B502622F70E0CF010E948726281B1A
:101B2000822F332361F066E00E94D226C82FC15075
:101B300010F4CF91089580E20E94000DF8CF9F012C
:101B4000280F311D2115324018F080E0F0E0E0E070
:101B50008E0F9F2F911D88549D4F9093BF048093AB
:101B6000BE04E7CFCF93DF93EC01FE018491811196
:101B700006C081E00E94800DDF91CF9108950E9400
:101B8000000D2196F2CF80916E0290917102892B07
:101B900080936C019091FE019923A1F0892B809391
:101BA0006C01809113018823E1F18091810287FF0C
:101BB00038C08EE1EEE6F1E090E08150A0F59111A1
:101BC0000E94B80B40E250E06EED71E08CE691E0CF
:101BD0000E940127892B21F180E2ECE6F1E0AEEDD5
:101BE000B1E001900D928A95E1F7E0917802F091D1
:101BF00079023097A9F080911301882359F08091E0
:101C0000810287FF07C080916C0180936D0186E09F
:101C100080936C010280F381E02D8CE691E00995C0
:101C2000089586E0C7CF2191222339F29F5FC5CF67
:101C3000882321F00E94BE0B0E94C30D08958823C3
:101C400039F090916E02982B90936E020E94C30D12
:101C50000895B0E0A0E0EFE2FEE00C94A5266C0150
:101C60007B0164E670E088E70E94A125EC0197FD06
:101C700012C010E000E0F601E00FF11F849164E66D
:101C800070E00E940D26EC01892B29F40F5F1F4F95
:101C90000E151F0581F70E948326CE01CDB7DEB752
:101CA000E8E00C94C12680916C0290916D02911134
:101CB00003C091E089270895882369F062E070E00D
:101CC00081E294E00E94290E892B19F080916C0228
:101CD000089510926C0280916C02EBCFCF93C0916B
:101CE0006C0280916D028823D1F00E944007605AF7
:101CF00075418F4F9F4F6093680270936902809384
:101D00006A0290936B02C11108C062E070E08FE13B
:101D100094E00E94290E892B29F0C0916C028C2F2F
:101D2000CF91089581E080936C02F7CF8093830276
:101D300070938502609384028091AB02843001F538
:101D400082E08093E9008FEF9091E800815095FD4B
:101D500006C095ED9A95F1F700008111F5CF8091BD
:101D6000E80085FF0DC050E040E063E070E083E8EC
:101D700092E00E94F7058091E8008E778093E8005A
:101D80000895BC0184E00E94960E0895BC0183E092
:101D90000E94960E08959C0182E08093E9009FEFD7
:101DA0008091E800915085FD06C085ED8A95F1F798
:101DB00000009111F5CF8091E80085FF0CC050E044
:101DC00040E066E070E0C9010E94F7058091E800FC
:101DD0008E778093E8000895CF93DF93EC01809194
:101DE00013018823B1F18091810287FF32C060E244
:101DF00082E08093E9008FEF9091E800815095FD9B
:101E000006C095ED9A95F1F700008111F5CF80910C
:101E1000E80085FF1BC08091130170E050E040E0B6
:101E2000811104C050E040E068E070E0CE010E9403
:101E3000F7058091E8008E778093E80080E2FE014C
:101E4000A9E8B2E001900D928A95E1F7DF91CF9178
:101E5000089568E081E0CDCFA5E0B0E0E2E3FFE0E7
:101E60000C949E268091630280FF89C080905E0260
:101E700090905F028114910409F457C080FF55C00F
:101E8000D12CC12C66246394712C53E0552E809183
:101E90005D0293010C2C01C0220F0A94EAF7822301
:101EA00009F43BC0F601EE0FFF1FE80DF91DE590A8
:101EB000F490E114F104C9F145E050E0B701CE011E
:101EC00001960E94F82609810F3F39F18A81800F1F
:101ED0009927991F1816190614F481E090E05C0107
:101EE000AA0CBB1C8A0D9B1D9C01205A3D4F590119
:101EF000059D80011124005A1D4F0A151B0520F075
:101F000035E0E30EF11CD8CF98014D816C818B81B7
:101F10000E94F3070D5F1F4FF0CF5FEFC51AD50A80
:101F200083E0C816D10409F0B2CF539A3BB1377F92
:101F30002BB128604FB7F89480E692E0FC015191F4
:101F4000CF0168E02BB9000000C057FF3BB9550F27
:101F5000000000C000C000C03BB900C06A9591F706
:101F6000F2E083369F0751F74FBF8FE594E001976A
:101F7000F1F700C000002596EFE00C94BA2610920D
:101F80006102109260021092620270CFA3E0B0E092
:101F9000ECECFFE00C94A8268091630280FF2BC03C
:101FA000817082608093630280FF25C01091660279
:101FB00000916502F090640291E090935B028E7F45
:101FC000823099F49E012F5F3F4F412F602F8F2D5C
:101FD0000E94F3078B8199812A812093610290935B
:101FE0006002809362020E942C0FF09264020093C0
:101FF0006502109366022396E5E00C94C42621E066
:1020000030E0A90102C0440F551F8A95E2F7CA01CA
:1020100020915D02662369F0822B80935D0280919E
:102020005C02811105C08091630286950E94C60FF3
:10203000089580958223F1CF80917202882369F000
:10204000809171028D7D809371020E94C30D109268
:10205000720260E082E00E94FF0F089581FB662714
:1020600060F981E00E94FF0F0895E3E6F2E08081CD
:102070008160808386950E94C60F0895CF92DF927B
:10208000EF92FF92E3E6F2E083E0808311828FEF2C
:10209000828383831482C080D180E280F3800E9497
:1020A000E407B701A60188E090E00E943427FF9082
:1020B000EF90DF90CF900895CF9384E090E00E945E
:1020C0000E27C82F82E290E00E940E27982F8C2FB7
:1020D000CF91089568EE7EEF90E080E00E94402767
:1020E00060E082E090E00E94222760E083E090E0E0
:1020F0000E942227109200021092FF0160E084E00B
:1021000090E00E94222764E082E290E00E94222771
:1021100060E085E090E00E94222760E086E090E0A9
:102120000E9422276FEF87E090E00E94222740E084
:1021300050E0BA0188E090E00E94342760E08DE032
:1021400090E00E94222740E050E0BA0188E190E050
:102150000E94342760E087E190E00E94222740E05F
:1021600050E0BA018CE190E00E94342770E060E01A
:1021700080E290E00E94402740E050E0BA0188E110
:1021800090E00E94342740E050E0BA018FE090E0F8
:102190000E94342740E050E0BA0183E190E00E94C1
:1021A000342708951F920F920FB60F9211242F9388
:1021B0003F934F935F936F937F938F939F93AF93CF
:1021C000BF93EF93FF938091E10082FF09C080915C
:1021D000E20082FF05C08091E1008B7F8093E100E7
:1021E0008091DA0080FF24C08091D80080FF20C059
:1021F0008091DA008E7F8093DA008091D90080FF91
:102200009DC080E189BD82E189BD09B400FEFDCF9A
:1022100081E08093AB0280918602811109C00E9407
:10222000A7050E9472068091E20084608093E2001C
:102230008091E10080FF17C08091E20080FF13C011
:102240008091E2008E7F8093E2008091E2008061C5
:102250008093E2008091D80080628093D80019BCFE
:1022600085E08093AB028091E10084FF2BC08091D8
:10227000E20084FF27C080E189BD82E189BD89B584
:10228000982F917080FFFBCF8091D8008F7D809335
:10229000D8008091E1008F7E8093E1008091E20080
:1022A0008F7E8093E2008091E20081608093E20063
:1022B0008091AC02882309F447C084E08093AB028C
:1022C0008091AB028091E10083FF27C08091E20002
:1022D00083FF23C08091E100877F8093E10082E04B
:1022E0008093AB021092AC028091E1008E7F8093CC
:1022F000E1008091E2008E7F8093E2008091E20015
:1023000080618093E20042E060E080E00E9440064D
:102310008091F00088608093F000FF91EF91BF9171
:10232000AF919F918F917F916F915F914F913F916D
:102330002F910F900FBE0F901F90189519BC1092FF
:10234000AB021092860274CF8091E30087FD93E088
:102350009093AB02B5CF78941F921FB61F921124B1
:102360008F939F93AF93BF9380917D0290917E0254
:10237000A0917F02B09180020196A11DB11D8093B2
:102380007D0290937E02A0937F02B0938002BF9162
:10239000AF919F918F911F901FBE1F9018959C0128
:1023A0004FB7F89480917D0290917E02A0917F02B8
:1023B000B09180024FBF821B930B08952FB7F89402
:1023C00080917D0290917E02A0917F02B091800267
:1023D0002FBF089580917202811113C010926E0276
:1023E0000E94B80B0E94DE1188579C4E9093700299
:1023F00080936F0281E08093720261E082E00E942C
:10240000FF0F08950E94DE119C0190915702809168
:102410005802982B21F0309354022093530290914C
:10242000590280915A02982B21F030935202209346
:102430005102E0917802F0917902309749F082E000
:10244000809355020480F581E02D85E592E00995A1
:10245000089590E080E00E94C10790E080E00E9433
:10246000AB07109271020E94C30D86E0E5E5F2E031
:10247000DF011D928A95E9F710924F0210924E02E9
:10248000109250020E9402120895CF93DF93EC0144
:1024900060E0009721F0BC0176956795617080E05F
:1024A0000E94FF0FD0932502C09324020E9429129C
:1024B000DF91CF91089521E030E002C0220F331F59
:1024C0008A95E2F72095309580912402909125021B
:1024D000822393230E94451208959091DD018095F7
:1024E00089238093DD01282F277091F4282F082E4F
:1024F000000C330B9217130659F09091820292FF51
:1025000007C08595859585950E945B121092DD0127
:102510000895CF93C0918202C2FB992790F9981732
:1025200091F080FBC2F9C09382026091810284E045
:1025300090E00E9422276C2F82E290E00E942227E6
:1025400082E00E946D12CF91089521E030E002C038
:10255000220F331F8A95E2F7809124029091250281
:10256000822B932B0E944512089590930002809332
:10257000FF010E942912089510926E0280911301AA
:10258000EEE6F1E0882361F08091810287FF08C0C8
:102590008EE1DF011D928A95E9F70E9429120895C4
:1025A00086E0F7CFAAE2B0E0E8EDF2E10C94AA26CB
:1025B0008DEA92E02091F100FC012193CF01F2E03D
:1025C000853B9F07B9F78091AE02833009F470C054
:1025D000B8F4813009F447C0823009F4B1C0809169
:1025E000E80083FF7EC28091AD029091AE029A30E6
:1025F00008F077C2E92FF0E0E85AF84D0C94F22683
:102600008A3009F48CC08B3009F46FC0893039F7F7
:102610008091AD02813219F78091B1029091B2029E
:102620000297E8F68091E800877F8093E800809128
:10263000E80082FF38C09091F3008091F200029789
:1026400031F48091F100813011F0863021F48091D5
:10265000F100809388028091E8008B778093E800F6
:102660000E942106BCCF8091AD02813A09F0B7CF1C
:102670008091E800877F8093E8008091B10290917B
:10268000B202892B61F460E289E892E070E00E9476
:10269000CD068091E8008B778093E800A0CF60E0C2
:1026A00090E080E0F3CF8091AB028111C0CF97CF53
:1026B0008091AD02813A09F092CF8091B102909160
:1026C000B202892B09F08BCF8091E800877F80933D
:1026D000E8008091E80080FFFCCF80911301809397
:1026E000F1008091E8008E77B9CF8091AD02813200
:1026F00009F075CF8091B1029091B202892B09F057
:102700006ECF8091E800877F8093E8000E942106C9
:102710008091AF02809313010E94BC1260CF809120
:10272000AD02813209F05BCF8091E800877F809312
:10273000E8000E9421068091B002809387024FCF6B
:102740008091AD02813A09F04ACF8091E800877FFD
:102750008093E8008091E80080FFFCCF80918702A1
:10276000BECF803899F0823809F0BBC18091B102A8
:102770008F70873008F0B5C18093E9008091EB003D
:1027800085FB882780F91092E90006C08091A90294
:102790009091AA02911182609091E800977F9093A6
:1027A000E8008093F1001092F1008091E8008E77AC
:1027B00094C1882309F482C1823009F092C18091CA
:1027C000AF02811185C18091B1028F702FEF280F68
:1027D000263008F086C18093E9002091EB0020FFAD
:1027E00077C1933031F48091EB0080628093EB00ED
:1027F0006FC19091EB0090619093EB0021E030E08D
:1028000001C0220F8A95EAF72093EA001092EA00AD
:102810008091EB008860EACF811163C11091AF0213
:102820001F778091E3008078812B8093E300809173
:10283000E800877F8093E8000E9421068091E800ED
:1028400080FFFCCF8091E30080688093E30082E00A
:10285000111183E08093AB0244C18058823008F0AC
:1028600040C18091AF029091B0028C3D23E092076D
:10287000A1F583E08A838AE289834FB7F894DE0169
:10288000139620E03EE051E2E32FF0E05093570032
:10289000E49120FF03C0E295EF703F5FEF708E2F51
:1028A00090E0EA30C0F0C7968D939D932F5F24315E
:1028B00059F74FBF8091E800877F8093E8006AE274
:1028C00070E0CE0101960E94CD068091E8008B77E2
:1028D0008093E80006C1C096E7CF4091B1025091C5
:1028E000B202292F33272330310509F444C078F58B
:1028F0002130310509F46FC08BE390E0E9E1F5E0A8
:102900002230310509F0EDC02091E800277F2093A7
:10291000E8002091B3023091B4028217930708F4C3
:102920009C0140E02115310509F064C0411162C0ED
:102930008091E80082FDC9CF8091AB02882329F203
:10294000853019F28091E80083FFF2CFBECF2132AB
:102950003105A9F12232310509F0C3C041155105F5
:1029600009F443C04130510509F0BBC086EB90E04B
:10297000E3E2F4E0C9CF992781309105C1F00097D7
:1029800059F0029709F0ADC0E6E6F5E0E4918E2F2C
:1029900090E0E6E6F5E007C0E6E8F5E0E4918E2F8A
:1029A00090E0E6E8F5E0009709F49BC0ADCFE6E7DC
:1029B000F5E0E4918E2F90E0E6E7F5E0F4CF4115E5
:1029C000510571F04130510509F08BC089E090E06C
:1029D000E4E4F5E099CF82E190E0E4E5F5E094CF1E
:1029E00089E090E0EBE2F5E08FCF80E490E0E9ED64
:1029F000F4E08ACF8091AB02882309F466CF85305A
:102A000009F463CF8091E80083FD5FCF8091E800F7
:102A100082FD8ECF8091E80080FF84CF9091F300FB
:102A20008091F2002115310519F08830910550F0A0
:102A300041E0089709F040E08091E8008E778093AC
:102A4000E80070CF44914093F10031962150310954
:102A50000196E8CF803809F044C08091E800877F74
:102A60008093E8008091AC028093F1009ECE8111AA
:102A700038C01091AF021230A0F58091E800877F36
:102A80008093E8001093AC020E942106112311F0FC
:102A900084E005C08091E30087FDFACF81E0809358
:102AA000AB0242E061EC81E00E94400642E261EC50
:102AB00082E00E9440068091AB0213C08091AF0279
:102AC000813079F481E0933009F080E08093AA02AC
:102AD0001092E9008091E800877F8093E8000E94CF
:102AE00021068091E80083FF0AC08091E800877F7B
:102AF0008093E8008091EB0080628093EB00AA96BF
:102B0000E3E00C94C6261F920F920FB60F92112489
:102B10002F933F934F935F936F937F938F939F93E5
:102B2000AF93BF93CF93DF93EF93FF93D091E900DF
:102B3000DF708091EC00C82FC17080FDC0E810925A
:102B4000E9008091F000877F8093F00078940E94E4
:102B5000D2121092E9008091F00088608093F0001A
:102B6000CD2BCF70C093E900FF91EF91DF91CF9112
:102B7000BF91AF919F918F917F916F915F914F9195
:102B80003F912F910F900FBE0F901F9018950E94AC
:102B9000BC122FEF84E39CE0215080409040E1F78D
:102BA00000C0000088E19AE00FB6F894A8958093E1
:102BB00060000FBE90936000FFCF882391F19CEFDF
:102BC000980F913A40F4682F8CE691E00E944C07F0
:102BD0000E94C30D089590E2980F983050F48770CA
:102BE00091E001C0990F8A95EAF7892F0E94BE0BE8
:102BF000EFCF9BE5980F933028F490E080E00E949F
:102C0000C107089598E5980F973128F490E080E087
:102C10000E94AB0708958D3E20F00E9489080E9413
:102C200002120895CF93C82F8823D9F18CEF8C0F0F
:102C3000813AC8F580911301882311F180918102B6
:102C400087FF1EC0EC2FE695E695E695F0E0E45987
:102C5000FE4F828190E04C2F477021E030E002C0AF
:102C6000220F331F4A95E2F782239323892B91F099
:102C70006C2F8CE691E00E944C070E94C30D0AC0A5
:102C8000EEE6F1E084E791E02191C21789F38E1717
:102C90009F07D1F76C2F8CE691E00E9476070E9487
:102CA000C30DCF91089580E28C0F883068F4C7700F
:102CB00021E030E001C0220FCA95EAF780916E0250
:102CC000822B80936E02EBCFEBE5EC0FE33040F408
:102CD000F0E0EC5EFE4F808190E00E94C107E1CF02
:102CE000E8E5EC0FE73150F4F0E0EE0FFF1FE95E8E
:102CF000FE4F808191810E94AB07D3CFCD3E88F2F9
:102D00008C2F0E9444090E940212CBCFB0E0A0E0B9
:102D1000ECE8F6E10C94A5266B01C42FD22FFC0140
:102D200082818823A9F0409375020E94DE1190935E
:102D3000740280937302C77081E001C0880FCA9546
:102D4000EAF70E941F0ECDB7DEB7E8E00C94C1266B
:102D50001091750214133AC080917302909174021D
:102D60000E94CF117C01C6010E948405E816F90675
:102D700068F5C0E2CD0F1D17C1F080E2810F8830E9
:102D800048F4177081E0012E01C0880F0A94EAF719
:102D90000E94180EC83048F481E09D2F977001C042
:102DA000880F9A95EAF70E941F0E802F0E94121634
:102DB000802F0E94DD15C83030F6D77081E001C049
:102DC000880FDA95EAF70E94180EBDCFC77081E030
:102DD00001C0880FCA95EAF7F6CFA8E0B0E0E3EFAC
:102DE000F6E10C94A2268E010F5F1F4F88E0F801D8
:102DF00011928A95E9F785E4C82E81E0D82EF12C4E
:102E0000E12CAA24A394B12CF60181916F018F3F8C
:102E100009F443C0F894E82FE295EF70F0E021A1A7
:102E20008F70A50102C0440F551F8A95E2F7CA01B1
:102E3000922F982B91A392A18095892382A37894B5
:102E400000C0EDE4F1E0912C31E021912F3F09F435
:102E500065C0A22FA295AF70B0E090968C9190E0E3
:102E60002F7002C0959587952A95E2F780FD56C090
:102E7000832F982A330F51E0E235F50731F7F60139
:102E8000319780818F3F11F00E94A00980EA8A95D6
:102E9000F1F7F801EE0DFF1D9082EFEFEE1AFE0A3A
:102EA000F8E0EF16F10409F0AFCF48E050E0B801C8
:102EB00084E092E00E940127892B91F188E0F801DB
:102EC000A4E0B2E001900D928A95E1F781E0809351
:102ED00003020E94DE11909302028093010280910E
:102EE0000102909102020E94CF110597E8F048E09C
:102EF00050E064E072E08FE092E00E940127892BAD
:102F0000C1F088E0E4E0F2E0AFE0B2E001900D92C1
:102F10008A95E1F781E01092030207C080E0A9CF13
:102F2000809103028111DBCF80E02896EBE00C94C6
:102F3000BE2680E0F0CFB0E0A0E0E1EAF7E10C943B
:102F4000A3267C01FC0143815481618180810E9420
:102F5000C50BC82E81113CC061E0C7010E94D50C91
:102F6000EC01F70182818823B1F080914A029091AF
:102F70004B020E94CF11893E934068F00E94DE11FF
:102F800090934B0280934A0210924902809163020F
:102F900080FF0E943510CD3A2DE5D20709F5F701E3
:102FA0008281882331F0809172028823B1F00E94DF
:102FB0001C108091DD01877059F0F7018281882310
:102FC00039F08091820282FF03C082E00E946D127C
:102FD000CDB7DEB7EAE00C94BF260E94EA11E9CF34
:102FE0001091FE0180916E02182B80917202811166
:102FF00023C0123211F40E94EA11C43F2CE5D2071B
:1030000009F4F2C008F08FC0C93D8CE5D80709F477
:10301000E5C0CA3D9CE5D90709F4FEC0C83DECE512
:10302000DE0709F08CC006E221EE41EE68ED7CE59A
:10303000C7010E948616BDCF0E94DE1188579C4EA4
:103040009093700280936F02F70182818823A9F226
:103050001D79C9F5C115F5E5DF07B8F4C11523E5FC
:10306000D20758F6C11530E5D30750F4C11580E4F6
:10307000D807A0F5C63ED10509F4BFCFCE0135C0B3
:10308000C11592E5D907D0F7B8CFC115E9E5DE073C
:1030900050F4C115F8E5DF0708F0AFCFC43125E5DE
:1030A000D20761F7AACFCE0190568115904230F732
:1030B000F7018581807FB9F48D2F8F71823159F0AE
:1030C00028F4823041F00E941C1097CF843109F41B
:1030D00094CF8631C1F710927102F5CFF701858147
:1030E000807F09F48ACFCE0199271092710288322D
:1030F000910548F48E31910560F4049720F382E045
:103100008093710206C08D329105C9F328F48A9725
:10311000D1F60E94C30D71CF8C349105D1F38D325D
:103120009240B9F3D0CFC63FFCE5DF0709F468C091
:1031300008F460C0C73F3CE5D30709F467C0F70156
:103140008281882309F411C410927502C430FDE510
:10315000DF0708F067C0CB3F2CE5D20730F4CE0183
:1031600082509C45449708F068C00E945C10909380
:10317000820280938102C231ECE5DE0709F461C16D
:1031800008F0B2C0C9302CE5D20709F438C108F004
:103190007EC0C5308CE5D80709F421C108F06AC0AB
:1031A000C330ECE5DE0709F412C108F014C18091C8
:1031B00081028160C230DC4509F493C060918102D4
:1031C000C091820284E090E00E9422276C2F82E26C
:1031D00090E00E9422270E94BC12EBCE07E225EE6F
:1031E00045EE69ED7CE524CF06E221EE40EE64EF8A
:1031F0007CE51ECF07E225EE44EE65EF7CE518CFB7
:1032000006E221EE42EE66EF7CE512CF07E225EE04
:1032100046EE67EF7CE50CCF08E221E045EE6AED73
:103220007CE506CFC63A3DE5D30709F49ECFE0F42E
:10323000C2369DE5D90709F498CFC6318CE5D80789
:1032400009F0A7C380916E028A7A91E009F490E0B8
:1032500090938C0169E2811165E38CE691E00E9414
:1032600076070E94C30DA5CECE018E5A9D450397C9
:1032700020F77BCF809181028062C7303CE5D30785
:1032800081F108F4B8C08091810280642AC0CD30F9
:103290009CE5D90709F4BDC088F4809181028E7F36
:1032A000CB30FCE5DF07E9F0809181028C60CC3007
:1032B000DC45B8F0809181028D7F13C0CF303CE5B2
:1032C000D30709F4B6C008F4A8C0C0319CE5D907FB
:1032D00009F4B3C0809181028F7BC131DC4509F0D4
:1032E0006DCF809381026ACFC115FDE5DF0709F438
:1032F000B2C098F5CB3F3CE5D30709F474C0B8F4ED
:10330000C4319CE5D90709F4B4C008F4A0C0C531A4
:10331000DC4509F053CF8091810282FB992790F917
:1033200021E0922790FB82F990FB83F9DACFCD3F21
:103330002CE5D20709F475C008F459C0CE3F8CE5DE
:10334000D80709F472C0809182028360CF3FDC45C8
:1033500009F034CF8093820231CFC236EDE5DE072B
:1033600009F492C088F4C2302DE5D20709F48AC06E
:1033700008F475C060E0C330DD4509F01FCF8EE072
:1033800090E00E9422271ACFCE3A9DE5D907D9F0C6
:1033900058F490918102892F8E7F90FF8160C63A08
:1033A000DD4509F49ECF0ACFCF3A2DE5D20769F16A
:1033B000C03BDD4509F002CF90918202892F877FC3
:1033C00093FF8860C7CF809182028860C3CF8091CD
:1033D0008102826086CF80918102846082CF809159
:1033E000810288607ECF809182028160B3CF80911C
:1033F00082028260AFCF80918102806172CF0E9491
:10340000BC128091810280686CCF80918202877F9C
:10341000A1CF809181028B7F64CF80918102877FD1
:1034200060CF809182028E7F95CF809182028D7FC6
:1034300091CF809181028F7E54CF809181028F7DC8
:1034400050CF0E94BC12809181028F774ACF809129
:103450008102837F46CF809182028C7F7BCF8091D7
:103460008202982F909591708E7F892B90FB81F925
:1034700071CF0E94BC1290918102892F97FB87F92E
:1034800080582FCF61E07BCF90918102892F8F7E72
:1034900094FF806126CF80918C0169E2811165E300
:1034A0008CE691E00E944C07DCCE0E94BC129FEF9C
:1034B000E4E3FCE09150E040F040E1F700C00000A0
:1034C0000E942F078091820282FB882780F991E079
:1034D00089270E948912F7018281C081D1818823C6
:1034E00009F445C0CE010E94DA0B182F682FCE01D7
:1034F0000E94880CBE01812F0E94FA090E942B0AAB
:10350000D82FC92FA82EF7011281D580D2949FE021
:10351000D9228091DD018770C1F01123A9F08C2F91
:10352000807F803421F080E28D0F883070F08091B0
:10353000820282FF0AC082E00E946D128091DD014A
:103540008770CC24C3948111C12CBC2EB2948FE01F
:10355000B822FBE0FB1508F46BC0EB2DF0E0EE5950
:10356000F84D0C94F22681E0B4CF80E0B2CFCE01CA
:103570000E94420C182FBECF0C2F0F70C07F11F08D
:103580000295007F1123B9F0002369F080E28D0FCE
:10359000883010F0A11009C080916E02082B0093B2
:1035A0006E020E94C30D8D2F41C080917102082BC5
:1035B00000937102F6CF8D2F0E94DD150023C1F11B
:1035C000D05ED83010F0A11004C0802F0E94BE0B36
:1035D00006C00095809171020823009371020E9439
:1035E000C30D26C00C2F0F70C07FC03211F00295A2
:1035F000007FAA2059F021E0A21609F466C0112329
:1036000009F470C0DD2009F466C0CDCF209182029C
:1036100022FD39C0112389F1002339F080916E0217
:10362000082B00936E020E94C30D80E00E941216C8
:10363000EB2DE850FF0B349720F40E94D7070E942F
:103640002E10CC20A9F08091DD0180FD11C0F70182
:1036500012828595859585950E94A512C7010E94C5
:103660009B178091DD018595859585950E945B125C
:1036700060E0C7010E94D50CABCC80E00E94DD1554
:103680000023B1F2A2CF112399F09091FE01892F6E
:10369000802BD11003C00E941F0ECACF31E0D3127D
:1036A000FACF22FFC5CF981719F28093FE01C0CF41
:1036B000D11006C00E94B80B802F0E94180EB8CF00
:1036C00081E0D81609F4B4CFF5CF112331F095E09D
:1036D0009D1508F4ADCF802FDECFE4E0ED1508F4A2
:1036E000A7CFEACFDD2041F3F9E3AF1237C12FEFC7
:1036F00037EE83E0215030408040E1F700C0000009
:103700002DC18C2F86958695837069F0813009F0E4
:103710008FCF8D2F9C2F9370111102C090E080E00D
:103720000E94AB0785CF8D2F9C2F9370111102C083
:1037300090E080E00E94C1077BCF8D2F112329F0FC
:103740000E9444090E94021273CF0E948908FACF96
:103750008C2F837009F03FC011116ACF4D2F429515
:1037600046954770440F440F2D2F2F7030E0042EE4
:1037700002C0220F331F0A94E2F790E080E0D4FFEA
:1037800009C08FE090E002C0880F991F4A95E2F7C8
:1037900080959095C695C695C370C23099F078F41F
:1037A0004091FF0150910002C13039F0822B932BE0
:1037B000842395230E94B5123BCF242B352B822BDB
:1037C000932BF8CF822B932B2091FF013091000295
:1037D00082279327EFCF8695112311F08C2F8170CC
:1037E000882309F425CF4D2F429546954770440F05
:1037F000440F2D2F2F7030E0042E02C0220F331FF4
:103800000A94E2F790E080E0D4FF09C08FE090E0F6
:1038100002C0880F991F4A95E2F780959095C6954A
:10382000C695C370C23099F078F44091240250914B
:103830002502C13039F0822B932B842395230E94DB
:103840004512F6CE242B352B822B932BF8CF822BCF
:10385000932B209124023091250282279327EFCFCA
:10386000CF70112329F08C2F0E94A5128D2F13CF1A
:103870008D2F0E94180E8C2F0E945B12D9CE8D2F97
:1038800092EFA91699F19A1570F0E0EFAE16D1F00B
:10389000F1EFAF1691F0112309F45BC0D11083CE84
:1038A0008C2F8F7127C023EFA21639F134EFA312AA
:1038B000F2CF8091820282FD2EC08C2F8F71112356
:1038C000D9F218C0112369F084E08D1508F4B0CE48
:1038D000CF7181E090E002C0880F991FCA95E2F78E
:1038E000B8CF95E09D1508F4A3CEF2CF8C2F8F7141
:1038F0001111C2CF0E94A5129BCE90E080E011234F
:1039000009F49DCFCF7181E090E002C0880F991F2C
:10391000CA95E2F794CF112389F0CF718C2F0E94C2
:10392000A5128091820282FF07C0E8E0CE9FC0010D
:10393000112483608093DD018C2FDCCF81E00E9415
:103940006D12F1E0FD1508F073CE82E00E946D1259
:103950006FCEDD2039F0893309F4C9CE8D2F0E9456
:10396000DD1566CE8C2F8F7187CFC631FCE5DF0762
:1039700009F491CDC33C2CE5D20708F4ACCDC73D8A
:103980003CE5D30708F415CBCE35DD4509F411CB62
:10399000A2CDCB359DE5D90709F4E5CD68F4C11575
:1039A000FCE5DF0709F481CDCF3DDC4509F093CD7F
:1039B0000E946A100E94C715CD353DE5D30709F472
:1039C00081CD08F4D2CDC83ADD45A1F384CDB0E075
:1039D000A0E0EDEEFCE10C94A4268091AA01807F8A
:1039E00009F050C08091A701882309F44BC0C09111
:1039F000DC0186E0B82E8091AB018C1709F442C03F
:103A0000F090A501E090A601C090A801D090A90176
:103A1000A6016E2D8F2D0E94C50BD0E0811137C0FD
:103A2000BC9E8001BD9E100D1124F801E455FE4F8F
:103A300081818E112CC080818F1129C082818111DA
:103A400026C0E380F480EC18FD0860E085EA91E090
:103A50000E94D50C0E948405E816F906C0F48091F6
:103A6000AA018F7080618093AA01F801EF54FE4F84
:103A700080818F708061808385EA91E00E949B172E
:103A80000E94D00BCDB7DEB7E9E00C94C02621969A
:103A9000C770B1CFA1E1B0E0E0E5FDE10C949C2658
:103AA0008C0185E0F801DE011D9601900D928A954A
:103AB000E1F7F801408031806280E380F48060E0CB
:103AC00085EA91E00E94D50C5C0185EAC82E81E070
:103AD000D82E8090A8019090A901A4016091A60120
:103AE0008091A5010E94C50B582E811179C170905B
:103AF000A701C701881999094C0160E0772009F4F2
:103B00001BC1C6010E94D50C0E948405B090AA0179
:103B10008816990608F0C9C04091A8015091A901E2
:103B2000D090A501C090A6018B2D807F6C2D09F04F
:103B300077C08D2D0E94C50B762C81111BC0F8011A
:103B400081818C1117C080818D1114C0611012C049
:103B50008B2D8F7080618093AA0185EA91E00E948D
:103B60009B178091AA01F8018583872D6196E1E179
:103B70000C94B826A701632D842D0E94C50B8111DA
:103B800023C081E08625F82FF170FF2E80FF3EC014
:103B90008091DC012091AB0136E0821317C04D8685
:103BA0003E868D859E850E940E0C292F22952F70B2
:103BB000223000F1243028F59F7001F1F801958141
:103BC000907FE1F4752CD1CF80E0DDCF90E0389F7D
:103BD000F001399FF00D1124E455FE4F418134125C
:103BE00006C04081441203C0428164120FC0019696
:103BF0008770D3CF9F7011F0882321F3805E8830C7
:103C000008F3C8010E949B175F2CDCCF662009F4E3
:103C1000ACCF8091AA0181608093AA01712CA5CFBD
:103C20008D2D0E94C50B811116C0F80181818C1168
:103C300012C080818D110FC061100DC0B582C80106
:103C40000E949B1786E0F801A5EAB1E001900D9271
:103C50008A95E1F78ACFC8010E94A20C882309F156
:103C60006620F9F08091AA01803270F02091A501C0
:103C70003091A60138872F831986FB86EA868C87C8
:103C8000CE0107960E949B1786E0F801A5EAB1E0F5
:103C900001900D928A95E1F70E94E71C77247394B6
:103CA00064CFC8010E949B17F9CF8B2D807F51F400
:103CB00085EA91E00E949B1786E0F60111928A95B1
:103CC000E9F7ACCFA090A5019090A6014091A80182
:103CD0005091A901692D8A2D0E94C50B811113C035
:103CE000F801818189110FC080818A110CC0611097
:103CF0000AC0B582C8010E949B1786E0F6011192A6
:103D00008A95E9F732CFC8010E94A20C882349F2B4
:103D1000662039F28091AA01803208F4B5CF209153
:103D2000A5013091A6013A8329831B82FD82EC8292
:103D30008E83CE010196A6CF85EA91E00E94D50C34
:103D40000E94840588169906C0F6762C662009F430
:103D5000A8CFF090A501E090A6014091A801509154
:103D6000A9016E2D8F2D0E94C50B81112BC0F8016A
:103D700081818E1127C080818F1124C0FCE2AF1693
:103D8000F4E4BF0659F02CE4A21624E7B20631F0A1
:103D90008AE2A81682E4B80609F054CF8091AA01FD
:103DA00080FD50CF982F907F09F44CCFF801858388
:103DB000903F09F444CF982F907F905F8F70892BAC
:103DC00085833DCFC8010E94A20C81115DCF8091F7
:103DD000AA0181608093AA01C8010E949B17C5CEE9
:103DE000662009F45ECFC8010E94A20C782E8823B9
:103DF00009F457CF86E0F801A5EAB1E001900D92F1
:103E00008A95E1F78091A5019091A6010E940E0C80
:103E10000E94E71CAACEA7E1B0E0E1E1FFE10C942B
:103E2000AA264B8B5C8B6D8B7E8B8F8B61111092D6
:103E300071021A8A198A85E0FE017396DE011D96C9
:103E400001900D928A95E1F786E0FE013D96DE0134
:103E5000179601900D928A95E1F7CE0107960E9480
:103E60004A1D811111C086E0FE013796DE011196D0
:103E700001900D928A95E1F74A855B8568858F816F
:103E80000E94C50B882359F016E08091DC019091C7
:103E9000AB01891331C06796E3E00C94C6262091EC
:103EA000AB0130E0C9010196877099274091DC0190
:103EB0004817190699F096E0929FD001939FB00D94
:103EC0001124A455BE4FFE01319601900D929A9592
:103ED000E1F78093AB010E94D00BD6CF0E94BC12B9
:103EE0001092AB011092DC0186E0E5EAF1E0DF011F
:103EF0001D928A95E9F7C8CF819FC001112484558E
:103F00009E4F0E944A1D882331F28091DC0190E08F
:103F10000196877099278093DC01B7CF1F921FB657
:103F20001F9211248F939F93AF93BF9380917C0234
:103F3000811113C080917D0290917E02A0917F0239
:103F4000B09180024196A11DB11D80937D02909396
:103F50007E02A0937F02B0938002BF91AF919F91A8
:103F60008F911F901FBE1F901895CDB7DEB7A697F3
:103F70000FB6F894DEBF0FBECDBF85B7806885BF92
:103F800085B7806885BF84B7877F84BF0FB6F894F4
:103F9000A895809160008861809360001092600015
:103FA0000FBE80E890E00FB6F89480936100909384
:103FB00061000FBE8EE999E090936B0180936A01D6
:103FC0000E94A7050E9472068091E200846080939F
:103FD000E20078948091AB028823A1F01091E9006F
:103FE0001F709091EC00892F817090FD80E8182B54
:103FF0001092E9008091E80083FD0E94D2121F70A8
:104000001093E90082E084BD93E095BD9AEF97BDDF
:1040100080936E0005E411E0D8018D918D018F3FF2
:1040200011F00E94A009B1E00D341B07A9F70DE4BF
:1040300011E082E5E82E81E0F82EF80181918F01F0
:104040008F3F11F00E94A009E016F106B1F788E059
:10405000EFE0F2E0DF01282F1D922A95E9F7E4E076
:10406000F2E0DF011D928A95E9F790E080E00E947E
:104070001C27883E9E4F11F00E946A1082E090E05B
:104080000E940E27809317020E945C109093820278
:10409000809381020E94ED16EFEFF6E721E0E150F8
:1040A000F0402040E1F700C000000E94ED16809132
:1040B0000F0280FF08C06FEF7FEF90E080E00E946A
:1040C00040270E942F0783E090E00E940E2790E097
:1040D0000E94B5126091240270912502611571054C
:1040E00009F40DC176956795617080E00E94FF0F1D
:1040F00083E08093460280E28093B5020E949B2574
:104100006DE070E085ED92E00E94290E892BE9F5C3
:104110008091460263E070E081FDF3C082ED92E0A1
:104120000E94290E892B89F56DE070E082EC92E007
:104130000E94290E892B49F50E944007605A75415B
:104140008F4F9F4F609368027093690280936A0259
:1041500090936B02E8EBF2E080E092E0DF019C01DB
:104160001D9221503040E1F7F093BF04E093BE046C
:104170008FEF9FEF9093B7028093B60281E0809318
:104180006D0280936C021092470280910C028111A3
:1041900033C090E080E00E941C27883E9E4F21F0B3
:1041A0000E946A100E943E1088E090E00E9416274C
:1041B0006093630270936402809365029093660239
:1041C0006E7F71F40E943E1088E090E00E941627F6
:1041D0006093630270936402809365029093660219
:1041E0000E94E4078091630280FF03C086950E94CD
:1041F000C60F81E080930C0281E0809322023E98FA
:10420000469A54985C9A8FE891E00197F1F700C0C4
:1042100000002091220243E252E0FA018E2F841B1B
:10422000821708F471C00E94DE1190934D028093B2
:104230004C020E94DE1190934B0280934A020E942E
:10424000351082EE92E090935F0280935E0280E0F0
:1042500091E0909379028093780210E4612E80912E
:10426000AB0200E112E1853009F4A7C00E94ED160F
:10427000B8E1EB2EB2E0FB2E0FE012E020E232E0DC
:10428000D801F70191918D912E173F0709F4A3C032
:104290009817C1F3D12CD801CD908D01F7019190E1
:1042A0007F019C1419F19C24B12CAA24A394892D7C
:1042B0008A21A1F0B8A2D9A291E08C2D8A2109F41B
:1042C00090E09AA30E94DE118160782F9CA38BA3BB
:1042D00048A159A16AA18CA10E940B1FB394AA0CFA
:1042E000F5E0BF12E4CFF7013197C082D39428E004
:1042F000D212D1CF0E944007EE24E3948DC060E03B
:10430000F4CE8FEC92E00CCF86B186FB882780F943
:104310004C9904C090E0892B819380CF92E0FBCF31
:104320008091AB02843009F438C0809163028E7FA3
:10433000809363029FEFA0E7B2E09150A040B040AD
:10434000E1F700C000000E942C0F80E00E942E10B8
:104350000E94530E10927C02E8E1F0E00FB6F89450
:10436000A895E09360000FBE6092600083B7817FE4
:10437000846083BF83B7816083BF7894889583B757
:104380008E7F83BF0FB6F894A895809160008861F6
:1043900080936000109260000FBE8091AA02882373
:1043A00061F00E94ED16EFE0F2E081918111A3C36C
:1043B00027E132E02E173F07C1F78091AB0285302D
:1043C00009F4AECF0E94BC120E94D7070E942E10A3
:1043D0000E9435104BCF98135DCF0E94DE118C01E7
:1043E00080910D0290910E0208171907A1F08FEF2E
:1043F0008B8F8C8F1D8E0E94DE118160782F9F8F96
:104400008E8F4B8D5C8D6D8D8F8D0E940B1F109349
:104410000E0200930D02E12C80917202882369F054
:104420000E94DE1120916F0230917002821B930B6B
:104430008F3F9F4710F40E941C10B12CF12CFDEF10
:10444000AF2E99249394ACEF8A2E80912202B81655
:1044500008F44AC0F1100E94400780916D02882341
:1044600009F43BC188EB92E09093BF048093BE04B3
:104470008DE193E00E94B20D8BE193E00E94B20DBA
:1044800089E193E00E94B20D20912402309125022F
:10449000832F9927009709F4C4C09C0188E0A901E3
:1044A00074E0569547957A95E1F74115510511F05D
:1044B0008C5F9A01A90156954795569547954115E8
:1044C000510511F08E5F9A0136952795232B09F03F
:1044D0008F5F833009F4B0C008F0A5C0823009F4C2
:1044E00023C28AEE92E0AAC00B2D10E0E6B1E6FBF3
:1044F000EE27E0F94C9993C080E08E2BD801AD5D9A
:10450000BD4FEC919E2F9370891709F486C0EE0F72
:10451000EE0FE82BEC93EF70F0E0EE5AFE4FC8017F
:104520008F5D9D4F6C018081D6019C91890F8C938A
:1045300020E084308CF1F801E05EFD4F80818F5FD8
:1045400080830E94DE11B98A8A8A9B8A8160782FD3
:104550009D8B8C8B4B2D5CEF61E08D890E940B1F36
:10456000EFE3FFE13197F1F700C000000E94DE1198
:10457000BE8A8F8A188E8160782F9A8F898F4B2DF3
:104580005CEF60E08A8D0E940B1F8FE39FE1019733
:10459000F1F700C0000021E0D6018C918D3F8CF531
:1045A000F801E05EFD4F8081815080830E94DE1122
:1045B000BF82A88699868160782F9B878A874B2D3A
:1045C0005DEF61E08B850E940B1FEFE3FFE1319708
:1045D000F1F700C000000E94DE11BC86AD861E8689
:1045E0008160782F988B8F874B2D5DEF60E08889F5
:1045F0000E940B1F8FE39FE10197F1F700C00000BD
:1046000021E0D6018C91082E000C990B64E070E03B
:104610000E94DE26F6018083F22AB39416CF82E050
:104620006CCF80E03CCF843009F47BC1853009F049
:1046300058CF8CEE92E002C08AEF92E00E94B20D59
:1046400010916E02812F817109F071C182E193E0B6
:104650000E94B20D812F847409F06CC18CE093E04C
:104660000E94B20D812F827209F067C185E093E04C
:104670000E94B20D18788FEF92E011F081E093E084
:104680000E94B20D80916D02882371F02091B602D4
:104690003091B7022115310539F08091470261E070
:1046A00070E0882309F44DC180916C028823A9F041
:1046B0000E944007009168021091690220916A02ED
:1046C00030916B02601B710B820B930B6F3F7F4F1E
:1046D0008F4F9F4710F40E94530EE11001C0F1105C
:1046E0000E946E0E86E0E5E5F2E0DE011196019093
:1046F0000D928A95E1F7109257021092580210928B
:10470000590210925A028B819C81892B09F44AC06C
:1047100080915302909154020E94CF119C0190917C
:104720004F02992309F402C225313105D8F19F3F88
:1047300019F09F5F90934F021B81112359F00E9443
:1047400024099FEF11160CF491E0899F802D11240C
:10475000809357021C81112359F00E9424099FEF76
:1047600011160CF491E0899F802D1124809358023A
:10477000309157023323B1F020915802222391F057
:1047800045EB3403C0011124992309F4A4C190938B
:10479000570245EB240390011124332309F49FC1F0
:1047A000309358028D819E81892B09F44AC08091F3
:1047B0005102909152020E94CF119C0190914E02A1
:1047C000992309F4AEC121353105D8F19F3F19F085
:1047D0009F5F90934E021D81112359F00E940209A0
:1047E0009FEF11160CF491E0899F802D1124809386
:1047F00059021E81112359F00E9402099FEF1116E0
:104800000CF491E0899F802D112480935A023091FD
:1048100059023323B1F020915A02222391F045EB43
:104820003403C0011124992309F45DC19093590206
:1048300045EB240390011124332309F458C130932C
:104840005A0246E050E0BE016F5F7F4F85E592E07F
:104850000E940127892B61F48091570290915802A0
:10486000892B90915902892B90915A02892B11F032
:104870000E94021286E0FE013196A5E5B2E00190A9
:104880000D928A95E1F70E94D707182F8091480270
:10489000181739F0109348020E944007812F0E9498
:1048A0002E1080914C0290914D020E94CF11893EB2
:1048B000934008F4D4CC0E94DE1190934D02809373
:1048C0004C028091630280FFCACC80914A02909191
:1048D0004B020E94CF118131974258F0109149024A
:1048E0000E94DE1190934B0280934A021F5F109347
:1048F0004902809149028F3108F4AFCC10924902ED
:10490000809163028E7F80936302EFEFF0E722E0F5
:10491000E150F0402040E1F700C000000E942C0F61
:104920009CCC85EF92E08ACE81EF92E087CE84E145
:1049300093E08ECE8EE093E093CE87E093E098CE26
:104940008F5F082F10E02B01082E02C0440C551C6D
:104950000A94E2F7A90144215521452B89F390914E
:10496000460290FD44C08295880F807680930E01A8
:104970009801369527953695279520931101815EEC
:1049800080930F011092120124E630E047E050E0DE
:104990006CE071E088E70E943B26892B09F084CE09
:1049A000A80195E0440F551F9A95E1F780914602C2
:1049B00080FD2BC048545D4F04E610E020E230E05B
:1049C00060E488E70E945C26892B09F06DCE0E9486
:1049D0006E0EC201809590954090B6025090B7023D
:1049E000482259225092B7024092B6025DCE880FFB
:1049F000880F880F80930E0110921101895F8093B8
:104A00000F0183E080931201BFCFE6E2F2E080E283
:104A1000DF011D928A95E9F7E6E6F1E0FEA3EDA33A
:104A200002E611E087E0A82E99249394ADA1BEA1DF
:104A30002D91BEA3ADA3F80121908F01240E352E38
:104A4000311CC10188549D4F1C01E22FF0E0EA5D4A
:104A5000FD4F30E020E07A2C721AB92C022E01C0F2
:104A6000BB0C0A94EAF7610190E0D6018D916D01CB
:104A70008B21672D691B6770862E062E000C770B25
:104A8000B82F01C0BB0F8A94EAF78B2E7195619500
:104A900071096770772701C086956A95EAF7882AB9
:104AA0008081882A80829F5F9830F9F62F5F3F4F80
:104AB00031962830310579F6EAE6F1E02DA13EA1E4
:104AC000E217F30709F0B2CF04E610E020E230E08D
:104AD00046E252E075CF81E0809357025ACE81E0E2
:104AE000809358025FCE81E080935902A1CE81E08D
:104AF00080935A02A6CE09BD19BD09B400FEFDCFB0
:104B00008091D8008F7D8093D8008091E0008260F2
:104B10008093E0008091E00081FDFCCF0E94BC12F8
:104B20004CCC2B30310508F053CE8BCE2B303105D9
:104B300008F0FFCD37CE1092B9008CE08093B8001A
:104B40000895B0E0A0E0E7EAF5E20C94A226B82EC2
:104B5000EB010E94DE116C01EE24E394F12CC431D0
:104B6000D10560F025E0E22EF12CCF3FDC0731F0DB
:104B7000CE0164E170E00E9487267B0184EAA82EC2
:104B800094E8992E1092BC00A092BC000E94DE1105
:104B90008C018091BC0087FF0DC08091B900887F97
:104BA0008830F9F08091B900887F8031D1F00FEF23
:104BB0001FEF08C0C8010E94CF11E816F90648F798
:104BC0000EEF1FEFCF3FDC07E9F2C6010E94CF11C5
:104BD000C817D907B8F6C801CDB7DEB7EBE00C941B
:104BE000BE26B092BB009092BC000E94DE118C01E8
:104BF0008091BC0087FF0AC08091B900887F88310E
:104C000011F08034A1F610E000E0E5CFC8010E9469
:104C1000CF11E816F90660F7D3CF0F931F93CF9308
:104C2000DF93EB018093BB0084E88093BC000E947B
:104C3000DE118C018091BC0087FF11C02091B9006A
:104C4000287F81E090E0283211F490E080E0919597
:104C500081959109DF91CF911F910F910895CF3FD9
:104C6000DC0741F3C8010E94CF11C817D90710F71C
:104C70008EEF9FEFEFCFB0E0A0E0E1E4F6E20C941E
:104C8000A5266B018A017901B9010E94A125E601DF
:104C90000C0D1D1DC017D10711F097FF08C024E9A6
:104CA0002093BC00CDB7DEB7E8E00C94C126B70175
:104CB00089910E940D26EECFB0E0A0E0E2E6F6E298
:104CC0000C94A526C62F6A017901B8010E94A1257E
:104CD00097FD0CC0B8018C2F0E940D26E601EC0C4C
:104CE000FD1CCE15DF0511F097FF08C024E92093C5
:104CF000BC00CDB7DEB7E8E00C94C126B8018991BD
:104D00000E940D26EECF84E98093BC000895AA1B73
:104D1000BB1B51E107C0AA1FBB1FA617B70710F0A6
:104D2000A61BB70B881F991F5A95A9F780959095D8
:104D3000BC01CD0108952F923F924F925F926F92E6
:104D40007F928F929F92AF92BF92CF92DF92EF921B
:104D5000FF920F931F93CF93DF93CDB7DEB7CA1B9C
:104D6000DB0B0FB6F894DEBF0FBECDBF09942A88C7
:104D7000398848885F846E847D848C849B84AA846F
:104D8000B984C884DF80EE80FD800C811B81AA81FC
:104D9000B981CE0FD11D0FB6F894DEBF0FBECDBFC7
:104DA000ED010895991B79E004C0991F961708F04A
:104DB000961B881F7A95C9F78095089597FB072E53
:104DC00016F4009407D077FD09D00E94872607FCCF
:104DD00005D03EF4909581959F4F0895709561950B
:104DE0007F4F0895EE0FFF1F0590F491E02D099479
:104DF000FB01DC0102C005900D9241505040D8F7F4
:104E00000895FB01DC0104C08D910190801921F40B
:104E100041505040C8F7881B990B0895F999FECF6F
:104E200092BD81BDF89A992780B50895A6E1B0E0BA
:104E300044E050E00C944827A8E1B0E042E050E0A4
:104E40000C944827262FF999FECF92BD81BDF89A80
:104E5000019700B4021639F01FBA20BD0FB6F894BE
:104E6000FA9AF99A0FBE08950396272F0E942327D6
:104E70000E942227252F0E942327242F0C942327CA
:104E80000196272F0E9423270C942227DC01CB01B7
:104E9000FC01F999FECF06C0F2BDE1BDF89A31964A
:104EA00000B40D9241505040B8F70895F894FFCFE8
:104EB000B113D9137115D91371150C142D14711563
:104EC0002A153715BC1ABC1AF21AF21A811B9D1B3F
:0C4ED000181B181BA81B301C3F1C3F1CAB
:104EDC002C07EC0ECB0EC60EC10E2B070021007F4B
:104EEC0022000301818283E200E900EA00B500B6EA
:104EFC0000B700CD008301CC008A019201940121FE
:104F0C0002230224022502260227022A02B300B43D
:104F1C00006F00700031333236F4F5F6F792353409
:104F2C00C69700FF0100010000FFFF000001000117
:0A4F3C00FF0000081018181008000C
:00000001FF
