:100000000C94C4040C94E1040C94E1040C94E104F9
:100010000C94E1040C94E1040C94E1040C94E104CC
:100020000C94E1040C94E1040C94FD0E0C948713E1
:100030000C94BD1C0C94E1040C94E1040C94E104B8
:100040000C94E1040C94E1040C94E1040C94E1049C
:100050000C94E1040C94D60F0C94E1040C94E1048C
:100060000C94E1040C94E1040C94E1040C94E1047C
:100070000C94E1040C94E1040C94E1040C94E1046C
:100080000C94E1040C94E1040C94E1040C94E1045C
:100090000C94E1040C94E1040C94E1040C94E1044C
:1000A0000C94E1040C94E1040C94E10414001A0093
:1000B00008001500170004001600070009000A00D8
:1000C0001D001B00060019000500E000E100E20031
:1000D00001512C00130012000C0018001C0033000A
:1000E0000F000E000D000B00380037003600100026
:1000F00011002A00E500E700025128002900240031
:100100002500260027002E002100220023002F00BA
:100110002D001E001F002000300001000100010022
:100120000100000045004200410040003100440051
:100130003F003E003D00340043003C003B003A00DD
:1001400035000100010001000100AE002B00240277
:100150002502260227022E022102220223022F025A
:100160002D021E021F0220023002010001000100C8
:100170000100390049004B004E004C0031024F0095
:100180005200510050003402000000004D004A00AF
:1001900035020100010001000100000000DA0281C7
:1001A000FFD9F1DB20A4A62EAF00A0C000A1C8009B
:1001B000AED580A81FD300408D14200020004755E5
:1001C0004900200053686674002000416C740020D0
:1001D000004374726C002000200020000001010127
:1001E00001010101010102020202020202020203F4
:1001F00003030303030303040404040404040505C4
:100200000505050606060606070707070708080886
:1002100008090909090A0A0A0B0B0B0C0C0C0D0D35
:100220000D0E0E0E0F0F0F101011111112121313CD
:100230001414151516161717181819191A1A1B1B46
:100240001C1D1D1E1E1F20202122222324242526A2
:1002500026272829292A2B2C2D2D2E2F30313232DA
:10026000333435363738393A3B3C3D3E3F404142E6
:10027000434445464748494A4C4D4E4F50515354CC
:10028000555658595A5B5D5E5F6162646566686980
:100290006B6C6D6F7072737577787A7B7D7E808200
:1002A000838587888A8C8E8F91939596989A9C9E49
:1002B000A0A2A3A5A7A9ABADAFB1B3B5B7BABCBE59
:1002C000C0C2C4C6C9CBCDCFD1D4D6D8DBDDDFE226
:1002D000E4E7E9EBEEF0F3F5F8FAFDFF00AF00AE6E
:1002E00005010902A10185020901A1000509190101
:1002F00029081500250195087501810205010930BD
:1003000009311581257F9502750881060938158107
:10031000257F950175088106050C0A38021581258F
:100320007F950175088106C0C005010980A101857E
:100330000319012AB700150126B700950175108130
:1003400000C0050C0901A101850419012AA00215AC
:100350000126A002950175108100C005010906A1C2
:10036000018506050719E029E7150025019508759F
:100370000181020507190029EF1500250195F07587
:10038000018102050819012905950575019102955C
:100390000175039101C005010906A101050719E0D6
:1003A00029E7150025019508750181029501750859
:1003B00081010507190029FF150026FF0095067524
:1003C0000881000508190129059505750191029517
:1003D0000175039101C009023B00020100A0FA0966
:1003E0000400000103010100092111010001224064
:1003F0000007058103080001090401000103000052
:100400000009211101000122B60007058203200026
:10041000011201000200000008EDFE410800010188
:100420000200010E037000690063006100340030B7
:100430000000000E037A007A0065006E0065006718
:100440000000000403090407087F0807003E5B4F13
:100450005B3E003E6B4F6B3E001C3E7C3E1C00181A
:100460003C7E3C18001C577D571C001C5E7F5E1CA8
:100470000000183C180000FFE7C3E7FF0000182445
:10048000180000FFE7DBE7FF0030483A060E0026C1
:100490002979292600407F05050700407F05253F73
:1004A000005A3CE73C5A007F3E1C1C0800081C1CFC
:1004B0003E7F0014227F2214005F5F005F5F000612
:1004C000097F017F00006689956A00606060606056
:1004D0000094A2FFA2940008047E04080010207E6D
:1004E00020100008082A1C0800081C2A0808001E02
:1004F00010101010000C1E0C1E0C0030383E38304E
:1005000000060E3E0E060000000000000000005F26
:10051000000000000700070000147F147F1400246F
:100520002A7F2A120023130864620036495620509D
:1005300000000807030000001C22410000004122C7
:100540001C00002A1C7F1C2A0008083E0808000026
:100550008070300000080808080800000060600093
:10056000002010080402003E5149453E0000427F31
:100570004000007249494946002141494D33001865
:1005800014127F10002745454539003C4A4949313E
:1005900000412111090700364949493600464949B9
:1005A000291E00000014000000004034000000007C
:1005B00008142241001414141414000041221408D9
:1005C000000201590906003E415D594E007C12119E
:1005D000127C007F49494936003E41414122007F5B
:1005E0004141413E007F49494941007F09090901D4
:1005F000003E41415173007F0808087F0000417FA1
:100600004100002040413F01007F08142241007F4B
:1006100040404040007F021C027F007F0408107FA2
:10062000003E4141413E007F09090906003E41511B
:10063000215E007F091929460026494949320003F5
:10064000017F0103003F4040403F001F2040201F2A
:10065000003F4038403F00631408146300030478EF
:100660000403006159494D4300007F4141410002AC
:100670000408102000004141417F000402010204EF
:100680000040404040400000030708000020545450
:100690007840007F284444380038444444280038D7
:1006A0004444287F0038545454180000087E09023E
:1006B0000018A4A49C78007F080404780000447DFE
:1006C0004000002040403D00007F10284400000012
:1006D000417F4000007C04780478007C08040478A2
:1006E00000384444443800FC1824241800182424FA
:1006F00018FC007C080404080048545454240004E6
:10070000043F4424003C4040207C001C2040201C2E
:10071000003C4030403C004428102844004C90905D
:10072000907C004464544C440000083641000000B2
:1007300000770000000041360800000201020402B8
:10074000003C2623263C0000000000000040404002
:10075000F0F8F8FF38FFF8F83FF8F8FF38FFF8F83E
:10076000F040404000000000000080C0C0C0800099
:1007700000C0C08000000080C0C000C0C000008079
:10078000C0C00000000000C0C0C0C0C000C0C000A9
:100790000000000000000000000000000000000059
:1007A0000000000000000000000000000000000049
:1007B0000000000000000000000000000000000039
:1007C000000000000000C0F0F8FC3E1E0601000022
:1007D000007F4141417F007F4141417F000080C057
:1007E000E07E5B4F5BFEC00000C000DCD7DEDEDEDB
:1007F000D7DC00C000000000000000000000000086
:10080000000000000000000000000000004949490D
:10081000FFFFFFFFE0DFBFBF00BFBFDFE0FFFFFF65
:10082000FF49494900000000001F3F6060E0BF1F12
:10083000007F7F071E381E077F7F007F7F0E1F3BD4
:10084000716000000000007F7F0C0C0C007E7E00B9
:100850007F7E0303007F7E03037E7E03037F7E0093
:100860000F3E703C063C703E0F00327B49493F7E94
:10087000007F7E0303001E3F69696F2600000000B1
:10088000000000000000030F1F3F3C787060000074
:10089000007F4141417F007F4141417F00307B7FAC
:1008A0007830202030787F3B0003000F7F0F0F0F40
:1008B0007F0F0003000000000000000000000000A7
:1008C0000000000000000000000000000001010125
:1008D000070F0F7F0F7F0F0F7E0F0F7F0F7F0F0F01
:1008E00007010101000000000000000000000101FC
:1008F00000000000000000000000000000000000F8
:1009000000000000000000000000000000000000E7
:1009100000000000000000000000000000000000D7
:1009200000000000000000000000000000000000C7
:1009300000000000000000000000000000000000B7
:1009400000000000000000000000000000000000A7
:100950000000000000000000000000000000000097
:100960000000000000000000000000000000000087
:100970000000000000000000000000000000000077
:10098000000000000000000011241FBECFEFDAE0DD
:10099000DEBFCDBF11E0A0E0B1E0E4EAF7E402C0C1
:1009A00005900D92AA36B107D9F724E0AAE6B1E086
:1009B00001C01D92A73BB207E1F70E94E41C0C9412
:1009C000BA230C940000E8EDF0E080818E7F8083F4
:1009D0001092E2001092DA001092E100A0EEB0E076
:1009E0008C9181608C9380818F77808319BCA7ED77
:1009F000B0E08C918E7F8C9380818F7E808310926B
:100A00007A0208952091E4003091E50095E6A9016D
:100A10002091EC00822F817020FF06C08091E800B9
:100A200080FF06C080E008952091E80022FD1AC0F2
:100A300080919F02882389F0853089F08091EB00B6
:100A400085FD0FC02091E4003091E5004217530767
:100A5000F9F29150E1F684E0089582E0089583E090
:100A6000089581E00895EF92FF920F931F93CF9323
:100A70007C018B010E940205C82F811117C0809153
:100A8000E80085FD0BC08091E8008E778093E80038
:100A90000E940205882399F3C82F08C0F7018191AD
:100AA0007F018093F1000150110949F78C2FCF91FC
:100AB0001F910F91FF90EF9008958091A10287FF01
:100AC00013C08091E80082FF06C08091E8008B7718
:100AD0008093E80004C080919F028111F2CF0895B5
:100AE00080919F028823D9F38091E80080FFF8CF9E
:100AF0008091E8008E77ECCF982F9093E900242F17
:100B0000762F50E0891731F07091EC002091ED00C4
:100B10005091F00021FD07C09F5F973071F78093DF
:100B2000E90081E008953091EB003E7F3093EB00C7
:100B30003091ED003D7F3093ED003091EB0031605E
:100B40003093EB007093EC002093ED005093F00095
:100B50002091EE0027FDE0CF80E00895B0E0A0E016
:100B6000E4EBF5E00C940923C8EDD0E088818F7E9A
:100B70008883E7EDF0E080818160808384E082BF3C
:100B800081E080937A0288818E7F888302EE10E074
:100B9000F80110821092DA0081EEC82ED12CF601F5
:100BA000108288818F778883888180688883888194
:100BB0008F7D888319BC10929F021092A002109220
:100BC0009E0210929D0290EEE92EF12CF701808199
:100BD0008B7F808388818160888342E060E080E051
:100BE0000E947C05F60180818E7F8083F8018081E0
:100BF00081608083808188608083F70180818E7F1F
:100C00008083888180618883CDB7DEB7E8E00C946B
:100C10002523FC018091A7029091A80286179707CF
:100C2000A0F06115710529F49091E8009E779093EA
:100C3000E80090E06115710551F4911108C08091B0
:100C4000E80082FF34C080E00895BC01F2CF8091BB
:100C50009F028823C1F18530C1F18091E80083FDB6
:100C600030C08091E80082FDEACF8091E80080FFEB
:100C7000E1CF8091F3002091F200382F61157105CA
:100C800019F02830310558F091E02830310509F08D
:100C900090E02091E8002E772093E800CBCF81915F
:100CA0008093F100615071092F5F3F4FE7CF809132
:100CB0009F02882341F0853041F08091E80083FF56
:100CC000BECF81E0089582E0089583E008950895FD
:100CD00080917C02089587E797E7909301088093BD
:100CE000000888E19AE00FB6F894A8958093600018
:100CF0000FBE90936000FFCF2FB7F8946091710200
:100D00007091720280917302909174022FBF0895C6
:100D1000209113012223C9F02091750227FF15C0ED
:100D2000E62FE695E695E695EE31D8F4E80FF92F33
:100D3000F11D677021E030E001C0220F6A95EAF7EB
:100D400020958281282322830895FC0132960896FB
:100D50002191621303C0DF0111971C92E817F90774
:100D6000B9F70895209113012223C1F02091750253
:100D700027FF14C0E62FE695E695E695EE31F8F4E8
:100D8000E80FF92FF11D677021E030E001C0220F5C
:100D90006A95EAF78281822B82830895FC0132965C
:100DA0002FEF30E04191641751F02F3F19F44111BA
:100DB00001C0232F3F5F3630A9F72F3F09F4089574
:100DC000820F911D27FD9A95FC0162830895209161
:100DD0006E0230916F022817390771F090936F02FD
:100DE00080936E02E0916C02F0916D02309721F0D9
:100DF0000084F185E02D0995089520916A023091D3
:100E00006B022817390771F090936B0280936A0286
:100E1000E0916C02F0916D02309721F00680F7812D
:100E2000E02D09950895E0916C02F0916D023097E4
:100E300029F00190F081E02D0995089580E0089552
:100E400080915F02982F9E7F39F480915F028170BC
:100E5000826080935F0208958430B8F70895AF925E
:100E6000BF92DF92EF92FF920F931F93CF93DF9386
:100E7000082F162FE901E42FF0E0E452FE4F611134
:100E800010C0E4915E2F4E2F4983E8835A83DF918F
:100E9000CF911F910F91FF90EF90DF90BF90AF9097
:100EA0000895E62EF12C4491D42EE42FF0E026E0B4
:100EB000829FC00111242FEF30E0B9010E94EB2284
:100EC000802F90E0880F991F55E5569FD001579FBE
:100ED000B00D11248A1B9B0B982F990F890F590174
:100EE000AE18BF08AE9ED001AF9EB00DBE9EB00D35
:100EF00011245B2F189F80011124012F1127590104
:100F0000A01AB10AAE9E8001AF9E100DBE9E100DBC
:100F100011245901A81AB108AE9CC001AF9C900DD4
:100F2000BE9C900D1124892F9927281B390B2E9FC9
:100F3000C0012F9F900D3E9F900D1124E92F62302C
:100F40007105A1F050F46115710509F49DCF613070
:100F5000710581F0EB2F512F97CF6430710569F047
:100F600080F06630710509F48FCFF4CFE42F4B2F5A
:100F7000592F8ACFE42F412F87CFEB2F542F492FA2
:100F800083CF4B2F5D2DE12F7FCF409155028D3EBA
:100F900059F48091560287FF0DC0109256024111FC
:100FA0000BC010924D0208C08E3E81F48091560213
:100FB00018169CF3442381F08091570290915802B7
:100FC000892B09F05AC010924C0208958F3E49F4C3
:100FD00047FFF0CF10925502809156028111ECCF5D
:100FE000E0CF803F19F41416ACF3E4CF9091570290
:100FF000893F29F41916F4F610925702DBCF8A3F85
:1010000019F497FFD7CFF8CF909158028B3F29F46E
:1010100097FFD0CF10925802CDCF8C3F19F41916FC
:10102000CCF3C8CF9FE0980F983090F4815F990B74
:1010300021E030E0B90102C0660F771F8A95E2F720
:10104000CB01809590915402892380935402B2CFB2
:101050008D3F31F480914E028E7F80934E02AACF55
:101060008E3F21F480914E028D7FF7CF8F3F09F0A4
:10107000A1CF80914E028B7FF0CF089580914E02D8
:1010800080FD16C081FD16C082FD16C080914C0205
:101090008823A1F0883280F428E0829FC0011124C7
:1010A00068E270E00E944223862F672B39F0089592
:1010B00082E0089584E0089588E0089581E008952D
:1010C00080914E0280FD14C081FD14C082FD16C0C7
:1010D00080914D02882381F08E3180F420E5829F3B
:1010E000C00111246EE170E00E944223862F089512
:1010F00084E1089588E2089588E0089580E50895E0
:101100008D3E31F40E9460088195809356020895C7
:101110008E3E19F40E946008F8CF8F3E31F40E9491
:1011200060088195809355020895803F19F40E94CC
:101130006008F8CF893F29F40E943E088093570247
:1011400008958A3F21F40E943E088195F7CF8B3F96
:1011500031F40E943E0881958093580208958C3F97
:1011600019F40E943E08F8CF9FE0980F983070F471
:10117000815F990B21E030E001C0220F8A95EAF7E8
:1011800080915402822B8093540208958D3F31F454
:1011900080914E02816080934E0208958E3F21F42B
:1011A00080914E028260F7CF8F3FB9F780914E0257
:1011B0008460F1CF80E00895F894E82FE295EF7015
:1011C000F0E031A1282F2F7081E090E001C0880F5E
:1011D0002A95EAF7982F9095932391A392A1892BB2
:1011E00082A3789408959091750292FF06C0282FEB
:1011F00028712830F9F4877F846093FF06C0282F78
:1012000028712831F1F4877E84612091760220FFD5
:1012100006C0382F38713830D9F4877F816021FFBC
:1012200006C0282F28712831D1F4877E816194FD72
:10123000877E0895282F24712430F9F68B7F8860EB
:10124000DCCF282F2471243101F78B7E8861DDCF1C
:10125000382F3171313019F78E7F8860E0CF282F19
:101260002171213121F78E7E8861E1CF972F78306F
:10127000A8F4653098F470E025E0929F600D711D30
:101280001124FB0198E2899FE00DF11D1124EE0F5E
:10129000FF1FE455FF4F85919491089580E090E001
:1012A0000895CF93DF93EC0182389105B1F108F0F6
:1012B00040C08133910509F49DC048F589329105FC
:1012C00009F48DC08A9709F49CC0C11521E5D207A5
:1012D00008F0C3C0C11530E5D30708F01EC1C83EF1
:1012E000D10508F0A3C0C13ED10588F5C83AD105A3
:1012F00008F08EC0C53AD10508F007C1C130D1054C
:1013000031F1209721F1C430D10508F545C085336E
:10131000910509F45FC0C997C1F680917502837089
:1013200009F043C18091760283FF11C0C9E2D0E089
:101330000EC0833E910599F170F4803E910501F154
:10134000823E910511F68091750282FD21C0CE0189
:10135000DF91CF910895863E910561F1873E910519
:1013600071F1843E910509F0B0CF8091760281FF42
:10137000EECF80917502C7EED0E084FD0DC0E7CFBF
:101380008091750280FD33C09091760290FFDFCF8F
:10139000C3EED0E084FFDBCFD0E0C0E0D8CF8091B7
:1013A000750282FDFFC09091760290FDFEC084FF21
:1013B000CECFF2CF8091750283FDDDCFC8CF809173
:1013C000750283FDF5C09091760291FFF0CFC4EED7
:1013D000D0E0BDCF8091750285FFB9CFA7CF8091B6
:1013E000750285FDE8C08091760283FFB0CFC9E326
:1013F000D0E0ADCF8091750286FFA9CFCAE2D0E0E0
:10140000A6CF8091750286FFA2CFC1E3D0E09FCF27
:10141000CF3BD10508F6C85AD0E0CC0FDD1FC95E1E
:10142000DE4F0990D881C02DD46491CFC11540E220
:10143000D40758F4C11581E0D80708F088CFCD3E15
:10144000D10508F4A9CFD06582CFC11520E4D20719
:1014500008F4A2CFDF70D06A7ACFC11535E5D30783
:1014600018F5C11544E5D40708F084C0C11583E51B
:10147000D80708F06BC0C11522E5D20708F461C097
:10148000CE018370992721E030E002C0220F331F84
:101490008A95E2F7C695C69580E2C89FE0011124BF
:1014A000C22BD32BDC6853CFC11539E5D307A8F481
:1014B000C11548E5D40708F062C0C11586E5D80714
:1014C00008F06ACF8C2F0E94F308C82FD0E0DC2FE1
:1014D000CC27CC27DF71D0623ACFC1152AE5D207DD
:1014E00008F452C0CE0190568115904208F054CFB6
:1014F0008D2F8F710E94F30890E0982F88278827FE
:101500009F719C012C2BE901E6CFC55AD0E0CC5E3F
:10151000DE4FC881D0E0D0641ACFCE018370992706
:1015200021E030E002C0220F331F8A95E2F7C69512
:10153000C69540E2C49FE0011124C22BD32BDD6885
:1015400006CFDC2FCC27C16FD06A01CFCE018370CC
:10155000992721E030E002C0220F331F8A95E2F77D
:10156000C695C69540E2C49FE0011124C22BD32B3F
:10157000DA68EDCEDC2FCC27C46FD06AE8CEDC2F42
:10158000CC27C06FD06AE3CE8C2F8F700E94F308F7
:1015900034E0D695C7953A95E1F7CF709C2FEC01D2
:1015A000D069D5CEC2EED0E0D2CEC0EED0E0CFCE64
:1015B000C6EED0E0CCCEC5E3D0E0C9CE8091FB0131
:1015C00081111092FB010895809590912302982338
:1015D0009093230208958091D8019091A7019813C8
:1015E00001C008958F5F8770FACFB0E0A0E0EBEF05
:1015F000FAE00C9408237C010091090210910A0280
:101600008091FC019091FD01082B192BCFE0D0E0D7
:10161000CC24C394D12CBC2EC6010C2E02C0880F42
:10162000991F0A94E2F780239123892B49F421978B
:1016300090F7B12C8B2DCDB7DEB7E9E00C942423C5
:10164000B7018C2F0E9436090E945109019779F346
:10165000F1CFCF93DF93EC010E94F50ABE010E9407
:1016600036090E945109DF91CF910895983078F59D
:10167000853068F5E82FF0E085E0989FE00DF11DDA
:1016800011249E2F977083E0F695E7958A95E1F7F0
:10169000EE0FFF1FEE0FFF1FE357FE4F50E040E03D
:1016A00080E0219130E0092E02C0369527950A94FA
:1016B000E2F721703327042E01C0220F0A94EAF7C3
:1016C000822B4F5F5F4F4430510559F7089580E0FA
:1016D0000895983098F5853088F5E82FF0E085E09A
:1016E000989FE00DF11D11248E2F877041E001C0FD
:1016F000440F8A95EAF783E0F695E7958A95E1F736
:10170000EE0FFF1FEE0FFF1FE357FE4F30E020E00C
:1017100070E05191DF011197CB01022E02C0969526
:1017200087950A94E2F78170819585278423852720
:101730008C932F5F3F4F2430310559F70895FC01FA
:1017400083819481892B29F08081918189238F3F26
:1017500051F480E00895843FE1F717C0883EA8F077
:10176000813FB9F712C0808191810E94290B929527
:101770009F70963099F358F4925F9F70923048F7BB
:10178000803F19F040F7883E20F781E008959A5F86
:10179000F4CFCF93DF93682F81E06A3019F06D307A
:1017A00031F480E00E94490CDF91CF91089580913F
:1017B000B5049091B60426E0FC01AFEAB4E00190D4
:1017C0000D922A95E1F7603E08F458C026E0FC012E
:1017D00011922A95E9F7C091B504D091B60446E07C
:1017E00050E0BE018FEA94E00E9465239E012F5ACB
:1017F0003240892B41F1C90145E0969587954A957C
:10180000E1F741E050E0BA0102C0660F771F8A9508
:10181000E2F7CB016091AD027091AE02862B972B5F
:10182000B9016B5F7F4FE5E076956795EA95E1F743
:1018300002C0440F551F6A95E2F7842B952B9093B5
:10184000AE028093AD022A5F3F4F4091AC02642FFD
:1018500070E0C9010E94EB22481B463010F4240FAF
:10186000311D211572E0370710F030E020E02155DE
:101870003D4F3093B6042093B50496CFF6E06F9FAA
:10188000B0011124695B7B4F46E050E00E945C236D
:10189000A2CFCF93382FE091B504F091B604EF5A60
:1018A000F2402091AC02622F70E0CF010E94EB2247
:1018B000281B822F332361F066E00E943623C82F55
:1018C000C15010F4CF91089580E20E94C90BF8CF67
:1018D0009F01280F311D2115324018F080E0F0E003
:1018E000E0E08E0F9F2F911D81559D4F9093B60480
:1018F0008093B504E7CFCF93DF93EC01FE01849191
:10190000811106C081E00E94490CDF91CF910895BA
:101910000E94C90B2196F2CF809123029091FA0187
:10192000892B80936C019091FB019923A1F0892B65
:1019300080936C01809113018823E1F180917502FD
:1019400087FF38C08EE1EEE6F1E090E08150A0F52F
:1019500091110E94DE0A40E250E06AED71E08CE6EF
:1019600091E00E946523892B21F180E2ECE6F1E011
:10197000AAEDB1E001900D928A95E1F7E0916C0239
:10198000F0916D023097A9F080911301882359F0EE
:101990008091750287FF07C080916C0180936D0173
:1019A00086E080936C010280F381E02D8CE691E06B
:1019B0000995089586E0C7CF2191222339F29F5FD0
:1019C000C5CF882321F00E94E40A0E948C0C089560
:1019D000882339F090912302982B909323020E9440
:1019E0008C0C08958093770270937902609378024B
:1019F00080919F02843001F582E08093E9008FEFAF
:101A00009091E800815095FD06C095ED9A95F1F70B
:101A100000008111F5CF8091E80085FF0DC050E0F6
:101A200040E063E070E087E792E00E943305809138
:101A3000E8008E778093E8000895BC0184E00E945E
:101A4000F20C0895BC0183E00E94F20C08959C0101
:101A500082E08093E9009FEF8091E800915085FD3E
:101A600006C085ED8A95F1F700009111F5CF8091C0
:101A7000E80085FF0CC050E040E066E070E0C9017E
:101A80000E9433058091E8008E778093E8000895E6
:101A9000CF93DF93EC01809113018823B1F1809102
:101AA000750287FF32C060E282E08093E9008FEF29
:101AB0009091E800815095FD06C095ED9A95F1F75B
:101AC00000008111F5CF8091E80085FF1BC0809157
:101AD000130170E050E040E0811104C050E040E0AC
:101AE00068E070E0CE010E9433058091E8008E77B7
:101AF0008093E80080E2FE01ADE7B2E001900D9234
:101B00008A95E1F7DF91CF91089568E081E0CDCF2C
:101B100080915F0280FF27C0539A3BB1377F2BB182
:101B200028604FB7F8948CE592E0FC015191CF0109
:101B300068E02BB9000000C057FF3BB9550F00000B
:101B400000C000C000C03BB900C06A9591F7F2E048
:101B50008F359F0751F74FBF8FE594E00197F1F75D
:101B600000C00000089510925D0210925C02109275
:101B70005E02D2CFA3E0B0E0E0ECFDE00C940C23D9
:101B800080915F0280FF2BC08170826080935F0232
:101B900080FF25C01091620200916102F090600206
:101BA00091E0909359028E7F823099F49E012F5FCD
:101BB0003F4F412F602F8F2D0E942F078B819981DE
:101BC0002A8120935D0290935C0280935E020E94C2
:101BD000880DF092600200936102109362022396D6
:101BE000E5E00C942823EFE5F2E0808181608083BA
:101BF00086950E94BA0D0895B0E0A0E0E2E0FEE014
:101C00000C9409236C017B0164E670E088E70E9474
:101C10000522EC0197FD12C010E000E0F601E00F94
:101C2000F11F849164E670E00E947122EC01892B1F
:101C300029F40F5F1F4F0E151F0581F70E94E72241
:101C4000CE01CDB7DEB7E8E00C9425238091680281
:101C500090916902911103C091E08927089588232A
:101C600069F062E070E08EED92E00E94FC0D892B3D
:101C700019F08091680208951092680280916802BC
:101C8000EBCFCF93C0916802809169028823D1F095
:101C90000E947C06605A75418F4F9F4F609364028B
:101CA000709365028093660290936702C11108C029
:101CB00062E070E08CED92E00E94FC0D892B29F02F
:101CC000C09168028C2FCF91089581E080936802C3
:101CD000F7CFCF92DF92EF92FF92EFE5F2E083E051
:101CE000808311828FEF828383831482C080D180AE
:101CF000E280F3800E942007B701A60188E090E00F
:101D00000E949823FF90EF90DF90CF900895CF939B
:101D100084E090E00E947223C82F82E290E00E944B
:101D20007223982F8C2FCF91089568EE7EEF90E06C
:101D300080E00E94A42360E082E090E00E9486237D
:101D400060E083E090E00E9486231092FD011092F3
:101D5000FC0160E084E090E00E94862364E082E27F
:101D600090E00E94862360E085E090E00E94862358
:101D700060E086E090E00E9486236FEF87E090E0CD
:101D80000E94862340E050E0BA0188E090E00E9483
:101D9000982360E08DE090E00E94862340E050E0D0
:101DA000BA0188E190E00E94982360E087E190E02A
:101DB0000E94862340E050E0BA018CE190E00E944E
:101DC000982370E060E080E290E00E94A42340E06D
:101DD00050E0BA0188E190E00E94982340E050E092
:101DE000BA018FE090E00E94982340E050E0BA01F1
:101DF00083E190E00E94982308951F920F920FB6FE
:101E00000F9211242F933F934F935F936F937F9380
:101E10008F939F93AF93BF93EF93FF938091E100D4
:101E200082FF09C08091E20082FF05C08091E1003D
:101E30008B7F8093E1008091DA0080FF24C0809145
:101E4000D80080FF20C08091DA008E7F8093DA0076
:101E50008091D90080FF9DC080E189BD82E189BD6C
:101E600009B400FEFDCF81E080939F0280917A0249
:101E7000811109C00E94E3040E94AE058091E20036
:101E800084608093E2008091E10080FF17C0809120
:101E9000E20080FF13C08091E2008E7F8093E20019
:101EA0008091E20080618093E2008091D80080629E
:101EB0008093D80019BC85E080939F028091E10057
:101EC00084FF2BC08091E20084FF27C080E189BDA0
:101ED00082E189BD89B5982F917080FFFBCF8091F9
:101EE000D8008F7D8093D8008091E1008F7E809311
:101EF000E1008091E2008F7E8093E2008091E20019
:101F000081608093E2008091A002882309F447C099
:101F100084E080939F0280919F028091E10083FF83
:101F200027C08091E20083FF23C08091E100877F7A
:101F30008093E10082E080939F021092A002809142
:101F4000E1008E7F8093E1008091E2008E7F80939C
:101F5000E2008091E20080618093E20042E060E074
:101F600080E00E947C058091F00088608093F00002
:101F7000FF91EF91BF91AF919F918F917F916F9161
:101F80005F914F913F912F910F900FBE0F901F9037
:101F9000189519BC10929F0210927A0274CF80910A
:101FA000E30087FD93E090939F02B5CF78941F9252
:101FB0001FB61F9211248F939F93AF93BF9380916D
:101FC000710290917202A0917302B0917402019615
:101FD000A11DB11D8093710290937202A0937302B0
:101FE000B0937402BF91AF919F918F911F901FBECC
:101FF0001F9018959C014FB7F894809171029091B1
:102000007202A0917302B09174024FBF821B930BB6
:1020100008952FB7F8948091710290917202A09167
:102020007302B09174022FBF08950E9409109C01A1
:102030009091550280915602982B21F030935202D4
:10204000209351029091570280915802982B21F0D1
:102050003093500220934F02E0916C02F0916D0298
:10206000309749F082E0809353020480F581E02D9F
:1020700083E592E00995089590E080E00E94FD06D6
:1020800090E080E00E94E7061092FA010E948C0C1A
:1020900086E0E3E5F2E0DF011D928A95E9F7109210
:1020A0004D0210924C0210924E020E94151008959B
:1020B00090930A02809309020E943C10089521E047
:1020C00030E002C0220F331F8A95E2F72095309549
:1020D0008091090290910A02822393230E94581052
:1020E00008959091D901809589238093D901282F53
:1020F000277091F4282F082E000C330B921713062B
:1021000059F09091760292FF07C085958595859547
:102110000E945F101092D9010895CF93C09176026A
:10212000C2FB992790F9981791F080FBC2F9C093F0
:1021300076026091750284E090E00E9486236C2F05
:1021400082E290E00E94862382E00E947110CF918B
:10215000089521E030E002C0220F331F8A95E2F794
:102160008091090290910A02822B932B0E945810B1
:1021700008959093FD018093FC010E943C10089506
:102180001092230280911301EEE6F1E0882361F0C2
:102190008091750287FF08C08EE1DF011D928A954C
:1021A000E9F70E943C10089586E0F7CFAAE2B0E07C
:1021B000ECEDF0E10C940E2381EA92E02091F10025
:1021C000FC012193CF01F2E0893A9F07B9F7809192
:1021D000A202833009F470C0B8F4813009F447C01A
:1021E000823009F4B1C08091E80083FF7EC2809103
:1021F000A1029091A2029A3008F077C2E92FF0E094
:10220000E454FC4D0C9456238A3009F48CC08B3076
:1022100009F46FC0893039F78091A102813219F732
:102220008091A5029091A6020297E8F68091E800BD
:10223000877F8093E8008091E80082FF38C090910A
:10224000F3008091F200029731F48091F100813027
:1022500011F0863021F48091F10080937C0280910E
:10226000E8008B778093E8000E945D05BCCF8091E9
:10227000A102813A09F0B7CF8091E800877F80936F
:10228000E8008091A5029091A602892B61F460E29A
:102290008DE792E070E00E9409068091E8008B775C
:1022A0008093E800A0CF60E090E080E0F3CF8091E1
:1022B0009F028111C0CF97CF8091A102813A09F08E
:1022C00092CF8091A5029091A602892B09F08BCF25
:1022D0008091E800877F8093E8008091E80080FF8C
:1022E000FCCF809113018093F1008091E8008E77FC
:1022F000B9CF8091A102813209F075CF8091A502FA
:102300009091A602892B09F06ECF8091E800877F1B
:102310008093E8000E945D058091A30280931301E1
:102320000E94C01060CF8091A102813209F05BCF82
:102330008091E800877F8093E8000E945D0580918E
:10234000A40280937B024FCF8091A102813A09F0D1
:102350004ACF8091E800877F8093E8008091E80071
:1023600080FFFCCF80917B02BECF803899F082380D
:1023700009F0BBC18091A5028F70873008F0B5C10C
:102380008093E9008091EB0085FB882780F910920B
:10239000E90006C080919D0290919E029111826099
:1023A0009091E800977F9093E8008093F10010925D
:1023B000F1008091E8008E7794C1882309F482C1EE
:1023C000823009F092C18091A302811185C1809170
:1023D000A5028F702FEF280F263008F086C180935A
:1023E000E9002091EB0020FF77C1933031F4809118
:1023F000EB0080628093EB006FC19091EB009061E5
:102400009093EB0021E030E001C0220F8A95EAF7BB
:102410002093EA001092EA008091EB008860EACFF6
:10242000811163C11091A3021F778091E30080782E
:10243000812B8093E3008091E800877F8093E80000
:102440000E945D058091E80080FFFCCF8091E30051
:1024500080688093E30082E0111183E080939F0203
:1024600044C18058823008F040C18091A30290910D
:10247000A4028C3D23E09207A1F583E08A838AE2DF
:1024800089834FB7F894DE01139620E03EE051E2D5
:10249000E32FF0E050935700E49120FF03C0E29552
:1024A000EF703F5FEF708E2F90E0EA30C0F0C7967C
:1024B0008D939D932F5F243159F74FBF8091E80092
:1024C000877F8093E8006AE270E0CE0101960E9467
:1024D00009068091E8008B778093E80006C1C096DA
:1024E000E7CF4091A5025091A602292F3327233030
:1024F000310509F444C078F52130310509F46FC085
:102500008BE390E0E6EDF3E02230310509F0EDC019
:102510002091E800277F2093E8002091A7023091C6
:10252000A8028217930708F49C0140E021153105A9
:1025300009F064C0411162C08091E80082FDC9CFFA
:1025400080919F02882329F2853019F28091E8005A
:1025500083FFF2CFBECF21323105A9F122323105FE
:1025600009F0C3C04115510509F443C0413051057C
:1025700009F0BBC086EB90E0E0EEF2E0C9CF99270E
:1025800081309105C1F0009759F0029709F0ADC074
:10259000E3E2F4E0E4918E2F90E0E3E2F4E007C0A0
:1025A000E3E4F4E0E4918E2F90E0E3E4F4E00097BC
:1025B00009F49BC0ADCFE3E3F4E0E4918E2F90E00B
:1025C000E3E3F4E0F4CF4115510571F041305105DA
:1025D00009F08BC089E090E0E1E0F4E099CF82E17E
:1025E00090E0E1E1F4E094CF89E090E0E8EEF3E000
:1025F0008FCF80E490E0E6E9F3E08ACF80919F02FC
:10260000882309F466CF853009F463CF8091E80010
:1026100083FD5FCF8091E80082FD8ECF8091E8003E
:1026200080FF84CF9091F3008091F2002115310555
:1026300019F08830910550F041E0089709F040E02A
:102640008091E8008E778093E80070CF44914093AA
:10265000F1003196215031090196E8CF803809F018
:1026600044C08091E800877F8093E8008091A002B9
:102670008093F1009ECE811138C01091A3021230D8
:10268000A0F58091E800877F8093E8001093A00276
:102690000E945D05112311F084E005C08091E300E4
:1026A00087FDFACF81E080939F0242E061EC81E0F8
:1026B0000E947C0542E261EC82E00E947C058091F0
:1026C0009F0213C08091A302813079F481E093309E
:1026D00009F080E080939E021092E9008091E8006A
:1026E000877F8093E8000E945D058091E80083FF6A
:1026F0000AC08091E800877F8093E8008091EB001A
:1027000080628093EB00AA96E3E00C942A231F9248
:102710000F920FB60F9211242F933F934F935F9315
:102720006F937F938F939F93AF93BF93CF93DF93D9
:10273000EF93FF93D091E900DF708091EC00C82FF8
:10274000C17080FDC0E81092E9008091F000877FA1
:102750008093F00078940E94D6101092E900809146
:10276000F00088608093F000CD2BCF70C093E9001B
:10277000FF91EF91DF91CF91BF91AF919F918F9199
:102780007F916F915F914F913F912F910F900FBE6D
:102790000F901F9018950E94C0102FEF84E39CE0CB
:1027A000215080409040E1F700C0000088E19AE0AD
:1027B0000FB6F894A895809360000FBE90936000C8
:1027C000FFCF882391F19CEF980F913A40F4682F46
:1027D0008CE691E00E9488060E948C0C089590E29D
:1027E000980F983050F4877091E001C0990F8A9546
:1027F000EAF7892F0E94E40AEFCF9BE5980F933008
:1028000028F490E080E00E94FD06089598E5980F76
:10281000973128F490E080E00E94E70608958D3E0D
:1028200020F00E94C5070E9415100895CF93C82F6D
:102830008823D9F18CEF8C0F813AC8F58091130170
:10284000882311F18091750287FF1EC0EC2FE69559
:10285000E695E695F0E0E459FE4F828190E04C2F3A
:10286000477021E030E002C0220F331F4A95E2F7A3
:1028700082239323892B91F06C2F8CE691E00E94A8
:1028800088060E948C0C0AC0EEE6F1E084E791E035
:102890002191C21789F38E179F07D1F76C2F8CE611
:1028A00091E00E94B2060E948C0CCF91089580E2C4
:1028B0008C0F883068F4C77021E030E001C0220F2F
:1028C000CA95EAF780912302822B80932302EBCFF3
:1028D000EBE5EC0FE33040F4F0E0EC5EFE4F80817E
:1028E00090E00E94FD06E1CFE8E5EC0FE73150F4FF
:1028F000F0E0EE0FFF1FE95EFE4F808191810E94A4
:10290000E706D3CFCD3E88F28C2F0E9480080E942C
:102910001510CBCFCF93CAEA6111C9EA8C2F0E9460
:1029200016148C2F0E94E11380E0CF9108950F932D
:102930001F93CF93DF93C62FD42F022FFC018281E8
:102940008823A9F06093AB020E9409109093AA0219
:102950008093A902C77081E001C0880FCA95EAF789
:102960000E94E80CDF91CF911F910F910895809103
:10297000AB02681335C08091A9029091AA020E940F
:10298000FA0F883C910560F510E21D0FCD17B9F0E4
:1029900080E28C0F883040F4C77081E001C0880F5E
:1029A000CA95EAF70E94E10C183048F481E09D2FA7
:1029B000977001C0880F9A95EAF70E94E80C802F63
:1029C0000E941614802F0E94E113183058F6D77019
:1029D00081E001C0880FDA95EAF70E94E10CC2CFCE
:1029E000C77081E001C0880FCA95EAF7F6CFA8E06A
:1029F000B0E0EDEFF4E10C9406238E010F5F1F4F62
:102A000088E0F80111928A95E9F785E4C82E81E003
:102A1000D82EF12CE12CAA24A394B12CF60181919B
:102A20006F018F3F09F443C0F894E82FE295EF70EF
:102A3000F0E021A18F70A50102C0440F551F8A95B7
:102A4000E2F7CA01922F982B91A392A18095892336
:102A500082A3789400C0EDE4F1E0912C31E0219163
:102A60002F3F09F465C0A22FA295AF70B0E09096F9
:102A70008C9190E02F7002C0959587952A95E2F78A
:102A800080FD56C0832F982A330F51E0E235F507B9
:102A900031F7F601319780818F3F11F00E94DC08F9
:102AA00080EA8A95F1F7F801EE0DFF1D9082EFEFB5
:102AB000EE1AFE0AF8E0EF16F10409F0AFCF48E095
:102AC00050E0B80181E092E00E946523892B91F1EA
:102AD00088E0F801A1E0B2E001900D928A95E1F75B
:102AE00081E0809300020E9409109093FF0180937F
:102AF000FE018091FE019091FF010E94FA0F05975F
:102B0000E8F048E050E061E072E08EE092E00E9480
:102B10006523892BC1F088E0E1E0F2E0AEE0B2E0AD
:102B200001900D928A95E1F781E01092000207C0B2
:102B300080E0A9CF809100028111DBCF80E0289650
:102B4000EBE00C94222380E0F0CFA5E0B0E0EBEACC
:102B5000F5E10C9405237C01FC0183819481892B90
:102B600031F08081918189238F3F09F087C42596B8
:102B7000ECE00C9421230E94F50A182F682F89811C
:102B80009A810E94690B69817A81812F0E9436099E
:102B90008C01F70182818823B1F0809148029091E5
:102BA00049020E94FA0F893E934068F00E94091082
:102BB00090934902809348021092470280915F02ED
:102BC00080FF0E94F30D043F2CE5120709F489C031
:102BD00030F5093D8CE5180709F47FC00A3D9CE5F6
:102BE000190709F48AC0083DECE51E0731F526E215
:102BF00041EE61EEC7010E9497148091D901877060
:102C000009F4B5CFF7018281882309F4B0CF809110
:102C1000760282FFACCF82E00E947110A8CF063FFF
:102C2000FCE51F0709F465C008F45FC027E245EE24
:102C300066EE073F3CE51307E9F2F701828188233E
:102C400009F42DC41092AB020430FDE51F0708F013
:102C500057C00B3F2CE5120730F4C80182509C4549
:102C6000449708F058C00E94870E90937602809394
:102C700075020231ECE51E0709F458C108F0A4C042
:102C800009302CE5120709F42FC108F06EC0053099
:102C90008CE5180709F418C108F05AC00330ECE5B8
:102CA0001E0709F409C108F00BC18091750281600B
:102CB00002302CE5120709F484C06091750210916E
:102CC000760284E090E00E948623612F82E290E009
:102CD0000E9486230E94C01090CF27E245EE65EE49
:102CE00089CF26E241EE60EE85CF27E245EE64EE25
:102CF00081CF26E241EE62EE7DCF28E241E0EFCFC8
:102D0000063A3DE5130709F4AECFE0F402369DE53F
:102D1000190709F4A8CF06318CE5180709F0D4C3C8
:102D2000809123028A7A91E009F490E090938C01DB
:102D300069E2811165E38CE691E00E94B2060E948F
:102D40008C0C5BCFC8018E5A9D45039720F78BCF23
:102D500080917502806207303CE5130791F108F419
:102D6000BFC08091750280642CC00D309CE51907AE
:102D700009F4C4C090F4809175028E7F0B30FCE59D
:102D80001F07F9F0809175028C600C302CE512075A
:102D9000C0F0809175028D7F14C00F303CE51307A1
:102DA00009F4BCC008F4AEC000319CE5190709F471
:102DB000B9C0809175028F7B0131ECE51E0709F0E7
:102DC0007CCF8093750279CF0115FDE51F0709F4CB
:102DD000B7C0A8F50B3F3CE5130709F479C0C0F470
:102DE00004319CE5190709F4B9C008F4A5C0053100
:102DF000FCE51F0709F061CF8091750282FB9927DE
:102E000090F921E0922790FB82F990FB83F9D9CFCA
:102E10000D3F2CE5120709F479C008F45DC00E3FA0
:102E20008CE5180709F476C08091760283600F3F25
:102E30009CE5190709F041CF809376023ECF023618
:102E4000EDE51E0709F495C090F402302DE5120758
:102E500009F48DC008F478C060E003308DE51807F0
:102E600009F02BCF8EE090E00E94862326CF0E3A09
:102E70009DE51907E9F060F490917502892F8E7F26
:102E800090FF8160063AFDE51F0709F49ACF15CF40
:102E90000F3A2DE5120771F1003B3DE5130709F0EC
:102EA0000CCF90917602892F877F93FF8860C4CFE3
:102EB000809176028860C0CF80917502826081CF58
:102EC0008091750284607DCF80917502886079CF92
:102ED000809176028160B0CF809176028260ACCF23
:102EE0008091750280616DCF0E94C0108091750243
:102EF000806867CF80917602877F9ECF8091750230
:102F00008B7F5FCF80917502877F5BCF8091760248
:102F10008E7F92CF809176028D7F8ECF80917502C9
:102F20008F7E4FCF809175028F7D4BCF0E94C01056
:102F3000809175028F7745CF80917502837F41CF55
:102F4000809176028C7F78CF80917602982F909531
:102F500091708E7F892B90FB81F96ECF0E94C010FB
:102F600090917502892F97FB87F980582ACF61E0ED
:102F700079CF90917502892F8F7E94FF806121CF48
:102F800080918C0169E2811165E38CE691E00E94F9
:102F90008806D5CE0E94C0109FEFE4E3FCE091507C
:102FA000E040F040E1F700C000000E946B06809115
:102FB000760282FB882780F991E089270E948D1094
:102FC000F701828100811181882309F445C0C8017D
:102FD0000E94F50AD82E682FC8010E94690BB8011B
:102FE0008D2D0E9436090E9451098C01882EF7010F
:102FF000D280B580B2943FE0B3228091D90187702E
:10300000C1F0AD2CDD20B1F0812F807F803421F024
:1030100080E2800F883068F08091760282FF09C0DC
:1030200082E00E9471108091D9018770AA24A39434
:103030008111A12C912E92942FE09222FBE0F915A0
:1030400008F476C0E92DF0E0EA53FC4D0C945623C9
:1030500081E0B4CF80E0B2CFC8010E94360BD82EF9
:10306000BECF212F2F70C22E107F19F0C29490EF87
:10307000C922DD20B9F0CC2069F080E2800F8830D1
:1030800010F0811009C080912302C82AC092230247
:103090000E948C0C802F4AC08091FA01C82AC092ED
:1030A000FA01F6CF802F0E94E113CC2009F440C032
:1030B000005E083010F0811004C08C2D0E94E40ADC
:1030C00006C0C0948091FA01C822C092FA010E9401
:1030D0008C0C2EC0312F3F70C32E107F103219F090
:1030E000C29480EFC822882089F081E0881609F414
:1030F00077C0DD2009F481C0BB2009F477C0F70157
:10310000858180FFC7CF8F70858370C02091760244
:1031100022FD43C0DD20D9F1CC2039F0809123027B
:10312000C82AC09223020E948C0C80E00E941614D0
:10313000E92DE850FF0B349710F40E941307AA20E2
:10314000A9F08091D90180FD11C0F7011282859507
:10315000859585950E94A910C7010E94A5158091AB
:10316000D9018595859585950E945F1085E0F701C9
:10317000DE01119601900D928A95E1F709811A817D
:10318000C8010E94360BB8010E943609F0CC80E0DD
:103190000E94E113CC2061F290CFDD20A1F090914C
:1031A000FB01892F8C29B11003C00E94E80CC0CF0D
:1031B000E1E0BE12FACF22FFBBCF981709F4B8CFD7
:1031C0008093FB01B5CFB11006C00E94DE0A8C2DA2
:1031D0000E94E10CADCFF1E0BF1609F4A9CFF5CF05
:1031E000DD2031F025E02B1508F4A2CF8C2DDDCFAA
:1031F00034E03B1508F49CCFEACFBB2041F3F9E360
:103200008F1235C12FEF37EE83E0215030408040E0
:10321000E1F700C000002BC1812F86958695837051
:1032200061F0813009F084CFC8019370D11002C0E1
:1032300090E080E00E94E7067BCFC8019370D11038
:1032400002C090E080E00E94FD0672CF802FDD205A
:1032500029F00E9480080E9415106ACF0E94C507BD
:10326000FACF812F837009F03FC0D11061CF402F7A
:10327000429546954770440F440F802F8F7090E021
:10328000042E02C0880F991F0A94E2F730E020E074
:1032900004FF09C02FE030E002C0220F331F4A951F
:1032A000E2F720953095169516951370123099F027
:1032B00078F44091FC015091FD01113039F0822BDE
:1032C000932B842395230E94B91032CF842B952B06
:1032D000822B932BF8CF822B932B2091FC013091E2
:1032E000FD0182279327EFCF8695DD2011F0812FF6
:1032F0008170882309F41CCF402F42954695477072
:10330000440F440F802F8F7090E0042E02C0880F6E
:10331000991F0A94E2F730E020E004FF09C02FE093
:1033200030E002C0220F331F4A95E2F72095309516
:10333000169516951370123099F078F440910902A1
:1033400050910A02113039F0822B932B842395235C
:103350000E945810EDCE842B952B822B932BF8CF07
:10336000822B932B2091090230910A028227932706
:10337000EFCF1F70DD2029F0812F0E94A910802F30
:1033800014CF802F0E94E10C812F0E945F10D0CEBD
:10339000802F92EF891699F1981570F0E0EF8E1654
:1033A000D1F0F1EF8F1691F0DD2009F45BC0B11080
:1033B00071CE812F8F7127C023EF821639F134EF40
:1033C0008312F2CF8091760282FD2EC0812F8F7101
:1033D000DD20D9F218C0DD2069F084E08B1508F4F7
:1033E000A7CE1F7181E090E002C0880F991F1A9547
:1033F000E2F7B8CF95E09B1508F49ACEF2CF812F73
:103400008F71D110C2CF0E94A91092CE90E080E0BF
:10341000DD2009F49DCF1F7181E090E002C0880F8C
:10342000991F1A95E2F794CFDD2089F01F71812F43
:103430000E94A9108091760282FF07C0E8E01E9FDB
:10344000C001112483608093D901812FDCCF81E0FA
:103450000E947110F1E0FB1508F06ACE82E00E9434
:10346000711066CEBB2039F0893309F4CBCE802FA2
:103470000E94E1135DCE812F8F7187CF85E0DE0141
:10348000119601900D928A95E1F7F70122818981C9
:103490009A81211170CB0E94360B182F74CB063104
:1034A000FCE51F0709F46CCD033C2CE5120708F47A
:1034B00087CD073D3CE5130708F49FCB0E358DE51E
:1034C000180709F49ACB7CCD0B359DE5190709F453
:1034D000BFCD68F40115FCE51F0709F45BCD0F3D76
:1034E0001C4509F06DCD0E94950E0E94CB130D3541
:1034F0003DE5130709F45BCD08F4ACCD083A1D4552
:10350000A1F35ECD1F93CF93DF938091A601807FBF
:1035100009F049C08091A301882309F444C0809137
:10352000D801D091A7016091A1017091A201A09151
:10353000A401B091A501C62FC72316E0D81799F1B1
:1035400090E0109711F0CF3F19F401968770F6CFF5
:10355000189F9001199F300D1124F901E855FE4F75
:1035600041814713F2CF40814613EFCF4281411191
:10357000ECCF438154814A1B5B0B483C510528F733
:103580008091A6018F7080618093A601F901E355B7
:10359000FE4F80818F708061808381EA91E00E947C
:1035A000A5150E94EB0ADF91CF911F910895A1E12B
:1035B000B0E0EDEDFAE10C9407238C0185E0F80111
:1035C000DE011D9601900D928A95E1F7F801E280E7
:1035D00081EAA82E81E0B82E6091A4017091A50126
:1035E0006115710509F426C19091A1014091A201D4
:1035F000892F84238F3F09F41DC120813181C3802D
:10360000D480F090A301F601E61BF70BFF2009F42C
:10361000DCC08091A601582F507FE83CF10508F0EE
:103620009FC051116BC0FE2C431314C0921312C0E3
:10363000E11010C08F7080618093A601C5010E94C7
:10364000A5158091A601F80185838F2D6196EAE08A
:103650000C942323C114D10429F0822F83238F3F9C
:1036600009F003C180E0F82FF170DF2E80FF3CC02D
:103670008091D8014091A70156E0841315C02D8791
:103680003E878D859E850E94290B292F22952F70BC
:103690002230F0F0243018F59F70F1F0F801958198
:1036A000907FD1F4D12C1EC090E0589FF001599F1B
:1036B000F00D1124E855FE4F6181361306C060817C
:1036C000261303C06281E6120FC001968770D5CF22
:1036D0009F7011F0882331F3805E883018F3C801A1
:1036E0000E94A515FD2CB1CFEE2009F4AECF80913C
:1036F000A60181608093A601F12CA7CF431306C0D9
:10370000921304C0F801EE2009F479C0C8010E94A8
:103710009F0B882309F1EE20F9F08091A6018032F9
:1037200070F02091A1013091A20138872F83198672
:10373000DB86CA868C87CE0107960E94A51586E097
:10374000F801A1EAB1E001900D928A95E1F70E949B
:10375000821AFF24F39479CFC8010E94A515F9CFEE
:1037600051110AC081EA91E00E94A51586E0F50199
:1037700011928A95E9F7C0CF43130FC092130DC081
:10378000E1100BC0F8018583C8010E94A51586E0F1
:10379000F50111928A95E9F758CFC8010E949F0B55
:1037A0008823D1F2EE20C1F28091A601803238F256
:1037B0002091A1013091A2013A8329831B82DD82ED
:1037C000CC828E83CE010196B8CFE83CF105F8F6A5
:1037D000FE2CEE2009F243131FC092131DC08091EE
:1037E000A60180FD10C0982F907F69F0F8018583B5
:1037F000903F31F0982F907F905F8F70892B858359
:10380000C8010E94A51586E0F801A1EAB1E0019087
:103810000D928A95E1F719CFC8010E949F0B811183
:103820008ECF8091A60181608093A601C8010E947D
:10383000A5150BCFEE2009F48FCFC8010E949F0B76
:10384000F82E882309F488CF86E0F801A1EAB1E0D8
:1038500001900D928A95E1F78091A1019091A201CA
:103860000E94290B0E94821AF0CE81E08E25FBCEA9
:10387000A7E1B0E0EEE3FCE10C940E234B8B5C8BF4
:103880006D8B7E8B8F8B61111092FA011A8A198AC7
:1038900085E0FE017396DE011D9601900D928A95DA
:1038A000E1F786E0FE013D96DE01179601900D924C
:1038B0008A95E1F7CE0107960E94D71A882359F01E
:1038C00016E08091D8019091A701891343C06796B3
:1038D000E3E00C942A2386E0FE013796DE01119680
:1038E00001900D928A95E1F78A859B85892B41F39A
:1038F0008F81988589238F3F19F32091A70130E0AC
:10390000C9010196877099274091D8014817190677
:1039100071F40E94C0101092A7011092D80186E0A5
:10392000E1EAF1E0DF011D928A95E9F7C9CF96E05F
:10393000929FD001939FB00D1124A855BE4FFE0158
:10394000319601900D929A95E1F78093A7010E941C
:10395000EB0AB6CF819FC001112488559E4F0E946B
:10396000D71A882309F4B3CF8091D80190E001964B
:10397000877099278093D801A4CF1F921FB61F92FA
:1039800011248F939F93AF93BF9380917002811105
:1039900013C08091710290917202A0917302B09154
:1039A00074024196A11DB11D809371029093720221
:1039B000A0937302B0937402BF91AF919F918F91C6
:1039C0001F901FBE1F901895CDB7DEB762970FB638
:1039D000F894DEBF0FBECDBF85B7806885BF85B7C1
:1039E000806885BF84B7877F84BF0FB6F894A89599
:1039F00080916000886180936000109260000FBE2B
:103A000080E890E00FB6F894809361009093610095
:103A10000FBE8AED98E090936B0180936A010E943B
:103A2000E3040E94AE058091E20084608093E2008E
:103A3000789480919F028823A1F01091E9001F7073
:103A40009091EC00892F817090FD80E8182B1092E6
:103A5000E9008091E80083FD0E94D6101F7010934A
:103A6000E90082E084BD93E095BD9AEF97BD809315
:103A70006E0005E411E0D8018D918D018F3F11F0AA
:103A80000E94DC08B1E00D341B07A9F70DE411E03A
:103A9000F80181918F018F3F11F00E94DC08F1E065
:103AA00002351F07A9F788E0EEE0F2E0DF01282FDA
:103AB0001D922A95E9F7E1E0F2E0DF011D928A9577
:103AC000E9F790E080E00E948023883E9E4F11F04D
:103AD0000E94950E82E090E00E947223809316026D
:103AE0000E94870E90937602809375020E94F714CD
:103AF000EFEFF6E721E0E150F0402040E1F700C0B1
:103B000000000E94F71480910E0280FF08C06FEF42
:103B10007FEF90E080E00E94A4230E946B0683E088
:103B200090E00E94722390E00E94B91083E080939D
:103B3000440280E28093AC020E94FF216DE070E0BD
:103B40008FEA91E00E94FC0D892BE9F580914402F7
:103B500063E070E081FDEBC08CEA91E00E94FC0D17
:103B6000892B89F56DE070E08CE991E00E94FC0DF5
:103B7000892B49F50E947C06605A75418F4F9F4FF3
:103B8000609364027093650280936602909367026B
:103B9000EFEAF2E080E092E0DF019C011D9221500B
:103BA0003040E1F7F093B604E093B5048FEF9FEF58
:103BB0009093AE028093AD0281E08093690280937E
:103BC00068021092450280910B02811133C090E08F
:103BD00080E00E948023883E9E4F21F00E94950E37
:103BE0000E94690E88E090E00E947A2360935F0251
:103BF0007093600280936102909362026E7F71F411
:103C00000E94690E88E090E00E947A2360935F0230
:103C10007093600280936102909362020E94200779
:103C200080915F0280FF03C086950E94BA0D81E0FB
:103C300080930B0281E0809321023E98469A54982B
:103C40005C9A8FE891E00197F1F700C000002091A5
:103C5000210242E252E0FA018E2F841B821708F4FF
:103C600069C00E94091090934B0280934A020E94FF
:103C7000091090934902809348020E94F30D80E05E
:103C800091E090936D0280936C0260E4662E8091C7
:103C90009F0200E112E1853009F4A2C00E94F714EE
:103CA00057E1E52E52E0F52E0EE012E02FE132E072
:103CB000D801F70191918D912E173F0709F49CC00F
:103CC0009817C1F3D12CD801CD908D01F7019190B7
:103CD0007F019C1419F19C24B12CAA24A394892D52
:103CE0008A21A1F0BC86DD8691E08C2D8A2109F421
:103CF00090E09E870E9409108160782F988B8F87B3
:103D00004C855D856E8588890E94381CB394AA0C09
:103D1000F5E0BF12E4CFF7013197C082D39428E0D9
:103D2000D212D1CF0E947C06EE24E39486C089EAA9
:103D300091E014CF86B186FB882780F94C9904C0A6
:103D400090E0892B819388CF92E0FBCF80919F02F6
:103D5000843009F435C080915F028E7F80935F02CA
:103D60009FEFA0E7B2E09150A040B040E1F700C063
:103D700000000E94880D0E94260E10927002E8E159
:103D8000F0E00FB6F894A895E09360000FBE609243
:103D9000600083B7817F846083BF83B7816083BF06
:103DA0007894889583B78E7F83BF0FB6F894A895D3
:103DB00080916000886180936000109260000FBE67
:103DC00080919E02882361F00E94F714EEE0F2E0F9
:103DD00081918111F4C226E132E02E173F07C1F72D
:103DE00080919F02853009F4B1CF0E94C0100E94DB
:103DF00013070E94F30D52CF981364CF0E9409104D
:103E00008C0180910C0290910D0208171907A1F006
:103E10008FEF8F83888719860E9409108160782F21
:103E20009B878A874F81588569858B850E94381CBE
:103E300010930D0200930C02E12CB12CF12C809117
:103E40002102B81608F487C1F1100E947C06809107
:103E50006902882309F45FC08FEA92E09093B60468
:103E60008093B5048AED91E00E947B0C88ED91E08F
:103E70000E947B0C86ED91E00E947B0C1091230246
:103E8000812F817109F0B7C18FEC91E00E947B0C0A
:103E9000812F847409F0B2C189EC91E00E947B0CFF
:103EA000812F827209F0ADC182EC91E00E947B0CFF
:103EB00018788CEB91E011F08EEB91E00E947B0C76
:103EC00080916902882371F02091AD023091AE0299
:103ED0002115310539F08091450261E070E08823B9
:103EE00009F493C1809168028823A9F00E947C069E
:103EF0000091640210916502209166023091670280
:103F0000601B710B820B930B6F3F7F4F8F4F9F474F
:103F100010F40E94260EE11001C0F1100E94410E23
:103F200086E0E3E5F2E0DE01119601900D928A95BC
:103F3000E1F7109255021092560210925702109219
:103F400058028B819C81892B09F44AC080915102CF
:103F5000909152020E94FA0F9C0190914D02992378
:103F600009F448C225313105D8F19F3F19F09F5F10
:103F700090934D021B81112359F00E9460089FEF1E
:103F800011160CF491E0899F802D11248093550225
:103F90001C81112359F00E9460089FEF11160CF448
:103FA00091E0899F802D1124809356023091550213
:103FB0003323B1F020915602222391F045EB3403D4
:103FC000C0011124992309F4EAC19093550245EBED
:103FD000240390011124332309F4E5C130935602E0
:103FE0008D819E81892B09F44AC080914F02909166
:103FF00050020E94FA0F9C0190914C02992309F4FF
:10400000F4C121353105D8F19F3F19F09F5F90939E
:104010004C021D81112359F00E943E089FEF11169A
:104020000CF491E0899F802D1124809357021E810A
:10403000112359F00E943E089FEF11160CF491E0F5
:10404000899F802D11248093580230915702332389
:10405000B1F020915802222391F045EB3403C001C6
:104060001124992309F4A3C19093570245EB24032B
:1040700090011124332309F49EC13093580246E085
:1040800050E0BE016F5F7F4F83E592E00E946523A1
:10409000892B61F48091550290915602892B909161
:1040A0005702892B90915802892B11F00E9415100C
:1040B00086E0FE013196A3E5B2E001900D928A956B
:1040C000E1F70E94130790914602891721F080932F
:1040D00046020E947C0680914A0290914B020E9407
:1040E000FA0F893E934008F4D2CD0E9409109093B4
:1040F0004B0280934A0280915F0280FFC8CD80917D
:104100004802909149020E94FA0F8131974258F07B
:10411000109147020E94091090934902809348022F
:104120001F5F10934702809147028F3108F4ADCD95
:104130001092470280915F028E7F80935F02EFEFC3
:10414000F0E722E0E150F0402040E1F700C000003D
:104150000E94880D9ACD0B2D10E0E6B1E6FBEE270C
:10416000E0F94C9946C080E08E2BD801AE5DBD4F82
:10417000EC919E2F93708917D1F1EE0FEE0FE82B83
:10418000EC93EF70F0E0EE5AFE4FC801805E9D4F59
:104190006C018081D6019C91890F8C9320E0843042
:1041A0005CF0F801E15EFD4F80818F5F808360E00D
:1041B0008B2D0E948A1421E0F60180818D3F5CF4F2
:1041C000F801E15EFD4F80818150808361E08B2D9D
:1041D0000E948A1421E0D6018C91082E000C990BC4
:1041E00064E070E00E944223F6018083F22AB394D7
:1041F00026CE82E0B9CF81ED91E048CE8BEC91E004
:104200004DCE84EC91E052CE8F5F082F10E02B0151
:10421000082E02C0440C551C0A94E2F7A90144215F
:104220005521452B89F39091440290FD44C082951D
:10423000880F807680930E019801369527953695E4
:10424000279520931101815E80930F011092120136
:1042500024E630E047E050E06CE071E088E70E943F
:104260009F22892B09F03ECEA80195E0440F551FEF
:104270009A95E1F78091440280FD2BC041555D4F36
:1042800004E610E020E230E060E488E70E94C0220B
:10429000892B09F027CE0E94410EC201809590958E
:1042A0004090AD025090AE02482259225092AE0288
:1042B0004092AD0217CE880F880F880F80930E01B1
:1042C00010921101895F80930F0183E080931201A6
:1042D000BFCFE4E2F2E080E2DF011D928A95E9F7C8
:1042E000E6E6F1E0FA8BE98B02E611E087E0A82E22
:1042F00099249394A989BA892D91BA8BA98BF80135
:1043000021908F01240E352E311CC10181559D4F06
:104310001C01E22FF0E0EC5DFD4F30E020E07A2C54
:10432000721AB92C022E01C0BB0C0A94EAF7610183
:1043300090E0D6018D916D018B21672D691B67700F
:10434000862E062E000C770BB82F01C0BB0F8A9467
:10435000EAF78B2E7195619571096770772701C017
:1043600086956A95EAF7882A8081882A80829F5FED
:104370009830F9F62F5F3F4F31962830310579F6A6
:10438000EAE6F1E029893A89E217F30709F0B2CFAA
:1043900004E610E020E230E044E252E075CF81E034
:1043A0008093550214CE81E08093560219CE81E0AD
:1043B000809357025BCE81E08093580260CE09BDA6
:1043C00019BD09B400FEFDCF8091D8008F7D809388
:1043D000D8008091E00082608093E0008091E0004E
:1043E00081FDFCCF0E94C010FBCC2B30310508F0C2
:1043F0000DCE45CE2B30310508F0B9CDF1CD109260
:10440000B9008CE08093B8000895B0E0A0E0EBE044
:10441000F2E20C940623B82EEB010E9409106C0105
:10442000EE24E394F12CC431D10560F025E0E22EB6
:10443000F12CCF3FDC0731F0CE0164E170E00E9447
:10444000EB227B0184EAA82E94E8992E1092BC00FE
:10445000A092BC000E9409108C018091BC0087FFD3
:104460000DC08091B900887F8830F9F08091B90043
:10447000887F8031D1F00FEF1FEF08C0C8010E9484
:10448000FA0FE816F90648F70EEF1FEFCF3FDC07EB
:10449000E9F2C6010E94FA0FC817D907B8F6C80199
:1044A000CDB7DEB7EBE00C942223B092BB00909224
:1044B000BC000E9409108C018091BC0087FF0AC0DB
:1044C0008091B900887F883111F08034A1F610E026
:1044D00000E0E5CFC8010E94FA0FE816F90660F780
:1044E000D3CF0F931F93CF93DF93EB018093BB0048
:1044F00084E88093BC000E9409108C018091BC006C
:1045000087FF11C02091B900287F81E090E0283218
:1045100011F490E080E0919581959109DF91CF9120
:104520001F910F910895CF3FDC0741F3C8010E940E
:10453000FA0FC817D90710F78EEF9FEFEFCFB0E053
:10454000A0E0E5EAF2E20C9409236B018A0179010B
:10455000B9010E940522E6010C0D1D1DC017D107EF
:1045600011F097FF08C024E92093BC00CDB7DEB757
:10457000E8E00C942523B70189910E947122EECFC7
:10458000B0E0A0E0E6ECF2E20C940923C62F6A0149
:104590007901B8010E94052297FD0CC0B8018C2F4B
:1045A0000E947122E601EC0CFD1CCE15DF0511F016
:1045B00097FF08C024E92093BC00CDB7DEB7E8E040
:1045C0000C942523B80189910E947122EECF84E9D1
:1045D0008093BC000895AA1BBB1B51E107C0AA1F12
:1045E000BB1FA617B70710F0A61BB70B881F991F94
:1045F0005A95A9F780959095BC01CD0108952F9209
:104600003F924F925F926F927F928F929F92AF9262
:10461000BF92CF92DF92EF92FF920F931F93CF93AF
:10462000DF93CDB7DEB7CA1BDB0B0FB6F894DEBF46
:104630000FBECDBF09942A88398848885F846E846C
:104640007D848C849B84AA84B984C884DF80EE80B6
:10465000FD800C811B81AA81B981CE0FD11D0FB6BF
:10466000F894DEBF0FBECDBFED010895991B79E030
:1046700004C0991F961708F0961B881F7A95C9F7F2
:104680008095089597FB072E16F4009407D077FDC8
:1046900009D00E94EB2207FC05D03EF4909581954D
:1046A0009F4F0895709561957F4F0895EE0FFF1FFE
:1046B0000590F491E02D0994FB01DC0102C0059006
:1046C0000D9241505040D8F70895FB01DC0104C021
:1046D0008D910190801921F441505040C8F7881BFA
:1046E000990B0895F999FECF92BD81BDF89A99274B
:1046F00080B50895A6E1B0E044E050E00C94AC230E
:10470000A8E1B0E042E050E00C94AC23262FF999E8
:10471000FECF92BD81BDF89A019700B4021639F020
:104720001FBA20BD0FB6F894FA9AF99A0FBE0895F1
:104730000396272F0E9487230E948623252F0E94FD
:104740008723242F0C9487230196272F0E948723E9
:104750000C948623DC01CB01FC01F999FECF06C045
:10476000F2BDE1BDF89A319600B40D92415050402F
:10477000B8F70895F894FFCFB511DD117513DD1169
:1047800075131012311275132E133B133118311893
:104790006A186A180C192619981898183119B91935
:0447A000C819C81953
:1047A4006806480D270D220D1D0D67060021007FA8
:1047B40022000301818283E200E900EA00B500B629
:1047C40000B700CD008301CC008A0192019401213D
:1047D40002230224022502260227022A02B300B47D
:1047E400006F00700031333236F4F5F6F792353449
:1047F400C69700FF0100010000FFFF000001000157
:0A480400FF0000081018181008004B
:00000001FF
